:020000040800F2
:10000000000003205D060008552200085722000862
:10001000592200085B2200085D2200080000000051
:10002000000000000000000000000000C1660008A1
:100030005F2200080000000051670008CD5F000843
:10004000AD060008AD060008AD060008AD060008C4
:10005000AD060008AD060008AD060008AD060008B4
:10006000AD060008AD060008AD060008AD060008A4
:10007000AD060008AD060008AD060008AD06000894
:10008000AD060008AD060008AD060008AD06000884
:10009000AD060008AD060008AD060008AD06000874
:1000A000AD060008AD060008AD060008AD06000864
:1000B000AD060008AD060008AD060008AD06000854
:1000C000AD060008AD060008AD060008AD06000844
:1000D000AD060008AD060008AD060008AD06000834
:1000E000AD060008AD060008AD060008AD06000824
:1000F000AD060008AD060008AD060008AD06000814
:10010000AD060008AD060008AD060008AD06000803
:10011000AD060008AD06000861220008AD06000823
:10012000AD060008AD060008AD060008AD060008E3
:10013000AD060008AD060008AD060008AD060008D3
:10014000AD060008AD060008AD060008AD060008C3
:10015000AD060008AD060008AD060008AD060008B3
:10016000AD060008AD060008AD060008AD060008A3
:10017000AD060008AD060008AD060008000000004E
:10018000AD060008AD060008AD060008AD06000883
:10019000AD060008AD060008AD060008AD06000873
:0C01A0006D220008AD060008792200085E
:1001B00010B5054C237833B9044B13B10448AFF3A1
:1001C00000800123237010BD800300200000000088
:1001D000F427020808B5034B1BB103490348AFF3EA
:1001E000008008BD0000000084030020F4270208FE
:1001F00001F0FF01102A2BDB10F0070F08D010F8D8
:10020000013B013A8B422DD010F0070F42B3F6D1DB
:10021000F0B441EA012141EA014122F007047FF0F4
:1002200000070023F0E80256083C85EA010586EA4B
:10023000010685FA47F5A3FA87F586FA47F6A5FA87
:1002400087F68EB9EED1F0BC01F0FF0102F0070293
:1002500032B110F8013B013A83EA010313B1F8D13E
:100260000020704701387047002D06BF354603381F
:10027000073815F0010F07D1013015F4807F02BF58
:10028000013015F4C03F0130F0BC0138704700BFA9
:100290007BB972B90029BEBF00204FF0004106E0D3
:1002A00008BF00281CBF6FF000414FF0FF3000F086
:1002B000D3B9ADF1080C6DE904CE002909DB002BA0
:1002C0001ADB00F04DF8DDF804E0DDE9022304B0AC
:1002D0007047404261EB4101002B1BDB00F040F80E
:1002E000DDF804E0DDE9022304B0404261EB4101A6
:1002F000524263EB43037047524263EB430300F007
:100300002FF8DDF804E0DDE9022304B0404261EBA0
:1003100041017047524263EB430300F021F8DDF8DE
:1003200004E0DDE9022304B0524263EB430370476B
:1003300053B94AB9002908BF00281CBF4FF0FF314C
:100340004FF0FF3000F088B9ADF1080C6DE904CE34
:1003500000F006F8DDF804E0DDE9022304B07047A0
:100360002DE9F047089D8E4604468846002B4AD169
:100370008A42174662D9B2FA82F64EB1C6F120031C
:1003800001FA06F820FA03F3B74043EA0808B4403C
:100390004FEA174E1FFA87FCB8FBFEF1230C0EFB49
:1003A000118843EA084301FB0CF29A4209D9FB1871
:1003B00001F1FF3080F0EA809A4240F2E780023992
:1003C0003B449A1AA3B2B2FBFEF00EFB102243EAA2
:1003D000024300FB0CFC9C4509D9FB1800F1FF32DD
:1003E00080F0D6809C4540F2D3803B44023840EAFE
:1003F0000140A3EB0C0300211DB1F3400022C5E92D
:100400000032BDE8F0878B4205D90DB1C5E9000186
:1004100000210846F5E7B3FA83F1002946D1734578
:1004200002D3824200F20581841A6EEB030201209E
:100430009046002DE5D0C5E90048E2E7002A00F02B
:100440009080B2FA82F6002E40F0A4808A1A030C43
:100450004FEA174E80B2BCB20121B2FBFEFC0EFB8C
:100460001C2243EA024304FB0CF29A4207D9FB1810
:100470000CF1FF3802D29A4200F2E080C4469B1A87
:10048000B3FBFEF20EFB123340EA034302FB04F41B
:100490009C4207D9FB1802F1FF3002D29C4200F2C5
:1004A000CA8002461B1B42EA0C40A5E7C1F12006A8
:1004B0008B4022FA06F71F430EFA01F420FA06F3E6
:1004C0002EFA06FE4FEA1749234300FA01F81FFAF5
:1004D00087FCBEFBF9F01C0C09FB10EE44EA0E444D
:1004E00000FB0CFEA64502FA01F209D93C1900F105
:1004F000FF3A80F09C80A64540F2998002383C4447
:10050000A4EB0E041FFA83FEB4FBF9F309FB1344BA
:100510004EEA044403FB0CFCA44508D93C1903F142
:10052000FF3E80F08280A4457FD9023B3C4443EAF1
:100530000040A4EB0C04A0FB02EC64457346E146CA
:1005400062D35FD05DB1B8EB030264EB090404FA37
:1005500006F622FA01F31E43CC40C5E900640021EF
:100560004FE7B1FBF2FC010C41EA0E4180B240EAD8
:1005700001423B4638463C46B846BE462026B1FBC3
:10058000F7F1A2EB080241EA0C4166E7014618E7E1
:1005900010462CE7C6F120022EFA02F3B740B14014
:1005A00020FA02F24FEA174E0A43B3FBFEF8BCB240
:1005B0000EFB1833110C41EA034108FB04F9B0406B
:1005C00089454FEA104380B23ED9791808F1FF3CC3
:1005D00001D289451FD8A1EB0901B1FBFEF909FB46
:1005E00004F80EFB191192B242EA0142424529D2A7
:1005F000BA1809F1FF31C4D24245C2D2A9F10201B1
:100600003A44BEE7F0459DD2BEEB02036CEB070C0B
:100610000138E14696E7A7EB09094944A8F1020C25
:10062000B1FBFEF909FB04F8DBE773467FE75046B0
:1006300066E70846FDE63B44023A33E7ACF1020CBC
:100640003B441CE749469CE7A1EB0901C446B1FBCA
:10065000FEF909FB04F8C4E7704700BFDFF834D0A7
:10066000002103E00C4B5B58435004310B480C4B0A
:1006700042189A42F6D30B4A02E0002342F8043BA8
:10068000094B9A42F9D303F023FA21F045FB01F01C
:100690007BF8704700000320741E0808000000204B
:1006A0006401002080030020B4340120FEE770477D
:1006B00008B500F0B9FDBDE8084000F03DBD00F010
:1006C000B5BD704710B5042104461FF0EAFF20466F
:1006D00010BD000038B50C4B0C4C18800C4B822020
:1006E00019806368984740F6110398420AD1094D72
:1006F00023682C60822098472B688220DB6898470B
:10070000002038BD0120FCE7A60300204C0000209B
:10071000A4030020A80300204FF4A071F020FFF7ED
:10072000D9BF0000F7B5394D2B6804461B698220FC
:100730009847208000284ED02B680DF106025B6997
:1007400001A982209847324B1B78002B4BD0BDF873
:10075000062040F674639A423FD9ADF80630BDF8E2
:1007600006209B1A9BB20A2B42D90B22B3FBF2F351
:10077000284A1288934201D9013A93B2BDF8042065
:10078000254840F6B8318A4234D8C2F571620E323B
:10079000016892B20F25B2FBF5F2204D2D88AA42D6
:1007A00084BF05F1FF35AAB28A4215468EB22AD916
:1007B000921B91B21A4E3768BB42BAB28CBF9A1ADA
:1007C000D21A92B211440529C4BF05603360036890
:1007D00063803368A38003B0F0BDB32A9CBFB4220A
:1007E000ADF80620BBE7BDF80630A3F5B473B9E752
:1007F0000023C3E7C2F56D62083292B20E2A016887
:10080000C8D800252A46891A89B2D3E7A803002050
:1008100034170020A4030020A0030020A60300201A
:100820009C03002037B568460D461446FFF77AFF53
:10083000BDF8000030B1BDF802302B60BDF80430C7
:100840002360012003B030BD032821D8DFE800F089
:10085000020B12190F4B1A68B2FA82F252090421E4
:100860000D4803F0C9BB0B4B5A68B2FA82F2520929
:100870000821F5E7074B9A68B2FA82F25209102173
:10088000EEE7044BDA68B2FA82F252092021E7E778
:10089000704700BFAC03002000100240032821D89D
:1008A000DFE800F0020B12190F4B1A68003A18BF6C
:1008B000012204210D4803F09FBB0B4B5A68003AFC
:1008C00018BF01220821F5E7074B9A68003A18BFC4
:1008D00001221021EEE7044BDA68003A18BF01222A
:1008E0002021E7E7704700BFAC0300200010024062
:1008F00003280DD8DFE800F00206080A04210548A5
:1009000003F07FBB0821FAE71021F8E72021F6E782
:10091000704700BF0010024008B5032811D8DFE877
:1009200000F0020A0C0E0421074803F05FFB431E8F
:100930005842584108BD0821F6E71021F4E720216C
:10094000F2E70020F3E700BF0010024070B5084D49
:1009500000240126E0B2FFF7DFFF18B12B68012B5E
:1009600018BF2E600134052C05F10405F2D170BDCD
:10097000AC030020012380F8781080F879307047AC
:100980007047002070470000034B4164003918BFD6
:1009900001211970704700BF7327012070470020A4
:1009A0007047836B0BB10846184770474FF6FF70CE
:1009B0007047406803689B691847704770477047E5
:1009C0007047704710B5044600F046FD23680349A0
:1009D000D3F890302046BDE810401847000000D002
:1009E00008B503680446D3F8843098472368204646
:1009F000DB6F984700F0ECF8236820465B6F984760
:100A0000292001F047F900F0E3F8236820465B6FE6
:100A10009847F8E710B5044608F068FC23682046BC
:100A2000D3F8BC30BDE81040184700F0F9BC00F026
:100A3000FDBC00F02FBD00F0CFBC00F03FBD00F0CA
:100A400047BD00F0D3BC07F07FBE10B5842104463B
:100A50001FF027FE204610BD10B590F8341090F816
:100A600078400C4B8C421A7809D03AB90A4A0B49A3
:100A70001488088810800C8001221A7010BD002A8A
:100A8000FCD0054A05491488088810800C80002293
:100A9000F3E700BF6C270120682701206A270120A7
:100AA00070B50D46194635B9094B0A4A0A4840F255
:100AB000FF2120F081FEC0E90F52084B003A18BF19
:100AC00001221A700368BDE87040D3F890301847CF
:100AD000642802089C280208EA28020872270120DC
:100AE00008B5094B1B888B4203D8084B1B889342DF
:100AF00005D9074B074A0848A32120F05DFE074BA4
:100B00001980074B1A8008BD682701206A27012039
:100B10002F29020892290208EA2802086E270120DC
:100B200070270120034690F87A0018B158680368CE
:100B30001B68184770470000012108B500220846CD
:100B400005F0CEFA0A4B186028B90A4B0A4A282148
:100B50000A4820F031FE00220421012005F068FB44
:100B6000074B186018B9074B034A2C21F0E708BD62
:100B7000C0030020D52902081E2A02084D2A0208B7
:100B8000BC030020982A0208024B4FF0FF3118687E
:100B900005F0F0BAC0030020014B186805F016BB41
:100BA000C0030020024B0021186805F0E3BA00BF23
:100BB000C0030020FFF7F0BF03480449006800238A
:100BC0001A4605F070BB00BFBC03002004000020E3
:100BD00013B5084C00231A4601A9206805F094FBC0
:100BE00020684FF0FF33002201A905F08DFB02B011
:100BF00010BD00BFBC03002003685B6C18470120D8
:100C0000704703689B6A1847FEE740F2EF30704771
:100C1000054B0360054B4FF08062C3F88820BFF39B
:100C20004F8FBFF36F8F70476834020800E100E018
:100C300010B504464FF45A61FFF7EAFF20461FF053
:100C400030FD204610BD000082B0002301930E4B02
:100C50001A6B42F400021A631A6B02F4000201924A
:100C6000019A1A6942F400021A611A6922F4000218
:100C70001A61064B064A1A61064A5A61064B4FF042
:100C800080629A6002B0704700380240C8180020A5
:100C9000E90E0008090C000800E100E008B50A2888
:100CA00009D8DFE800F006100E0808080810101038
:100CB0001000022008BD054B054A0648902120F08F
:100CC0007BFD0020F6E70120F4E700BFDA2A0208E6
:100CD000F52A0208402B020838B50C46887FFFF73A
:100CE000DDFFA58AE28A164B2169586342EA054274
:100CF0005A64628BD963521B1A642568082D0ED181
:100D00009A611A615862207F0E4A42EA0062DA61F3
:100D1000E2681A620C4A5961D9601A6038BD002233
:100D2000D8611A61E1680A0A480902F4784200F4BD
:100D3000FC600243C1F3C4010A439A63034AECE72F
:100D400000B002400900010001230200012303005A
:100D500008B50B280BD8DFE800F00612100A0A0AC3
:100D60000A0808080808022008BD0520FCE7054B12
:100D7000054A06486F2120F01FFD0020F4E70120FE
:100D8000F2E700BFDA2A0208892B0208402B02088A
:100D90002DE9F04191F81D800C464046FFF7D8FF41
:100DA000A77F05463846FFF7D3FF06463846FFF7CC
:100DB00075FFA18A628B444B521A1A649A61228B86
:100DC000521A1A61E28A586342EA01425A6421695E
:100DD0006268D963DA602068802828D0227F0FD823
:100DE000202867D0402865D004281AD0364B45EA21
:100DF000026545F40035B845DD6161D0334A44E011
:100E0000B0F5807F04D0B0F5007FEFD1304800E02E
:100E1000304840EA0262DA61E2681A625E62596151
:100E200032E045EA026242F40032DA61F6E7A06895
:100E3000021DDA62227F45EA026545F40035DD6174
:100E40005E625961017841B1012921D0224B234AC8
:100E500023484FF48D7120F0AFFCDA69418822F409
:100E60007F42013922F0100242EA0122DA610121B7
:100E7000154BDA6942F02002DA61DA699206FCD495
:100E800010229A600029B9D0164A1A60BDE8F08194
:100E9000B2F1FF01DA69408822F47F4200F1FF30AD
:100EA00022F0100242EA002242F0100218BF012193
:100EB000DA61DDE745EA0262034B42F40032B4E74F
:100EC00042F20132E1E700BF00B00240012301001D
:100ED000090002000A000200D32B0208ED2B0208D1
:100EE000402B020801230200024B1B68586803686C
:100EF0005B6918477427012070B5044625460A4BE4
:100F00000C30002660602672667245F8203B602235
:100F1000294608F041FB04F55A63EE6024359D42F2
:100F2000FBD1204670BD00BF68340208034B1A682D
:100F3000D207FCD423229A60704700BF00B0024061
:100F40007047000030B50F4C2568ED07FCD4232511
:100F50000904A56041F001010225FF2B656361646E
:100F6000E0630AD00849656241EA0363E361074B25
:100F700022626061E060236030BDE561039BA36392
:100F8000034BF8E700B00240090001000100020035
:100F90000100030030B50E4C2568ED07FCD4232575
:100FA0001204A56042F001020225FF2B6563626412
:100FB000E063E16008D01B0643F00213E361054BD8
:100FC00065626061236030BD034BE3610123F9E793
:100FD00000B0024001000200020002FF30B50B4CDD
:100FE0002568ED07FCD4232512041B06A56043F4F5
:100FF0000033022542F0010265636264E063E16050
:10100000E361034B65626061236030BD00B0024064
:1010100001000200012070474020704700EB811062
:101020000830704700EB811008307047012070478E
:101030004FF4F87070474FF4F87303FB0100083069
:1010400070474FF4F87303FB01000830704701202C
:1010500070471020704700EB01100830704700EB1C
:10106000011008307047084601F034BC10B5034B3E
:101070000360044607F0BFF8204610BD2035020883
:1010800010B50446FFF7F2FF204648211FF009FB88
:10109000204610BD10B5034B0360044607F0ABF8C3
:1010A000204610BDEC34020810B50446FFF7F2FFED
:1010B00020464FF4FC711FF0F4FA204610BD0000EA
:1010C00010B5034B0360044607F095F8204610BDA9
:1010D000B834020810B50446FFF7F2FF2046182185
:1010E0001FF0DFFA204610BD10B5084B0360044620
:1010F00000F50970FFF7BAFF04F12C00FFF7CAFFF3
:1011000004F11400FFF7DCFF204610BD543502083F
:1011100008B50248FFF7E8FF08BD00BF9C12002099
:1011200010B50446FFF7E0FF20464FF473711FF03F
:10113000B8FA204610BD00002DE9F34101F010F986
:10114000054601F011F900240146234628462246AF
:10115000009410F049F9274B274A1A60204602F004
:1011600079F8264D264B274A27489A6010F0A4F8B4
:101170002B68BFF35B8FDB0735D428461FF093FA4B
:1011800088B3224C224B236004F51C7604F1140032
:1011900004F12C0804F509776060C4F80880E76062
:1011A000266107F029F81B4B6361404607F024F8DD
:1011B000194BE362384607F01FF8184BC4F8243285
:1011C00004F51B7002F0BCF8224604F51B71304692
:1011D00002F0ACF8304601F07DFB114820F00AFB2C
:1011E00028461FF06CFA0F4802B0BDE8F041FFF747
:1011F000E9BB00BFD8270120480400209812002036
:10120000680400204C040020080000209C120020EC
:1012100054350208B8340208EC34020820350208BC
:1012200011110008C4030020704700000148FFF7B7
:10123000D7BB00BFC403002070B5264E264C274DF7
:10124000274B23603046FFF757FE284615F0D2F9AA
:1012500024480EF00FF8244B2448DC6000224FF4A1
:101260008071C3E9121222491A86C3E91A12214970
:1012700083F85820C3E91E011F49C3F880101F4995
:101280001F480B60F021C3E90422C3E90622C3E929
:101290000822C3E90A22C3E90E22C3E91022C3E9E6
:1012A0001422C3E917225A6683F870205A67C3E9EB
:1012B000016501801348018013484FF4A07101803B
:1012C0001248018012490A70012283F83420114A21
:1012D0001A6070BDF40400209412002068040020FD
:1012E000542802084C040020C4030020000001011F
:1012F00001000001000450001A00140074270120AE
:10130000682701206E2701206A270120702701200D
:101310006C2701207C3302080148FFF779BC00BF2D
:10132000F40400200020704781807047C18070471E
:10133000018170474181704770477047704770471F
:10134000704710B4C4880368121B84885B6D091B46
:1013500012B25DF8044B09B218474FF6FF73838150
:101360004FF0FF3303621368C361106070470020C1
:1013700070478B88838001207047704780F8261063
:10138000704790F82600704710B50022B1F9084068
:10139000B1F90A10028042808480C18010BD002211
:1013A000028042808280C28070470177704780ED62
:1013B000080A704780F82410704780F8251070479D
:1013C00001207047983070478C30704784307047E8
:1013D0007047704770470000034B902283F85A23F0
:1013E00083F85823704700BF00E100E0094A0A492A
:1013F000D3680A48C3F30A03013B9BB20B8011690F
:10140000C1F30A01013901801364536B43F00103F6
:1014100053637047006801406A1600206816002078
:10142000014BD3F8AC00704700680140024B012229
:10143000C3F8AC105A6270470068014010B52C2107
:1014400004461FF02EF9204610BD10B5BC210446FD
:101450001FF027F9204610BD70B5044607F0C9F902
:1014600023689D6E0CF09EFC01462046A847236829
:10147000054AD3F88C502046AC460023BDE87040A6
:10148000A2F51631604700BF00B004D007F098B94C
:1014900007F0A2B907F05EB907F0CDBA90F82520A1
:1014A00012B103685B691847704790F825201AB19C
:1014B00090F8242002B1186070470000034B4FF0F1
:1014C00080629A604FF080729A60704700E100E09D
:1014D000084B4FF08062C3F88820BFF34F8FBFF3F3
:1014E0006F8F4FF08072C3F88820BFF34F8FBFF328
:1014F0006F8F704700E100E070B50023124E8380CB
:10150000124B0360336893F8582005460AB1D86C33
:1015100000B998680368DB6A98473368B0FA80F4CA
:10152000D86C640930B10368DB6A9847002808BFAB
:1015300044F001042CB9064B064A07482C2120F040
:101540003BF9284670BD00BF7427012068350208AA
:101550002B2C0208892C0208C22C020870B5254EDB
:101560003568BFF35B8F15F0010540D130461FF0A1
:101570009AF800283BD0204C204B256104F1340020
:10158000C4E90035C4E90255E584A562A5850EF0DD
:1015900056F904F1580009F0B3FC194BA365204635
:1015A000184B40F8843BFFF7A7FF174BC4F8843073
:1015B0002433C4F88C304FF4C803C4E92835002321
:1015C000C4F8AC30C4F8B030C4F8B430C4F8B830A3
:1015D0000E480F4BC4F89050C4F89C50C4F8A85063
:1015E000C4F8983020F006F930461FF068F8024839
:1015F00070BD00BF6C16002070160020803C0208F1
:101600008835020800360208343C0208D513000869
:10161000143C020838B5184C23685BB3174B184AC2
:101620001B6C11888B4216D1164B198803F0ECFA0B
:10163000236893F86A200025013283F86A2083F832
:101640007C50FFF7B9FA206807F050FE2846BDE845
:101650003840FFF7F9B803F0D7FA2468236820462A
:101660001B6A9847012384F87C300020BDE838408D
:10167000FFF714B938BD00BF74270120006801408E
:101680006A1600206816002007B5064BADF8060064
:101690001B68054801220DF1060104F055F803B05E
:1016A0005DF804FB0C0000207417002037B50D4DC9
:1016B0000D4C0121284602F099FC01280ED120682A
:1016C00004F052FE012809D850238DF80730206815
:1016D0000A2300220DF1070104F0E5FD012004F0CA
:1016E000F3FCE6E7000002403017002030B595B06B
:1016F000102200210AA820F066FA1422002103A873
:1017000020F061FA00241E4B01941A6C42F08052C2
:101710001A641B6C03F080530193019B194B0294D4
:101720001A6842F440421A601B6803F44043029373
:101730000122029B4FF48033CDE9082302254FF4A8
:1017400080030821CDE90E534FF4B473CDE9101393
:1017500008A804231393129503F0AEFA03F072FA6B
:101760000F23CDE903354FF4A0504FF48053CDE95A
:101770000603052103A8059403F07AFC15B030BDDB
:10178000003802400070004080B59AB002F0AEF917
:10179000FFF7ACFF142200210DA820F014FA00245A
:1017A000C84B00941A6BC848C84DDFF8588342F004
:1017B00010021A631A6B02F010020092009A019450
:1017C0001A6B42F020021A631A6B02F02002019297
:1017D000019A02941A6B42F080021A631A6B02F0AB
:1017E00080020292029A03941A6B42F004021A6376
:1017F0001A6B02F004020392039A04941A6B42F0EB
:1018000001021A631A6B02F001020492049A059411
:101810001A6B42F002021A631A6B02F0020205927E
:10182000059A06941A6B42F040021A631A6B02F092
:1018300040020692069A07941A6B42F008021A6355
:101840001B6B03F00803224607933C21079B02F021
:10185000D3FB9F480122022102F0CEFB22469C4886
:10186000042102F0C9FB22469A484FF4405102F08D
:10187000C3FB01263C23CDE90D3693480F94032387
:101880000DA90227109302F0CDFA91480DA9CDE9D8
:101890000D76CDE90F4402F0C5FA04238C480DA95A
:1018A000CDE90D36CDE90F4702F0BCFA4FF48813AD
:1018B00089480D960DA9CDE90E3402F0B3FA0DA9B1
:1018C0004FF440538348CDE90D36CDE90F4702F080
:1018D000A9FA8248824B036002F09AF9DFF828E205
:1018E000804B2C62C5E900E328464FF48043C5E9EC
:1018F0000434C5E90244C5E9064402F08BFD102119
:10190000284602F0CFFF21462846774D02F0E9FF36
:101910004FF48273C5E900834FF400791823C5E9B9
:10192000069328460A23C5E90244C5E90444C5E9EB
:101930000844AC62EB6203F0ABFE8F2322463946CB
:1019400063488DF824308DF8344002F055FB324660
:101950004FF47A7309A9284603F0F6FE4FF47A7320
:1019600032460DA9284604F09BF8324639465848BD
:101970005E4D02F041FB9DF83430D32B04BF5C4B2D
:101980001E705C4B0126C5E900361022402300245E
:10199000C5E904234FF4C073C5E906344FF400636E
:1019A000C5E908344FF4005302274FF00409AB6235
:1019B0004FF0030A07230DA92846CDE90D73CDE9A1
:1019C0000F934FF00808C5E90249CDE911A7139715
:1019D00003F042FD4FF6FF7209A92846CDE90A86B9
:1019E000089409960C9403F057FD304602F0AAF8CB
:1019F0004FF6FF7209A92846CDE90978CDE90B64B5
:101A000003F04AFD4FF6FF7209A92846CDE909A85F
:101A1000CDE90B9403F040FD4FF40C730893089B41
:101A20000C934FF6FF7209A92846CDE909980B9649
:101A300003F032FD40F26A51284603F04BFD342298
:101A40000DEB0200214620F0BEF82B4D2B4B2C61F4
:101A5000C5E900340923C5E905361D23C5E9073A60
:101A600040F20D1140F24313C5E9091340F217107B
:101A700040F24713C5E90B032846C5E90244AC868A
:101A800085F8364002F0C8FFFF214FF4806CF02249
:101A9000CDE912140521CDE914C14FF4A0730DA9AD
:101AA000CDE90E24CDE9164228462246144D18935E
:101AB000CDE910370D94ADF864408DF8664003F021
:101AC00076F823E00038024000100240741800202D
:101AD00000080240000C02400000024008190020EB
:101AE00000300240A086010074170020401700203B
:101AF00034170020400100A0CC17002000680140EE
:101B00002C17002000500140005C00401A4B2B6055
:101B10001B6898472B68194DDB689847184B284677
:101B2000C5E90034C5E90274C5E90A47C5E90C44B2
:101B300002F07EF83146284602F030F9FEF7B8FD93
:101B4000FEF7B5FD04F050FA0E4A3146404604F067
:101B50006FFB0D4B0D4A186021460D4804F070FADA
:101B60000C4B0D4A186021460C4804F069FA0C4BE6
:101B7000186004F04BFAFEE714000020C81800209B
:101B800000B00240443602083017002080360208B8
:101B9000AD1600083C1700205C360208BF0600089E
:101BA00038170020704770477FB5094B8DF8172014
:101BB0001B6802930DF117020123009201930A465C
:101BC0000146044802F0CEFC07B05DF804FB00BFFC
:101BD00010000020741800207FB500238DF8173006
:101BE000084B1B6802930A4601230DF1170100916F
:101BF00001930146044802F045FD9DF8170007B027
:101C00005DF804FB10000020741800201FB5084C7C
:101C100024680092CDE901340A46012301460548B3
:101C200002F030FD003818BF012004B010BD00BF25
:101C3000100000207418002001F084BF10B5064C7D
:101C400000222046042102F0D7F920460122BDE8F7
:101C50001040042102F0D0B90008024038B50B4D05
:101C6000044601220A484FF4005102F0C5F900224F
:101C70000421284602F0C0F92046FFF705FD28465A
:101C80000122BDE83840042102F0B6B90008024044
:101C9000000C024038B50B4D044600220A484FF4B0
:101CA000005102F0A9F900220421284602F0A4F90B
:101CB0002046FFF7E9FC28460122BDE83840042110
:101CC00002F09AB900080240000C0240F7B5144E29
:101CD000144F05460C4630460022042102F08CF9D0
:101CE00000224FF40051384602F086F92846FFF7EB
:101CF000CBFC0D4B0D481B68224601A903F0D0FE1A
:101D0000384601224FF40051019C02F075F930462B
:101D10000122042102F070F9204603B0F0BD00BF9B
:101D200000080240000C02400C0000207417002044
:101D300001F008BF0268034B9A4201D101F0F0BEE6
:101D4000704700BF001000407047000082B00E4B8B
:101D500000220092596C41F480415964596C01F49D
:101D60008041009100990192196C41F080511964F1
:101D70001B6C03F080530193019B0F216FF0010056
:101D800002B001F005BF00BF003802400268094BF5
:101D90009A4282B00BD100230193074B1A6B42F495
:101DA00080521A631B6B03F480530193019B02B0B2
:101DB000704700BF003002400038024007B50F4BAB
:101DC00002689A4216D10022A3F5F0430192196BE2
:101DD00041F4000119631B6B03F400030193052117
:101DE0005A20019B01F0D4FE5A2003B05DF804EBA9
:101DF00001F000BF03B05DF804FB00BF00B002407B
:101E00002DE9F043044689B01422002103A81FF0F5
:101E1000DAFE2268244B9A4243D1244C2448002500
:101E20000095236B43F004032363236B03F0040347
:101E30000093009B0195236B43F001032363236B05
:101E400003F001030193019B4FF012094FF400735B
:101E50004FF001080327042603A9CDE90339CDE992
:101E60000587079601F0DEFF4FF48073114807964F
:101E700003A9CDE90339CDE9058701F0D3FF029528
:101E8000236C43F400032364236C03F400030293E4
:101E9000029B236A43F400032362236A23F40003B2
:101EA000236209B0BDE8F083005C004000380240C6
:101EB0000008024000000240F0B599B00446142228
:101EC000002107A81FF07FFE30220DEB0200002149
:101ED0001FF079FE22685E4B9A4240F0B7800823DB
:101EE0000C93C0231093042312930CA84FF40033D7
:101EF000159303F085F908B1FFF726FF554B5648B7
:101F0000002400945A6C42F080625A645A6C02F0C9
:101F100080620092009A01941A6B42F020021A63C8
:101F20001A6B02F020020192019A02941A6B42F09D
:101F300001021A631A6B02F001020292029A0394E0
:101F40001A6B42F002021A631A6B02F00202039249
:101F5000039A04941A6B42F040021A631A6B02F05F
:101F600040020492049A05941A6B42F004021A6328
:101F70001A6B02F004020592059A06941A6B42F05D
:101F800008021A631B6B03F00803069302250E2652
:101F9000069B0B964FF4806307A9CDE90735CDE981
:101FA000094501F03FFF41F658032C480B9607A95D
:101FB000CDE907350927CDE9094501F033FF0323B2
:101FC00027480B9707A9CDE90735CDE9094501F069
:101FD00029FF4FF4706322480B9607A9CDE9073516
:101FE000CDE9094501F01EFF4FF40C631D480B9627
:101FF00007A9CDE90735CDE9094501F013FFC02355
:1020000019480B9607A9CDE90735CDE9094501F037
:1020100009FF082315480B9607A9CDE90735CDE937
:10202000094501F0FFFE4FF4A0530E480B9707A996
:10203000CDE90735CDE9094501F0F4FE58202246E7
:10204000052101F0A5FD582001F0D4FD19B0F0BD27
:1020500000680140003802400014024000000240C5
:10206000000402400018024000080240000C024038
:1020700010B5044688B01422002103A81FF0A3FD68
:102080002268144B9A4223D103F568430021019141
:102090005A6C114842F480125A645A6C02F480124D
:1020A0000192019A02911A6B42F020021A631B6B93
:1020B00003F020030293029B4FF46072022303217A
:1020C000CDE903230523CDE9061303A901F0AAFEF8
:1020D00008B010BD00500140001402402DE9F0414D
:1020E00086B0002303932B4B1C68002C4FD14FF07C
:1020F0000108C3F80080284B00949A6B274842EAF5
:1021000008029A639B6B03EA0803009302270326E5
:102110000C25009B01A94FF63F03CDE90137CDE91E
:10212000046501F07FFE1E48059501A9CDE90187F0
:10213000CDE9034601F076FE48F2331319480595C0
:1021400001A9CDE90137CDE9034601F06BFE4FF659
:1021500083731548059501A9CDE90137CDE90346FB
:1021600001F060FE4CF203731048059501A9CDE91A
:102170000137CDE9034601F055FE60230C48059573
:1021800001A9CDE90137CDE9034601F04BFE06B0C8
:10219000BDE8F08110190020003802400014024010
:1021A000000802400018024000100240000C0240EB
:1021B0000004024070B588B000230293204B1A6CD3
:1021C00042F010021A641B6C03F0100302930546E0
:1021D00001A903A8029B02F0F5FF069B4BBB02F08E
:1021E000E1FF184E184B336040F2E733F360174BB2
:1021F000B0FBF3F3013B7360304600233361B360FF
:10220000B36103F01DFE044680B9304603F0EEFCD6
:10221000044658B9362001F0EDFC0F2D0DD82246AA
:102220002946362001F0B4FC094B1D60204608B059
:1022300070BD02F0B7FF4000D3E70124F6E700BF0E
:1022400000380240141900200010004040420F00E6
:102250007C0000207047FEE7FEE7FEE7FEE77047E0
:10226000014803F001BD00BF14190020014802F02D
:1022700041BC00BFCC170020014801F005BD00BFE4
:10228000C81800200120704708B51FF03FFD162335
:1022900003604FF0FF3008BD08B51FF037FD16236F
:1022A0000360FEE770B50D4614460E46731B9C4254
:1022B00001DC204670BDAFF3008006F8010BF5E7A6
:1022C00070B50D4614460E46731B9C4201DC204639
:1022D00070BD16F8010BAFF30080F5E74FF0FF304B
:1022E00070474FF400534B60002070470120704747
:1022F000002070470A4A116808B5034609B9094920
:1023000011601068694603448B4206D91FF0FEFC39
:102310000C2303604FF0FF3008BD1360FCE700BFE3
:102320005C190020B8340120704710B50421044620
:102330001EF0B7F9204610BD012908B506D00229C4
:1023400008D059B900F0C4FF006808BD00F0C0FF14
:102350004068FAE700F0BCFF8068F6E70020F4E789
:1023600000487047B83602080B20704713B50024A8
:1023700051B1036801948DF8034001AA9C680DF1E6
:102380000303A04702B010BD0846FBE7C0897047B1
:10239000008A7047C088704780887047807A00F054
:1023A0007F007047807AC0097047002070470000A6
:1023B0009FED010A704700BF0000000070477047A2
:1023C00000F598730868496803C370477047704701
:1023D0004160704770477047064BC0F84C3100238E
:1023E000C0F8503100F5A273C0F84801C0F8403180
:1023F000704700BF712500080123037270477047C2
:10240000704710B4C26841685410034601EB620083
:10241000D20748BF0A599B685DF8044B48BFD358A0
:1024200018470346406830B19A681AB9D86800F076
:10243000010070470120704710B50C2104461EF0C2
:1024400030F9204610BD10B5102104461EF029F9C0
:10245000204610BD10B54FF4AE7104461EF021F9B0
:10246000204610BD10B5402104461EF01AF9204642
:1024700010BD10B50BF096FC0368BDE81040DB6B97
:1024800018470000054B1B7801462BB1406818B176
:1024900003680C315B6E1847704700BF732701203B
:1024A000037A70B50546BBB940680368DB69984795
:1024B00004463CB96868036805F10C011B6EBDE871
:1024C00070401847A1886B8FC91A236820461B6B80
:1024D00009B29847A469ECE770BD10B50446D0F87E
:1024E000400158B10368DB68984738B1D4F840011F
:1024F00003689B6898470023C4F8403110BD70B54D
:10250000044690F8390094F838300130C0B298424F
:1025100084F8390005D901232372002384F8393067
:1025200070BDB4F93A2000210DF014FEC30706D5A2
:1025300000284FF6FF73C8BF0123184400B2238A56
:10254000C01AA08760680368DB69984705462DB903
:1025500060680368BDE870405B691847A988A38F6D
:1025600019442B6828461B6B09B29847AD69EEE702
:102570002DE9F14FD0E9556A0746B06803681B6A38
:102580009847B0F5A67F05D2444B454AA32145485C
:102590001FF012F9706803681B6A98470F2803D868
:1025A000414B3F4AA421F2E7F06803681B6A984751
:1025B0000B2803D83D4B3A4AA521E8E70BF0F2FB84
:1025C000DFF8F09004300BF012FCD9F8000010B1E5
:1025D0000368DB689847D9F8000010B103681B68EE
:1025E0009847DFF8D480D8F8000010B103685B6921
:1025F0009847D7F83C0110B103685B689847D8F852
:10260000000010B103681B689847D7F83C0110B16F
:1026100003689B689847F068036800215B6A9847E5
:102620004FF0000B224BC0F804B0044680F808B00D
:102630000360B068036859465B6A9847054600F036
:10264000B3FE7068036859465B6A98472946064698
:1026500000F088FE331DC7F83C61C9F80040C8F897
:102660000050CAF800302B68C6F808A02846DB687E
:10267000EE639847336830461B68984721462846E2
:102680000DF062FD236820461B69984723685B694B
:10269000204601B0BDE8F04F184700BF402D0208AA
:1026A000CE2D0208A02E0208E72E02088A2F02086B
:1026B00008380208BC270120B82701202DE9F14F76
:1026C000D0E9556A0746B06803681B6A9847B0F5B9
:1026D000F87F05D2564B574AA32157481FF06CF894
:1026E000706803681B6A98470F2803D8534B514AF8
:1026F000A421F2E7F06803681B6A98473F2803D8D3
:102700004F4B4C4AA521E8E70BF04CFBDFF8449116
:1027100004300BF06CFBD9F8000010B10368DB68E3
:102720009847D9F8000010B103681B689847DFF894
:102730002881D8F8000010B103685B699847D7F882
:102740003C0110B103685B689847D8F8000010B1ED
:1027500003681B689847D7F83C0110B103689B6871
:102760009847F068036800215B6A98470546002394
:10277000344A4360037245F80C2B0446284609F09E
:10278000D3F914222287304A12780023A387002A23
:1027900035D101232372B068036800215B6A984732
:1027A000054600F047FE7068036800215B6A9847A1
:1027B0002946064600F012FE331DC7F83C61C9F8F1
:1027C0000040C8F80050CAF800302B68C6F808A0CE
:1027D0002846DB68EE639847336830461B689847A5
:1027E000214628460DF0B0FC236820461B69984717
:1027F00023685B69204601B0BDE8F04F18471349D4
:10280000134AB1F900B0E168236128468B6BB2F935
:1028100000109847E3685946DB6B284698472846DE
:1028200009F0FDF80A4A13885B426387B3E700BFEB
:10283000402D02082D300208A02E0208E72E0208C3
:102840008A2F02082C380208732701206A270120EA
:1028500068270120BC270120B8270120044B1B68F2
:1028600093F858200AB1D86C00B99868704700BF37
:102870007427012070B504460D4616460BF054FB34
:10288000104A1460104A2260104A0023C4E9512300
:10289000C4E95333C4E94F330D4B18680368012171
:1028A0009B68C4E955659847FFF7D8FF15F04BFDC5
:1028B000FFF7D4FF15F0C2FDFFF7D0FF15F0CAFDFA
:1028C000204670BDC8270120B43702089C37020893
:1028D00074270120064BC0F84C310023C0F850315A
:1028E00000F5A273C0F84801C0F84031704700BF3E
:1028F00071250008064BC0F84C310023C0F8503158
:1029000000F5A273C0F84801C0F84031704700BF1D
:10291000BD260008406A7047806A704770478A8801
:102920000B8810B5D20A4C88C1699BB251F82200BD
:1029300043EA0443184410BD10B50446BAB1107BF5
:1029400068B1537BD27A1B0203F4E0631A43236A13
:1029500003EB82031A888A4202D193F9020010BD68
:1029600005D8013880B204330028F3D1F7E70020FE
:10297000F5E710B52C2104461DF093FE204610BD4E
:1029800030B58BB00446BDF860500895BDF85C507A
:1029900007959DF8505006959DF84C5005959DF86B
:1029A000485004959DF8445003959DF84050029579
:1029B0009DF83C500195BDF8385000950CF0FCFF97
:1029C000064B2360159BE361169B2362199B636290
:1029D0001A9BA36220460BB030BD00BF50380208DE
:1029E000806A7047704770477047704770477047FC
:1029F00070477047704790F82C304BB100F16C0273
:102A00001268C2653BB100F174031B68036670472E
:102A100000F16802F4E700F17003F6E730B4C26831
:102A200044685510034604EB6200D20748BF625960
:102A30009B6830BC48BFD35818470346406830B144
:102A40009A681AB9D86800F00100704701207047F1
:102A500090F82D3080F85A30704710B57821044630
:102A60001DF01FFE204610BD10B5102104461DF0BC
:102A700018FE204610BD10B54FF4A67104461DF097
:102A800010FE204610BD10B50446006B50B103681F
:102A9000DB68984730B1206B036821469B68BDE82E
:102AA0001040184710BD0B7970B590F82C600446A3
:102AB0000D460BB916B170BD002EFCD0B3FA83F3EE
:102AC0005B0984F82C3023682046D3F88C30984773
:102AD000236820465B699847002EECD02B79012BA8
:102AE000E9D123682046D3F88830BDE87040184704
:102AF000C430884208B505D10BF054F9BDE8084050
:102B0000FFF7F8BE08BD0000074A02600022C0E9D6
:102B10000122C0E90322C0E90522C0E907224FF4DF
:102B200080728284704700BFE040020870B503687D
:102B300004461B6B154698472368294620465B6B65
:102B4000BDE87040184770B504461D46BDF91060D9
:102B5000FFF7ECFF2368294620469B6B98472368C4
:102B600031462046DB6BBDE87040184710B5262281
:102B7000044600211FF027F82046FFF7C5FF044B4D
:102B80002360FF2384F826300023A362204610BD73
:102B9000C83E020838B5262204460D4600211FF023
:102BA00012F82046FFF7B0FF064B23602B88E38422
:102BB000FF23204684F82830294609F086F920466C
:102BC00038BD00BF104002082DE9F04F044685B023
:102BD000264600270DF00CF9574BE76346F8403BBB
:102BE00004F16C0A3046FFF7C1FF04F198094FF673
:102BF000FF7503A95046ADF80C50FFF7CBFF03A9B2
:102C0000ADF80C50484604F1C405FFF7C3FF284651
:102C1000FFF77AFF4FF47F4304F1F808A4F8F0308F
:102C20004FF0010B454BC4F8C430C4F8EC70C4F845
:102C3000F47084F8E8B04046FFF798FF404BC4F8C2
:102C4000F8303A4639464046C4E94B77C4E94D77F7
:102C5000C4F82471A4F82871FFF768FF414628469C
:102C600005F0DCFA374BC4E94F34374BC4E9513730
:102C70004FF4A0733A46009339463046F023FFF7ED
:102C800062FF4FF07F43A3663146201D05F0C6FA70
:102C90003A4639465046FFF749FF5146201D05F098
:102CA000BDFA3A4639464846FFF740FF03A9484671
:102CB0004B26ADF80CB009F008F94946201D05F087
:102CC000ADFA3A46394640460096A123FFF73BFF4E
:102CD0000523A4F828311D4BC4F82C3103F54C53BF
:102CE0003333C4F83031A3F5CC43663BC4F83431F8
:102CF00003F1331303F54C53D4F8C480C4F83831CE
:102D00002846FFF778FE84F8F170D8F8903028460E
:102D1000984704F59E73C4F8F430A022A1232846F6
:102D200000962821FFF70FFF201D294605F076FAAF
:102D3000204605B0BDE8F08F6C390208B8380208AB
:102D4000303F020854390208F12A0008996600FF52
:102D5000704770477047704730B4C2684468551078
:102D6000034604EB6200D20748BF62599B6830BC3F
:102D700048BFD35818470346406830B19A681AB91B
:102D8000D86800F0010070470120704710B510218D
:102D900004461DF086FC204610BD10B54FF4EE71C0
:102DA00004461DF07EFC204610BD00F198039942B8
:102DB00070B504460D4603D10AF0F4FFFFF78AFD13
:102DC00004F5B2739D4205D123682046DB6ABDE855
:102DD0007040184770BD00002DE9F04F2DED028BBB
:102DE000044689B00DF004F8854B2360854B9FEDB8
:102DF000868A0025C4E910354FF4807304F16C0A0B
:102E0000A4F86430FF2384F8663004F198094FF683
:102E1000FF7707A9C4E91255C4E91455C4E916554A
:102E2000E5632566A566504604F1D406ADF81C702E
:102E3000FFF7B0FE484609F021F804F5B27807A97B
:102E40003046ADF81C7008F049F9404609F016F814
:102E500004F5D07307A918460293ADF81C70FFF76C
:102E600099FE6A4BC4E97334694B04F1400B2A465E
:102E7000C4E9753529465846FFF758FE5846F021F3
:102E8000FEF756FA58464FF4A071FEF753FA271D85
:102E90004FF07F43A3665946384605F0BFF92A46EE
:102EA00029465046FFF742FE07A95046ADF81C5090
:102EB00009F00BF85146384605F0B0F92A46294684
:102EC0004846FFF733FE0823ADF81030ADF8143054
:102ED00007AB4FF0070A05AA009304A906AB4846C2
:102EE0004FF0610BADF818A0ADF81CA008F020FF62
:102EF00004F5E673C4F8C03049463846C4F8D0B08B
:102F0000039305F08BF9DE2230463221FFF70EFEE7
:102F100007A906233046ADF81C3008F081FA4FF0BF
:102F20008C13C4F8DC303B4BC4F800313A4BC4F886
:102F30000431304608F01EF9B7EE000A304608F0BA
:102F400080FADFF8DC9084ED4B8A304608F012F905
:102F50003046C4F81891C4F81C9184ED488A08F0F2
:102F600009F93046C4F82491C4F8289108F002F910
:102F7000DFED2A0AB1EE041AB0EE600A304608F01E
:102F800058FA3146384684F8FD5005F047F9404676
:102F900040F20B12BE21FFF7C9FD0923ADF8103036
:102FA0000A23ADF8143007AB05AA009304A906ABB9
:102FB0004046ADF818A0ADF81CA008F0B9FE039B80
:102FC000C4F88C3141463846C4F89CB105F026F966
:102FD0004FF48A7202986821FFF7A8FD0423029833
:102FE000ADF81C3007A908F070FF3846029905F0CB
:102FF00015F9204609B0BDEC028BBDE8F08F00BF8B
:10300000B8390208C83E020800007A44A039020814
:10301000AB2D0008000018420000404000000000F6
:1030200000008C427047000030B5164D2C6814F03B
:1030300001048FB0BFF35B8F20D128461DF033FB16
:10304000E0B13F230993104B0893104B10491148EE
:103050000A940122CDE906430423CDE903320A2371
:103060000093CDE90B44CDE901440594FFF788FCBA
:1030700009481EF0BFFB28461DF021FB05480FB094
:1030800030BD00BF60190020E84A0208F44A020877
:10309000B84A020864190020253000087047000073
:1030A00030B5164D2C6814F001048FB0BFF35B8F60
:1030B00020D128461DF0F7FAE0B13F230993104BC9
:1030C0000893104B104911480A940122CDE9064398
:1030D0000423CDE9033214230093CDE90B44CDE959
:1030E00001440594FFF74CFC09481EF083FB284679
:1030F0001DF0E5FA05480FB030BD00BF9019002063
:10310000EC4A0208F84A0208C84A0208941900204A
:103110009D3000087047000030B5164D2C6814F043
:1031200001048FB0BFF35B8F20D128461DF0BBFA9E
:10313000E0B13F230993104B0893104B10491148FD
:103140000A940122CDE906430423CDE90332282362
:103150000093CDE90B44CDE901440594FFF710FC41
:1031600009481EF047FB28461DF0A9FA05480FB094
:1031700030BD00BFC0190020F04A0208FC4A020816
:10318000D84A0208C41900201531000800207047F1
:10319000002070470EB403B503AB002153F8042B95
:1031A00001930BF087FE02B05DF804EB03B07047AB
:1031B0000CB407B504AB53F8042B01930BF07AFE63
:1031C00003B05DF804EB02B070470000436C10B52B
:1031D000044673B3038F2BB9184B194AC5211948FC
:1031E0001EF0EAFAC38E00EB43035B8C0BB30DF0C9
:1031F000D2FC238F012B03D8134B144ACB21EEE7CB
:10320000E28E531C9BB2092B194688BFA3F10A0119
:1032100004EB410140F63F10498C814209D10A2B51
:1032200004EB420228BF002304EB4303508C588474
:1032300051842046BDE810400DF0B0BB12310208A9
:103240001B310208C6310208103202081E32020881
:103250000DF06BBB38B518BB124B13481C681349F3
:10326000B4B1226822440260626822440A60A26803
:1032700014440F4B00221A8000F02AF8054600F093
:1032800025F80C4B1C600C4B1D600C4B188007E0A4
:103290000B4B03600B4B0B600B4B1C68002CE8D1F5
:1032A00038BD00BFFC190020F4190020F0190020DF
:1032B000F8190020CC270120D4270120D027012095
:1032C000044B0208004B0208084B0208002070471C
:1032D00000487047001A002010B5FFF7E1FE044CCB
:1032E0002060FFF719FF6060FFF79EFEA06010BD31
:1032F000001A002010B5002404600C6014601C60EB
:1033000010BD704710B54FF4AE7104461DF0C9F9F9
:10331000204610BD10B50446D0F8580100F013F84F
:103320002046BDE810400AF0BFBD000010B50446BD
:10333000FFF7A0FA014B2360204610BDF0390208C8
:10334000002202607047704770470438704770472A
:1033500010B5102104461DF0A4F9204610BDA0F1BF
:103360000400F5E700228260024A026018324260DF
:10337000C1607047443A02087047000010B5034B23
:1033800003600446FFF735FB204610BD6C3A020887
:1033900010B50446FFF7F2FF20464FF4A6711DF06A
:1033A00080F9204610BD000010B50446FFF70CFC64
:1033B000014B2360204610BD6C3A0208FFF71ABB90
:1033C000704704387047704710B5102104461DF04F
:1033D00068F9204610BDA0F10400F5E700228260E4
:1033E000024A026018324260C1607047A03A020887
:1033F00070470123C0F8E431D0F8DC31C3F5B47371
:10340000C0F8EC317047000010B5034B0360044670
:10341000FFF7A0FC204610BDC83A020810B50446CC
:10342000FFF7F2FF20464FF4F8711DF03AF92046FD
:1034300010BD000010B50446FFF7CEFC064B23601C
:103440004FF491720023C4E97723C4F8E4310023D8
:10345000C4F8E831204610BDC83A0208FFF77BBC2B
:10346000F7B5484D0446002328688DF8073002F070
:103470007BFFB0B3D4E97732002A46D10133B3F5EC
:10348000D77FC4F8DC3142D10123C4F8E0314FF0DA
:10349000FF33286800220DF1070102F035FF9DF887
:1034A0000730502B1DD1D4F8DC319FED377AD4EDA5
:1034B000430A94ED420A4FF4B472B3FBF2F102FBFB
:1034C000113307EE903AF8EEE77A04F1D40067EE94
:1034D000877A9FED2E7A87EE871A84ED7A1A07F0A5
:1034E000B7FDD4F8E431012B45D1B4F9A451B4F9B6
:1034F000A661002D10DCD4F8EC315A1E582A11D8E0
:10350000C3F1B403C4F8EC310CE0013BB7E7B3F509
:10351000917FBCD10023B8E7CF2D03DDD4F8EC3187
:103520005A2BEDD8002E28DD04F5D07738460BF065
:10353000EBFDD4ED7B7A9FED147A9FED140AF8EE43
:10354000677A023E67EE877A87EE800A1DF07CF983
:10355000A4F8A661384607EE905AF8EEE77AB0EE86
:10356000007AE0EE477AFDEEE77A17EE903AA4F89B
:10357000A4310BF0C9FD03B0F0BD0023C4F8E43161
:10358000F9E700BF30170020C3F54840000034437E
:10359000F02070474FF4A07070472920FEF77ABBE7
:1035A0002820FEF777BB08B5FEF748FBCA20FEF7D8
:1035B00071FBC320FEF752FB0820FEF74FFB5020A3
:1035C000FEF74CFBCF20FEF765FB0020FEF746FB25
:1035D000C120FEF743FB3020FEF740FBED20FEF755
:1035E00059FB6420FEF73AFB0320FEF737FB12205D
:1035F000FEF734FB8120FEF731FBE820FEF74AFBA3
:103600008520FEF72BFB0020FEF728FB7820FEF735
:1036100025FBCB20FEF73EFB3920FEF71FFB2C20BD
:10362000FEF71CFB0020FEF719FB3420FEF716FB0B
:103630000220FEF713FBF720FEF72CFB2020FEF7FD
:103640000DFBEA20FEF726FB0020FEF707FB00201B
:10365000FEF704FBB120FEF71DFB0020FEF7FEFA8B
:103660001B20FEF7FBFAB620FEF714FB0A20FEF73C
:10367000F5FAA220FEF7F2FAC020FEF70BFB1020AD
:10368000FEF7ECFAC120FEF705FB1020FEF7E6FA84
:10369000C520FEF7FFFA4520FEF7E0FA1520FEF7F9
:1036A000DDFAC720FEF7F6FA9020FEF7D7FA3620AB
:1036B000FEF7F0FAC820FEF7D1FAF220FEF7EAFA98
:1036C0000020FEF7CBFAB020FEF7E4FAC220FEF7A6
:1036D000C5FAB620FEF7DEFA0A20FEF7BFFAA720E9
:1036E000FEF7BCFA2720FEF7B9FA0420FEF7B6FA77
:1036F0002A20FEF7CFFA0020FEF7B0FA0020FEF7EE
:10370000ADFA0020FEF7AAFAEF20FEF7A7FA2B2069
:10371000FEF7C0FA0020FEF7A1FA0020FEF79EFA9D
:103720000120FEF79BFA3F20FEF798FAF620FEF7FD
:10373000B1FA0120FEF792FA0020FEF78FFA062078
:10374000FEF78CFA2C20FEF7A5FAC820FEF7F0FA57
:103750002620FEF79FFA0120FEF780FAE020FEF710
:1037600099FA0F20FEF77AFA2920FEF777FA24203B
:10377000FEF774FA0C20FEF771FA0E20FEF76EFACF
:103780000920FEF76BFA4E20FEF768FA7820FEF764
:1037900065FA3C20FEF762FA0920FEF75FFA132073
:1037A000FEF75CFA0520FEF759FA1720FEF756FAE5
:1037B0001120FEF753FA0020FEF750FAE120FEF741
:1037C00069FA0020FEF74AFA1620FEF747FA1B2096
:1037D000FEF744FA0420FEF741FA1120FEF73EFA04
:1037E0000720FEF73BFA3120FEF738FA3320FEF7C8
:1037F00035FA4220FEF732FA0520FEF72FFA0C20A8
:10380000FEF72CFA0A20FEF729FA2820FEF726FAFE
:103810002F20FEF723FA0F20FEF720FA1120FEF7E3
:1038200039FAC820FEF784FA2920FEF733FABDE8FA
:1038300008402C20FEF72EBA08B5FEF7FFF9032149
:10384000D320FEF743FA80B208BD10B5C4B20222FD
:1038500003212046FEF7A8F90A20FEF7EDF92046DD
:1038600000220321FEF7A0F9BDE810400220FEF778
:10387000E3B938B50446E4B2FEF794F900212046D6
:10388000FEF7AAF9012105462046FEF7A5F940EA10
:10389000052080B238BD10B5C4B240212046FEF7E5
:1038A0009BF9030607D54C212046FEF795F9003811
:1038B00018BF012010BD01224B212046FEF774F9EC
:1038C000204600224B21FEF76FF90020F2E773B586
:1038D0000423C4B20E461546D7210DEB0302204641
:1038E000FEF794F9019B1BBA1A0DC3F30B23328028
:1038F00020462B8001224B21FEF756F900224B2156
:103900002046FEF751F902B070BD000010B50A4A1A
:103910001378984204460DD0517888420AD00BB1F2
:1039200041B90123D454FEF73DF92046BDE81040CB
:10393000FFF78BBF10BD00BF0C1A002010B5C4B23A
:1039400009212046FEF748F940F00102D2B2204694
:103950000921BDE81040FEF727B910B5C4B209210E
:103960002046FEF739F9092100F0FE022046BDE8A5
:103970001040FEF719B938B5C4B20D4620460A21E9
:10398000FEF72AF940EA0502D2B220460A21BDE834
:103990003840FEF709B910B50446FEF704F9204691
:1039A0001F21FFF7E8FF2046BDE81040FFF7C6BF24
:1039B00038B5C4B20D4620460A21FEF70DF920EABB
:1039C0000502D2B220460A21BDE83840FEF7ECB825
:1039D00010B50446FFF7C1FF20461F21BDE8104087
:1039E000FFF7E6BF10B5C0B20C460B21FEF7F4F8A6
:1039F000204010BD1F21FFF7F5BF0A46C0B20B21C2
:103A0000FEF7D2B81F21FFF7F8BF38B5C4B20D4694
:103A100020461721FEF7E0F820EA0502D2B2204640
:103A20001721BDE83840FEF7BFB870B5C4B20646EE
:103A300004212046FEF7D0F8042100F0FB020546E1
:103A40002046FEF7B1F83046F021FFF7DEFF05F023
:103A5000F80220460421FEF7A7F84922202120463B
:103A6000FEF7A2F80220FEF7E7F820460122212106
:103A7000FEF79AF820469A224121FEF795F8204653
:103A800001224A21FEF790F8204601224B21FEF741
:103A90008BF8204600224B21FEF786F820460122B3
:103AA0005621FEF781F8204601225821FEF77CF8C6
:103AB000204601224021FEF777F82046FF220B2105
:103AC000FEF772F8BDE870400220FEF7B5B80000BE
:103AD000054BD3F8882042F47002C3F888204FF0D9
:103AE00000629A60704700BF00ED00E008B50B4B24
:103AF0001A6842F400721A601A6842F480621A600E
:103B00001A6842F480721A60032000F02FF8002037
:103B1000FEF750FBFEF71AF9002008BD003C0240FA
:103B2000034A044B11681B780B441360704700BFB5
:103B3000101A002078000020014B1868704700BF61
:103B4000101A002038B50446FFF7F6FF631C1CBFAF
:103B5000054B1B78054618BFE418FFF7EDFF431B24
:103B6000A342FAD338BD00BF780000200749CA68D5
:103B700022F4E0620302120403F4E063120C134324
:103B800043F0BF6343F40033CB60704700ED00E0C7
:103B9000164B30B5DC68C4F30224C4F10703251DBD
:103BA000042B28BF0423062D4FF0FF358CBF033CA8
:103BB000002405FA03F321EA0303A54022EA0502E3
:103BC000A340002843EA0203ACBF00F16040084A6A
:103BD0004FEA0313B8BF00F00F00DBB2AABF00F535
:103BE0006140135480F8003330BD00BF00ED00E0A9
:103BF00014ED00E0002807DB044A4109012300F02E
:103C00001F00834042F82130704700BF00E100E010
:103C100010B5044650B1437903F0FF0213B90271A5
:103C2000FEF7B4F801236371002010BD0120FCE70A
:103C300010B5044620B390F8393003F0FF021BB9E9
:103C400080F83820FEF7BAF8022384F83930236868
:103C500061681A6822F440320A431A605A6BA168FC
:103C600022F007020A435A631A6CE1686FF30D02EF
:103C70000A431A6400200123E06384F8393010BD40
:103C80000120FCE770477047036870B55E681D68E7
:103C9000F207044614D5E90512D51A6822F4807299
:103CA0001A60C26B42F00102C26301229A600423CF
:103CB00080F83930002380F83830436903B19847E1
:103CC000B20616D5AB0414D523681A6822F4005244
:103CD0001A6020229A60E36B43F00203E36304233B
:103CE00084F83930002384F8383063690BB12046FA
:103CF0009847300716D5290514D523681A6822F489
:103D000000621A6008229A60E36B43F00403E363E5
:103D1000042384F83930002384F8383063690BB108
:103D20002046984772070BD56B0509D523681A689A
:103D300022F480621A6004229A602046FFF7A2FFF4
:103D4000B00714D5A90512D523681A6822F40072A9
:103D50001A6002229A60E36BE363012384F839302E
:103D6000002384F8383023690BB120469847F206C7
:103D700013D5EB0411D523681A6822F480521A6017
:103D800010229A60E36BE363012384F83930002347
:103D900084F838302046FFF776FF70BDF0B590F814
:103DA0003820012A03464FF002002BD0012283F86D
:103DB000382083F8390003EB0112D2E90740556A35
:103DC000174F44EA0040093C012C9CBF05F07F429C
:103DD00010434FEA01161A6888BF40EA056091B99E
:103DE000516A394001435162012C9969916103D8AC
:103DF000596A21F07F4191620122002083F8392025
:103E000083F83800F0BDD16939400143D161991977
:103E1000012C896911619CBF25F07F451562EBE794
:103E2000F0FFFC002DE9F74FDFF8BC916C4A00234E
:103E30000D6801249C4004EA0506AC4340F0B780BD
:103E40004D68032705F003044FEA430807FA08FC0E
:103E5000671E012F6FEA0C0C34D8876807EA0C0E36
:103E6000CF6807FA08F747EA0E078760476827EA2E
:103E7000060EC5F300179F4047EA0E074760C76864
:103E800007EA0C0E8F6807FA08F747EA0E07022CBC
:103E9000C76019D14FEAD30A00EB8A0A03F0070B77
:103EA000DAF820704FEA8B0B4FF00F0E0EFA0BFE74
:103EB00027EA0E0E0F6907FA0BF747EA0E07CAF852
:103EC000207001E0032CDAD1076804FA08F407EA4D
:103ED0000C073C4315F4403F046068D00024019473
:103EE000D9F8444044F48044C9F84440D9F84440E7
:103EF00023F0030707F1804704F4804407F59C375B
:103F0000019403F0030C019CD7F808E04FEA8C0CF5
:103F10000F2404FA0CF42EEA040E324CA0424DD0C9
:103F200004F58064A0424BD004F58064A04249D0DF
:103F300004F58064A04247D004F58064A04245D0D7
:103F400004F58064A04243D004F58064A04241D0CF
:103F500004F58064A0423FD004F58064A0423DD0C7
:103F600004F58064A04214BF0A24092404FA0CF466
:103F700044EA0E04BC609468F74315F4801F0CBF3C
:103F80003C4034439460D46815F4001F0CBF3C409F
:103F90003443D460546815F4003F0CBF3C403443B4
:103FA00054601468ED0354BF3C4034431460013343
:103FB000102B7FF43DAF03B0BDE8F08F0024D5E7B0
:103FC0000124D3E70224D1E70324CFE70424CDE77B
:103FD0000524CBE70624C9E70724C7E70824C5E77B
:103FE000003C0140000002400038024003691942D1
:103FF00014BF0120002070470AB181617047090495
:10400000FBE7436901EA030221EA030141EA0241B5
:104010008161704701684B6913F480634FF00002BF
:1040200010D06FF480634B612023026380F83D3031
:1040300080F83E20036C80F83C2043F004030364C6
:1040400001207047184670472DE9F84606460F468E
:1040500091461D464FEA114A3368BAF1010F0CBF71
:104060005C699C6927EA0404A4B2B4FA84F4640984
:10407000A14501D0002025E06A1CEED0FFF75CFDD1
:10408000089BC01AA84201D8002DE5D13368BAF1C7
:10409000010F0CBF5B699B6927EA03039BB2B3FA6C
:1040A00083F35B099945D7D100232022336386F837
:1040B0003D2086F83E30326C86F83C3042F02002DB
:1040C00032640120BDE8F8862DE9F04104460F4630
:1040D000164698462568686927EA000080B2C0B194
:1040E0006B695A0517D52B6843F400732B606FF486
:1040F00080636B6120220023236384F83D2084F8D1
:104100003E30236C43F004032364002384F83C30E6
:104110000120BDE8F081731CDDD0FFF70DFDA0EBA1
:104120000800B04201D8002ED4D123685A6927EA8A
:10413000020292B2002ACDD000232022236384F809
:104140003D2084F83E30236C1343DDE770B5044610
:104150000D46164623685B691B0601D500201EE04C
:104160002046FFF757FFC8B96A1CF3D0FFF7E4FCFD
:10417000801BA84201D8002DECD123685B6913F0A5
:104180008003E7D12022236384F83D2084F83E3069
:10419000226C84F83C3042F020022264012070BD81
:1041A0002DE9F0431546026885B0DDE90C789946A3
:1041B000136843F4807313600E463B46CDF80080CD
:1041C00000224FF001110446FFF73EFF236838B18B
:1041D0001B68DB0502D54FF400732364032620E03F
:1041E00006F0FE061E611A4943463A462046FFF78E
:1041F0006BFFA8B9236803905A6903929B690393E4
:10420000424639462046039BFFF7A0FF064660B1B1
:10421000236C042B01BF2268136843F400731360FE
:104220000126304605B0BDE8F083B9F1010F2368DF
:1042300002D1EDB21D61F4E72A0A1A6139464246FD
:104240002046FFF783FF0028E2D12368F1E700BF93
:10425000020001002DE9FF479A46036815461A68D7
:1042600042F480621A601A68DDE90C7842F48072C8
:104270001A600E463B46CDF8008000224FF0011137
:104280000446FFF7E1FE236838B11B68DB0544BF35
:104290004FF400732364032021E05FFA86F906F0EF
:1042A000FE061E612B4943463A462046FFF70CFFA7
:1042B000A0B9236803905A6903929B69039342460D
:1042C00039462046039BFFF741FF58B1236C042B6E
:1042D00001BF2268136843F400731360012004B027
:1042E000BDE8F087BAF1010F23681AD1EDB242465A
:1042F0001D6139462046FFF729FF02460028E5D117
:1043000021680B6843F480730B602046CDF8008071
:104310003B464FF00111FFF797FE226860B113682A
:10432000B4E72A0A1A61394642462046FFF70EFFD3
:104330000028CBD12368D9E749F00103136105496F
:1043400043463A462046FFF7BFFE003818BF01201B
:10435000C5E700BF0200010070B504460D461646D1
:1043600023685B695B0701D500201EE02046FFF74C
:1043700051FEC8B96A1CF3D0FFF7DEFB801BA842D0
:1043800001D8002DECD123685B6913F00403E7D159
:104390002022236384F83D2084F83E30226C84F888
:1043A0003C3042F020022264012070BD70B504460A
:1043B0000D46164621684B6913F0400301D00020DA
:1043C00011E04A69D2060FD56FF010024A6120222F
:1043D000236384F83D2084F83E30236C236400235B
:1043E00084F83C30012070BDFFF7A6FB801BA8427B
:1043F00001D8002DDED123685B6913F04003D9D1C9
:104400002022236384F83D2084F83E30236C13433C
:10441000E4E7000070B5044608B9012070BD90F8CB
:104420003D3003F0FF021BB980F83C20FDF7E8FCAB
:10443000242384F83D3023681A6822F001021A60B0
:104440001A6842F400421A601A6822F400421A60A4
:1044500000F0A8FE3F4B65689D4294BF3E4B3F4B2A
:1044600098428CBF00230123002BD6D12268394EFD
:1044700051683B4BB0FBF3F321F03F011943B542C8
:10448000516088BF4FF49676116A88BF734321F05C
:104490003F0184BF4FF47A76B3FBF6F301330B434D
:1044A0001362D169431E2B4821F44F41854221F00C
:1044B000FF0132D86D0040F6FC70B3FBF5F3013319
:1044C000034242D0C3F30B031943D161D4E907304F
:1044D0001168034321F0C0010B4313609168D4E9D4
:1044E000030321F40341034321F0FF010B439360D5
:1044F000D4E90530D168034321F0FF010B43D360B9
:10450000136843F00103136000202023206484F823
:104510003D30206384F83E0080E7A06850B905EB89
:104520004505B3FBF5F30133C3F30B037BB143F450
:104530000043C9E719206843B3FBF0F30133C3F329
:104540000B0323B143F44043BEE70423BCE701233C
:10455000BAE700BFA08601007F841E00FF083D006F
:1045600040420F002DE9F743044699460C9E0F4642
:104570009046FFF7E1FA94F83D30202B054603D032
:10458000022003B0BDE8F08300903C4919230122CA
:104590002046FFF759FD0028F2D194F83C30012B5A
:1045A000EED02068012384F83C300368D9075EBF51
:1045B000036843F001030360036823F400630360AE
:1045C000212384F83D30402384F83E3000232364C7
:1045D0000A9B6362BDF82C306385638D2385284B6D
:1045E000E3624246CDE900654B4639462046FFF777
:1045F000D7FD00282AD00120C3E7FFF7A7FD40B16F
:10460000236C042B01BF2268136843F4007313600A
:10461000F1E7636A27681A4612F8011B3961626282
:10462000628D218D013A92B262857A69481E80B20C
:10463000520720850AD548B15A783A61023363623D
:10464000638D013B02399BB221856385238D2A4608
:1046500031462046002BD0D1FFF77EFE0028CFD177
:104660002268136843F400731360202384F83D30FC
:1046700084F83C0084F83E0083E700BF020010008D
:104680000000FFFF2DE9F043044687B09946109FD4
:104690000D469046FFF750FA94F83D30202B064621
:1046A00004D00225284607B0BDE8F08300907A497F
:1046B000192301222046FFF7C7FC0028F1D194F806
:1046C0003C30012BEDD02068012384F83C30036896
:1046D000DB075EBF036843F001030360036823F454
:1046E00000630360222384F83D30402384F83E3089
:1046F000002323640E9B6362BDF83C306385638DA9
:104700002385664BE3622946CDE900764B46424657
:104710002046FFF79FFD054608B10125C2E7228D1F
:104720002368B2B902905A6902929A690292029A77
:104730001A6842F400721A60DFF86481238D002B3E
:104740002CD1202284F83D2084F83C3084F83E307F
:10475000A8E7012A0AD11A6822F480621A6003903D
:104760005A6903929A690392039AE1E7022A0ED1E9
:104770001A6822F480621A601A6842F400621A60B1
:1047800004905A6904929B690493049BD4E70590B2
:104790005A6905929B690593059BCDE7032B56D873
:1047A000012B15D1324639462046FFF7FFFD002880
:1047B000B3D123681A69636A1A70636A013363624A
:1047C000238D013B2385638D013B9BB26385B5E758
:1047D000022B00963B464FF000024146204619D17D
:1047E000FFF732FC002898D123681A6842F400725F
:1047F0001A601A69636A1A70626A531C6362238DB5
:10480000013B2385638D013B9BB2638523681B6954
:104810005370D2E7FFF718FC024600287FF47DAF03
:104820002368196821F4806119601969636A197035
:10483000636A01336362238D013B2385638D013BF2
:104840009BB26385414600963B462046C8E7324608
:1048500039462046FFF7AAFD00287FF45EAF2368A3
:104860001A69636A1A70628D616A013A92B24B1CCE
:10487000628522686362238D5069013B9BB24007C9
:1048800023857FF55BAF032B02BF136823F480639E
:10489000136013694B7090E7020010000000FFFFE7
:1048A0000400010010B590F83D30202BDCB216D189
:1048B000242380F83D3003681A6822F001021A6050
:1048C0005A6A22F010025A625A6A114359621A68EF
:1048D00042F001021A6080F83D40002010BD022025
:1048E000FCE730B590F83D30202BDCB216D10268E1
:1048F000242380F83D30136823F001031360556AC8
:104900004FF6F0732B400B439BB25362136843F096
:104910000103136080F83D40002030BD0220FCE719
:104920000068D1F800C0D201843283182DE9F04329
:10493000C6685D684C68D1F8189005F470455D60F4
:10494000C5680CF10107C5F30B45C6F30B462644B9
:104950003D4445EA06455D60C668CD68C6F30A0673
:104960002E449D6805F470459D60C7688D68C7F347
:104970000A0701353D4445EA06459D601D690E69FB
:1049800025F007051D614FF0000E1E6191F8327091
:104990009D6991F83180C3F818E091F8305045EAEC
:1049A000096545EA082545EA07459D615D6925F0E9
:1049B000FF055D614D695D61DD6925F4E06525F008
:1049C0000705DD61D1E907573D43DD619D6A4D6A09
:1049D000C3F828E0072E9D629CBF0E4DAE5DDD6AD8
:1049E00005F0E025DD6288BF01268D6AC96AA4EB67
:1049F0000C0474437543033444EA0544DC621C6BC5
:104A00006FF30A041C631963835843F00103835056
:104A1000BDE8F083103B020838B50446002863D097
:104A200090F8A13003F0FF021BB980F8A020FDF739
:104A300043FA022384F8A13023689A6922F0704275
:104A40009A61D4E901200243E06899690243206930
:104A500002430A439A619A68244960690A409A604D
:104A60009A6842EA0042A06902439A60DA68E06903
:104A70000A40DA60DA6842EA0042206A0243DA60F9
:104A80001A69606A0A401A611A6942EA0042A06A19
:104A900002431A615A690A405A615A69E16A42EA54
:104AA0000142216B0A435A61DA6A94F8350094F89E
:104AB000361002F07F42DA62DD6A94F834202A432D
:104AC00042EA002242EA0142DA625A6B42F00602EE
:104AD0005A639A6942F001029A6100200123C4F8E6
:104AE000A40084F8A13038BD0120FCE700F800F0F4
:104AF00070477047036870B59E6B5D6B7207044624
:104B000014D5690712D55A6B22F004025A630422A5
:104B1000DA63D0F8A43043F00103C0F8A4300023D6
:104B200080F8A12080F8A030FFF7E2FFB20716D589
:104B3000AB0714D523685A6B22F002025A63022293
:104B4000DA63D4F8A4301343C4F8A430042384F8FF
:104B5000A130002384F8A0302046FFF7C9FFF007FA
:104B600010D5E9070ED523685A6B22F001025A636B
:104B70000122DA63002384F8A12084F8A0302046C3
:104B8000FCF748FD320711D52B070FD523685A6B68
:104B900022F008025A630822DA63012384F8A13064
:104BA000002384F8A0302046FFF7A3FF70BD2DE955
:104BB000F04190F8A030012B06460F4694464FF086
:104BC00002001FD04FF0010886F8A08086F8A100EF
:104BD00034240D4604FB02640FCD38340FC40FCDCE
:104BE0000FC40FCD0FC42B68236030466246394690
:104BF000FFF796FE33680020C3F8248086F8A18072
:104C000086F8A000BDE8F08190F8A020012A0346B4
:104C10004FF0020012D01A6883F8A100506B20F008
:104C20000100506306480164516B41F0010151637A
:104C30000020012283F8A12083F8A000704700BF64
:104C40000068014037B500230193184B184D1A6CCA
:104C500042F080521A641B6C03F080530193019B55
:104C6000144B01221A64FEF767FF04466B68DA03EF
:104C70000BD5104B0E4D01225A64FEF75DFF044622
:104C80006B689B030AD5002006E0FEF755FF001B6A
:104C9000B0F57A7FEAD9032003B030BDFEF74CFFB0
:104CA000001BB0F57A7FEBD9F5E700BF0038024072
:104CB0000070004000000E422DE9F341044640B36D
:104CC0000368DE0710D423689D075BD423681907A7
:104CD00000F19D8023685A0700F1BD80A369002B75
:104CE00040F0248100202CE08D4B9A6802F00C02E9
:104CF000042A07D09A6802F00C02082A0BD15B68DC
:104D0000590208D5864B1B689A03DCD56368002BD3
:104D1000D9D1012015E06368814DB3F5803F13D1EF
:104D20002B6843F480332B60FEF706FF7C4E05466C
:104D300033689B03C7D4FEF7FFFE401B6428F7D9F6
:104D4000032002B0BDE8F081B3F5A02F04D12B6899
:104D500043F480232B60E3E72A6822F480322A6040
:104D60002A6822F480222A60002BDDD1FEF7E4FEBF
:104D700006462B689F03A6D5FEF7DEFE801B64283F
:104D8000F7D9DDE7664B9A6812F00C0F07D09A68E6
:104D900002F00C02082A11D15B685D020ED4604A51
:104DA0001368990702D5E368012BB2D11368216912
:104DB00023F0F80343EAC103136087E7E268594B25
:104DC000B2B101221A60FEF7B7FE554D06462B68B8
:104DD0009B0707D52B68226923F0F80343EAC20337
:104DE0002B6073E7FEF7A8FE801B0228EFD9A7E728
:104DF0001A60FEF7A1FE4A4E054633689F077FF50D
:104E000065AFFEF799FE401B0228F6D998E7626964
:104E1000444B82B10122C3F8802EFEF78DFE404E36
:104E20000546736F9B073FF555AFFEF785FE401BA8
:104E30000228F6D984E7C3F8802EFEF77DFE384EAF
:104E40000546736F9F077FF545AFFEF775FE401B64
:104E50000228F6D974E7324B1A6C12F0805228D12E
:104E600001921A6C42F080521A641B6C03F080535A
:104E70000193019B01272C4D2B68D8051BD5A368F6
:104E8000274D012B27D12B6F43F001032B67FEF732
:104E900053FE234E054641F28838336F9A0739D5C1
:104EA000002F3FF41BAF1E4A136C23F08053136492
:104EB00014E70027DFE72B6843F480732B60FEF7CD
:104EC0003BFE06462B68D905D9D4FEF735FE801B7C
:104ED0000228F7D934E7052B04D12B6F43F00403E4
:104EE0002B67D0E72A6F22F001022A672A6F22F08F
:104EF00004022A67002BCAD1FEF71EFE41F2883851
:104F000006462B6F9B07CBD5FEF716FE801B404550
:104F1000F7D915E7FEF710FE401B4045BDD90FE756
:104F2000003802400000474200700040374DAA6838
:104F300002F00C02082A3ED0022B354B4FF0000243
:104F40001A662BD1FEF7F8FD06462B6899011FD48F
:104F5000D4E907321343626A43EA8213E26A43EAFE
:104F60000263A26A5208013A43EA02436B60284B8B
:104F7000264D01221A66FEF7DFFD04462B689A01D2
:104F80003FF5B0AEFEF7D8FD001B0228F6D9D7E6F4
:104F9000FEF7D2FD801B0228D7D9D1E6FEF7CCFD63
:104FA00004462B689B017FF59DAEFEF7C5FD001BF7
:104FB0000228F6D9C4E6012B3FF4ABAE6B68E26978
:104FC00003F4800191427FF4A4AE216A03F03F0212
:104FD0008A427FF49EAE616A47F6C0721A40B2EB15
:104FE000811F7FF496AEA26A520803F44031013A61
:104FF000B1EB024F7FF48DAEE26A03F07063B3EB66
:10500000026F14BF012000209BE600BF0038024061
:1050100000004742134908B58B6803F00C03042BCA
:105020001CD0082B1CD14A684B68496813F48003D4
:1050300014BF0D480D48C1F3881118BF002302F0BA
:105040003F02A1FB0001FBF773F9064B5B68C3F35A
:10505000014301335B00B0FBF3F008BD0248FCE7FD
:105060000248FAE70038024000127A000024F400F7
:105070002DE9F0410D46044610B90120BDE8F0814C
:10508000434B1A6802F00F028A4228D321688F0727
:105090002DD4C80740D43E4B1A6802F00F02AA4232
:1050A00065D8226851076BD4130707D5394A21699F
:1050B000936823F4604343EAC1039360FFF7AAFFB8
:1050C000344B354A9B68C3F30313D35CD840334B4E
:1050D0001860334B1868FDF76DF80020CEE7CAB2B0
:1050E0001A701B6803F00F038B42C6D1CEE7294B21
:1050F00011F0040F1EBF9A6842F4E0529A600E0746
:1051000042BF9A6842F460429A609A68A06822F0AE
:10511000F00202439A60BCE762681E4B012A1CD170
:105120001B6813F4003FA8D01A4EB36823F00303A2
:105130001343B360FEF700FD41F288380746B368B9
:10514000626803F00C03B3EB820FA4D0FEF7F4FC0B
:10515000C01B4045F3D9032090E7911E01291B682D
:1051600002D813F0007FDEE713F0020FDBE7EAB2AC
:105170001A701B6803F00F03AB427FF47EAF90E719
:105180000449E0688B6823F4E05303438B608BE7AA
:10519000003C024000380240003B0208740000203E
:1051A0007C000020044B054A9B68C3F38223D35C38
:1051B000034A1068D840704700380240F83A0208A5
:1051C000740000200F2303600B4B9A6802F0030267
:1051D00042609A6802F0F00282609A6802F4E0523B
:1051E000C2609B68DB0803F4E0530361034B1B6858
:1051F00003F00F030B60704700380240003C024090
:10520000036813F0430FF7B5044640F08880236825
:1052100013F00C0F45D08C4B8C4D00221A67FEF713
:105220008BFC06462B68990000F1CB8021684A0769
:1052300015D5D4E90403D5F888201B0602F0E04216
:1052400043EA80131343C5F88830D5F88C30226ABE
:1052500023F4F853013A43EA0223C5F88C300B07D4
:1052600014D57A4AA369D2F8881020691B0701F087
:10527000706143EA80130B43C2F88830D2F88C3057
:10528000616A23F440330B43C2F88C306E4B6F4E8F
:1052900001221A67FEF750FC054633689F0040F173
:1052A00097802368980634D500230193674B684D97
:1052B0001A6C42F080521A641B6C03F08053019305
:1052C000019B2B6843F480732B60FEF735FC064688
:1052D0002B68D80540F183805C4DA26A2B6F13F4D4
:1052E000407340F08380A36A03F44072B2F5407FBC
:1052F000564A40F09E80916823F0704021F4F811E6
:1053000020F4407001439160116FC3F30B030B4312
:1053100013672368DB0600F1908000204FE04A4BC2
:105320004A4E00229A66FEF707FC054633681F01C5
:105330003FD42168C80741BFD4E901231B0743EAD2
:105340008213C6F884308A0715D5404AE368D2F83C
:10535000840065681B0600F0E04043EA85130343C0
:10536000C2F88430D2F88C00E36920F01F00013BC2
:105370000343C2F88C304B060AD5E36862681B060B
:1053800043EA8213A26843EA0273304AC2F88430C7
:105390002D4B2E4E01229A66FEF7CEFB0546336852
:1053A0001F013FF534AFFEF7C7FB401B0228F6D9BB
:1053B00004E0FEF7C1FB401B0228B7D9032003B06D
:1053C000F0BDFEF7B9FB801B02287FF62BAFF5E797
:1053D000FEF7B2FB401B02287FF65FAFEEE7FEF759
:1053E000ABFB801B02287FF673AFE7E702F4407245
:1053F00093423FF478AF2B6F134A0121C2F8401E4D
:1054000023F440730021C2F8401E2B672B6FD9078D
:105410007FF569AFFEF790FB41F2883706462B6FA8
:105420009A073FF560AFFEF787FB801BB842F6D9BD
:10543000C4E7916821F4F81165E7064B94F82C2035
:10544000C3F8E02169E700BF00004742003802408E
:10545000007000400010474238B50D460446C8B100
:1054600090F82C3003F0FF021BB980F82D20FCF7D8
:1054700035FE022384F82C30211D206800F00EFD3B
:1054800062682068294600F03FFD012384F82C3033
:10549000002038BD0120FCE770B590F82C30022BBD
:1054A00005460E46D8B212D000F0FB04012C0FD1F5
:1054B000022385F82C30286800F05CFD3368022B4D
:1054C00006BF052385F82C3085F82C40002070BDE0
:1054D0000120FCE738B590F82C30022B0446D8B2F6
:1054E0000DD094F82C30012BDDB209D102232068B5
:1054F00084F82C3000F062FD84F82C50002038BD78
:105500000120FCE72DE9F3471F46894690460446F3
:10551000FEF712FB0A9D3D442D1AFEF70DFB264BAC
:105520001E68C6F3CB366E438246019622689368A6
:1055300039EA03030CBF01230023434501D10020B6
:105540002EE07B1CF3D0FEF7F7FAA0EB0A00A8428E
:1055500029D323685A6822F0E0025A606268B2F5E3
:10556000827F0AD1A268B2F5004F02D0B2F5806FF7
:1055700003D11A6822F040021A60A26AB2F5005FF5
:1055800007D11A6822F400521A601A6842F40052D5
:105590001A60012384F85130002384F8503003202E
:1055A00002B0BDE8F087019A019B002A03F1FF33A6
:1055B000019308BF1546B9E774000020F0B585B027
:1055C0000B4600920E461746022101220446FFF7C1
:1055D00099FF054628B1636D43F0200363650325F9
:1055E00015E0124B1868124BB0FBF3F04FF47A73CE
:1055F000584363680390B3F5827F0BD1009733461D
:105600002A4680212046FFF77DFF0028E3D1284667
:1056100005B0F0BD039B002BF9D0039B013B039326
:1056200023689B681B06F5D4F1E700BF74000020D7
:1056300000366E0137B50B464168B1F5827F0446EE
:1056400008D0009201210022FFF75CFFD0B90020B2
:1056500003B030BD8168B1F5004F02D0B1F5806F65
:1056600007D125682868B1F5806F20F040002860D8
:1056700004D00092802100222046E5E7009201211B
:105680000022F9E7636D43F0200363650320DFE741
:1056900010B50446002855D0436A002B4ED142680D
:1056A000B2F5827F00D0C3610023A36294F8513029
:1056B00003F0FF0223B984F850202046FCF7D8FC01
:1056C0002168A068A269022384F851300B6823F096
:1056D00040030B60636800F4044003F482730343E7
:1056E000E06800F400600343206900F00200034317
:1056F000606900F00100034302F400700343E069B5
:1057000000F038000343206A00F080000343A06AE1
:1057100000F4005003430B60636A120C03F01003A3
:1057200002F004021A434A60CB6923F40063CB61A0
:1057300000200123606584F8513010BD0023C0E9CA
:105740000433B1E70120F8E72DE9F74304461F468B
:105750000D469046FEF7F0F994F85130012B814642
:10576000D8B240F09F80002D74D0B8F1000F71D0F6
:1057700094F85030012B00F09580032384F85130C9
:1057800000236365C4E91033A4F83680A363A387BC
:10579000E387A368266884F85000B3F5004F2563BB
:1057A000A4F8348007D1336823F0400333603368B2
:1057B00043F4804333603368E2685B065EBF33685E
:1057C00043F040033360B2F5006F636845D113B115
:1057D000B8F1010F07D135F8023BF3602563E38E82
:1057E000013B9BB2E386E38E9BB2D3B94A4639466E
:1057F0002046FFF7E3FE002851D1A36833B9019397
:105800002368DA6801929B680193019B012384F865
:105810005130606D0023C01A84F8503018BF012049
:1058200018E022689368980705D5236B33F8021BAC
:10583000D1602363D3E7FEF77FF9A0EB0900B842FC
:10584000D1D3791CCFD0012384F85130002384F8C0
:105850005030032003B0BDE8F08313B1B8F1010F5D
:1058600008D12B783373236B01332363E38E013B21
:105870009BB2E386E38E9BB2002BB7D023689A6875
:10588000920703D5226B12781A73ECE7FEF754F9EE
:10589000A0EB0900B842EDD37B1CEBD0D3E720236B
:1058A0006365AAE70220D5E72DE9F74304460D46D4
:1058B00091461E46DDF82880FEF73EF994F85130F7
:1058C0006268012B0746D9B20AD0B2F5827F40F058
:1058D000E580A368002B40F0E180042940F0DE80E1
:1058E000002D4BD0B9F1000F48D0002E46D094F8CF
:1058F0005030012B00F0D280012384F8503094F80E
:105900005130C4F83890042B1CBF052384F8513063
:1059100000236365C4E910332368E687E6861968C7
:10592000A687490658BF1968256358BF41F0400152
:10593000A68658BF1960E168B1F5006F55D10AB16C
:10594000012E07D135F8022BDA60E38E2563013B87
:105950009BB2E3860125E38E9BB28BB9E38F9BB2AA
:1059600073B93A4641462046FFF728FE002800F06A
:10597000818020236365002384F85030012031E0CA
:1059800021688B689A070DD5E38E9BB253B145B160
:10599000236B33F8022BCA602363E38E013B9BB277
:1059A000E38600258A6812F001020CD0E38F9BB2D7
:1059B0004BB1A36BC96823F8021BA363E38F013BC0
:1059C0009BB2E3871546FEF7B7F8C01B4045C2D32C
:1059D000B8F1FF3FBFD0012384F85130002384F891
:1059E0005030032003B0BDE8F0830AB1012E08D186
:1059F0002A781A73236B01332363E38E013B9BB236
:105A0000E38601252DE0226893689B070ED5E38E7F
:105A10009BB25BB14DB1236B1B781373236B0133C6
:105A20002363E38E013B9BB2E386002522689168E5
:105A300011F001010DD0E38F9BB253B1A36BD2687B
:105A40001A70A36B0133A363E38F013B9BB2E3871F
:105A50000D46FEF771F8C01B404502D3B8F1FF3F79
:105A6000B9D1E38E9BB2002BCDD1E38F9BB2002B3B
:105A7000C9D176E7A36833B901932368DA68019244
:105A80009B680193019B012384F85130606D0023D2
:105A9000C01A84F8503018BF0120A3E70220A1E704
:105AA0002DE9F7431E4690F85130012B04468946F4
:105AB0001746DDB204D00225284603B0BDE8F083C6
:105AC0004368B3F5827F0BD183684BB9042380F818
:105AD0005130134600960A46FFF7E6FE0546EBE70F
