:020000040800F2
:1000000000000320D99B0008E7490008E9490008DF
:10001000EB490008ED490008EF4900080000000026
:10002000000000000000000000000000E193000854
:10003000F14900080000000071940008958D000847
:10004000299C0008299C0008299C0008299C00087C
:10005000299C0008299C0008299C0008299C00086C
:10006000299C0008299C0008299C0008299C00085C
:10007000299C0008299C0008299C0008299C00084C
:10008000299C0008299C0008299C0008299C00083C
:10009000299C0008299C0008299C0008299C00082C
:1000A000299C0008299C0008299C0008299C00081C
:1000B000299C0008299C0008299C0008299C00080C
:1000C000299C0008299C0008299C0008299C0008FC
:1000D000299C0008299C0008299C0008299C0008EC
:1000E000299C0008299C0008299C0008299C0008DC
:1000F000299C0008299C0008299C0008299C0008CC
:10010000299C0008299C0008299C0008299C0008BB
:10011000299C0008299C0008F5490008299C000832
:10012000299C0008299C0008299C0008299C00089B
:10013000299C0008299C0008299C0008299C00088B
:10014000299C0008299C0008299C0008299C00087B
:10015000299C0008299C0008299C0008299C00086B
:10016000299C0008299C0008299C0008299C00085B
:10017000299C0008299C0008299C00080000000018
:10018000299C0008299C0008299C0008299C00083B
:10019000299C0008299C0008299C0008299C00082B
:0C01A000014A0008299C00080D4A0008D4
:1001B00010B5054C237833B9044B13B10448AFF3A1
:1001C00000800123237010BD800300200000000088
:1001D000C454020808B5034B1BB103490348AFF3ED
:1001E000008008BD0000000084030020C454020801
:1001F00081F0004102E000BF83F0004330B54FEAD8
:1002000041044FEA430594EA050F08BF90EA020F44
:100210001FBF54EA000C55EA020C7FEA645C7FEAD7
:10022000655C00F0E2804FEA5454D4EB5555B8BFFA
:100230006D420CDD2C4480EA020281EA030382EA6B
:10024000000083EA010180EA020281EA0303362DFD
:1002500088BF30BD11F0004F4FEA01314FF4801CD0
:100260004CEA113102D0404261EB410113F0004FE2
:100270004FEA03334CEA133302D0524263EB430399
:1002800094EA050F00F0A780A4F10104D5F1200E37
:100290000DDB02FA0EFC22FA05F2801841F1000192
:1002A00003FA0EF2801843FA05F359410EE0A5F166
:1002B00020050EF1200E012A03FA0EFC28BF4CF097
:1002C000020C43FA05F3C01851EBE37101F000454D
:1002D00007D54FF0000EDCF1000C7EEB00006EEB5A
:1002E0000101B1F5801F1BD3B1F5001F0CD34908E4
:1002F0005FEA30004FEA3C0C04F101044FEA44523B
:1003000012F5800F80F09A80BCF1004F08BF5FEAC1
:10031000500C50F1000041EB045141EA050130BDA1
:100320005FEA4C0C404141EB010111F4801FA4F144
:100330000104E9D191F0000F04BF01460020B1FA99
:1003400081F308BF2033A3F10B03B3F120020CDAD1
:100350000C3208DD02F1140CC2F10C0201FA0CF0AF
:1003600021FA02F10CE002F11402D8BFC2F1200C14
:1003700001FA02F120FA0CFCDCBF41EA0C019040CA
:10038000E41AA2BF01EB0451294330BD6FEA040413
:100390001F3C1CDA0C340EDC04F11404C4F12002FE
:1003A00020FA04F001FA02F340EA030021FA04F310
:1003B00045EA030130BDC4F10C04C4F1200220FA67
:1003C00002F001FA04F340EA0300294630BD21FAA5
:1003D00004F0294630BD94F0000F83F4801306BF6B
:1003E00081F480110134013D4EE77FEA645C18BF5F
:1003F0007FEA655C29D094EA050F08BF90EA020FF6
:1004000005D054EA000C04BF1946104630BD91EAED
:10041000030F1EBF0021002030BD5FEA545C05D1F0
:100420004000494128BF41F0004130BD14F580042F
:100430003CBF01F5801130BD01F0004545F0FE41A3
:1004400041F470014FF0000030BD7FEA645C1ABFD8
:10045000194610467FEA655C1CBF0B46024650EA0F
:10046000013406BF52EA033591EA030F41F400213B
:1004700030BD00BF90F0000F04BF0021704730B5C1
:100480004FF4806404F132044FF000054FF0000196
:1004900050E700BF90F0000F04BF0021704730B557
:1004A0004FF4806404F1320410F0004548BF40422C
:1004B0004FF000013EE700BF42004FEAE2014FEA81
:1004C00031014FEA02701FBF12F07F4393F07F4F5C
:1004D00081F06051704732F07F4208BF704793F05F
:1004E0007F4F04BF41F40021704730B54FF4607472
:1004F00001F0004521F000411CE700BF50EA010275
:1005000008BF704730B54FF000050AE050EA01021D
:1005100008BF704730B511F0004502D5404261EB8D
:1005200041014FF4806404F132045FEA915C3FF4CE
:10053000D8AE4FF003025FEADC0C18BF03325FEA6B
:10054000DC0C18BF033202EBDC02C2F1200300FA1C
:1005500003FC20FA02F001FA03FE40EA0E0021FA41
:1005600002F11444BDE600BF70B54FF0FF0C4CF42F
:10057000E06C1CEA11541DBF1CEA135594EA0C0FE1
:1005800095EA0C0F00F0DEF82C4481EA030621EA1C
:100590004C5123EA4C5350EA013518BF52EA033557
:1005A00041F4801143F4801338D0A0FB02CE4FF009
:1005B0000005E1FB02E506F00042E0FB03E54FF039
:1005C0000006E1FB03569CF0000F18BF4EF0010E31
:1005D000A4F1FF04B6F5007F64F5407404D25FEA2D
:1005E0004E0E6D4146EB060642EAC62141EA5551E0
:1005F0004FEAC52040EA5E504FEACE2EB4F1FD0C22
:1006000088BFBCF5E06F1ED8BEF1004F08BF5FEA9F
:10061000500E50F1000041EB045170BD06F0004651
:1006200046EA010140EA020081EA0301B4EB5C04FE
:10063000C2BFD4EB0C0541EA045170BD41F48011F6
:100640004FF0000E013C00F3AB8014F1360FDEBF1B
:10065000002001F0004170BDC4F10004203C35DAF7
:100660000C341BDC04F11404C4F1200500FA05F37A
:1006700020FA04F001FA05F240EA020001F000421B
:1006800021F0004110EBD37021FA04F642EB060191
:100690005EEA430E08BF20EAD37070BDC4F10C04BB
:1006A000C4F1200500FA04F320FA05F001FA04F27F
:1006B00040EA020001F0004110EBD37041F100016B
:1006C0005EEA430E08BF20EAD37070BDC4F1200576
:1006D00000FA05F24EEA020E20FA04F301FA05F2DE
:1006E00043EA020321FA04F001F0004121FA04F286
:1006F00020EA020000EBD3705EEA430E08BF20EA56
:10070000D37070BD94F0000F0FD101F0004640008F
:1007100041EB010111F4801F08BF013CF7D041EA11
:10072000060195F0000F18BF704703F00046520015
:1007300043EB030313F4801F08BF013DF7D043EAE6
:100740000603704794EA0C0F0CEA135518BF95EA9C
:100750000C0F0CD050EA410618BF52EA4306D1D123
:1007600081EA030101F000414FF0000070BD50EA42
:10077000410606BF1046194652EA430619D094EACC
:100780000C0F02D150EA013613D195EA0C0F05D1B6
:1007900052EA03361CBF104619460AD181EA03010A
:1007A00001F0004141F0FE4141F470014FF00000C2
:1007B00070BD41F0FE4141F4780170BD70B54FF05D
:1007C000FF0C4CF4E06C1CEA11541DBF1CEA1355DD
:1007D00094EA0C0F95EA0C0F00F0A7F8A4EB0504BF
:1007E00081EA030E52EA03354FEA013100F08880B6
:1007F0004FEA03334FF0805545EA131343EA12637F
:100800004FEA022245EA111545EA10654FEA002633
:100810000EF000419D4208BF964244F1FD0404F5EC
:10082000407402D25B084FEA3202B61A65EB030548
:100830005B084FEA32024FF480104FF4002CB6EB05
:10084000020E75EB030E22BFB61A754640EA0C0085
:100850005B084FEA3202B6EB020E75EB030E22BFC5
:10086000B61A754640EA5C005B084FEA3202B6EB06
:10087000020E75EB030E22BFB61A754640EA9C00C5
:100880005B084FEA3202B6EB020E75EB030E22BF95
:10089000B61A754640EADC0055EA060E18D04FEA53
:1008A000051545EA16754FEA06164FEAC30343EAF3
:1008B00052734FEAC2025FEA1C1CC0D111F4801FC0
:1008C0000BD141EA00014FF000004FF0004CB6E7B9
:1008D00011F4801F04BF01430020B4F1FD0C88BF58
:1008E000BCF5E06F3FF6AFAEB5EB030C04BFB6EB63
:1008F000020C5FEA500C50F1000041EB045170BD56
:100900000EF0004E4EEA113114EB5C04C2BFD4EB82
:100910000C0541EA045170BD41F480114FF0000E06
:10092000013C90E645EA060E8DE60CEA135594EA82
:100930000C0F08BF95EA0C0F3FF43BAF94EA0C0F85
:100940000AD150EA01347FF434AF95EA0C0F7FF4FA
:1009500025AF104619462CE795EA0C0F06D152EA4E
:1009600003353FF4FDAE1046194622E750EA410632
:1009700018BF52EA43067FF4C5AE50EA41047FF443
:100980000DAF52EA43057FF4EBAE12E74FEA4102A6
:10099000B2F1E04324BFB3F5001CDCF1FE5C0DD9DD
:1009A00001F0004C4FEAC0024CEA5070B2F1004F27
:1009B00040EB830008BF20F00100704711F0804F2A
:1009C00021D113F13872BCBF01F00040704741F4EF
:1009D00080114FEA5252C2F11802C2F1200C10FAF3
:1009E0000CF320FA02F018BF40F001004FEAC123D7
:1009F0004FEAD32303FA0CFC40EA0C0023FA02F37B
:100A00004FEA4303CCE77FEA625307D150EA013350
:100A10001EBF4FF0FE4040F44000704701F0004020
:100A200040F0FE4040F40000704700BF7BB972B94F
:100A30000029BEBF00204FF0004106E008BF00289B
:100A40001CBF6FF000414FF0FF3000F0BDB9ADF1B9
:100A5000080C6DE904CE002909DB002B1ADB00F03D
:100A60004DF8DDF804E0DDE9022304B070474042B0
:100A700061EB4101002B1BDB00F040F8DDF804E0E6
:100A8000DDE9022304B0404261EB4101524263EBD5
:100A900043037047524263EB430300F02FF8DDF845
:100AA00004E0DDE9022304B0404261EB41017047FC
:100AB000524263EB430300F021F8DDF804E0DDE986
:100AC000022304B0524263EB4303704753B94AB95F
:100AD000002908BF00281CBF4FF0FF314FF0FF3046
:100AE00000F072B9ADF1080C6DE904CE00F006F823
:100AF000DDF804E0DDE9022304B070472DE9F0479A
:100B0000089E04468846002B4BD18A42154667D979
:100B1000B2FA82F24AB1C2F1200701FA02F320FAD6
:100B200007F7954047EA030894404FEA154E230C17
:100B3000B8FBFEF71FFA85FC0EFB178843EA084353
:100B400007FB0CF1994209D9EB1807F1FF3080F04F
:100B50001B81994240F21881023F2B445B1AA4B2D8
:100B6000B3FBFEF00EFB103344EA034400FB0CFC25
:100B7000A44509D92C1900F1FF3380F00781A44561
:100B800040F2048102382C4440EA0740A4EB0C04F4
:100B900000271EB1D4400023C6E900433946BDE812
:100BA000F0878B4209D9002E00F0EB800027C6E9C0
:100BB000000138463946BDE8F087B3FA83F7002FC5
:100BC00047D18B4202D3824200F2FA80841A61EB51
:100BD000030301209846002EE0D0C6E90048DDE777
:100BE00002B9FFDEB2FA82F2002A40F08F80491B80
:100BF0004FEA154E1FFA85F80127B1FBFEFC230CC6
:100C00000EFB1C1143EA014308FB0CF1994207D982
:100C1000EB180CF1FF3002D2994200F2CD808446ED
:100C2000591AA3B2B1FBFEF00EFB101443EA0444C0
:100C300008FB00F8A04507D92C1900F1FF3302D2B8
:100C4000A04500F2B6801846A4EB080440EA0C4028
:100C50009FE7C7F1200CBB4022FA0CFE4EEA030EC0
:100C600001FA07F420FA0CF521FA0CF34FEA1E48BA
:100C70002543B3FBF8F92C0C08FB19331FFA8EFA45
:100C800044EA034309FB0AF49C4202FA07F200FA21
:100C900007F10BD91EEB030309F1FF3080F08780C9
:100CA0009C4240F28480A9F1020973441B1BADB23F
:100CB000B3FBF8F008FB103345EA034400FB0AFAE3
:100CC000A24508D91EEB040400F1FF336BD2A24504
:100CD00069D90238744440EA0940A0FB0289A4EBB8
:100CE0000A044C45C2464B4654D351D0002E69D01D
:100CF000B1EB0A0564EB030404FA0CFCFD40FC4074
:100D00004CEA0505C6E90054002747E7C2F1200375
:100D100020FA03F7954001FA02F021FA03F34FEAB3
:100D2000154E3843010CB3FBFEF71FFA85F80EFB96
:100D3000173341EA034107FB08F38B4204FA02F43C
:100D400007D9691807F1FF3C2FD28B422DD9023FFA
:100D50002944CB1A81B2B3FBFEF00EFB103341EAFB
:100D6000034100FB08F38B4207D9691800F1FF3CEF
:100D700017D28B4215D902382944C91A40EA0747CD
:100D80003BE73746304609E70746E7E61846FBE605
:100D90004145ABD2B8EB020A69EB0E0201381346AB
:100DA000A4E76046E9E7184695E76746D1E781463C
:100DB0007CE702382C4447E7ACF1020C2B442FE7C8
:100DC000384608E73746E9E6704700BF00000000F4
:100DD00001F0FF01102A2BDB10F0070F08D010F8EC
:100DE000013B013A8B422DD010F0070F42B3F6D1F0
:100DF000F0B441EA012141EA014122F007047FF009
:100E000000070023F0E80256083C85EA010586EA5F
:100E1000010685FA47F5A3FA87F586FA47F6A5FA9B
:100E200087F68EB9EED1F0BC01F0FF0102F00702A7
:100E300032B110F8013B013A83EA010313B1F8D152
:100E40000020704701387047002D06BF3546033833
:100E5000073815F0010F07D1013015F4807F02BF6C
:100E6000013015F4C03F0130F0BC0138704700BFBD
:100E700090F8252012B103685B691847704700207D
:100E8000704781807047C180704701817047418100
:100E9000704770477047704770477047C38810B4F9
:100EA000D21A83885DF8044BC91A036812B25B6DCD
:100EB00009B218474FF6FF7383814FF0FF33036287
:100EC0001368C3611060704790F825201AB190F83C
:100ED000242002B1186070477047704770470123A3
:100EE000C0F8A43370470123C0F8A833704700004E
:100EF000F7B5D0F8B033D0F8AC23C0F8AC33023B30
:100F0000022BC0F8B02398BF134A02AD94BFD35C44
:100F1000052325F8043D044600F55977294638464F
:100F20000DF04BF9D4F8B033023B022B98BF0A4ABC
:100F300004F5A27694BFD35C052329463046ADF86C
:100F400004300DF03AF9384610F01AFF304610F030
:100F500017FF03B0F0BD00BF1C550208F0B52DED22
:100F6000028BD0F8A0539FED1A7A0123C0F8B43356
:100F7000C5F5B47307EE903AF8EE677A83B087EE62
:100F8000878A0446B0EE480A22F06AFA70EE008AB8
:100F9000B0EE480AC4EDEE8A22F0D4F930EE008AB1
:100FA00018EE900A84EDEF8AFFF786FA064618EEEF
:100FB000100A0F46FFF780FA3246CDE900013B46A2
:100FC0002946044823F042FE03B0BDEC028BF0BD7D
:100FD00000005C421F5502080C4B70B5036000F521
:100FE000A753044600F5707610339E4208D0A3F153
:100FF0002C0553F82C3C28461B6898472B46F4E7F1
:10100000204600F0D2FD204670BD00BF60550208AA
:1010100010B50446FFF7E0FF204641F2F44122F00C
:1010200047F9204610BD70B5036804461B6B154692
:1010300098472368294620465B6BBDE870401847F7
:101040000268D0ED0E0AD26FB0EE401A90ED0D0A94
:10105000104708B523F012FE434203F0030300F0EB
:10106000030058BF5842013008BD00002DE9F84F79
:101070001B4E1C4B30680022904203F10C0306DD2E
:1010800053F80C1C203143F80C1C0132F4E7164FC6
:10109000DFF858803B680025002BC3F101030CBF2B
:1010A0004FF007094FF006093B604FF00C0BAA46C2
:1010B0003B68C3EB4504FFF7CCFF336824015A1C9F
:1010C00001350BFB03F318343260A94508EB03022A
:1010D00048F80340C2E901A0EAD1BDE8F88F00BF9B
:1010E0004C080020A0030020080A00209C030020D8
:1010F00082B01FB504AC04E90700039A0793042AE1
:1011000018DCDDE90814042CDDE9012012DC9A4228
:1011100001D188420ED0D21A2032402A0AD8401A71
:10112000203040288CBF0020012004B0BDE81040D2
:1011300002B070470020F8E72DE9F04186B006AB19
:1011400003E90700174FDFF86C80174E00253B6856
:10115000AB4224DD06AB13E903008DE803000C2449
:1011600004FB0584039B94E80700FFF7C1FFA0B1CF
:10117000A268059B9A4210D156F825306BB90B4AEC
:101180001368591C11600A4A42F82350012394E85D
:10119000070046F82530FFF7CFFF0135D7E706B047
:1011A000BDE8F0814C0800209C0B0020E0090020E5
:1011B000500800209C0300202DE9F04387B003ADC8
:1011C00085E80700DFF85090124FDFF850800024C8
:1011D000D9F80030A34219DD0C236343FE18321DF9
:1011E00092E803008DE80300FB5895E80700FFF73D
:1011F0007FFF48B158F8243033B9022396E807003E
:1012000048F82430FFF7D8FF0134E1E707B0BDE824
:10121000F08300BF9C0300204C0800200C0A002033
:101220002DE9F0473D4BDFF8FC90D3F800808EB0FD
:10123000044600264FF00C0A071DB04551DD97E823
:1012400003008DE803000AFB0695236895E8070074
:10125000FFF74EFF002842D0D5E9002102F120051A
:101260000495D4E9006502F11003A2F11000203AC0
:10127000CDE9052301F12002CDE90822AA1A029343
:10128000CDE90A11F31A20395243CDE90C1103902C
:10129000079003FB0323012100270DF1080C0DF13A
:1012A000200E5EF821005CF82120281AB21A404373
:1012B00002FB02029A42B8BF0F4601F10101B8BF1A
:1012C00013460629EDD10EAB03EB870353F8302C00
:1012D00053F8183C226063600EB0BDE8F087013619
:1012E000ABE76368002BF7D10D4B21681B68002B1F
:1012F0000CBF18230823CA1A202092FBF0F25201D7
:10130000D018203213440D1AC91A49436D43A9421B
:10131000ACBF014619462160DEE700BF4C08002043
:10132000080A00209C0300202DE9F04FADF2C44DC7
:1013300001AC84E807002046FFF772FF00230DF19F
:1013400010081946012043F8081008EB03020C337B
:10135000B3F5966FC2E90110F5D1DFF87491594EDB
:101360004FF0000C63464F460C25D9F8002062452B
:1013700003F1010E0DDD05FB0C620CF1010C91680F
:101380000429DFBF07CA05FB038383E80700734610
:10139000EBE705FB03FC0025654508D008EB0502DB
:1013A00007CA06EB050989E807000C35F4E7DFF802
:1013B0002491DFF824A1DFF82481C7F800E001229E
:1013C000C9F8002094E807004FF00C0C00250CFB36
:1013D000036C8CE807002A463B49CAF80050C8F85D
:1013E00000305546104641F8220001329645FADC9D
:1013F000012241F8232094E80700FFF79DFED9F869
:101400000010022959DD0023D7F800C02F4C1A46DE
:101410009C4503DD44F823200133F9E70023012034
:1014200058F823200133994244F82200F8D10021D2
:101430002A68DFF8AC800B464FF00C0E9C451ADC96
:1014400001B12A60DFF898B04FF000084FF0020AAF
:101450004FF00C092B6843451ADC386800230C2236
:1014600006250527984228DD54F82310E9B1012903
:101470001FD00133F6E754F8230038B90EFB0360A0
:10148000406818B948F82230012101320133D5E70C
:101490005BF8283044F823A009FB036393E80700B6
:1014A000FFF78AFE08F10108D4E702FB03618D60B3
:1014B000DFE702FB03618F60DBE70DF2C44DBDE89F
:1014C000F08F00BF9C0300209C0B00200C0A002022
:1014D0004C080020E0090020040A002050080020E9
:1014E000E409002030B50A4B0A4819680C2400238F
:1014F000994209DD04FB03029568042D02DC526861
:10150000DF2A03DC0133F3E7002030BD0120FCE7D4
:101510004C0800209C0300202DE9F04186B003AC6C
:101520000F4B104E1F6884E8070000254FF00C0891
:10153000AF4210DD08FB05F2B318043393E8030053
:101540008DE80300B35894E80700FFF7D1FD0128A8
:1015500002D00135ECE7002006B0BDE8F08100BF05
:101560004C0800209C0300202DE9F743064600F0BC
:1015700049FC244B33604FF49173C6F8A033012328
:10158000C6F8AC3306F5707402230025C6F8B033F4
:1015900004F589570023DFF87090C6F8A453C6F805
:1015A000A853C6F8B453C6F8B833C6F8BC331037DE
:1015B0004FF6FF7802A90123A580E580258165818A
:1015C000A581E58125826582E5612584658484F8AD
:1015D000245084F82530C4F80090A4F8268084F8BC
:1015E0002880C4E90555204621F8048D2C340CF0E0
:1015F000E4FDBC42DED141F2F0433046F55003B089
:10160000BDE8F083605502084C700208064B0022CA
:1016100003F59661012043F8040C43E903220C33DF
:101620008B42F8D1704700BFA80300202DE9F74F87
:1016300000F5A755074600F570740026103500F137
:1016400004092B68B34204F12C080BDD58F82C3C3C
:1016500020465B6998472146484608F05EFB013604
:101660004446EEE70024224EDFF88C902C60BB4607
:10167000A246D9F80020A24237DDB268042AC8BFCA
:101680008BF8E5A3B168DBF8C0230239022998BFC3
:10169000184B126E98BF585C02A988BF05200BF545
:1016A000707821F8040D404690477268B6F9001032
:1016B0001E3212B24046FFF7B6FC29682C2202FB0C
:1016C000017101F570714A6912B9381D08F0E4FA28
:1016D000DBF8C0234046526990472A6801322A60ED
:1016E00001340BF12C0B0C36C3E703B0BDE8F08FCF
:1016F0009C0300201C5502084C0800202DE9F041F5
:101700002DED028BD0F8A433012B84B0044635D1E3
:10171000D0F8A033DFED858A9FED858AB3F5917F00
:1017200084BF03F1FF33C0F8A033D0F8A0334FF4E7
:10173000B475B3FBF5F205FB123300EE103AB8EEC8
:10174000C00A00F5357020EE280A80EE080AFFF77F
:1017500077FCD4F8A023B2FBF5F305FB132304F5C3
:10176000117000EE103AB8EEC00A20EE280A80EEA2
:10177000080AFFF765FC0023C4F8A433D4F8A833A3
:10178000012B34D1D4F8A033B3F5D77F3CBF01335C
:10179000C4F8A033D4F8A033DFED648A9FED648AE7
:1017A0004FF4B475B3FBF5F205FB123300EE103ABB
:1017B000B8EEC00A04F5357020EE280A80EE080A5B
:1017C000FFF73EFCD4F8A023B2FBF5F305FB13238F
:1017D00004F5117000EE103AB8EEC00A20EE280AA7
:1017E00080EE080AFFF72CFC0023C4F8A833D4F8D5
:1017F000B433012B46D1B4F96A83D4F8AC33B4F9CD
:1018000068730197A8F11E02CDE9022301AE96E8A4
:101810000700FFF781FE04F55975C0BBB8F1000F52
:1018200035DB013FBFB2CE2F05D9D4EDEE7AF1EE14
:10183000677AC4EDEE7A284610F0A2FAB4F96A335A
:10184000D4EDEF7AD4EDEE6A07EE103AB4F96833CE
:10185000B8EEC77A284637EE677A07EE903AF8EE88
:10186000E77ABDEEC77A77EEE67A17EE103AFDEE2C
:10187000E77A1AB217EE903A19B2FFF7D4FB28466E
:1018800010F07EFA04B0BDEC028BBDE8F0810023BD
:1018900096E80700C4F8B433FFF746FDFFF7E6FB10
:1018A0002046FFF7C3FEFFF71DFE012805D184F88F
:1018B0000D0204F5F47010F063FA04F5A2772846DF
:1018C00010F05EFA384610F05BFA4FF48872682127
:1018D0002846FFF7A8FBD4F8B033C4F8AC33FFF7C1
:1018E000B8FBD4F8AC33C4F8B003023B022B98BF6A
:1018F000104A04AE94BFD35C052326F8103D284659
:1019000031460CF05AFCD4F8B033023B022B96BFA0
:10191000084A0523D35CADF80030314638460CF058
:101920004CFC284610F02CFA3846A9E7C3F548408D
:10193000000034431C550208F7B5044600F036F9A0
:10194000FFF787FBC4F8AC03FFF783FBD4F8AC3395
:10195000C4F8B003023B022B98BF214A02AD94BFEA
:10196000D35C052325F8043D04F559762946304615
:101970000CF023FCD4F8B033023B022B98BF184A7A
:1019800004F5A27794BFD35C052329463846ADF809
:1019900004300CF012FCD4F8A0139FED120A4FF49F
:1019A000B472B1FBF2F302FB131307EE903AF8EEB8
:1019B000E77A04F5357067EE807A9FED0B0A87EEC3
:1019C000800AFFF73DFB304610F0DAF9384610F098
:1019D000D7F9FFF74BFB2046FFF728FE03B0F0BD19
:1019E0001C550208C3F548400000344370470438D2
:1019F0007047704710B51021044621F059FC20466D
:101A000010BDA0F10400F5E710B500228260044A81
:101A1000C16002F1080420320460426010BD00BFC2
:101A20009C550208704704387047704710B5102164
:101A3000044621F03DFC204610BDA0F10400F5E76E
:101A400010B500228260044AC16002F1080420320D
:101A50000460426010BD00BFC45502087047704763
:101A600010B5034B0360044600F048FC204610BD4F
:101A7000F455020810B50446FFF7F2FF20464FF474
:101A8000907121F015FC204610BD000010B50446F1
:101A900000F0DCFC014B2360204610BDF455020829
:101AA00000F02DBC0022026070477047704700F5BF
:101AB00098730868496803C37047704700F00ABF0D
:101AC00010B54FF4AE71044621F0F2FB204610BD74
:101AD00010B50446D0F85801FFF7E7FF2046BDE8EF
:101AE00010400FF01DB810B50446D0F8400158B1B1
:101AF0000368DB68984738B1D4F8400103689B68F5
:101B000098470023C4F8403110BD000010B50446CA
:101B100000F0A4FE014B2360204610BD28560208A9
:101B200070477047704730B585B0036801816D46D6
:101B300001460446D3F884302846984795E80700C4
:101B40003C3484E8070005B030BD30B585B003688B
:101B500041816D4601460446D3F8843028469847B3
:101B600095E807003C3484E8070005B030BD00224A
:101B7000028042808280C280704780F836107047B1
:101B800070B5036804461B6B1546984723682946C1
:101B900020465B6EBDE8704018470020704700206B
:101BA000704770477047704770477047704770477D
:101BB000704730B4C56844686A100346ED0704EB0B
:101BC00002009B6848BFA25830BC48BFD358184792
:101BD00043682BB183682BB9C06800F001007047DF
:101BE0001846704701207047A0F84C107047B0F8B5
:101BF0004C00704710B50821044621F059FB2046DF
:101C000010BD10B55C21044621F052FB204610BDEA
:101C100010B51021044621F04BFB204610BD10B535
:101C20004FF46871044621F043FB204610BD0000CC
:101C300070B503685E6B124B1B6804468DB22BB9FE
:101C4000104B114A6C21114822F004FC1049828D7E
:101C50000988914203D80F4B0B4A6D21F3E713F823
:101C600012200D4B1B6853F8220003681B6B98472A
:101C7000291A3346204609B2BDE87040184700BF14
:101C8000EC410120345702083C58020876570208FC
:101C9000F0410120B7570208F441012000F19803F8
:101CA000994270B504460D4603D10EF09DFE00F03A
:101CB00021FE04F5D6739D4203D123682046DB6ADA
:101CC000984704F588739D4203D1236820461B6B17
:101CD000984704F1D4039D4203D1236820465B6BEF
:101CE000984704F5B8739D4205D1236820469B6B45
:101CF000BDE87040184770BD70B590F84830044694
:101D0000002B4BD0B0F84A00B4F84C30013080B210
:101D10009842A4F84A0041D3B4F85050B4F8522085
:101D2000666D521BC01A12B2B4F84E30002180B258
:101D3000B0470544ADB294F836202BB29A4206D093
:101D4000EDB22BBB20460BF0C7FE84F83650B4F83A
:101D50004C30B4F84E10B4F84A200B449A421DD3CC
:101D6000002384F84830A4F84E300EF03DFE2146A2
:101D700004300EF05EFEA06D80B10368DB6898470A
:101D800060B1A06D036821469B68BDE870401847AC
:101D900084F8365020460BF09FFED8E770BD000057
:101DA0000A4A026000228280C280028142818281CE
:101DB000C28102824282C0E90522C2610284428459
:101DC00080F82420012280F8252070471C71020829
:101DD00038B5262204460D46002122F0BEFB2046DF
:101DE000FFF7DEFF064B23602B88E384FF232046AA
:101DF00084F8283029460CF0E0F9204638BD00BFB1
:101E00004C7002082DE9F04F2DED028B044695B081
:101E1000A246002510F020FEDE4BE5634AF8403B69
:101E20004FF0260814AE4246294650464FF6FF773B
:101E300022F093FB5046FFF7B3FF26F8087DD64B00
:101E4000236404F16C0BFF23314684F86630A566E9
:101E50005846FFF7BDFF04F19803184604930CF0B1
:101E600085F904F1D403184605930CF07FF904F5C5
:101E70008873424629461846039322F06EFB039866
:101E80009FEDC68AFFF78CFF012384F83431C44BE1
:101E9000C4F8103104F5A2733146A4F83E71A4F8D9
:101EA000407184F84271C4F8385184F83C511846A6
:101EB0000693ADF84870FFF78BFF04F5B87318462A
:101EC00007930CF053F904F5D673184608930CF0F9
:101ED0004DF904F5F473424629461846029322F060
:101EE0003CFB0298FFF75CFFAE4BC4F810324FF496
:101EF0007F0304F51179C4F81C32AB4BC4F8E83108
:101F000004F53578A4F81472A4F82872A4F82A729B
:101F10003146C4F8185284F8205284F82152A4F8AB
:101F20002452A4F82652C4F82C5284F83052A4F853
:101F30003252A4F83452C4F840524846ADF84870C2
:101F40000AF002FE31464046ADF848700AF0FCFD4A
:101F500004F55972314610460992ADF84870FFF702
:101F600037FF924BC4F89033914BC4F898332A460C
:101F700029465046C4F89443C4F89C53FFF753F8DD
:101F80005046F021FEF781FF50464FF4A071271D07
:101F9000FEF77DFF4FF07F43A3665146384607F0BA
:101FA0007BFE2A4629465846FFF73DF831465846FB
:101FB000ADF848500CF001F95946384607F06CFE70
:101FC0002A4629460498FFF72EF8092311AA4FF054
:101FD000080AADF83C30ADF840300FA9134604981C
:101FE000009610AA04F5647BADF844A0ADF848A0B3
:101FF0000CF026F84FF06102A4F8D020C4F8C0B06D
:102000000499A4F8D250384607F046FE059840F2ED
:102010000712BE21FFF707F80B2311A9ADF83C30DA
:10202000ADF840300B4610A90A46059800960FA956
:10203000ADF844A0ADF848A00CF002F84FF06102F2
:10204000A4F80C21C4F8FCB00599A4F80E51384648
:1020500007F022FE039840F207128C21FEF7E3FFFF
:102060000A23324611A90398ADF84430ADF8483040
:102070000BF07CFEC4F838B10399384607F00CFE2B
:102080004FF4887206983521FEF7CDFF04233146C0
:102090000698ADF848300CF090F80699384607F0ED
:1020A000FBFD0798D522BE21FEF7BDFF0C2311A929
:1020B000ADF83C30ADF840300B4610A90A46079801
:1020C00000960FA9ADF844A0ADF848A00BF0B8FFFA
:1020D0004FF06102A4F8A821C4F898B10799A4F8B8
:1020E000AA51384607F0D8FD089840F2071203219C
:1020F000FEF799FF0D2311AAADF83C30ADF8403042
:102100000FA913460898009610AAADF844A0ADF8A0
:1021100048A00BF095FF5F23A4F8E431C4F8D4B1D4
:102120000899A4F8E651384607F0B6FD8122294601
:102130000298DFF880B0FEF776FF0DF1280A4FF025
:10214000FF33C4F818320299A4F81C5250460BF021
:102150001DFB9AE8070004F5097383E80700114B9B
:10216000029812933146ADF84C500BF0A1FD029944
:1021700084F80D52384607F08FFD882248466FF0EC
:102180001F01FEF750FF314602234846ADF84830A4
:1021900012E000BF00580208906E02080000000024
:1021A000F86E02087C5602088C5602082457020872
:1021B0009D1C0008000018430AF068FE484BC4F854
:1021C0004C32484BC4F87032484684ED9D8A0AF080
:1021D00007FDDFF81CA1B7EE000A48460AF067FECB
:1021E0004846C4F89CA20AF0FBFC4846C4F888B2F2
:1021F000C4F88CB2C4F890A20AF0F2FC4846C4F8C5
:1022000094B2C4F898B20AF0EBFCB0EE481AF0EEC3
:10221000480AB0EE480A48460AF041FE49463846A8
:1022200084F86D5207F038FDD42240462C21FEF789
:10223000FAFE314607234046ADF848300AF026FE44
:102240004FF09813C4F8DC32274BC4F80033274B07
:10225000C4F8043340460AF0C3FCB7EE000A404617
:102260000AF025FEDFF88C90C4F82CA340460AF053
:10227000B7FC4046C4F81893C4F81C93C4F820A3D4
:102280000AF0AEFC4046C4F82493C4F828930AF040
:10229000A7FCB0EE481AF0EE480AB0EE480A4046F5
:1022A0000AF0FDFD4146384684F8FD5207F0F4FC83
:1022B0004FF4887209986821FEF7B5FE0523314670
:1022C0000998ADF848300BF078FF3846099907F0C7
:1022D000E3FC204615B0BDEC028BBDE8F08F00BFDB
:1022E0003001300100001643000030420000304150
:1022F00000007A4400009842806A70477047704737
:1023000090F82C302BB1C26EC26523B1436F0366C7
:102310007047826EF8E7036FF9E77047704730B493
:10232000C56844686A100346ED0704EB02009B6829
:1023300048BFA25830BC48BFD358184743682BB198
:1023400083682BB9C06800F00100704718467047D9
:102350000120704790F82D3080F85A30704710B542
:102360007821044620F0A4FF204610BD10B51021AE
:10237000044620F09DFF204610BD10B54FF490712B
:10238000044620F095FF204610BD10B50446006BB2
:1023900050B10368DB68984730B1206B0368214671
:1023A0009B68BDE81040184710BD70B50B7990F8D8
:1023B0002C5004460E4653B955B13379012B17D131
:1023C00023682046D3F88830BDE8704018477DB1B7
:1023D000B3FA83F35B0984F82C3023682046D3F8E2
:1023E0008C309847236820465B699847002DE4D1DC
:1023F00070BD9830884208B505D10EF0F5FABDE8F9
:10240000084000F087BA08BD70B5036804469B6BAE
:1024100015469847236829462046DB6BBDE8704087
:102420001847000010B526220446002122F095F836
:102430002046FFF7B5FC044B2360FF2384F82630C9
:102440000023A362204610BD906E02082DE9F04FD4
:10245000044685B0A046002510F0FEFA614BE56306
:1024600048F8403B04F16C074046FFF7DBFF4FF6AE
:10247000FF762622294638460DF1100AADF80C6089
:1024800022F06BF83846FFF78BFC574BE3663AF8BF
:10249000043DA4F89230514684F89460384604F123
:1024A00098060BF08AFE3046FFF77AFCFF2304F112
:1024B000CC0984F8C5304D4AC4F89820012384F82B
:1024C000BC30C4F8C05084F8C450C4F8C850484662
:1024D0000193FFF7A7FF464AC4F8CC2029462A46B5
:1024E0004846C4F8F850A4F8FC50C4F80051C4F8A9
:1024F0000451C4F80851C4F80C51FEF794FD494644
:10250000304607F0C9FB3B4AC4F810213A4AC4F8E8
:10251000182129462A464046C4F81441C4F81C51E3
:10252000FEF781FD40464FF4A072F021FFF76CFFEB
:1025300004F1040B4FF07F42A2664146584607F073
:10254000ABFB2A4629463846FEF76DFD019BADF8E8
:102550000C30514638460BF030FE3946584607F0ED
:102560009BFB2A4629464846FEF75DFD4722A021EF
:102570004846FFF749FF0523A4F8FC301F4BC4F879
:10258000003103F54C533333C4F80431A3F5CC4385
:10259000663BC4F8083103F1331303F54C53C4F818
:1025A0000C313046FFF7ACFED4F8983084F8C550B3
:1025B0003046D3F89030984704F58873C4F8C83093
:1025C0003046A0222821FEF72EFD47223046A021CA
:1025D000FFF71AFF5846314607F05EFB204605B06C
:1025E000BDE8F08F345902084C7002088058020888
:1025F0006C6F02081C590208F3230008996600FF5B
:1026000070477047704741607047704701230372FD
:102610007047704770477047704710B4C46841688E
:1026200062100346E40701EB02009B6848BF8A582A
:102630005DF8044B48BFD358184743682BB18368F3
:102640002BB9C06800F001007047184670470120A0
:10265000704710B50C21044620F02AFE204610BD1C
:1026600010B54FF4AE71044620F022FE204610BD96
:1026700010B51021044620F01BFE204610BD10B5F9
:102680004021044620F014FE204610BD10B5402124
:10269000044620F00DFE204610BD10B50EF0A4F942
:1026A0000368BDE81040DB6B184770B5044690F82E
:1026B000390094F838300130C0B2984284F83900BB
:1026C00005D901232372002384F8393070BDB4F991
:1026D0003A20002110F072FB83B213F0010206D001
:1026E0004FF6FF710028D8BF0A46981800B2238A17
:1026F000C01AA08760680368DB69984705464DB13A
:10270000A988A38F19442B6828461B6B09B29847E8
:10271000AD69F4E760680368BDE870405B6918471D
:1027200070B5044690F8390094F838300130C0B2E2
:10273000984284F8390005D901232372002384F8D4
:10274000393070BDB4F93A20002110F037FB83B264
:1027500013F0010206D04FF6FF710028D8BF0A46D9
:10276000981800B2238AC01AA08760680368DB69E2
:10277000984705464DB1A988A38F19442B68284670
:102780001B6B09B29847AD69F4E760680368BDE860
:1027900070405B6918470000054B1B783BB14368EC
:1027A0002BB11A6800F10C01526E184610477047A1
:1027B00091410120054B1B783BB143682BB11A684E
:1027C00000F10C01526E18461047704791410120EC
:1027D00070B5037A0546BBB940680368DB69984762
:1027E00004464CB1A1886B8FC91A236820461B6B25
:1027F00009B29847A469F4E76868036805F10C0119
:102800001B6EBDE87040184770BD70B5037A054671
:10281000BBB940680368DB69984704464CB1A1889E
:102820006B8FC91A236820461B6B09B29847A469AD
:10283000F4E76868036805F10C011B6EBDE87040A1
:10284000184770BD044B1B6893F858200AB1D86C28
:1028500000B99868704700BF94410120F8B504465C
:1028600017460E460EF09CF9164BC4F854711C60C6
:10287000154B2360154BC4F84431154BC4F858610F
:1028800000251868C4F83C51C4F84051C4F84851B8
:10289000C4F84C51C4F85051036801219B68984713
:1028A000284600F0B5FCFFF7CDFF18F0DAFBFFF784
:1028B000C9FF18F051FCFFF7C5FF18F059FC20467E
:1028C000F8BD00BFE841012080590208685902089C
:1028D00094410120064BC0F84C310023C0F8503120
:1028E00000F5A273C0F84801C0F84031704700BF3E
:1028F000752A0008064BC0F84C310023C0F850314F
:1029000000F5A273C0F84801C0F84031704700BF1D
:10291000312C0008064BC0F84C310023C0F8503170
:1029200000F5A273C0F84801C0F84031704700BFFD
:10293000F12D00082DE9F04707469068DDF820A04A
:10294000994603681B6A884615469847B0F5907FFC
:1029500005D2424B424AA321424821F07BFD6868E0
:1029600003681B6A98470F2803D83F4B3C4AA421B1
:10297000F2E7E86803681B6A98470B2803D83B4BCB
:10298000374AA521E8E70EF02FF804300EF06AF878
:10299000D9F8000010B10368DB689847D9F8000047
:1029A00010B103681B689847386810B103685B6909
:1029B0009847D8F8000010B103685B6898473868FA
:1029C00010B103681B689847D8F8000010B103687D
:1029D0009B689847E868036800215B6A984704464B
:1029E00020B1002343600372214B0360A868036891
:1029F00000215B6A9847064608B1FFF747F8686808
:102A0000036800215B6A9847054610B13146FFF71D
:102A100017F8C9F80040C8F800503E60E5B12B1D1A
:102A2000CAF80030C5F808A03368F5633046DB68A3
:102A300098472B6828461B6898472146304610F077
:102A4000B7F9236820461B699847236820465B69CD
:102A500098472846BDE8F0872B46E1E7385A020838
:102A60004D5C0208C65A0208075B0208AA5B02080E
:102A7000D459020807B5D0F858310093D0F8542142
:102A8000044B00F59E710448FFF754FF03B05DF856
:102A900004FB00BFDC410120D84101202DE9F84FA3
:102AA00007469068994603681B6A8846154698470A
:102AB000B0F5907F05D2554B554AA321554821F0DA
:102AC000C9FC686803681B6A98470F2803D8524BF3
:102AD0004F4AA421F2E7E86803681B6A98473F2839
:102AE00003D84E4B4A4AA521E8E70DF07DFF04309C
:102AF0000DF0B8FFD9F8000010B10368DB68984703
:102B0000D9F8000010B103681B689847386810B105
:102B100003685B699847D8F8000010B103685B68E8
:102B20009847386810B103681B689847D8F80000C8
:102B300010B103689B689847E868036800215B6AE6
:102B400098470446B0B106464FF0000B344BC0F82E
:102B500004B080F808B046F80C3B30460AF01AFD85
:102B6000142323872F4BA4F83CB01B78002B37D1BC
:102B700001232372A868036800215B6A9847064610
:102B800008B1FEF783FF6868036800215B6A984715
:102B9000054610B13146FEF753FFC9F80040C8F8AA
:102BA00000503E60002D2ED02B1D0A9A1360AA60A3
:102BB0003368F5633046DB6898472B6828461B6806
:102BC00098472146304610F0F3F8236820461B69E9
:102BD0009847236820465B6998472846BDE8F88FE8
:102BE000DFF848A0104ABAF90010B2F90020C4F882
:102BF00010B03046FFF708FC30460AF046FCBAF841
:102C000000306387B6E72B46CFE700BF385A02088B
:102C1000515D0208C65A0208075B0208AA5B020857
:102C20001C5A02089141012088410120864101205F
:102C300007B5D0F858310093D0F85421044B00F573
:102C40009E710448FFF72AFF03B05DF804FB00BF44
:102C5000DC410120D84101202DE9F84F074690685A
:102C6000994603681B6A88461546984741F2F34324
:102C7000984205D8554B564AA321564821F0EAFB05
:102C8000686803681B6A98470F2803D8524B504A5C
:102C9000A421F2E7E86803681B6A98473F2803D835
:102CA0004E4B4B4AA521E8E70DF09EFE04300DF097
:102CB000D9FED9F8000010B10368DB689847D9F84D
:102CC000000010B103681B689847386810B10368AA
:102CD0005B699847D8F8000010B103685B689847B3
:102CE000386810B103681B689847D8F8000010B125
:102CF00003689B689847E868036800215B6A984707
:102D00000446B0B106464FF0000B354BC0F804B096
:102D100080F808B046F80C3B30460AF03BFC142320
:102D20002387304BA4F83CB01B78002B37D101230C
:102D30002372A868036800215B6A9847064608B1B9
:102D4000FEF712FC6868036800215B6A9847054635
:102D500010B13146FEF758FEC9F80040C8F80050DF
:102D60003E60002D2FD02B1D0A9A1360AA60336895
:102D7000F5633046DB6898472B6828461B68984700
:102D80002146304610F014F8236820461B69984706
:102D9000236820465B6998472846BDE8F88FDFF82E
:102DA0004CA0114ABAF90010B2F90020C4F810B0D2
:102DB0003046FFF729FB30460AF067FBBAF80030CF
:102DC0005B426387B5E72B46CEE700BF385A02085F
:102DD000705E0208C65A0208075B0208AA5B020876
:102DE000F8590208914101208841012086410120C3
:102DF00007B5D0F858310093D0F85421044B00F5B2
:102E00009E710448FFF728FF03B05DF804FB00BF84
:102E1000DC410120D841012013B5002249B102ABA9
:102E2000019203F8052D0268946801AAA04702B038
:102E300010BD0846FBE7C0897047008A7047C0880C
:102E4000704780887047807A00F07F007047807AF2
:102E5000C0097047002070479FED010A704700BF0E
:102E600000000000406A7047806A7047704710B5E4
:102E70008A880B884C88C169D20A43EA044351F816
:102E80002200184410BD10B5C2B1137BB3B1547BFE
:102E9000D27A240204F4E0641443026A98B202EB8A
:102EA000840213888B4202D192F9020010BD05D82A
:102EB000013880B204320028F3D1F7E70020F5E7AB
:102EC00010B52C21044620F0F3F9204610BD000077
:102ED00030B58BB00446BDF860500895BDF85C5025
:102EE00007959DF8505006959DF84C5005959DF816
:102EF000485004959DF8445003959DF84050029524
:102F00009DF83C500195BDF8385000950FF088FBB6
:102F1000064B2360159BE361169B2362199B63623A
:102F20001A9BA36220460BB030BD00BF985F020819
:102F300030B5174D2C78BFF35B8F14F001048FB0C0
:102F400022D1284620F08BF9F0B13F230993114B91
:102F50000893114B11490A940122CDE90643042339
:102F6000CDE903320A230093CDE90B440594CDE962
:102F700001440B48FFF7ACFF284620F07CF9094AD2
:102F80000949074820F08FF905480FB030BD00BF50
:102F90002C0D0020C8890208C4890208A4880208F0
:102FA000300D0020000000206D2E000810B5002418
:102FB00004600C6014601C6010BD000030B5184D3A
:102FC0002C78BFF35B8F14F001048FB024D1284616
:102FD00020F045F900B33F230993124B0893124B9D
:102FE00012490A94CDE9064301220423CDE90332B4
:102FF000282309220093CDE90B4429230594CDE928
:1030000001440B48FFF764FF284620F034F9094AD1
:103010000949074820F047F905480FB030BD00BF07
:103020005C0D0020BC890208DC890208CC880208FB
:10303000600D0020000000206D2E000830B5174DF7
:103040002C78BFF35B8F14F001048FB023D1284696
:1030500020F005F9F8B13F230993114B0893114B68
:1030600007930123CDE9054304930423CDE90243EB
:10307000142308220C490093CDE90B440A940194CF
:103080000A48FFF725FF284620F0F5F8084A0949C5
:10309000064820F008F905480FB030BD8C0D00201F
:1030A000CC890208E08902084C890208900D0020B2
:1030B000000000206D2E0008704710B50421044662
:1030C00020F0F6F8204610BD012908B508D003D33A
:1030D000022909D0002002E000F012F8006808BDC3
:1030E00000F00EF84068FAE700F00AF88068F6E7AA
:1030F000004870470C6002080E207047022070479D
:1031000000487047BC0D002010B5FFF797FF044C36
:103110002060FFF753FF6060FFF70AFFA06010BD5B
:10312000BC0D002000207047002070470EB403B58E
:1031300003AB002153F8042B01930EF0F7FC02B00F
:103140005DF804EB03B070470CB407B504AB53F85B
:10315000042B01930EF0EAFC03B05DF804EB02B01F
:103160007047000010B5436C044673B3038F2BB94E
:10317000184B194AC521194821F06CF9C38E00EB90
:1031800043035B8C0BB310F09EFB238F012B03D802
:10319000134B144ACB21EEE7E28E531C9BB2092B52
:1031A000194688BFA3F10A0104EB410140F63F1024
:1031B000498C814209D10A2B04EB420228BF00232B
:1031C00004EB4303508C588451842046BDE81040E2
:1031D00010F07CBA24610208516202082D610208D5
:1031E000716102087F61020810F037BA10B586B02D
:1031F00002AC84E806001A460AAB05930193099BCA
:1032000000932146089B0CF071FF06B010BD000032
:1032100038B5D8B9114B12481B681249BBB11A68AE
:103220009C681A4402605A681A440A601C446CB1D3
:103230000D4B00221A80FFF763FF0546FFF75EFF84
:103240000A4B1C600A4B1D600A4B188038BD0A4BA4
:1032500003600A4B0B600A4B1C68E8E7C80D0020AE
:10326000CC0D0020D00D0020D40D0020EC41012019
:10327000F4410120F041012044B5080834B50808A4
:1032800040B50808044B1B6853F82100034B1B682A
:1032900003EB4000704700BFD00D0020CC0D002094
:1032A000012380F8781080F879307047704700204B
:1032B000704700004164034B003118BF01211970B1
:1032C000704700BF91410120704700207047836B19
:1032D0000BB10846184770474FF6FF7070474068BB
:1032E00003689B6918477047704770477047002014
:1032F0007047B1F90430838001207047704780F82F
:103300002610704790F82600704710B50022B1F9DA
:103310000840B1F90A10028042808480C18010BD4B
:103320000022028042808280C2807047017770470D
:1033300080ED080A704780F82410704780F8251047
:10334000704701207047983070478C307047843048
:1033500070470000034B902283F85A2383F85823C8
:10336000704700BF00E100E0094A0A49D3680A48F3
:10337000C3F30A03013B9BB20B801169C1F30A013D
:10338000013901801364536B43F0010353637047A9
:1033900000680140DE0D0020DC0D0020014B986A22
:1033A000704700BF84680140024B0122996243F8D4
:1033B000602C7047846801407047704710B52C211D
:1033C00004461FF075FF204610BD10B5BC21044611
:1033D0001FF06EFF204610BD10B531B90A4B0B4AE5
:1033E0000B4840F2FF2121F035F8C0E90F120032FE
:1033F000084918BF01220A7002681946D2F89020C5
:10340000BDE81040104700BFFD640208F0650208E7
:10341000356502089041012008B5094B1B888B4295
:1034200003D8084B1B88934205D9074B074A084825
:10343000A32121F00FF8074B1980074B1A8008BD14
:1034400086410120884101209A640208AD65020886
:10345000356502088C4101208E41012070B504467B
:1034600006F005FF23689D6E0DF0BEFA014620466A
:10347000A8472368054AD3F88C502046AC46002361
:10348000A2F51631BDE87040604700BF005802D079
:1034900006F0D4BE06F0DEBE06F09ABE07F009B80C
:1034A00010B5044607F060FC23682046D3F8BC3012
:1034B000BDE81040184790F87A301BB140680368A7
:1034C0001B6818471846704710B590F8784090F878
:1034D00034100C4B8C421A7809D03AB90A4A0B497D
:1034E0001488088810800C8001221A7010BD002AF0
:1034F000FCD0054A05491488088810800C800022F9
:10350000F3E700BF8A410120864101208841012064
:10351000034B4FF080629A604FF080729A60704760
:1035200000E100E0084B4FF08062C3F88820BFF351
:103530004F8FBFF36F8F4FF08072C3F88820BFF3B7
:103540004F8FBFF36F8F704700E100E070B500232D
:103550008380114D114B03602A6892F8581006467B
:1035600009B1D06C00B990680368DB6A98472B6892
:10357000B0FA80F4D86C640928B10368DB6A984714
:10358000002808BF01242CB9054B064A06482C2107
:1035900020F060FF304670BD9441012004630208B2
:1035A000E0630208746502083E64020870B5284EA4
:1035B0003578BFF35B8F15F0010547D130461FF01A
:1035C0004EFE002842D0234C234B256104F13400E9
:1035D000C4E90035C4E90255E58425856585A585DE
:1035E0000EF061FF04F1580009F0CAF91B4BA36506
:1035F00020461B4B40F8843BFFF7A8FF194BC4F84B
:1036000084302433C4F88C304FF4C803C4E928351F
:103610000023C4F8AC30C4F8B030C4F8B430C4F8F7
:10362000B8303046104BC4F89050A4F89C5084F841
:10363000A85084F8A95084F8AA50C4F898301FF014
:103640001AFE0A4A0A4920461FF02DFE014870BDA5
:10365000D80D0020E00D0020486C02082463020809
:103660009C630208FC6B0208DC6B0208000000206F
:10367000B933000838B5184C23685BB3174B184AA8
:103680001B6C11888B4216D1164B198803F064FD10
:10369000236893F86A200025013283F86A2083F8B2
:1036A0007C5000F083FA206807F05EFB2846BDE8F6
:1036B000384000F0BBBC03F04FFD2468236820466F
:1036C0001B6A9847012384F87C300020BDE838400D
:1036D00000F0D6BC38BD00BF944101200068014015
:1036E000DE0D0020DC0D002003685B6C1847012014
:1036F000704703689B6A1847FEE7000082B000230A
:1037000001930E4B1A6B42F400021A631A6B02F417
:1037100000020192019A1A6942F400021A611A69C0
:1037200022F400021A61064B064A1A61064A5A61DF
:10373000064B4FF080629A6002B07047003802403A
:10374000A84D012059370008F936000800E100E0D3
:1037500040F2EF3070470000024B1B685868036866
:103760005B6918479441012008B50B280BD8DFE8A6
:1037700000F01206100A0A0A0A08080808080120C0
:1037800008BD0520FCE7054B054A06486F2120F0DF
:1037900061FE0020F4E70220F2E700BF586602084D
:1037A0002A6702087366020808B50A2809D8DFE804
:1037B00000F010060E08080808060606060001209C
:1037C00008BD054B054A0648902120F043FE002025
:1037D000F6E70220F4E700BF5866020874670208A3
:1037E00073660208F8B50C46487FFFF7BDFFA77F58
:1037F00005463846FFF7B8FF06463846FFF7D4FFC0
:10380000A38A628BD21A494B1A64A18A628B521A1C
:103810009A61A18A228B521A1A615863A18AE28A9C
:1038200042EA01425A642269DA636268DA60226815
:10383000402A70D010D8042A3BD0202A6BD0237F96
:1038400045EA0365394B45F40035DD61617FA27FB0
:10385000914267D0364A4BE0B2F5807F1BD0B2F57B
:10386000007F23D0802AEAD1A068021DDA62227F7D
:1038700045EA026545F40035DD615E6222695A6100
:103880000278EAB1012A35D02A4B2B4A2B484FF453
:103890008D7120F0DFFD217F294A42EA0162DA6161
:1038A000E2681A625E6222695A6120E0217F254A3D
:1038B000F3E7227F45EA026545F40035DD61F1E773
:1038C000D9694288501E21F47F4222F0100242EA58
:1038D0000022DA610121154BDA6942F02002DA6137
:1038E000DA699206FCD410229A600029B2D0164AF6
:1038F0001A60F8BDDA694088217F22F47F4222F005
:103900001002013842F01002FF3942EA002218BFCB
:103910000121DA61DFE7237F45EA036545F40035DD
:10392000024BCBE742F20132E2E700BF00B00240B7
:10393000012301003E660208EC6602087366020875
:103940000A000200090002000123020010B5887F6E
:103950000C46FFF729FF1C4B5863A18AE28A42EA12
:1039600001425A642269DA63628BA18A521A1A648C
:103970002268082A16D1A18A628B521A9A61A18AFA
:10398000628B521A1A615862217F104A42EA016220
:10399000DA61E2681A6222695A612269DA600C4AC5
:1039A0001A6010BD0022D8611A61E1680A0A48094C
:1039B00002F4784200F4FC600243C1F3C4010A43FC
:1039C0009A63044AECE700BF00B00240090001001E
:1039D0000123020001230300054B0360054B4FF058
:1039E0008062C3F88820BFF34F8FBFF36F8F70479B
:1039F000A466020800E100E010B50446FFF7ECFF02
:103A000020464FF45A611FF053FC204610BD0000C1
:103A100070B505462C460A4B0C30002668602E72A5
:103A20006E7244F8203B6022214607F0F3FA05F558
:103A30005A63E6602434A342FBD1284670BD00BF20
:103A4000A4660208034B1A68D207FCD423229A60AA
:103A5000704700BF00B002407047000030B50F4C07
:103A60002568ED07FCD423250904A56041F0010178
:103A70000225FF2B65636164E0630AD00849656233
:103A800041EA0363E361074B22626061E060236007
:103A900030BDE561039BA363034BF8E700B0024030
:103AA00009000100010002000100030030B50E4CC6
:103AB0002568ED07FCD423251204A56042F001021D
:103AC0000225FF2B65636264E063E16008D01B069A
:103AD00043F00213E361054B65626061236030BD12
:103AE000034BE3610123F9E700B00240010002004B
:103AF000020002FF30B50B4C2568ED07FCD42325EE
:103B000012041B06A56043F40033022542F00102B3
:103B100065636264E063E160E361034B6562606179
:103B2000236030BD00B0024001000200012108B551
:103B30000022084605F0BDF90A4B186028B90A4B67
:103B40000A4A28210A4820F085FC0022042101208D
:103B500005F050FA074B186018B9074B034A2C219F
:103B6000F0E708BDA00E0020BF67020873680208D6
:103B7000086802089C0E002031680208024B4FF0D2
:103B8000FF31186805F0E0B9A00E0020014B18685D
:103B900005F006BAA00E0020024B0021186805F0BF
:103BA000D3B900BFA00E0020FFF7F0BF03480449BF
:103BB000006800231A4605F059BA00BF9C0E002089
:103BC0000400002013B5084C00231A4601A9206800
:103BD00005F07EFA4FF0FF33002201A9206805F0BE
:103BE00077FA02B010BD00BF9C0E002070477047EE
:103BF00070477047012070474020704700EB8110EC
:103C00000830704700EB8110083070470120704782
:103C100041F2F440704741F2F44303FB01000830E5
:103C2000704741F2F44303FB010008307047012064
:103C300070471020704700EB01100830704700EB10
:103C40000110083070470846FEF744BE10B5034B1C
:103C50000360044606F00CF8204610BD1469020803
:103C600010B50446FFF7F2FF204648211FF020FB65
:103C7000204610BD10B5034B0360044605F0F8FF65
:103C8000204610BDE068020810B50446FFF7F2FFB9
:103C9000204641F2FC411FF00BFB204610BD000006
:103CA00010B5034B0360044605F0E2FF204610BD4B
:103CB000AC68020810B50446FFF7F2FF2046182151
:103CC0001FF0F6FA204610BD10B5094B03600446FC
:103CD00000F5A9500830FFF7B9FF04F12C00FFF7F9
:103CE000C9FF04F11400FFF7DBFF204610BD00BF41
:103CF0004869020810B50446FFF7E6FF204641F286
:103D0000D0611FF0D5FA204610BD00002DE9F34127
:103D1000FFF7EEF90546FFF7EFF9002401462346C9
:103D200028462246009410F0F7F9264B264A1A60DE
:103D30002046FFF76DFA254B254A264D9A60264806
:103D400010F052F92B78BFF35B8FDB0733D4284692
:103D50001FF085FA78B3214C214F224BE76004F124
:103D6000140000F5AB5604F12C086060C4F808801C
:103D70002661236005F07EFF1B4B6361404605F022
:103D800079FF1A4BE362384605F074FF184B3B602D
:103D9000301FFDF787FE2246311F3046FDF7B6FE85
:103DA0003046FEF797FD28461FF065FA114A124982
:103DB00020461FF078FA114802B0BDE8F04100F04B
:103DC000FDB800BFF8410120BC330020C033002003
:103DD00078250020A40E002008000020A80E002056
:103DE000D023002048690208AC680208E068020895
:103DF0001469020800000020C93C00083833002084
:103E000070470000014800F0E7B800BF38330020D9
:103E100010B5042104461FF04BFA204610BD10B522
:103E20008C2104461FF044FA204610BD10B51C2119
:103E300004461FF03DFA204610BD10B5842104460B
:103E40001FF036FA204610BD2DE9F041454C464D95
:103E5000464F474B47492B60224628461FF023FA1E
:103E6000454EDFF854813846FFF7D2FD22464349DC
:103E700038461FF018FA304615F04AFA22464049F3
:103E800030461FF010FA40460EF028F822463D4911
:103E900040461FF008FA22463B493C481FF003FA0F
:103EA0003B483C498166002301220421C0E9017698
:103EB000C560C0E90433C0E90633C0E908330385AF
:103EC00080F82A30C3620386C0E90E33C0E910339C
:103ED00080F8483080F8492080F84A3080F84B302C
:103EE000C0E91333436580F85830C0E9173343669F
:103EF00080F86C3080F86D3080F86E3080F86F306C
:103F000080F87D105021A0F87E101A21A0F88010B2
:103F10001421A0F882102049204D0860F02129804A
:103F20001F4D80F8703029801E4D43674FF4A071FB
:103F300029801D4D80F8783029801C4980F879301F
:103F40000B7080F87C301A4B80F87A2080F87B2048
:103F500080F83420036022461649BDE8F0411FF086
:103F6000A2B900BF00000020942500209825002061
:103F7000486A0208ED3B0008C0330020D939000828
:103F8000EF3B0008F13B0008B930000808000020B2
:103F900038330020010000019441012086410120B6
:103FA0008C410120884101208E4101208A4101205D
:103FB0005C690208F33B00087825002010B5044630
:103FC000FFF74CFA23680349D3F890302046BDE848
:103FD0001040184700B004D008B503680446D3F871
:103FE0008430984723682046DB6F9847FFF7EAFD47
:103FF000236820465B6F9847292000F099FCFFF763
:10400000E1FD236820465B6F9847F8E7FFF7C6B9E4
:10401000FFF7CAB9FFF740BAFFF79CB9FFF778BAC4
:10402000FFF780BAFFF7A0B906F0CCB8032821D873
:10403000DFE800F0020B12190F4B1A68B2FA82F295
:10404000520904210D4802F045BA0B4B5A68B2FAE6
:1040500082F252090821F5E7074B9A68B2FA82F218
:1040600052091021EEE7044BDA68B2FA82F25209E3
:104070002021E7E7704700BF4C34002000100240C9
:10408000032821D8DFE800F0020B12190F4B1A6841
:10409000003218BF012204210D4802F01BBA0B4B5D
:1040A0005A68003218BF01220821F5E7074B9A68C9
:1040B000003218BF01221021EEE7044BDA6800320B
:1040C00018BF01222021E7E7704700BF4C340020D1
:1040D0000010024003280DD8DFE800F00206080AAD
:1040E0000421054802F0FBB90821FAE71021F8E79E
:1040F0002021F6E7704700BF0010024008B50328F2
:1041000011D8DFE800F0020A0C0E0421074802F083
:10411000DBF9431E5842584108BD0821F6E710213B
:10412000F4E72021F2E70020F3E700BF001002408F
:1041300070B5084D00240126E0B2FFF7DFFF28B17B
:1041400055F82430012B18BF45F824600134052CA4
:10415000F2D170BD4C34002038B50C4B0C4C18809B
:104160000C4B822019806368984740F611039842EF
:104170000AD1094D23682C60822098472B68822041
:10418000DB689847002038BD0120FCE75C34002044
:10419000240000205E340020603400204FF4A07121
:1041A000F020FFF7D9BF0000F7B5394D2B68044662
:1041B0001B698220984780B2208000285AD02B6843
:1041C0000DF106025B6901A982209847314B1B78EB
:1041D000002B57D0BDF8062040F674639A424BD9A5
:1041E000ADF80630BDF806209B1AADF80630BDF8D4
:1041F00006200B23B2FBF3F232B1274B1B8893420C
:104200003CBF03F1FF3292B2BDF8043040F6B83142
:104210008B4295BFC3F57163C3F56D630E330833ED
:10422000ADF80430BDF804100F23B1FBF3F131B148
:104230001A4B1B888B423CBF03F1FF3189B2184EE9
:10424000184D30682F6883B2814288BFCB1AB8B24C
:1042500098BF5B1ABA428CBF101A801A9BB280B208
:104260000344052BC8BF31603368C8BF2A60638030
:104270002B68A38003B0F0BDB32A9CBFB422ADF875
:104280000620AFE7BDF80630A3F5B473ADE700BF75
:1042900060340020703400205E3400205C34002044
:1042A000643400206834002037B568460D46144653
:1042B000FFF77AFFBDF8000030B1BDF802302B6087
:1042C000BDF804302360012003B030BD054BD3F8A6
:1042D000882042F47002C3F888204FF000629A6090
:1042E000704700BF00ED00E070B588B00023029376
:1042F000204B1A6C42F010021A641B6C03F010037E
:104300000293064601A903A8029B01F0D7F8069B79
:104310004BBB01F0C3F8184C184B236040F2E73355
:10432000E360174BB0FBF3F00138002360602046D8
:104330002361A360A36101F023FA054680B92046FA
:1043400001F0DCF8054658B9362001F01DFF0F2EAC
:104350000DD82A463146362001F0E2FE094B1E6098
:10436000284608B070BD01F099F84000D3E7012558
:10437000F6E700BF00380240FC4B0120001000406F
:1043800040420F001C00002007B5064B02A91B6825
:1043900021F8020D0122044802F0D3F903B05DF8C0
:1043A00004FB00BF140000209C4C012008B56420D1
:1043B00004F073FDFBE7000030B595B0302200211A
:1043C00008A820F0CAF81422002103A820F0C5F89C
:1043D00000241E4B01941A6C42F080521A641B6C2C
:1043E00003F080530193019B194B02941A6842F425
:1043F00040421A601B6803F4404302930122029B6F
:104400004FF48033CDE9082302254FF480030821BF
:10441000CDE90E534FF4B473CDE9101308A804236B
:104420001393129500F0C2FD00F02EFD0F23CDE98D
:1044300003354FF4A0504FF48053CDE90603052116
:1044400003A8059400F08CFF15B030BD0038024081
:104450000070004080B59AB002F09EFEFFF7ACFFFE
:10446000142200210DA820F078F80024C74B0094F6
:104470001A6BC748C74DDFF8588342F010021A6321
:104480001A6B02F010020092009A01941A6B42F02B
:1044900020021A631A6B02F020020192019A029420
:1044A0001A6B42F080021A631A6B02F080020292C9
:1044B000029A03941A6B42F004021A631A6B02F018
:1044C00004020392039A04941A6B42F001021A63E5
:1044D0001A6B02F001020492049A05941A6B42F0DE
:1044E00002021A631A6B02F002020592059A069400
:1044F0001A6B42F040021A631A6B02F040020692F5
:10450000069A07941A6B42F008021A631B6B03F0B9
:104510000803224607933C21079B01F0DBFF0122A1
:1045200002219D4801F0D6FF224604219A4801F05D
:10453000D1FF22464FF44051984801F0CBFF0126AD
:104540003C23CDE90D360DA9032391481093022792
:104550000F9401F0CBFE0DA98F48CDE90D76CDE982
:104560000F4401F0C3FE04230DA98B48CDE90D369D
:10457000CDE90F4701F0BAFE0DA94FF4405387482B
:10458000CDE90D36CDE90F4701F0B0FE8448854BEB
:10459000036002F06FFFDFF83CE2834B2C62C5E959
:1045A00000E328464FF48043C5E90434C5E90244DA
:1045B000C5E9064401F004FB1021284601F058FD2E
:1045C00021462846794D01F075FD4FF48273C5E907
:1045D00000834FF400791823C5E9069328460A237F
:1045E000C5E90244C5E90444C5E90844AC62EB628C
:1045F00002F048F88F232246394667488DF8243068
:104600008DF8344001F066FF32464FF47A7309A901
:10461000284602F096F84FF47A7332460DA92846E0
:1046200002F041FA324639465B48614D01F052FFD3
:104630009DF83430D32B04BF5E4B1E705E4B0126B9
:10464000C5E90036102240230024C5E904234FF4B5
:10465000C073C5E906344FF40063C5E908344FF46C
:10466000005302274FF00409AB624FF0030A0723FF
:104670000DA92846CDE90D73CDE90F934FF0080839
:10468000C5E90249CDE911A7139700F039FC4FF6AF
:10469000FF7209A9284608940996CDE90A860C9468
:1046A00000F04EFC304602F0A3FD4FF6FF7209A960
:1046B0002846CDE90978CDE90B6400F041FC4FF6BE
:1046C000FF7209A92846CDE909A8CDE90B9400F0AD
:1046D00037FC4FF40C730893089B0C934FF6FF7252
:1046E00009A92846CDE909980B9600F029FC40F26B
:1046F0006A51284600F042FC34220DEB02002146AC
:104700001FF02BFF2D4D2E4B2C61C5E900340923E2
:10471000C5E905361D23C5E9073A40F20D1140F2FF
:104720004313C5E9091340F2171040F24713C5E9D6
:104730000B03C5E90244AC8685F83640284602F0F2
:1047400005FCFF214FF4806CF022CDE91214052105
:10475000CDE914C14FF4A0730DA9CDE90E24CDE924
:10476000164228462246174D1893CDE910370D946E
:10477000ADF864408DF8664002F0C5FC124B2B602A
:104780001B6898472B68114DDB6825E00038024014
:1047900000100240484C012000080240000C02407A
:1047A000F44C012000300240A08601009C4C012006
:1047B000E84D012070340020400100A0FC4C012095
:1047C000006801406C3400204C000020A84D0120FE
:1047D00000500140005C00409847134BC5E90A4770
:1047E000C5E90C442846C5E90034C5E9027402F065
:1047F000FEF93146284602F0BBFA02F04CFE02F008
:1048000049FE04F0D5FA094A0948214604F0FCFAA9
:10481000084B094A18602146084804F0F5FA084B8D
:10482000186004F0D7FAFEE700B00240946A02086C
:10483000AD430008444C0120706A0208A5740008CA
:10484000A44D01207047704710B586B006AC074BE9
:1048500004F8012D1B68029301230A46CDE90043A9
:104860000146034801F05CFA06B010BD10000020BC
:10487000484C01207FB506AA002302F8013D084BF1
:104880001B6802930123CDE900230A46014605482F
:1048900001F0DAFA9DF8170007B05DF804FB00BFDD
:1048A00010000020484C01201FB5084C24680092DD
:1048B000CDE901340A4601230146054801F0C4FA56
:1048C000003018BF012004B010BD00BF1000002050
:1048D000484C012002F08CBC10B5064C002220464A
:1048E000042101F0F7FD204601220421BDE810401B
:1048F00001F0F0BD0008024038B50B4C054601221E
:104900004FF40051094801F0E5FD00220421204642
:1049100001F0E0FD2846FFF737FD20460122042183
:10492000BDE8384001F0D6BD00080240000C02404E
:1049300038B50B4C054600224FF40051094801F0F0
:10494000C9FD00220421204601F0C4FD2846FFF7DE
:104950001BFD204601220421BDE8384001F0BABD0C
:1049600000080240000C0240F7B5144C144D0746F5
:104970000E4620460022042101F0ACFD00224FF437
:104980000051284601F0A6FD3846FFF7FDFC0D4B0F
:104990000D481B68324601A902F085F8284601221D
:1049A0004FF40051019E01F095FD204601220421A3
:1049B00001F090FD304603B0F0BD00BF000802409A
:1049C000000C0240140000209C4C012002F010BC9E
:1049D0000268034B9A4201D102F0F8BB704700BF56
:1049E0000010004070477047FEE7FEE7FEE7FEE775
:1049F00070470000014800F0BFBD00BFFC4B012024
:104A0000014802F01FBB00BFFC4C0120014802F02E
:104A10001EB900BFA84D012082B00E4B00220092AB
:104A2000596C41F480415964596C01F48041009102
:104A300000990192196C41F0805119641B6C03F0CC
:104A400080530193019B0F216FF0010002B001F030
:104A500067BB00BF003802400268094B9A4282B02F
:104A60000BD100230193074B1A6B42F480521A6357
:104A70001B6B03F480530193019B02B0704700BF8E
:104A8000003002400038024007B50F4B02689A42DE
:104A900016D10022A3F5F0430192196B41F40001F5
:104AA00019631B6B03F40003019305215A20019B3A
:104AB00001F036FB5A2003B05DF804EB01F064BB53
:104AC00003B05DF804FB00BF00B002402DE9F043E5
:104AD000044689B01422002103A81FF03EFD22687D
:104AE000244B9A4243D1244C244800250095236B43
:104AF00043F004032363236B03F004030093009B40
:104B00000195236B43F001032363236B03F001033F
:104B10000193019B4FF012094FF400734FF001080D
:104B20000327042603A9CDE90339CDE905870796B4
:104B300001F0DCFB4FF4807303A911480796CDE91F
:104B40000339CDE9058701F0D1FB0295236C43F4CD
:104B500000032364236C03F400030293029B236A83
:104B600043F400032362236A23F40003236209B0A1
:104B7000BDE8F083005C00400038024000080240BD
:104B800000000240F0B599B004461422002107A8A5
:104B90001FF0E3FC30220DEB020000211FF0DDFCD2
:104BA00022685E4B9A4240F0B78008230C93C023E2
:104BB0001093042312930CA84FF40033159302F0C2
:104BC0002BFB08B1FFF70EFF554B5648002400940D
:104BD0005A6C42F080625A645A6C02F08062009211
:104BE000009A01941A6B42F020021A631A6B02F0C9
:104BF00020020192019A02941A6B42F001021A6398
:104C00001A6B02F001020292029A03941A6B42F0AC
:104C100002021A631A6B02F002020392039A0494CE
:104C20001A6B42F040021A631A6B02F040020492BF
:104C3000049A05941A6B42F004021A631A6B02F08C
:104C400004020592059A06941A6B42F008021A6350
:104C50001B6B03F00803069302250E26069B0B969A
:104C60004FF4806307A9CDE90735CDE9094501F087
:104C70003DFB41F6580307A92B480B96CDE90735B4
:104C80000927CDE9094501F031FB032307A927488E
:104C90000B97CDE90735CDE9094501F027FB4FF426
:104CA000706307A921480B96CDE90735CDE9094581
:104CB00001F01CFB4FF40C6307A91D480B96CDE9CE
:104CC0000735CDE9094501F011FBC02307A91948B3
:104CD0000B96CDE90735CDE9094501F007FB08231F
:104CE00007A915480B96CDE90735CDE9094501F02F
:104CF000FDFA4FF4A05307A90D480B97CDE90735EE
:104D0000CDE9094501F0F2FA58202246052101F0CB
:104D100007FA582001F038FA19B0F0BD00680140D8
:104D2000003802400014024000000240000402402B
:104D30000018024000080240000C024010B5044672
:104D400088B01422002103A81FF007FC2268144B2E
:104D50009A4223D103F56843002101915A6C11480E
:104D600042F480125A645A6C02F480120192019A41
:104D700002911A6B42F020021A631B6B03F02003AE
:104D80000293029B4FF4607202230321CDE90323B7
:104D90000523CDE9061303A901F0A8FA08B010BD58
:104DA00000500140001402402DE9F04186B0142269
:104DB000002101A81FF0D1FB2B4B1C68002C4FD108
:104DC0004FF00108C3F80080284B00949A6B2848E4
:104DD00042EA08029A639B6B03EA080300930227E6
:104DE00003260C25009B01A94FF63F03CDE90137AF
:104DF000CDE9046501F07AFA01A91E480595CDE9CF
:104E00000187CDE9034601F071FA48F2331301A995
:104E100019480595CDE90137CDE9034601F066FA59
:104E20004FF6837301A915480595CDE90137CDE902
:104E3000034601F05BFA4CF2037301A91048059593
:104E4000CDE90137CDE9034601F050FA602301A90D
:104E50000C480595CDE90137CDE9034601F046FA46
:104E600006B0BDE8F08100BF743400200038024075
:104E700000140240000802400018024000100240E6
:104E8000000C02400004024037B500230193184B88
:104E9000184C1A6C42F080521A641B6C03F0805359
:104EA0000193019B144B01221A6002F09BF9054605
:104EB0006368DA030BD5114B0E4C01221A6002F025
:104EC00091F9054663689B030AD5002006E002F0CD
:104ED00089F9401BB0F57A7FEAD9032003B030BDD1
:104EE00002F080F9401BB0F57A7FEBD9F5E700BFFF
:104EF000003802400070004040000E4244000E4264
:104F000038B50D460446C8B190F82C3003F0FF02C6
:104F10001BB980F82D20FFF747FF022384F82C30BF
:104F2000211D206801F03EF962682068294601F0E1
:104F30006DF9012384F82C30002038BD0120FCE7F6
:104F400070B5054690F82C00C0B202280E4612D06B
:104F500000F0FB04012C0FD1022385F82C302868C7
:104F600001F096F93368022B06BF052385F82C3033
:104F700085F82C40002070BD0120FCE738B50446C0
:104F800090F82C00C0B202280DD094F82C50EDB24D
:104F9000012D09D1022384F82C30206801F09CF9FE
:104FA00084F82C50002038BD0120FCE72DE9F341A6
:104FB000044608B9012041E00368DD0710D42368E6
:104FC00098075AD423681A0700F19C8023685B076E
:104FD00000F1BA80A069002840F01C8100202DE07B
:104FE000A44B9A6802F00C02042A07D09A6802F0D7
:104FF0000C02082A0AD15B68590207D59D4B1B6831
:105000009A03DCD56368002BD9D1D3E76268994B4A
:10501000B2F5803F15D11A6842F480321A60636895
:10502000F3B102F0DFF8934D06462B689B03C6D41C
:1050300002F0D8F8801B6428F7D9032002B0BDE83D
:10504000F081B2F5A02F1A6803D142F480221A60D1
:10505000E1E722F480321A601A6822F48022DDE748
:1050600002F0C0F8834D06462B689F03A7D502F0D7
:10507000B9F8801B6428F7D9DFE77E4B9A6812F0F5
:105080000C0F07D09A6802F00C02082A11D15B6855
:105090005E020ED4774B1A68950702D5E268012AA2
:1050A00088D11A68216922F0F80242EAC1021A6026
:1050B00088E7E268704BB2B101221A6002F092F800
:1050C0006C4D06462B68980707D52B68226923F09C
:1050D000F80343EAC2032B6074E702F083F8801BF5
:1050E0000228EFD9A9E71A6002F07CF8614D064664
:1050F0002B6899077FF566AF02F074F8801B0228D1
:10510000F6D99AE762695D4B7AB101221A6002F022
:1051100069F8584D06466B6F9F073FF557AF02F091
:1051200061F8801B0228F6D987E71A6002F05AF866
:10513000504D06466B6F98077FF548AF02F052F866
:10514000801B0228F6D978E74A4B1A6C12F080527D
:105150002BD101921A6C42F080521A641B6C03F03E
:1051600080530193019B0126454D2B68D9051ED51F
:10517000A268404B012A2AD11A6F42F001021A6735
:10518000A368002B37D002F02DF83A4D074641F2C4
:1051900088382B6F9B0728D5002E3FF41BAF354A6C
:1051A000136C23F08053136414E70026DCE72B68AC
:1051B00043F480732B6002F015F807462B68DA057C
:1051C000D6D402F00FF8C01B0228F7D935E7052A1C
:1051D0001A6F03D142F004021A67CDE722F00102F0
:1051E0001A671A6F22F00402C9E701F0FBFFC01B27
:1051F0004045CED921E701F0F5FF1E4D074641F2AB
:1052000088382B6F9807C7D501F0ECFFC01B4045CD
:10521000F7D912E7174DAB6803F00C03082B46D003
:10522000184E00230228336034D101F0DBFF07461B
:105230002B68990128D4D4E907321343626A43EA00
:105240008213E26A43EA0263A26A0A4C5208013AF4
:1052500043EA02436B600123336001F0C3FF05465C
:1052600023689A013FF5BAAE01F0BCFF401B02284B
:10527000F6D9E2E60038024000004742800E47427D
:10528000007000406000474201F0ACFFC01B0228E4
:10529000CED9D2E601F0A6FF04462B689B017FF52C
:1052A0009DAE01F09FFF001B0228F6D9C5E601283C
:1052B0003FF4C4AE6B68E26903F4800191427FF46D
:1052C00079AE216A03F03F028A427FF473AE616ACD
:1052D00047F6C0721A40B2EB811F7FF46BAEA26A30
:1052E000520803F44031013AB1EB024F7FF462AE51
:1052F000E26A03F07063B3EB026F14BF0120002079
:105300009CE600BF08B513498B6803F00C03042B1F
:1053100003D0082B03D0104800E0104808BD4A68AD
:105320004B68496813F4800314BF0C480A48C1F362
:10533000881118BF002302F03F02A1FB0001FBF718
:10534000C5FB044B5B68C3F3014301335B00B0FB57
:10535000F3F0E3E7003802400024F40000127A0082
:105360002DE9F0410D46044610B90120BDE8F08159
:10537000454B1A6802F00F028A422AD323689E071F
:105380002FD42368D90743D43F4B1A6802F00F0289
:10539000AA4268D823685A076ED423681B0707D52A
:1053A0003A4A2169936823F4604343EAC103936056
:1053B000FFF7A8FF354B364A9B68C3F30313D35C52
:1053C000D840344B1860344B1868FEF78DFF00202E
:1053D000CCE7CAB21A701B6803F00F038B42C4D12A
:1053E000CCE7580741BF294A936843F4E0539360E0
:1053F0002368264A13F0080F1EBF936843F46043E6
:1054000093609368A16823F0F0030B439360B8E7BF
:1054100062681E4B012A1CD11B6813F4003FA4D004
:105420001A4EB36823F003031343B36001F0DAFEAE
:1054300041F288380746B368626803F00C03B3EBA7
:10544000820FA1D001F0CEFEC01B4045F3D903204E
:105450008CE7911E01291B6802D813F0007FDEE75C
:1054600013F0020FDBE7EAB21A701B6803F00F03B8
:10547000AB427FF47AAF8DE7044AE168936823F486
:10548000E0530B43936088E7003C02400038024041
:10549000586A02080C0000201C000020044B054A3A
:1054A0009B68C3F38223D35C034A1068D8407047DB
:1054B00000380240686A02080C0000200F230360D5
:1054C0000B4B9A6802F0030242609A6802F0F00205
:1054D00082609A6802F4E052C2609B68DB0803F4C1
:1054E000E0530361034B1B6803F00F030B6070472D
:1054F00000380240003C02407047000090F83D3008
:10550000012B31D10268022380F83D30D36843F08B
:105510000103D3600368154A93421AD0B3F1804F58
:1055200017D0A2F57C42934213D002F580629342D9
:105530000FD002F5806293420BD002F5784293427D
:1055400007D002F57052934203D0A2F594329342F1
:1055500004D19A6802F00702062A03D01A6842F0C2
:1055600001021A60002070470120704700000140CE
:10557000704770477047704770B50368DD681E69F3
:10558000B10704460ED5AA070CD56FF002021A61C6
:105590000123037703689B699B076CD0FFF7E9FF42
:1055A00000232377710711D56A070FD523686FF0A1
:1055B00004021A610223237723689B6913F4407F56
:1055C00020465ED0FFF7D5FF00232377330710D5A1
:1055D00028070ED523686FF008021A610423237789
:1055E0002368DB699907204651D0FFF7C2FF0023EB
:1055F0002377F20611D5EB060FD523686FF0100262
:105600001A61082323772368DB6913F4407F20465F
:1056100043D0FFF7AEFF00232377F00708D5E90753
:1056200006D523686FF001021A612046FFF7D0F912
:10563000320608D52B0606D523686FF080021A6162
:10564000204600F059FD700608D5690606D5236886
:105650006FF040021A612046FFF78DFFB20622D597
:10566000AB0620D523686FF020021A612046BDE802
:10567000704000F040BDFFF77BFF2046FFF77AFF48
:105680008EE7FFF775FF2046FFF774FF9CE7FFF7F3
:105690006FFF2046FFF76EFFA9E7FFF769FF20467F
:1056A000FFF768FFB7E770BD334A0368904212D036
:1056B000B0F1804F0FD0A2F57C4290420BD002F5A2
:1056C0008062904207D002F58062904203D002F5DA
:1056D0007842904219D14A6823F070031343264A56
:1056E000904229D0B0F1804F26D0A2F57C42904262
:1056F00022D002F5806290421ED002F58062904274
:105700001AD002F57842904216D01C4A904213D02B
:1057100002F5806290420FD002F5806290420BD079
:10572000A2F59832904207D002F58062904203D0F1
:1057300002F58062904203D1CA6823F44073134398
:105740004A6923F08003134303608B68C3620B68CC
:105750008362094B984203D003F58063984201D1DC
:105760000B690363012343610369DB0742BF0369DC
:1057700023F0010303617047000001400040014035
:1057800010B5044630B390F83D3003F0FF021BB96A
:1057900080F83C20FFF7B0FE022384F83D302068FB
:1057A000211DFFF781FF012384F84630002084F893
:1057B0003E3084F83F3084F8403084F8413084F83B
:1057C000423084F8433084F8443084F8453084F81B
:1057D0003D3010BD0120FCE701684B6913F4806384
:1057E0004FF0000210D06FF480634B6120230263FE
:1057F00080F83D3080F83E20036C80F83C2043F078
:105800000403036401207047184670472DE9F843EC
:10581000089E044690461F464FEA11498DB2206803
:10582000B9F1010F0CBF4369836935EA03030CBF6B
:1058300001210021884501D0002023E07B1CEFD00E
:1058400001F0D0FC801BB84201D8002FE7D12168BD
:10585000B9F1010F0CBF4B698B6935EA03030CBF2B
:10586000012100218845DAD100232022236384F816
:105870003D2084F83E30226C84F83C3042F0200217
:1058800022640120BDE8F8832DE9F0410446174663
:1058900098468EB22568686936EA000018D06B69B0
:1058A0005A0517D52B6843F400732B6023686FF4F7
:1058B00080625A6100232022236384F83D2084F80B
:1058C0003E30226C42F00402226484F83C30012015
:1058D000BDE8F0817B1CDED001F084FCA0EB080069
:1058E000B84201D8002FD5D123685B6936EA03039B
:1058F000D0D000232022236384F83D2084F83E305A
:10590000226C42F02002DFE770B504460D461646D1
:1059100023685B695B0701D5002070BD2046FFF757
:105920005BFFC8B96A1CF3D001F05CFC801BA84285
:1059300001D8002DECD123685B6913F00403E7D193
:105940002022236384F83D2084F83E30226C84F8C2
:105950003C3042F0200222640120DEE770B50446AC
:105960000D4616462068436913F0400301D000201D
:1059700010E04269D2060ED56FF01002426120227B
:10598000236384F83D2084F83E30226C226484F83E
:105990003C30012070BD01F025FC801BA84201D8DD
:1059A000002DDFD123685B6913F04003DAD1202298
:1059B000236384F83D2084F83E30226C42F02002BC
:1059C000E4E770B504460D46164623685B691B067E
:1059D00001D5002070BD2046FFF7FEFEC8B96A1C45
:1059E000F3D001F0FFFB801BA84201D8002DECD1C1
:1059F00023685B6913F08003E7D12022236384F8D6
:105A00003D2084F83E30226C84F83C3042F0200285
:105A100022640120DEE700002DE9FF4115460268FF
:105A20000B9E9846136843F4807313600F460A9BDD
:105A3000009600224FF001110446FFF7E7FE2368AD
:105A400038B11B68DB0502D54FF4007323640320D3
:105A50000AE007F0FE071F610A9A194933462046FB
:105A6000FFF712FF18B1012004B0BDE8F0812368F0
:105A700003905A6903929B69039332460A99039BE8
:105A80002046FFF79EFF40B1236C042B01BF226824
:105A9000136843F400731360E5E7B8F1010F23685E
:105AA00002D1EDB21D61DFE72A0A1A610A99324676
:105AB0002046FFF786FF0028E6D12368F1E700BF04
:105AC000020001002DE9FF41164602680B9D984631
:105AD000136843F4806313600268136843F48073AF
