:020000040800F2
:10000000000003205D0600084D2300084F23000870
:100010005123000853230008552300080000000066
:10002000000000000000000000000000718E0008C9
:100030005723000800000000018F00089587000882
:10004000AD060008AD060008AD060008AD060008C4
:10005000AD060008AD060008AD060008AD060008B4
:10006000AD060008AD060008AD060008AD060008A4
:10007000AD060008AD060008AD060008AD06000894
:10008000AD060008AD060008AD060008AD06000884
:10009000AD060008AD060008AD060008AD06000874
:1000A000AD060008AD060008AD060008AD06000864
:1000B000AD060008AD060008AD060008AD06000854
:1000C000AD060008AD060008AD060008AD06000844
:1000D000AD060008AD060008AD060008AD06000834
:1000E000AD060008AD060008AD060008AD06000824
:1000F000AD060008AD060008AD060008AD06000814
:10010000AD060008AD060008AD060008AD06000803
:10011000AD060008AD06000859230008AD0600082A
:10012000AD060008AD060008AD060008AD060008E3
:10013000AD060008AD060008AD060008AD060008D3
:10014000AD060008AD060008AD060008AD060008C3
:10015000AD060008AD060008AD060008AD060008B3
:10016000AD060008AD060008AD060008AD060008A3
:10017000AD060008AD060008AD060008000000004E
:10018000AD060008AD060008AD060008AD06000883
:10019000AD060008AD060008AD060008AD06000873
:0C01A00065230008AD060008712300086C
:1001B00010B5054C237833B9044B13B10448AFF3A1
:1001C00000800123237010BD800300200000000088
:1001D0005861020808B5034B1BB103490348AFF34C
:1001E000008008BD00000000840300205861020860
:1001F00001F0FF01102A2BDB10F0070F08D010F8D8
:10020000013B013A8B422DD010F0070F42B3F6D1DB
:10021000F0B441EA012141EA014122F007047FF0F4
:1002200000070023F0E80256083C85EA010586EA4B
:10023000010685FA47F5A3FA87F586FA47F6A5FA87
:1002400087F68EB9EED1F0BC01F0FF0102F0070293
:1002500032B110F8013B013A83EA010313B1F8D13E
:100260000020704701387047002D06BF354603381F
:10027000073815F0010F07D1013015F4807F02BF58
:10028000013015F4C03F0130F0BC0138704700BFA9
:100290007BB972B90029BEBF00204FF0004106E0D3
:1002A00008BF00281CBF6FF000414FF0FF3000F086
:1002B000D3B9ADF1080C6DE904CE002909DB002BA0
:1002C0001ADB00F04DF8DDF804E0DDE9022304B0AC
:1002D0007047404261EB4101002B1BDB00F040F80E
:1002E000DDF804E0DDE9022304B0404261EB4101A6
:1002F000524263EB43037047524263EB430300F007
:100300002FF8DDF804E0DDE9022304B0404261EBA0
:1003100041017047524263EB430300F021F8DDF8DE
:1003200004E0DDE9022304B0524263EB430370476B
:1003300053B94AB9002908BF00281CBF4FF0FF314C
:100340004FF0FF3000F088B9ADF1080C6DE904CE34
:1003500000F006F8DDF804E0DDE9022304B07047A0
:100360002DE9F047089D8E4604468846002B4AD169
:100370008A42174662D9B2FA82F64EB1C6F120031C
:1003800001FA06F820FA03F3B74043EA0808B4403C
:100390004FEA174E1FFA87FCB8FBFEF1230C0EFB49
:1003A000118843EA084301FB0CF29A4209D9FB1871
:1003B00001F1FF3080F0EA809A4240F2E780023992
:1003C0003B449A1AA3B2B2FBFEF00EFB102243EAA2
:1003D000024300FB0CFC9C4509D9FB1800F1FF32DD
:1003E00080F0D6809C4540F2D3803B44023840EAFE
:1003F0000140A3EB0C0300211DB1F3400022C5E92D
:100400000032BDE8F0878B4205D90DB1C5E9000186
:1004100000210846F5E7B3FA83F1002946D1734578
:1004200002D3824200F20581841A6EEB030201209E
:100430009046002DE5D0C5E90048E2E7002A00F02B
:100440009080B2FA82F6002E40F0A4808A1A030C43
:100450004FEA174E80B2BCB20121B2FBFEFC0EFB8C
:100460001C2243EA024304FB0CF29A4207D9FB1810
:100470000CF1FF3802D29A4200F2E080C4469B1A87
:10048000B3FBFEF20EFB123340EA034302FB04F41B
:100490009C4207D9FB1802F1FF3002D29C4200F2C5
:1004A000CA8002461B1B42EA0C40A5E7C1F12006A8
:1004B0008B4022FA06F71F430EFA01F420FA06F3E6
:1004C0002EFA06FE4FEA1749234300FA01F81FFAF5
:1004D00087FCBEFBF9F01C0C09FB10EE44EA0E444D
:1004E00000FB0CFEA64502FA01F209D93C1900F105
:1004F000FF3A80F09C80A64540F2998002383C4447
:10050000A4EB0E041FFA83FEB4FBF9F309FB1344BA
:100510004EEA044403FB0CFCA44508D93C1903F142
:10052000FF3E80F08280A4457FD9023B3C4443EAF1
:100530000040A4EB0C04A0FB02EC64457346E146CA
:1005400062D35FD05DB1B8EB030264EB090404FA37
:1005500006F622FA01F31E43CC40C5E900640021EF
:100560004FE7B1FBF2FC010C41EA0E4180B240EAD8
:1005700001423B4638463C46B846BE462026B1FBC3
:10058000F7F1A2EB080241EA0C4166E7014618E7E1
:1005900010462CE7C6F120022EFA02F3B740B14014
:1005A00020FA02F24FEA174E0A43B3FBFEF8BCB240
:1005B0000EFB1833110C41EA034108FB04F9B0406B
:1005C00089454FEA104380B23ED9791808F1FF3CC3
:1005D00001D289451FD8A1EB0901B1FBFEF909FB46
:1005E00004F80EFB191192B242EA0142424529D2A7
:1005F000BA1809F1FF31C4D24245C2D2A9F10201B1
:100600003A44BEE7F0459DD2BEEB02036CEB070C0B
:100610000138E14696E7A7EB09094944A8F1020C25
:10062000B1FBFEF909FB04F8DBE773467FE75046B0
:1006300066E70846FDE63B44023A33E7ACF1020CBC
:100640003B441CE749469CE7A1EB0901C446B1FBCA
:10065000FEF909FB04F8C4E7704700BFDFF834D0A7
:10066000002103E00C4B5B58435004310B480C4B0A
:1006700042189A42F6D30B4A02E0002342F8043BA8
:10068000094B9A42F9D305F0F1FB24F0F7FF01F092
:100690008FF870470000032040B00F0800000020D2
:1006A0006801002080030020E4510120FEE770472C
:1006B00008B500F0BDFDBDE8084000F03FBD00F00A
:1006C000B9BD704710B50421044623F0A9FD2046AA
:1006D00010BD000038B50C4B0C4C18800C4B822020
:1006E00019806368984740F6110398420AD1094D72
:1006F00023682C60822098472B688220DB6898470B
:10070000002038BD0120FCE7A60300205000002097
:10071000A4030020A80300204FF4A071F020FFF7ED
:10072000D9BF0000F7B5394D2B6804461B698220FC
:100730009847208000284ED02B680DF106025B6997
:1007400001A982209847324B1B78002B4BD0BDF873
:10075000062040F674639A423FD9ADF80630BDF8E2
:1007600006209B1A9BB20A2B42D90B22B3FBF2F351
:10077000284A1288934201D9013A93B2BDF8042065
:10078000254840F6B8318A4234D8C2F571620E323B
:10079000016892B20F25B2FBF5F2204D2D88AA42D6
:1007A00084BF05F1FF35AAB28A4215468EB22AD916
:1007B000921B91B21A4E3768BB42BAB28CBF9A1ADA
:1007C000D21A92B211440529C4BF05603360036890
:1007D00063803368A38003B0F0BDB32A9CBFB4220A
:1007E000ADF80620BBE7BDF80630A3F5B473B9E752
:1007F0000023C3E7C2F56D62083292B20E2A016887
:10080000C8D800252A46891A89B2D3E7A803002050
:100810006C2A0020A4030020A0030020A6030020CF
:100820009C03002037B568460D461446FFF77AFF53
:10083000BDF8000030B1BDF802302B60BDF80430C7
:100840002360012003B030BD032821D8DFE800F089
:10085000020B12190F4B1A68B2FA82F252090421E4
:100860000D4805F0ADBF0B4B5A68B2FA82F252093F
:100870000821F5E7074B9A68B2FA82F25209102173
:10088000EEE7044BDA68B2FA82F252092021E7E778
:10089000704700BFAC03002000100240032821D89D
:1008A000DFE800F0020B12190F4B1A68003A18BF6C
:1008B000012204210D4805F083BF0B4B5A68003A12
:1008C00018BF01220821F5E7074B9A68003A18BFC4
:1008D00001221021EEE7044BDA68003A18BF01222A
:1008E0002021E7E7704700BFAC0300200010024062
:1008F00003280DD8DFE800F00206080A04210548A5
:1009000005F063BF0821FAE71021F8E72021F6E798
:10091000704700BF0010024008B5032811D8DFE877
:1009200000F0020A0C0E0421074805F043FF431EA5
:100930005842584108BD0821F6E71021F4E720216C
:10094000F2E70020F3E700BF0010024070B5084D49
:1009500000240126E0B2FFF7DFFF18B12B68012B5E
:1009600018BF2E600134052C05F10405F2D170BDCD
:10097000AC030020012380F8781080F879307047AC
:100980007047002070470000034B4164003918BFD6
:1009900001211970704700BFA34401207047002057
:1009A0007047836B0BB10846184770474FF6FF70CE
:1009B0007047406803689B691847704770477047E5
:1009C0007047704710B5044600F04AFD236803499C
:1009D000D3F890302046BDE810401847000000D002
:1009E00008B503680446D3F8843098472368204646
:1009F000DB6F984700F0ECF8236820465B6F984760
:100A0000292001F091F900F0E3F8236820465B6F9C
:100A10009847F8E710B504460BF020F82368204605
:100A2000D3F8BC30BDE81040184700F0FDBC00F022
:100A300001BD00F033BD00F0D3BC00F043BD00F0B9
:100A40004BBD00F0D7BC0AF037BA10B5842104467C
:100A500023F0E6FB204610BD10B590F8341090F856
:100A600078400C4B8C421A7809D03AB90A4A0B49A3
:100A70001488088810800C8001221A7010BD002A8A
:100A8000FCD0054A05491488088810800C80002293
:100A9000F3E700BF9C440120984401209A440120C0
:100AA00070B50D46194635B9094B0A4A0A4840F255
:100AB000FF2124F033FBC0E90F52084B003A18BF66
:100AC00001221A700368BDE87040D3F890301847CF
:100AD000C8610208006202084E620208A2440120B6
:100AE00008B5094B1B888B4203D8084B1B889342DF
:100AF00005D9074B074A0848A32124F00FFB074BF1
:100B00001980074B1A8008BD984401209A4401209F
:100B100093620208F66202084E6202089E440120B7
:100B2000A0440120034690F87A0018B15868036881
:100B30001B68184770470000012108B500220846CD
:100B400007F0B2FE0A4B186028B90A4B0A4A28215E
:100B50000A4824F0E3FA00220421012007F043FFB1
:100B6000074B186018B9074B034A2C21F0E708BD62
:100B7000C00300203963020882630208B1630208DF
:100B8000BC03002001640208024B4FF0FF311868DB
:100B900007F0D4BEC0030020014B186807F0FABE6E
:100BA000C0030020024B0021186807F0C7BE00BF39
:100BB000C0030020FFF7F0BF03480449006800238A
:100BC0001A4607F04BBF00BFBC0300200400002002
:100BD00013B5084C00231A4601A9206807F06FFFDF
:100BE00020684FF0FF33002201A907F068FF02B030
:100BF00010BD00BFBC03002003685B6C18470120D8
:100C0000704703689B6A1847FEE740F2EF30704771
:100C1000054B0360054B4FF08062C3F88820BFF39B
:100C20004F8FBFF36F8F70474C72020800E100E0F6
:100C300010B504464FF45A61FFF7EAFF204623F04F
:100C4000EFFA204610BD000082B0002301930E4B46
:100C50001A6B42F400021A631A6B02F4000201924A
:100C6000019A1A6942F400021A611A6922F4000218
:100C70001A61064B064A1A61064A5A61064B4FF042
:100C800080629A6002B0704700380240002C002059
:100C9000E90E0008090C000800E100E008B50A2888
:100CA00009D8DFE800F006100E0808080810101038
:100CB0001000022008BD054B054A0648902124F08B
:100CC0002DFA0020F6E70120F4E700BF4364020894
:100CD0005E640208A964020838B50C46887FFFF7F5
:100CE000DDFFA58AE28A164B2169586342EA054274
:100CF0005A64628BD963521B1A642568082D0ED181
:100D00009A611A615862207F0E4A42EA0062DA61F3
:100D1000E2681A620C4A5961D9601A6038BD002233
:100D2000D8611A61E1680A0A480902F4784200F4BD
:100D3000FC600243C1F3C4010A439A63034AECE72F
:100D400000B002400900010001230200012303005A
:100D500008B50B280BD8DFE800F00612100A0A0AC3
:100D60000A0808080808022008BD0520FCE7054B12
:100D7000054A06486F2124F0D1F90020F4E701204C
:100D8000F2E700BF43640208F7640208A96402089E
:100D90002DE9F04191F81D800C464046FFF7D8FF41
:100DA000A77F05463846FFF7D3FF06463846FFF7CC
:100DB00075FFA18A628B444B521A1A649A61228B86
:100DC000521A1A61E28A586342EA01425A6421695E
:100DD0006268D963DA602068802828D0227F0FD823
:100DE000202867D0402865D004281AD0364B45EA21
:100DF000026545F40035B845DD6161D0334A44E011
:100E0000B0F5807F04D0B0F5007FEFD1304800E02E
:100E1000304840EA0262DA61E2681A625E62596151
:100E200032E045EA026242F40032DA61F6E7A06895
:100E3000021DDA62227F45EA026545F40035DD6174
:100E40005E625961017841B1012921D0224B234AC8
:100E500023484FF48D7124F061F9DA69418822F456
:100E60007F42013922F0100242EA0122DA610121B7
:100E7000154BDA6942F02002DA61DA699206FCD495
:100E800010229A600029B9D0164A1A60BDE8F08194
:100E9000B2F1FF01DA69408822F47F4200F1FF30AD
:100EA00022F0100242EA002242F0100218BF012193
:100EB000DA61DDE745EA0262034B42F40032B4E74F
:100EC00042F20132E1E700BF00B00240012301001D
:100ED000090002000A000200416502085B65020881
:100EE000A964020801230200024B1B6858680368CA
:100EF0005B691847A444012070B5044625460A4B97
:100F00000C30002660602672667245F8203B602235
:100F100029460AF0F9FE04F55A63EE6024359D4235
:100F2000FBD1204670BD00BF4C720208034B1A680B
:100F3000D207FCD423229A60704700BF00B0024061
:100F40007047000030B50F4C2568ED07FCD4232511
:100F50000904A56041F001010225FF2B656361646E
:100F6000E0630AD00849656241EA0363E361074B25
:100F700022626061E060236030BDE561039BA36392
:100F8000034BF8E700B00240090001000100020035
:100F90000100030030B50E4C2568ED07FCD4232575
:100FA0001204A56042F001020225FF2B6563626412
:100FB000E063E16008D01B0643F00213E361054BD8
:100FC00065626061236030BD034BE3610123F9E793
:100FD00000B0024001000200020002FF30B50B4CDD
:100FE0002568ED07FCD4232512041B06A56043F4F5
:100FF0000033022542F0010265636264E063E16050
:10100000E361034B65626061236030BD00B0024064
:1010100001000200012070474020704700EB811062
:101020000830704700EB811008307047012070478E
:1010300041F22450704741F2245303FB0100083071
:10104000704741F2245303FB010008307047012030
:1010500070471020704700EB01100830704700EB1C
:10106000011008307047084601F064BD10B5034B0D
:101070000360044609F077FC204610BD04730208A3
:1010800010B50446FFF7F2FF2046482123F0C8F8C8
:10109000204610BD10B5034B0360044609F063FC05
:1010A000204610BDD072020810B50446FFF7F2FFCB
:1010B000204641F22C5123F0B3F8204610BD000029
:1010C00010B5034B0360044609F04DFC204610BDEB
:1010D0009C72020810B50446FFF7F2FF2046182163
:1010E00023F09EF8204610BD10B5094B036004465E
:1010F00000F5AA501830FFF7B9FF04F12C00FFF7F4
:10110000C9FF04F11400FFF7DBFF204610BD00BF4C
:101110003873020808B50248FFF7E6FF08BD00BFB4
:101120009C12002010B50446FFF7DEFF20464FF466
:10113000B85123F075F8204610BD00002DE9F341A9
:1011400001F08AF9054601F08BF900240146234697
:1011500028462246009413F0B1FF274B274A1A6015
:10116000204603F085F9264D264B274A27489A60EA
:1011700013F00CFF2B68BFF35B8FDB0736D42846D8
:1011800023F050F890B3224C224F234B236007F1F9
:101190004C0604F1140004F12C086060C4F80880C7
:1011A000E760266109F0E0FB1C4B6361404609F0F3
:1011B000DBFB1B4BE362384609F0D6FB04F580539A
:1011C000184AC3F8582504F5AD5003F02FFB22460A
:1011D00004F5AD51304603F0C3FA304601F0AAFCE5
:1011E000114823F0B9FF284623F028F80F4802B031
:1011F000BDE8F041FFF7E6BB0845012048040020A8
:1012000098120020680400204C04002008000020F0
:101210009C120020F4270020387302089C720208F8
:10122000D07202080473020815110008C4030020DC
:10123000704700000148FFF7D3BB00BFC403002084
:1012400070B5264E264C274D274B23603046FFF7BE
:1012500053FE284619F038F8244811F0ADFA244B13
:101260002448DC6000224FF48071C3E91212224945
:101270001A86C3E91A12214983F85820C3E91E01CE
:101280001F49C3F880101F491F480B60F021C3E9B4
:101290000422C3E90622C3E90822C3E90A22C3E9FA
:1012A0000E22C3E91022C3E91422C3E917225A66A9
:1012B00083F870205A67C3E90165018013480180F3
:1012C00013484FF4A07101801248018012490A703E
:1012D000012283F83420114A1A6070BDF404002002
:1012E0009412002068040020B86102084C04002019
:1012F000C4030020000001010100000100045000AF
:101300001A001400A4440120984401209E440120A6
:101310009A440120A04401209C44012060710208ED
:101320000148FFF775BC00BFF4040020002070479F
:1013300081807047C180704701817047418170474B
:101340007047704770477047704710B4C48803688F
:10135000121B84885B6D091B12B25DF8044B09B245
:1013600018474FF6FF7383814FF0FF330362136812
:10137000C36110607047002070478B888380012014
:101380007047704780F82610704790F82600704725
:1013900010B50022B1F90840B1F90A10028042806C
:1013A0008480C18010BD0022028042808280C28081
:1013B00070470177704780ED080A704780F8241065
:1013C000704780F8251070470120704798307047AB
:1013D0008C3070478430704770477047704700000A
:1013E000034B902283F85A2383F85823704700BF99
:1013F00000E100E0094A0A49D3680A48C3F30A0336
:10140000013B9BB20B801169C1F30A0101390180D4
:101410001364536B43F0010353637047006801404A
:101420009E2900209C290020014BD3F8AC00704776
:1014300000680140024B0122C3F8AC105A627047A9
:101440000068014010B52C21044622F0E9FE204638
:1014500010BD10B5BC21044622F0E2FE204610BDAE
:1014600070B5044609F07DFD23689D6E0FF03CFFCA
:1014700001462046A8472368054AD3F88C502046E9
:10148000AC460023BDE87040A2F51631604700BFAE
:1014900000B004D009F04CBD09F056BD09F012BDF2
:1014A00009F081BE90F8252012B103685B691847E6
:1014B000704790F825201AB190F8242002B11860E6
:1014C00070470000034B4FF080629A604FF08072CB
:1014D0009A60704700E100E0084B4FF08062C3F86B
:1014E0008820BFF34F8FBFF36F8F4FF08072C3F828
:1014F0008820BFF34F8FBFF36F8F704700E100E08C
:1015000070B50023124E8380124B0360336893F84A
:10151000582005460AB1D86C00B998680368DB6AA0
:1015200098473368B0FA80F4D86C640930B1036826
:10153000DB6A9847002808BF44F001042CB9064B29
:10154000064A07482C2123F0E9FD284670BD00BF5C
:10155000A44401204C73020899650208F76502084B
:101560003066020870B5254E3568BFF35B8F15F005
:10157000010540D1304622F055FE00283BD0204CDA
:10158000204B256104F13400C4E90035C4E902555B
:10159000E584A562A58511F0F4FB04F158000CF078
:1015A00067F8194BA3652046184B40F8843BFFF7BA
:1015B000A7FF174BC4F884302433C4F88C304FF4A1
:1015C000C803C4E928350023C4F8AC30C4F8B030EF
:1015D000C4F8B430C4F8B8300E480F4BC4F890507B
:1015E000C4F89C50C4F8A850C4F8983023F0B4FD57
:1015F000304622F023FE024870BD00BFA029002023
:10160000A4290020F47E02086C730208E473020827
:10161000A87E0208DD130008887E020838B5184C41
:1016200023685BB3174B184A1B6C11888B4216D189
:10163000164B198805F0CCFE236893F86A20002524
:10164000013283F86A2083F87C50FFF7B5FA2068EE
:101650000AF004FA2846BDE83840FFF7F5B805F06F
:10166000B7FE2468236820461B6A9847012384F844
:101670007C300020BDE83840FFF710B938BD00BF0E
:10168000A4440120006801409E2900209C290020DC
:1016900007B5064BADF806001B68054801220DF1A1
:1016A000060106F035FC03B05DF804FB0C000020D9
:1016B000AC2A002008B5104C104D114E204604F005
:1016C000C9FC0121204604F043FD204604F093FDAF
:1016D00020212880304605F06DF80128094B08D1FB
:1016E000002264201A8007F0D3F8642007F0D0F8B5
:1016F000E4E701221A80F8E7482C00206A2A00203B
:1017000000000240682A002008B5642007F0C0F8F5
:10171000FBE7000030B595B0102200210AA823F0A5
:1017200004FF1422002103A823F0FFFE00241E4B17
:1017300001941A6C42F080521A641B6C03F08053BF
:101740000193019B194B02941A6842F440421A60BB
:101750001B6803F4404302930122029B4FF4803341
:10176000CDE9082302254FF480030821CDE90E536B
:101770004FF4B473CDE9101308A804231393129502
:1017800005F07EFE05F042FE0F23CDE903354FF450
:10179000A0504FF48053CDE90603052103A805941A
:1017A00006F04AF815B030BD003802400070004025
:1017B0002DE980489BB004F067FBFFF7ABFF1422D4
:1017C00000210DA823F0B1FE0024C94B00941A6B30
:1017D000C848C94D42F010021A631A6B02F0100299
:1017E0000092009A01941A6B42F004021A631A6B79
:1017F00002F004020192019A02941A6B42F0200254
:101800001A631A6B02F020020292029A03941A6B76
:1018100042F080021A631A6B02F080020392039A6C
:1018200004941A6B42F001021A631A6B02F001026F
:101830000492049A05941A6B42F002021A631A6B1E
:1018400002F002020592059A06941A6B42F04002D9
:101850001A631A6B02F040020692069A07941A6BFA
:1018600042F008021A631B6B03F008032246079339
:101870003C21079B04F0A4FFA0480122022104F0B0
:101880009FFF22469D48042104F09AFF22469C486F
:101890004FF4405104F094FF01263C23CDE90D366E
:1018A00094480F9403230DA9109304F09FFE4FF466
:1018B000005392480F960DA90227CDE90D3404F08C
:1018C00095FE8E480DA9CDE90D76CDE90F4404F0C3
:1018D0008DFE042389480DA9CDE90D36CDE90F47CA
:1018E00004F084FE202387480F960DA9CDE90D341E
:1018F00004F07CFE0DA94FF440538148CDE90D362C
:10190000CDE90F4704F072FE7F48804B036004F07E
:1019100063FDDFF818C27E4B2C62C5E900C3284680
:101920004FF48043C5E90434C5E90244C5E90644DF
:1019300005F054F91021284605F098FB2146284669
:1019400005F0B3FB734DDFF8E8E1AC624FF482734E
:10195000C5E900E34FF400781823C5E9068328465B
:101960000A23C5E90244C5E90444C5E90844EB6219
:1019700006F072FA8F232246394660488DF82430EB
:101980008DF8344004F01CFF32464FF47A7309A9F5
:10199000284606F0BDFA4FF47A7332460DA9284660
:1019A00006F062FC3246394654485B4D04F008FFAD
:1019B0009DF83430D32B04BF584B1E70584B012672
:1019C000C5E900364FF0100A40230024C5E904A3FE
:1019D0004FF4C073C5E906344FF40063C5E9083419
:1019E0004FF4005302274FF00409AB624FF0030B92
:1019F00007230DA92846CDE90D73CDE90F934FF0CC
:101A00000808C5E90249CDE911B7139706F008F9AE
:101A10004FF6FF7209A92846CDE90A86089409966F
:101A20000C9406F01DF9304604F05AFA4FF6FF7296
:101A300009A92846CDE90978CDE90B6406F010F92B
:101A40004FF6FF7209A92846CDE909B8CDE90B94F4
:101A500006F006F94FF40C730893089B0C934FF6AD
:101A6000FF7209A92846CDE909980B9606F0F8F807
:101A700040F26A51284606F011F9342221460DEB56
:101A8000020023F052FD274D274B2C61C5E900349D
:101A90000923C5E905361D23C5E9073B40F20D12B0
:101AA00040F24313C5E9092340F2171140F24713EE
:101AB0002846C5E90B13C5E90244AC8685F83640D3
:101AC00005F08EFBFF21F022CDE912144FF4806067
:101AD00005214FF4A073CDE91401CDE90E240DA921
:101AE000CDE9164228462246CDE9103722E000BF54
:101AF0000038024000100240AC2B002000080240D9
:101B0000000C024000000240402C00200030024047
:101B1000A0860100AC2A0020782A00206C2A002030
:101B2000400100A0042B002000680140005C004040
:101B300000500140304D18930D94ADF864408DF87D
:101B4000664005F018FC2D4B2B601B6898472B68EE
:101B50002B4DDB6898472B4B2846C5E90034C5E977
:101B60000274C5E90A47C5E90C4404F045FC314656
:101B7000284604F0F7FC244D244F524621460DA878
:101B800023F0D3FC4FF48033C5E900732846204B83
:101B9000AB62AC602C612C7685F82040EC62EC6086
:101BA000EE6185F830406E6104F0AEF90D230DA9A9
:101BB0002846CDE90D360F9404F020FBFEF778FDA2
:101BC000FEF775FD06F0F4FD124A1348214606F0B3
:101BD0001BFE124B124A18602146124806F014FEF2
:101BE000114B124A18602146114806F00DFE114BA8
:101BF000186006F0EFFDFEE7602A002018000020C4
:101C0000002C002000B00240482C002000200140A1
:101C10000100000F7074020809170008742A0020E0
:101C20004C740208BF060008702A002028740208BD
:101C3000B5160008642A0020704770477FB5094B2D
:101C40008DF817201B6802930DF1170201230092F3
:101C500001930A460146044805F068F807B05DF8AC
:101C600004FB00BF10000020AC2B00207FB5002338
:101C70008DF81730084B1B6802930A4601230DF1BB
:101C80001701009101930146044805F0DFF89DF823
:101C9000170007B05DF804FB10000020AC2B0020FB
:101CA0001FB5084C24680092CDE901340A4601238F
:101CB0000146054805F0CAF8003818BF012004B0F5
:101CC00010BD00BF10000020AC2B002004F008B9AC
:101CD00010B5064C00222046042104F071FD204678
:101CE0000122BDE81040042104F06ABD0008024052
:101CF00038B50B4D044601220A484FF4005104F058
:101D00005FFD00220421284604F05AFD2046FFF71B
:101D1000BFFC28460122BDE83840042104F050BD34
:101D200000080240000C024038B50B4D044600226A
:101D30000A484FF4005104F043FD002204212846D4
:101D400004F03EFD2046FFF7A3FC28460122BDE833
:101D50003840042104F034BD00080240000C024069
:101D6000F7B5144E144F05460C46304600220421A8
:101D700004F026FD00224FF40051384604F020FD07
:101D80002846FFF785FC0D4B0D481B68224601A92C
:101D900006F06AFA384601224FF40051019C04F023
:101DA0000FFD30460122042104F00AFD204603B055
:101DB000F0BD00BF00080240000C02400C000020F3
:101DC000AC2A002004F08CB80268034B9A4201D17F
:101DD00004F074B8704700BF001000407047000066
:101DE00082B00E4B00220092596C41F4804159643C
:101DF000596C01F48041009100990192196C41F0F5
:101E0000805119641B6C03F080530193019B0F21D7
:101E10006FF0010002B004F09FBA00BF003802402A
:101E200010B5044688B01422002103A823F07DFBDE
:101E30002268124B9A421ED103F58C330021019186
:101E40005A6C0F4842F480725A645A6C02F48072E1
:101E50000192019A02911A6B42F004021A631B6B01
:101E600003F004030293029B0822032303A9CDE994
:101E7000032304F0BBFB08B010BD00BF00200140ED
:101E8000000802400268094B9A4282B00BD100233D
:101E90000193074B1A6B42F480521A631B6B03F4D5
:101EA00080530193019B02B0704700BF0030024095
:101EB0000038024007B50F4B02689A4216D1002243
:101EC000A3F5F0430192196B41F4000119631B6BF8
:101ED00003F40003019305215A20019B04F03CFA0E
:101EE0005A2003B05DF804EB04F068BA03B05DF863
:101EF00004FB00BF00B002402DE9F043044689B066
:101F00001422002103A823F010FB2268244B9A42DC
:101F100043D1244C244800250095236B43F004034F
:101F20002363236B03F004030093009B0195236B51
:101F300043F001032363236B03F001030193019B2F
:101F40004FF012094FF400734FF0010803270426E5
:101F500003A9CDE90339CDE90587079604F046FBCF
:101F60004FF480731148079603A9CDE90339CDE9F1
:101F7000058704F03BFB0295236C43F400032364C4
:101F8000236C03F400030293029B236A43F40003CF
:101F90002362236A23F40003236209B0BDE8F083BF
:101FA000005C00400038024000080240000002408F
:101FB000F0B599B004461422002107A823F0B5FA21
:101FC00030220DEB0200002123F0AFFA22685E4BB5
:101FD0009A4240F0B78008230C93C0231093042347
:101FE00012930CA84FF40033159305F0EDFC08B1E3
:101FF000FFF7F4FE554B5648002400945A6C42F00B
:1020000080625A645A6C02F080620092009A0194D5
:102010001A6B42F020021A631A6B02F0200201923E
:10202000019A02941A6B42F001021A631A6B02F0D1
:1020300001020292029A03941A6B42F002021A639E
:102040001A6B02F002020392039A04941A6B42F094
:1020500040021A631A6B02F040020492049A05943B
:102060001A6B42F004021A631A6B02F00402059222
:10207000059A06941A6B42F008021A631B6B03F070
:102080000803069302250E26069B0B964FF48063E9
:1020900007A9CDE90735CDE9094504F0A7FA41F6CE
:1020A00058032C480B9607A9CDE907350927CDE938
:1020B000094504F09BFA032327480B9707A9CDE9AC
:1020C0000735CDE9094504F091FA4FF470632248D1
:1020D0000B9607A9CDE90735CDE9094504F086FA45
:1020E0004FF40C631D480B9607A9CDE90735CDE9E0
:1020F000094504F07BFAC02319480B9607A9CDE9DE
:102100000735CDE9094504F071FA082315480B9607
:1021100007A9CDE90735CDE9094504F067FA4FF481
:10212000A0530E480B9707A9CDE90735CDE909451E
:1021300004F05CFA58202246052104F00DF95820DD
:1021400004F03CF919B0F0BD0068014000380240CD
:102150000014024000000240000402400018024047
:1021600000080240000C024010B5044688B014225A
:10217000002103A823F0D9F92268144B9A4223D1F5
:1021800003F56843002101915A6C114842F4801212
:102190005A645A6C02F480120192019A02911A6BED
:1021A00042F020021A631B6B03F020030293029B90
:1021B0004FF4607202230321CDE903230523CDE907
:1021C000061303A904F012FA08B010BD0050014034
:1021D000001402402DE9F04186B0002303932B4BFD
:1021E0001C68002C4FD14FF00108C3F80080284B29
:1021F00000949A6B274842EA08029A639B6B03EAB1
:1022000008030093022703260C25009B01A94FF623
:102210003F03CDE90137CDE9046504F0E7F91E4835
:10222000059501A9CDE90187CDE9034604F0DEF962
:1022300048F233131948059501A9CDE90137CDE9D5
:10224000034604F0D3F94FF683731548059501A9A9
:10225000CDE90137CDE9034604F0C8F94CF2037328
:102260001048059501A9CDE90137CDE9034604F0F1
:10227000BDF960230C48059501A9CDE90137CDE9E9
:10228000034604F0B3F906B0BDE8F081902C0020BD
:1022900000380240001402400008024000180240CA
:1022A00000100240000C02400004024070B588B0EB
:1022B00000230293204B1A6C42F010021A641B6C2C
:1022C00003F010030293054601A903A8029B05F041
:1022D0005DFB069B4BBB05F049FB184E184B33606A
:1022E00040F2E733F360174BB0FBF3F3013B73604D
:1022F000304600233361B360B36106F085F90446CC
:1023000080B9304606F056F8044658B9362004F035
:1023100055F80F2D0DD822462946362004F01CF81A
:10232000094B1D60204608B070BD05F01FFB400042
:10233000D3E70124F6E700BF00380240942C0020C8
:102340000010004040420F00800000207047FEE770
:10235000FEE7FEE7FEE77047014806F069B800BFF8
:10236000942C0020014804F0A9BF00BF042B0020DA
:10237000014804F06DB800BF002C00200120704718
:1023800008B523F075F9162303604FF0FF3008BD40
:1023900008B523F06DF916230360FEE770B50D460E
:1023A00014460E46731B9C4201DC204670BDAFF301
:1023B000008006F8010BF5E770B50D4614460E4691
:1023C000731B9C4201DC204670BD16F8010BAFF375
:1023D0000080F5E74FF0FF3070474FF400534B603B
:1023E0000020704701207047002070470A4A11689A
:1023F00008B5034609B909491160106869460344E4
:102400008B4206D923F034F90C2303604FF0FF30E0
:1024100008BD1360FCE700BFDC2C0020E851012060
:10242000704710B50421044621F0FAFE204610BD85
:10243000012908B506D0022908D059B902F064F87C
:10244000006808BD02F060F84068FAE702F05CF846
:102450008068F6E70020F4E700487047A874020897
:102460001120704713B5002451B1036801948DF811
:10247000034001AA9C680DF10303A04702B010BD00
:102480000846FBE7C0897047008A7047C0887047DC
:1024900080887047807A00F07F007047807AC0099A
:1024A00070470020704700009FED010A704700BF91
:1024B00000000000704710B50821044621F0B0FE6E
:1024C000204610BD7047704700F59873086849684A
:1024D00003C370477047704741607047704770474B
:1024E000064BC0F84C310023C0F8503100F5A27300
:1024F000C0F84801C0F84031704700BFD92F00082C
:1025000001230372704770477047704710B4C26868
:1025100041685410034601EB6200D20748BF0A59D4
:102520009B685DF8044B48BFD35818470346406882
:1025300030B19A681AB9D86800F0010070470120DC
:10254000704710B50C21044621F06AFE204610BDEC
:1025500010B51021044621F063FE204610BD10B5D1
:102560004FF4AE71044621F05BFE204610BD10B55D
:102570004021044621F054FE204610BD10B54021F4
:10258000044621F04DFE204610BD10B50EF0ACFE05
:102590000368BDE81040DB6B18470000054B1B7853
:1025A00001462BB1406818B103680C315B6E1847C7
:1025B000704700BFA3440120054B1B7801462BB197
:1025C000406818B103680C315B6E1847704700BF54
:1025D000A3440120037A70B50546BBB9406803687F
:1025E000DB69984704463CB96868036805F10C014B
:1025F0001B6EBDE870401847A1886B8FC91A23680D
:1026000020461B6B09B29847A469ECE770BD037ABA
:1026100070B50546BBB940680368DB699847044656
:102620003CB96868036805F10C011B6EBDE8704099
:102630001847A1886B8FC91A236820461B6B09B203
:102640009847A469ECE770BD10B50446D0F8400186
:1026500058B10368DB68984738B1D4F84001036883
:102660009B6898470023C4F8403110BD70B50446FC
:1026700090F8390094F838300130C0B2984284F8AC
:10268000390005D901232372002384F8393070BD45
:10269000B4F93A20002110F0FFFFC30706D5002847
:1026A0004FF6FF73C8BF0123184400B2238AC01A33
:1026B000A08760680368DB69984705462DB96068A4
:1026C0000368BDE870405B691847A988A38F194467
:1026D0002B6828461B6B09B29847AD69EEE770B5C9
:1026E000044690F8390094F838300130C0B298426E
:1026F00084F8390005D901232372002384F8393086
:1027000070BDB4F93A20002110F0C6FFC30706D50A
:1027100000284FF6FF73C8BF0123184400B2238A74
:10272000C01AA08760680368DB69984705462DB921
:1027300060680368BDE870405B691847A988A38F8B
:1027400019442B6828461B6B09B29847AD69EEE720
:102750002DE9F0411D460368BDF918701B6B044656
:10276000164698472368314620465B6B9847236896
:10277000294620469B6B9847236839462046DB6BE9
:10278000BDE8F041184700002DE9F74FD0E9556A40
:102790000746B06803681B6A9847B0F5907F05D27A
:1027A000534B544AA321544822F0B8FC7068036884
:1027B0001B6A98470F2803D8504B4E4AA421F2E7D2
:1027C000F06803681B6A98473F2803D84C4B494A76
:1027D000A521E8E70EF088FDDFF8349104300EF013
:1027E000A8FDD9F8000010B10368DB689847D9F854
:1027F000000010B103681B689847DFF81881D8F80B
:10280000000010B103685B699847D7F83C0110B12C
:1028100003685B689847D8F8000010B103681B682C
:102820009847D7F83C0110B103689B689847F06857
:10283000036800215B6A984705460022314B4260DD
:10284000027245F80C3B044628460BF01BFD14238E
:1028500023872D4B1B780022A287002B35D1012323
:102860002372B068036800215B6A9847054602F04E
:1028700011F87068036800215B6A9847294606468C
:1028800001F0E6FF331DC7F83C61C9F80040C8F805
:102890000050CAF800302B68C6F808A02846DB684C
:1028A000EE639847336830461B68984721462846B0
:1028B00010F0ECFE236820461B69984723685B698B
:1028C000204603B0BDE8F04F1847104BDFF848B082
:1028D000B3F900300093BBF9003011462846FFF7EA
:1028E00037FF28460BF049FCBBF800306387B8E798
:1028F000B466020842670208276802086E68020888
:1029000011690208C8760208A34401209A440120F4
:10291000EC440120E8440120984401202DE9F74FC0
:10292000D0E9556A0746B06803681B6A9847B0F556
:10293000F67F05D2544B554AA321554822F0EEFBB1
:10294000706803681B6A98470F2803D8514B4F4A99
:10295000A421F2E7F06803681B6A98473F2803D870
:102960004D4B4A4AA521E8E70EF0BEFCDFF838914E
:1029700004300EF0DEFCD9F8000010B10368DB680B
:102980009847D9F8000010B103681B689847DFF832
:102990001C81D8F8000010B103685B699847D7F82C
:1029A0003C0110B103685B689847D8F8000010B18B
:1029B00003681B689847D7F83C0110B103689B680F
:1029C0009847F068036800215B6A98470546002233
:1029D000324B4260027245F80C3B044628460BF02D
:1029E00051FC142323872E4B1B780022A287002B37
:1029F00035D101232372B068036800215B6A9847D0
:102A0000054601F095FF7068036800215B6A9847EE
:102A10002946064601F058FF331DC7F83C61C9F846
:102A20000040C8F80050CAF800302B68C6F808A06B
:102A30002846DB68EE639847336830461B68984742
:102A40002146284610F022FE236820461B6998473D
:102A500023685B69204603B0BDE8F04F1847114B6F
:102A6000DFF84CB0B3F900300093BBF900301146E9
:102A70002846FFF76DFE28460BF07FFBBBF80030C1
:102A80005B426387B7E700BFB4660208B469020817
:102A9000276802086E68020811690208A476020815
:102AA000A34401209A440120EC440120E844012081
:102AB00098440120044B1B6893F858200AB1D86C45
:102AC00000B99868704700BFA4440120F8B51746C4
:102AD00004460E460EF0CAFC124B1C60124B2360DB
:102AE000124B0025C4E95135114BC4E95355186800
:102AF000036801219B68C4E94F55C4E9557698479E
:102B0000284601F0B5FCFFF7D5FF19F086FAFFF76C
:102B1000D1FF19F0FDFAFFF7CDFF19F005FB2046B4
:102B2000F8BD00BFF84401202C7602081476020894
:102B3000A4440120064BC0F84C310023C0F85031AA
:102B400000F5A273C0F84801C0F84031704700BFDB
:102B5000D92F0008064BC0F84C310023C0F8503183
:102B600000F5A273C0F84801C0F84031704700BFBB
:102B700089270008064BC0F84C310023C0F85031BB
:102B800000F5A273C0F84801C0F84031704700BF9B
:102B90008D2E0008064BC0F84C310023C0F8503190
:102BA00000F5A273C0F84801C0F84031704700BF7B
:102BB0001D290008064BC0F84C310023C0F85031E5
:102BC00000F5A273C0F84801C0F84031704700BF5B
:102BD000452D0008064BC0F84C310023C0F8503199
:102BE00000F5A273C0F84801C0F84031704700BF3B
:102BF000FD2B000803685B6A184700002DE9F14FC0
:102C0000D0E9556A0746B06803681B6A9847B0F573
:102C1000CA7F05D2434B444AA321444822F07EFA9E
:102C2000706803681B6A98470F2803D8404B3E4AD8
:102C3000A421F2E7F06803681B6A98470B2803D8C1
:102C40003C4B394AA521E8E70EF04EFBDFF8EC904B
:102C500004300EF06EFBD9F8000010B10368DB6899
:102C60009847D9F8000010B103681B689847DFF84F
:102C7000D080D8F8000010B103685B699847D7F896
:102C80003C0110B103685B689847D8F8000010B1A8
:102C900003681B689847D7F83C0110B103689B682C
:102CA0009847F0680021FFF7A5FF4FF0000B224B7B
:102CB000C0F804B0044680F808B00360B068036848
:102CC00059465B6A9847054601F084FD70680368C1
:102CD00059465B6A98472946064601F059FD331D5F
:102CE000C7F83C61C9F80040C8F80050CAF8003085
:102CF0002B68C6F808A02846DB68EE63984733685F
:102D000030461B6898472146284610F0BFFC2368D0
:102D100020461B69984723685B69204601B0BDE8DF
:102D2000F04F1847B46602089D6A02082768020837
:102D30006E6802081169020880760208EC440120DE
:102D4000E84401202DE9F14FD0E9556A0746B06803
:102D500003681B6A9847B0F5907F05D2434B444AFD
:102D6000A321444822F0DAF9706803681B6A984787
:102D70000F2803D8404B3E4AA421F2E7F0680368CD
:102D80001B6A98470B2803D83C4B394AA521E8E732
:102D90000EF0AAFADFF8EC9004300EF0CAFAD9F877
:102DA000000010B10368DB689847D9F8000010B143
:102DB00003681B689847DFF8D080D8F8000010B18E
:102DC00003685B699847D7F83C0110B103685B68FA
:102DD0009847D8F8000010B103681B689847D7F8E7
:102DE0003C0110B103689B689847F0680021FFF729
:102DF00001FF4FF0000B224BC0F804B0044680F8EE
:102E000008B00360B068036859465B6A9847054696
:102E100002F080FD7068036859465B6A984729464E
:102E2000064602F055FD331DC7F83C61C9F8004065
:102E3000C8F80050CAF800302B68C6F808A0284629
:102E4000DB68EE639847336830461B689847214635
:102E5000284610F01BFC236820461B69984723680E
:102E60005B69204601B0BDE8F04F1847B466020820
:102E7000776B0208276802086E6802081169020869
:102E800080760208EC440120E84401202DE9F14F4E
:102E9000D0E9556A0746B06803681B6A984741F253
:102EA0002353984205D8444B444AA321444822F076
:102EB00035F9706803681B6A98470F2803D8414B9F
:102EC0003E4AA421F2E7F06803681B6A98470B2882
:102ED00003D83D4B394AA521E8E70EF005FADFF8A3
:102EE000F09004300EF025FAD9F8000010B1036814
:102EF000DB689847D9F8000010B103681B68984751
:102F0000DFF8D080D8F8000010B103685B699847FB
:102F1000D7F83C0110B103685B689847D8F8000007
:102F200010B103681B689847D7F83C0110B10368DB
:102F30009B689847F0680021FFF75CFE4FF0000B9C
:102F4000224BC0F804B0044680F808B00360B068B3
:102F5000036859465B6A9847054602F0B1F8706805
:102F6000036859465B6A98472946064601F0FAFC11
:102F7000331DC7F83C61C9F80040C8F80050CAF8D2
:102F800000302B68C6F808A02846DB68EE63984737
:102F9000336830461B6898472146284610F076FB78
:102FA000236820461B69984723685B69204601B067
:102FB000BDE8F04F184700BFB46602084F6C020826
:102FC000276802086E680208116902088076020804
:102FD000EC440120E84401202DE9F14FD0E9556A85
:102FE0000746B06803681B6A9847B0F5907F05D222
:102FF000434B444AA321444822F090F87068036888
:103000001B6A98470F2803D8404B3E4AA421F2E799
:10301000F06803681B6A98470B2803D83C4B394A71
:10302000A521E8E70EF060F9DFF8EC9004300EF02F
:1030300080F9D9F8000010B10368DB689847D9F827
:10304000000010B103681B689847DFF8D080D8F8FB
:10305000000010B103685B699847D7F83C0110B1D4
:1030600003685B689847D8F8000010B103681B68D4
:103070009847D7F83C0110B103689B689847F068FF
:103080000021FFF7B7FD4FF0000B224BC0F804B052
:10309000044680F808B00360B068036859465B6A6C
:1030A0009847054601F0F6FB7068036859465B6A6D
:1030B00098472946064601F0CBFB331DC7F83C6113
:1030C000C9F80040C8F80050CAF800302B68C6F8AC
:1030D00008A02846DB68EE639847336830461B68D3
:1030E00098472146284610F0D1FA236820461B69EC
:1030F000984723685B69204601B0BDE8F04F184748
:10310000B4660208216D0208276802086E6802088A
:103110001169020880760208EC440120E84401208D
:10312000406A7047806A704770478A880B8810B57C
:10313000D20A4C88C1699BB251F8220043EA044389
:10314000184410BD10B50446BAB1107B68B1537B6A
:10315000D27A1B0203F4E0631A43236A03EB82036F
:103160001A888A4202D193F9020010BD05D80138AD
:1031700080B204330028F3D1F7E70020F5E710B55B
:103180002C21044621F04CF8204610BD30B58BB000
:103190000446BDF860500895BDF85C5007959DF851
:1031A000505006959DF84C5005959DF84850049553
:1031B0009DF8445003959DF8405002959DF83C5071
:1031C0000195BDF8385000950FF098FE064B23602E
:1031D000159BE361169B2362199B63621A9BA36292
:1031E00020460BB030BD00BFEC760208806A704705
:1031F0007047704770477047704730B5036885B0B7
:103200006D460181D3F8843001460446284698472C
:1032100095E807003C3484E8070005B030BD30B5C0
:10322000036885B06D464181D3F884300146044679
:103230002846984795E807003C3484E8070005B025
:1032400030BD0022028042808280C280704780F8B8
:103250003610704770B5036804461B6B15469847D7
:103260002368294620465B6EBDE870401847002061
:103270007047806C70477047704770477047704761
:1032800090F82C304BB100F16C021268C2653BB172
:1032900000F174031B680366704700F16802F4E7ED
:1032A00000F17003F6E730B4C26844685510034675
:1032B00004EB6200D20748BF62599B6830BC48BF2C
:1032C000D35818470346406830B19A681AB9D8688D
:1032D00000F0010070470120704790F82D3080F811
:1032E0005A30704710B54C21044620F099FF204613
:1032F00010BD10B57821044620F092FF204610BD85
:1033000010B51021044620F08BFF204610BD10B5EB
:103310004FF4B671044620F083FF204610BD08B577
:10332000FEF7C0F808BD10B50446006B50B1036845
:10333000DB68984730B1206B036821469B68BDE885
:103340001040184710BD0B7970B590F82C600446FA
:103350000D460BB916B170BD002EFCD0B3FA83F345
:103360005B0984F82C3023682046D3F88C309847CA
:10337000236820465B699847002EECD02B79012BFF
:10338000E9D123682046D3F88830BDE8704018475B
:10339000036870B55E6B124B1B6804468DB22BB987
:1033A000104B114A6C21114821F0B8FE1049828D52
:1033B0000988914203D80F4B0B4A6D21F3E713F8AC
:1033C00012200D4B1B6853F8220003681B6B9847B3
:1033D000291A3346204609B2BDE87040184700BF9D
:1033E000FC440120F36D0208356E0208706E02087D
:1033F00000450120B76E0208044501206C30884268
:1034000008B505D10DF070FFBDE80840FFF792BB8D
:1034100008BD00224FF0FF31C0E9002182607047F3
:1034200070B5036804461B6B154698472368294608
:1034300020465B6BBDE87040184700000022C0E9E1
:103440000122C0E90322C0E90522C0E907224FF4A6
:1034500080728284014A0260704700BF547702087C
:1034600010B526220446002122F05FF82046FFF71F
:10347000E5FF044B2360FF2384F826300023A3627A
:10348000204610BD3C8102082DE9F04F044689B06A
:10349000A04600250FF04EFF7D4BE56348F8403B0A
:1034A0004046FFF7DDFF4FF47F43A4F8983040F229
:1034B000011304F1A00BA4F89030764BC4F894509B
:1034C000C4E91C55C4E91E55C4E92055C4E9225578
:1034D000C4F89C50E3665846FFF7C2FF6E4BC4F831
:1034E000A03004F16C0A2A46C4E93555C4E93755C1
:1034F000C4F8CC50A4F8D0502946584604F1E4074B
:10350000FFF78EFF5946504607F040FA4FF6FF7915
:10351000262229463846ADF8189022F006F838469B
:10352000FFF78CFF5D4BC4F8E430BDF81830A4F809
:103530000A3104F5887684F80C9106A938460BF018
:10354000BCFA29462622304621F0EFFF3046FFF72D
:1035500075FF534BC4F838314FF47F03C4F844313E
:10356000504BC4F810314FF0FF33C4E954354E4B83
:10357000A4F83C91C4E957344C4BC4F84051C4E919
:1035800059354FF4A073A4F84851C4F84C51C4F80D
:1035900058512A46009329464046F023FFF7D8F8B1
:1035A00004F104094FF07F43A366414648464FF0BB
:1035B0003C0807F0EBF92A4629465846CDF800802A
:1035C0008223FFF7C5F80523A4F8D030384BC4F8A0
:1035D000D43003F54C533333C4F8D830A3F5CC437F
:1035E000663BC4F8DC3003F1331303F54C53C4F8E5
:1035F000E0305046FFF744FE04F5AE73C4F89C304B
:10360000E32282235046CDF800803021FFF7A0F856
:103610005146484607F0BAF92A4629463846FFF788
:10362000FFFE0F2306A93846ADF818300BF045FA17
:103630003946484607F0AAF914230093A0223046E1
:1036400043235021FFF784F81A4BC4F84031D4F8D3
:103650001031A4F8445102AD31462846D3F88430E5
:10366000984795E8070004F5A67383E807000C4B1C
:10367000069306A901233046ADF81C300AF02CFF52
:103680004846314607F082F9204609B0BDE8F08F80
:10369000007902084C78020818820208F8820208B1
:1036A00004760208BC770208E8780208FD330008B7
:1036B000996600FFFAFAFAFF70477047704730B416
:1036C000C26844685510034604EB6200D20748BF45
:1036D00062599B6830BC48BFD358184703464068BE
:1036E00030B19A681AB9D86800F00100704701201B
:1036F000704710B51021044620F092FD204610BD01
:1037000010B54FF49071044620F08AFD204610BD9C
:103710009830884208B505D10DF0E6FDBDE80840B7
:10372000FFF738BA08BD0000074A02600022C0E96E
:103730000122C0E90322C0E90522C0E907224FF4B3
:1037400080728284704700BFC88302082DE9FF475A
:103750000446A04600250FF0EDFD584BE56348F800
:10376000403B04F16C074046FFF77AFE4FF6FF76C8
:10377000262229463846ADF80C6021F0D6FE3846A0
:10378000FFF7D2FF4E4BE366BDF80C30A4F8923041
:1037900003A984F89460384604F198060BF08DF97B
:1037A0003046FFF7C1FF4FF47F43A4F8C430012334
:1037B00004F1CC0984F8BC30424BC4F89830C4F80A
:1037C000C050C4F8C8504846FFF74AFE3E4BC4F804
:1037D000CC302A4629464846C4E94055C4E94255FA
:1037E000C4F8F850A4F8FC50FFF71AFE49463046DA
:1037F00007F0CCF8354BC4E94434354BC4E94635C1
:103800004FF4A0732A46009329464046F023FEF762
:103810009FFF04F1040A4FF07F43A36641465046E0
:1038200007F0B4F82A4629463846FFF7F9FD022387
:1038300003A93846ADF80C300BF03FF93946504635
:10384000472707F0A3F82A46294648460097A023B1
:10385000FEF77EFF0523A4F8FC301E4BC4F80031B0
:1038600003F54C533333C4F80431A3F5CC43663B22
:10387000C4F8083103F1331303F54C53D4F898809E
:10388000C4F80C313046FFF7FBFC84F8C550D8F87B
:1038900090303046984704F58873C4F8C830A023A8
:1038A0001A46304600972821FEF752FF504631460F
:1038B00007F06CF8204604B0BDE8F0874C790208A8
:1038C000F88202084C78020818820208347902084B
:1038D00011370008996600FF7047704770477047BE
:1038E00070477047704730B4C2684468551003464B
:1038F00004EB6200D20748BF62599B6830BC48BFE6
:10390000D35818470346406830B19A681AB9D86846
:1039100000F0010070470120704730B4C26844686D
:103920005510034604EB6200D20748BF62599B68FA
:1039300030BC48BFD35818470346406830B19A6836
:103940001AB9D86800F0010070470120704710B51F
:103950007C21044620F064FC204610BD10B51021E7
:10396000044620F05DFC204610BD10B51021044631
:1039700020F056FC204610BD10B54FF4F6710446F9
:1039800020F04EFC204610BD70B504460D46FFF7F2
:10399000DAFCA06F58B10368DB68984738B1A06FB4
:1039A00003682A4621469B68BDE87040184770BDF1
:1039B00038B500F1E803994204460D4606D1036884
:1039C000DB6A98470DF090FCFFF7D4F804F16C0324
:1039D0009D4209D1236820461B6B98470DF084FC5B
:1039E000BDE83840FFF7C6B838BD00F5C87088425A
:1039F00008B505D10DF078FCBDE80840FFF79AB88E
:103A000008BD000070B50446FFF78EFE4FF47F43FB
:103A10002646A3850123002584F824300D4BA5629A
:103A2000256346F8343B3046FFF71AFD0A4B6363C3
:103A30002A4629463046C4E91A55C4E91C5525666C
:103A4000A4F86450FFF7ECFC2046314606F09EFFD8
:103A5000204670BD4C780208188202082DE9F04F0C
:103A6000044689B0A14600250FF064FC724BE56363
:103A700049F8403B04F16C0A4846FFF7F1FC04F1B9
:103A8000E8086E4E4FF001075046FFF7BBFFE666B1
:103A900084F89070C4F8E4504046FFF7B3FFC4F8D0
:103AA000E86004F5B2762622294684F80C71C4F841
:103AB00060514FF6FF773046ADF81C7021F035FDB0
:103AC0003046FFF731FE5E4BC4F86431BDF81C3060
:103AD000A4F88A3104F5C87B07A984F88C713046B4
:103AE0000AF0EBFF58460AF0C1FF564BC4E97334A5
:103AF000554BC4E97535554BC4E97734544BC4E98B
:103B000079354FF4A0732A46009329464846F0239E
:103B1000FEF71EFE271D4FF07F43A3664946384639
:103B20004FF0550906F032FF2A46294604F1A0005D
:103B3000CDF80090C623FEF70BFE4FF00503454A73
:103B40004549A4F8D0304548454BC4E93710C4E98D
:103B500035325046FFF794FB04F5E67EC4F89CE04E
:103B6000C623D2225046CDF800901521CDF80CE0A6
:103B7000FEF7EEFD5146384606F008FF2A46294674
:103B800004F58E70CDF80090C623FEF7E1FD344BAE
:103B9000304A314931484FF0050CA4F84CC1C4E912
:103BA0005432C4E956104046FFF76AFB039BC4F841
:103BB00018315E22C6234046CDF800901521FEF74D
:103BC000C7FD4146384606F0E1FE2A462946304602
:103BD000FFF726FC4FF0010307A93046ADF81C3073
:103BE0000AF06BFF3146384606F0D0FE2A462946D9
:103BF0005846FFF715FC0A23ADF81030ADF8143025
:103C00000923ADF81830ADF81C3007AB009305AAB6
:103C100006AB04A958460AF093FE6123C4F8C831E4
:103C200004F5EE733846C4F8B831594606F0AEFED6
:103C3000204609B0BDE8F08F4C7A0208807902086E
:103C4000F88202081C7A0208B1390008347A0208A6
:103C5000EB390008CC9900FF663300FF996633FF0B
:103C6000996600FF7047704770477047704770470C
:103C7000704730B4C26844685510034604EB6200D4
:103C8000D20748BF62599B6830BC48BFD358184719
:103C90000346406830B19A681AB9D86800F001004C
:103CA00070470120704710B51021044620F0B8FA83
:103CB000204610BD10B54FF46471044620F0B0FAF0
:103CC000204610BD00F19803994270B504460D4698
:103CD00003D10DF009FBFEF73DFF04F5D6739D42BD
:103CE00003D123682046DB6A984704F588739D4218
:103CF00003D1236820461B6B984704F1D4039D42EF
:103D000003D1236820465B6B984704F5B8739D4246
:103D100005D1236820469B6BBDE87040184770BDF5
:103D200038B5262204460D46002121F0FEFB204630
:103D3000FFF784FB064B23602B88E384FF23204698
:103D400084F8283029460AF0B8FE204638BD00BF66
:103D5000F88202082DE9F04F2DED028B044695B054
:103D6000A14600250FF0E6FADA4BE56349F8403B3F
:103D70004FF0260B5A462946484621F0D6FB4846C6
:103D8000FFF75CFBD44B236404F16C0AFF234FF66E
:103D9000FF7612A984F86630A5665046ADF84860F3
:103DA000FFF7BEFF04F19803184604930AF05EFE85
:103DB00004F1D403184605930AF058FE04F58873FD
:103DC0005A4629461846039321F0AFFB03989FED0E
:103DD000C38AFFF733FB012384F83431C04BC4F8A6
:103DE000103104F5A27312A9C4F8385184F83C517B
:103DF000A4F83E61A4F8406184F842611846069335
:103E0000ADF84860FFF78CFF04F5B87318460793C8
:103E10000AF02CFE04F5D67304F5F478184604F580
:103E20001E7708930AF022FE12A94046ADF84860BA
:103E300009F002FD12A93846ADF8486009F0FCFC13
:103E400004F5427312A918460993ADF84860FFF7CC
:103E500067FF04F54D735A4629461846029321F030
:103E600064FB0298FFF7EAFA9E4BC4F85C334FF408
:103E70007F03C4F868339C4BC4F834334FF0FF33EE
:103E8000C4E9DD35994BA4F86063C4E9E034984B8C
:103E9000C4F86453C4E9E2354FF4A073A4F86C533A
:103EA000C4F87053C4F87C532A4600932946484608
:103EB000F023261DFEF74CFC4FF07F43A3664946D6
:103EC000304606F063FD2A4629465046FFF7A8FA19
:103ED00012A95046ADF848500AF0EFFD5146304661
:103EE00006F054FD04982A462946FFF799FA12AACB
:103EF0000A23009211AA4FF0090904F5607A4FF0E5
:103F0000610B0498ADF83C30ADF840300FA9134672
:103F100010AAADF84490ADF848900AF011FD04994C
:103F2000C4F8C0A03046C4F8D0B006F02FFD059804
:103F300040F20712BE21FFF773FA12AA0C23009277
:103F400011AA0598ADF83C30ADF840300FA91346E2
:103F500010AAADF84490ADF848900AF0F1FC05992C
:103F6000C4F8FCA03046C4F80CB106F00FFD03986D
:103F700040F207128C21FFF753FA0B2312AA039881
:103F8000ADF8443011A9ADF848300AF003FB0399AD
:103F9000C4F838A1304606F0F9FC40F21712069832
:103FA0003F21FFF73DFA05230698ADF8483012A9E6
:103FB0000AF083FD0699304606F0E8FC0798D52202
:103FC000BE21FFF72DFA12AA0D23009211AA07981D
:103FD000ADF83C30ADF840300FA9134610AAADF84B
:103FE0004490ADF848900AF0ABFC0799C4F898A14A
:103FF0003046C4F8A8B106F0C9FC089840F2071290
:104000000321FFF70DFA12AA0E23009211AA0898B5
:10401000ADF83C30ADF840300FA9134610AAADF80A
:104020004490ADF848900AF08BFC5F23C4F8E4316B
:104030000899C4F8D4A1304606F0A8FC882240466E
:104040006FF01D01FFF7ECF912A903234046ADF80C
:10405000483009F093FD274BC4F8F031264BC4F8E3
:104060001432404684ED868A09F032FCDFF88C90E9
:10407000DFF88CA0B7EE000A404609F090FD4046FC
:10408000C4F8409209F024FC4046C4F82CA2C4F8BD
:1040900030A2C4F8349209F01BFC4046C4F838A2A0
:1040A000C4F83CA209F014FCB0EE481AF0EE480A3D
:1040B000B0EE480A404609F06AFD84F811524146C4
:1040C000304606F063FCD42238462E21FFF7A8F9CB
:1040D00018E000BFA07A02083C810208000000003E
:1040E000A481020804760208BC770208887A0208D4
:1040F000C53C0008300130010000164300007A443E
:104100000000184312A908233846ADF8483009F0DA
:1041100035FD4FF09813C4F88032394BC4F8A432FF
:10412000384BC4F8A832384609F0D2FBB7EE000A83
:10413000384609F034FDDFF8D880C4F8D09238460C
:1041400009F0C6FB3846C4F8BC82C4F8C082C4F883
:10415000C49209F0BDFB3846C4F8C882C4F8CC82CA
:1041600009F0B6FBB0EE481AF0EE480AB0EE480A85
:10417000384609F00CFD84F8A1523946304606F065
:1041800005FC4FF48A7209986E21FFF749F906235E
:104190000998ADF8483012A90AF08FFC0999304609
:1041A00006F0F4FB14232A4602980093AD21432322
:1041B000FEF7CEFA144BC4F86433D4F83433A4F8C1
:1041C00068530AAD0299D3F884302846984795E899
:1041D000070004F55C7383E807000C4B0298129308
:1041E00012A90223ADF84C300AF076F93046029954
:1041F00006F0CCFB204615B0BDEC028BBDE8F08F7D
:10420000000050420000E041FAFAFAFF047602088A
:10421000000098427047000030B5164D2C6814F02D
:1042200001048FB0BFF35B8F20D128461FF0FAFF47
:10423000E0B13F230993104B0893104B10491148EC
:104240000A940122CDE906430423CDE903320A236F
:104250000093CDE90B44CDE901440594FEF796FFA8
:10426000094820F079FF28461FF0E8FF05480FB005
:1042700030BD00BFE02C00207CC002085CC20208F8
:1042800064BA0208E42C00201542000870470000C0
:1042900030B5174D2C6814F001048FB0BFF35B8F5D
:1042A00022D128461FF0BEFFF0B13F230993114BE6
:1042B0000893114B07930123CDE90533049304239D
:1042C000CDE9024314230D4900935F221823CDE961
:1042D0000B440B480A940194FEF758FF094820F05C
:1042E0003BFF28461FF0AAFF05480FB030BD00BFB6
:1042F000102D002080C0020860C2020874BA0208B3
:10430000142D00208D4200087047000030B5174D75
:104310002C6814F001048FB0BFF35B8F22D12846C4
:104320001FF080FFF0B13F230993114B0893114B0D
:10433000114912480A94CDE9064301220423CDE92C
:104340000332282300930F222923CDE90B44CDE922
:1043500001440594FEF71AFF094820F0FDFE2846A7
:104360001FF06CFF05480FB030BD00BF402D00208E
:1043700024C2020864C20208A8BF0208442D00201B
:104380000943000800207047002070470EB403B5B1
:1043900003AB002153F8042B01930EF02DF802B06B
:1043A0005DF804EB03B070470CB407B504AB53F8E9
:1043B000042B01930EF020F803B05DF804EB02B07B
:1043C00070470000436C10B5044673B3038F2BB9DC
:1043D000184B194AC521194820F0A0FEC38E00EBE6
:1043E00043035B8C0BB30FF0C4FE238F012B03D868
:1043F000134B144ACB21EEE7E28E531C9BB2092BE0
:10440000194688BFA3F10A0104EB410140F63F10B1
:10441000498C814209D10A2B04EB420228BF0023B8
:1044200004EB4303508C588451842046BDE810406F
:104430000FF0A2BDF56E0208FE6E0208A96F020819
:10444000F36F0208017002080FF05DBD10B586B071
:1044500002AC84E806001A460AAB05930193099B57
:1044600000932146089B0CF0C1FA06B010BD000075
:1044700038B518BB124B13481C681349B4B12268F5
:1044800022440260626822440A60A26814440F4B0E
:1044900000221A8000F038F8054600F033F80C4B83
:1044A0001C600C4B1D600C4B188007E00B4B03602D
:1044B0000B4B0B600B4B1C68002CE8D138BD00BFC8
:1044C0007C2D0020742D0020702D0020782D0020E0
:1044D000FC44012004450120004501207CC2020863
:1044E00068C20208B8C20208044B1B6853F82100D6
:1044F000034B1B6803EB4000704700BF702D00208A
:10450000742D00200520704700487047802D002042
:1045100010B5FFF7BDFE044C2060FFF7F7FE6060AA
:10452000FFF77AFEA06010BD802D002010B500249A
:1045300004600C6014601C6010BD704770477047C9
:10454000704730B4C26844685510034604EB6200FB
:10455000D20748BF62599B6830BC48BFD358184740
:104560000346406830B19A681AB9D86800F0010073
:1045700070470120704710B5102104461FF050FE0F
:10458000204610BD10B54FF4907104461FF048FE50
:10459000204610BD00F16C028A4208B508D10368BC
:1045A000DB6A98470CF0A0FEBDE80840FEF7E2BACF
:1045B00008BD00002DE9FF470446A04600250EF087
:1045C000B9FE564BE56348F8403B04F16C074046A2
:1045D000FEF746FF3846FFF7A7F84FF47F43A4F8ED
:1045E0009830012304F1A00984F890304C4BE36625
:1045F000C4F89450C4F89C504846FEF731FF494B2C
:10460000C4F8A0302A4629464846C4E93555C4E9CD
:104610003755C4F8CC50A4F8D05004F1E406FEF7A6
:10462000FFFE4946384606F0B1F94FF6FF7A2622DA
:1046300029463046ADF80CA020F077FF3046FFF752
:1046400073F8394BC4F8E430BDF80C30A4F80A31E3
:1046500084F80CA103A930460AF02FFA334BC4E9C1
:104660004434334BC4E946354FF4A0732A460093D3
:1046700029464046F023FEF76BF804F1040A4FF098
:104680007F43A366414650464FF0320806F07EF95C
:104690002A4629464846CDF800803A23FEF758F8C6
:1046A0000523A4F8D030234BC4F8D43003F54C5381
:1046B0003333C4F8D830A3F5CC43663BC4F8DC30C0
:1046C00003F1331303F54C53C4F8E0303846FEF7DA
:1046D000D7FD04F58873C4F89C30E0223A233846AD
:1046E000CDF800805721FEF733F83946504606F0E2
:1046F0004DF92A4629463046FEF792FE102303A9BB
:104700003046ADF80C300AF0D8F95046314606F084
:104710003DF9204604B0BDE8F08700BFFC7A0208EE
:104720004C78020818820208F8820208E47A02082B
:1047300095450008996600FF704710B54FF4AE71BB
:1047400004461FF06DFD204610BD10B50446D0F89C
:10475000580100F06EF82046BDE810400CF046BE4F
:1047600010B50446FEF7B2F9014B2360204610BD98
:10477000347B0208704704387047704710B5102129
:1047800004461FF04DFD204610BDA0F10400F5E7E2
:1047900000228260024A026018324260C1607047A3
:1047A000887B02087047000010B5034B0360044685
:1047B000FEF764FD204610BDB07B020810B504462C
:1047C000FFF7F2FF20464FF4CA711FF029FD204683
:1047D00010BD000010B50446FEF756FE014B2360E5
:1047E000204610BDB07B020838B5044600F5B6750A
:1047F0000B462846054A142110F0BAFBC4F858515C
:1048000004F58870BDE838400DF020BFD370020871
:1048100010B50446FEF733FD034B20461968BDE88A
:104820001040FFF7E1BF00BF8C2D00200022026086
:1048300070477047704704387047704710B51021B3
:1048400004461FF0EDFC204610BDA0F10400F5E782
:1048500000228260024A026018324260C1607047E2
:10486000E47B02087047000010B5034B0360044668
:10487000FEF723FF204610BD0C7C020810B504464D
:10488000FFF7F2FF20464FF490711FF0C9FC20465D
:1048900010BD000010B50446FEF758FF014B236021
:1048A000204610BD0C7C0208FEF708BF7047043894
:1048B0007047704710B5102104461FF0B1FC204628
:1048C00010BDA0F10400F5E700228260024A0260F8
:1048D00018324260C1607047407C02087047000097
:1048E000034B00221A60034B0A221A60704700BF74
:1048F0009C2D0020982D0020014B01221A6070474A
:104900009C2D002010B5034B03600446FEF7E9FF21
:10491000204610BD687C020810B50446FFF7F2FF80
:1049200020464FF4F6711FF07BFC204610BD0000BE
:1049300010B50446FFF792F8014B2360204610BDE6
:10494000687C0208FEF7CEBF704704387047704796
:1049500010B5102104461FF063FC204610BDA0F1E5
:104960000400F5E700228260024A026018324260C9
:10497000C1607047A47C020870470123C0F89433DB
:1049800070470123C0F898337047000010B5D0F885
:10499000A4332DED048B0446A3BBD0F89033DFED98
:1049A000266A9FED267AB3F5B47FB0EE088A2FD23F
:1049B000C3F5B47307EE903AF8EEE77A67EEA67A9D
:1049C00087EE879AB0EE490A1FF0B6FC60EE088ABF
:1049D000B0EE490A1FF06CFCB4F90C33C4EDEA8A5E
:1049E00007EE903AB4F90E33F8EEE77A20EE088A33
:1049F000C4EDEC7A07EE903AF8EEE77A84EDEB8AB4
:104A0000C4EDED7ABDEC048B0123C4F8A43310BDD2
:104A1000A3F5B47307EE903AF8EE677A67EEA67ADC
:104A200087EE879AB0EE490A1FF086FCF8EE087A06
:104A300060EE278ACCE700BFC3F54840000034434E
:104A400038B5094B0360044641F2C445B5F5657FAE
:104A500005D0635960191B6898472C3DF6E720463E
:104A6000FFF705F9204638BDD07C020810B5044692
:104A7000FFF7E6FF204641F224511FF0D1FB20460C
:104A800010BD0268D0ED0E0AD26FB0EE401A90ED64
:104A90000D0A1047054B06491A6843F2390001FB1D
:104AA0000200186000F0030001307047140000207D
:104AB0006D4EC6412DE9F0471A4E1B4B306800225F
:104AC0001F46904203F10C0324DC184B1C684FF086
:104AD0000C08002CC4F101024FF0000514BF4FF088
:104AE00009094FF00A091A6008FB04F4AA46FFF707
:104AF000D1FF336801355A1C08FB03F33260A94526
:104B000007EB0302FC50C2E901A004F11804EED146
:104B1000BDE8F08753F8081C183143F8081C01322F
:104B2000CFE700BF843200208C3200208832002082
:104B300082B084B00DF1100C042A0CE90700059333
:104B400009DC079A042A06DC02469A4208460699BE
:104B500003D1884205D1002009E0D21A1832302A48
:104B6000F9D8401A183030288CBF0020012004B03A
:104B700002B070472DE9F04FADF2E44D05AB83E88C
:104B800007000CAA6424174600210120013CC2E959
:104B90000011906002F10C02F8D193E80700274B56
:104BA000DFF8A4B01B68049387E8070009AE4FF054
:104BB0000C0A0AFB047393E8070086E80700DFF895
:104BC0008C901F4D0392013C4FF00008049B43451D
:104BD00005DC002CEDDA0DF2E44DBDE8F08F039B0F
:104BE000B360174B0AFB08320AAB93E803008DE869
:104BF000030007CA3368FFF79BFFC0B1AB68039A95
:104C0000934214D1D9F800308BB9DBF800305A1C2C
:104C1000CBF800200B4A42F8238095E807000123D7
:104C20001C44C9F800300AFB047383E8070008F14C
:104C3000010809F104090C35C8E700BF84320020DF
:104C40008C320020F4300020F0300020A02D002015
:104C50002DE9F04FADF2DC4D03AB83E807000AAA63
:104C60006424164600210120013CC2E90011906035
:104C700002F10C02F8D193E807001F4BDFF87CB07B
:104C80001B68029386E8070007AD4FF00C0A0AFB89
:104C9000046393E8070085E80700DFF86490013CAF
:104CA0004FF00008029B434505DC002CEFDA0DF2C3
:104CB000DC4DBDE8F08F0AFB08F30BEB0307D7E9E7
:104CC00001018DE8030095E807005BF80330FFF76A
:104CD0002FFF60B1D9F800304BB997E807000223E5
:104CE0000134C9F800300AFB046383E8070008F1C7
:104CF000010809F10409D5E7843200208C32002034
:104D0000602F00202DE9F04F3E4B3F4FD3F800A01D
:104D10008FB0044600254FF00C0B00F10408AA45A3
:104D20001CDC6368002B68DC00236360374B22685F
:104D300019680C23C1F1010159431820531A93FB40
:104D4000F0F34343581818330B44151AD21A524340
:104D50006D43AA42B8BF184620604EE098E80300B1
:104D60008DE803000BFB05F907EB090696E8070041
:104D70002368FFF7DDFE002842D057F8091070685D
:104D8000A1F10C0501F10C0201F118060395183987
:104D9000079565680292CDE90512CDE90A0000F198
:104DA00018011838CDE90811CDE90C00691A9A1AD2
:104DB0004943049602FB02120DF1080E0DF1200C7E
:104DC000012700265CF8040F5EF8041F281A591A00
:104DD000404301FB01019142B8BF3E4607F1010784
:104DE000B8BF0A46062FEDD10EAB03EB860353F88E
:104DF000302C53F8183C226063600FB0BDE8F08F90
:104E000001358CE7843200208C320020883200206B
:104E10002DE9F04FADF2B44D8046FFF773FF6B46BE
:104E200064259E4600220121013DC3E900229960CC
:104E300003F10C03F8D1594E594CD6F800A027467F
:104E40002B46A1464FF00C0BAA4503F1010C5CDC8C
:104E500000254FF00C0AAB4266DC524D524FC6F8AB
:104E600000C001222A60514A136098E807004FF001
:104E70000C0E0EFB039E8EE807004D494FF0000A12
:104E8000C7F800A052460846D646624556DB0122C6
:104E900040F8232098E80700FFF76CFE2A68022AF2
:104EA0002FDD444DD6F800E000232946AB461846D6
:104EB0009E4547DC3D4900234FF0010C51F8040B9F
:104EC00001339A424BF820C0F8D100203B68DFF84C
:104ED000E480DFF8CCC0DFF8E0A00246964535DC80
:104EE00000B13B60DFF8D0A04FF000083A684245BF
:104EF0004FF00C0338DC3168002306200526994268
:104F00003FDC0DF2B44DBDE8F08FBA68042ADEBF75
:104F100097E807000BFB03E383E8070005F10105B1
:104F2000D8BF63460C378FE70AFB05F209EB02078F
:104F3000724407CA013587E807008CE741F804EBA3
:104F40000132A2E741F8040B0133B1E758F8041B22
:104F500031B9DCF8041019B94AF8232001200133D3
:104F600001320CF10C0CB9E75AF8042B02214BF872
:104F7000221003FB029207CAFFF76AFE08F101083C
:104F8000B4E755F8042B22B1012A04D001330C34C4
:104F9000B5E7A060FAE7A660F8E700BF843200201A
:104FA0008C320020F0300020302F0020F430002020
:104FB000A02D0020602F0020342F0020094B1968FD
:104FC000094B0022914201DC0020704798680428B8
:104FD00002DC5868DF2802DC01320C33F2E70120E2
:104FE000704700BF843200208C3200202DE9F04150
:104FF00086B003AC0E4B0F4E1F6884E807000025F7
:105000004FF00C08AF4203DC002006B0BDE8F08191
:1050100008FB05F3F218D2E901018DE8030094E8DA
:105020000700F358FFF784FD0128EED00135E9E7CA
:10503000843200208C320020023902299ABF024BB0
:10504000585C0620704700BFC47C020873B5D0E9E5
:10505000E731C0E9E713044600F54276FFF7ECFFBD
:1050600001A9ADF80400304609F027FDD4F8A013DB
:105070002046FFF7E1FF04F5A275ADF8040001A991
:10508000284609F01AFD30460DF0E0FA284602B035
:10509000BDE870400DF0DABA10B5074B074A196841
:1050A00000231846994200DC10BD9468042CD8BF38
:1050B000013001330C32F5E7843200208C320020BD
:1050C0002DE9F7430646FEF745FE234B33600025E6
:1050D0004FF49173C6E9E43506F5A7570023DFF8CE
:1050E0007C90C6F89853C6F8A453C6F8A833C6F8FF
:1050F000AC3306F5707410374FF6FF780123A580A6
:10510000E58025816581A581E58125826582E5614E
:105110002584658484F8245084F82530C4F80090F0
:10512000A4F8268084F82880C4E90555204601A902
:105130002C34ADF8048009F0C0FCBC42DED106F589
:1051400080533046C3F8F054C3F8F454C3F8F8540D
:1051500003B0BDE8F08300BFD07C0208F8820208EB
:1051600010B50A4B0A4A196800231846994206DC12
:105170000228B8BF02200A230238584310BD9468A1
:10518000042CC8BF013001330C32EFE78432002019
:105190008C3200202DE9F043ADF2B44D6A46642311
:1051A000174600210120013BC2E90011906002F185
:1051B0000C02F8D1DFF85CC0154CDCF800801D460D
:1051C000A6464FF00C0998450ADCCCF800500024A4
:1051D0004FF00C0CA54210DC0DF2B44DBDE8F0838D
:1051E000A268042ADFBF94E8070009FB057686E879
:1051F0000700013501330C34E5E70CFB04F30EEB3B
:1052000003063B4493E80700013486E80700E1E722
:105210008C3200208432002038B500F5A7550446B2
:105220001C350B462846064A14210FF0A1FEC4F88F
:105230007C5304F54D70BDE838400DF007BA00BF4F
:10524000D3700208054B642200210120013AC3E912
:105250000011986003F10C03F8D170478C320020E4
:105260002DE9F74F044600F57075002600F5805AC9
:10527000071DDAF8F034B3420FDC0023264EDFF8C6
:105280009C8025461F469946CAF8F034D8F800306D
:10529000BB420DDC03B0BDE8F08F2B6828465B698C
:1052A00098472946384605F0B2FB01362C35E0E731
:1052B000B168D5F8C0330429C8BF85F8E593204606
:1052C0001A6EFFF7B9FE05F5707BADF8040001A971
:1052D000584690477268B6F900101E3212B258460E
:1052E000FEF79EF8DAF8F0142C2359436318D3F82C
:1052F000D4332BB901F570712144201D05F046FB14
:10530000D5F8C03358465B699847DAF8F03401376E
:1053100001332C350C36B7E78C3200208432002064
:105320002DE9F04FD0F894332DED028B012B85B091
:10533000044603D0CA4B1B88632B35D8D4F890336E
:10534000DFEDC88A9FEDC88AB3F5917F84BF03F172
:10535000FF33C4F89033D4F890334FF4B475B3FBF3
:10536000F5F205FB123300EE103AB8EEC00A04F570
:105370001E7020EE280A80EE080AFFF782FBD4F8A0
:105380009033B3FBF5F205FB123304F5F47000EE35
:10539000103AB8EEC00A20EE280A80EE080AFFF79D
:1053A00070FB0023C4F89433D4F89833012B05D054
:1053B000AB4B1A8840F6D2739A4234D9D4F8903362
:1053C000DFEDA88A9FEDA88AB3F5D77F3CBF0133F4
:1053D000C4F89033D4F890334FF4B475B3FBF5F2BE
:1053E00005FB123300EE103AB8EEC00A04F51E7049
:1053F00020EE280A80EE080AFFF743FBD4F890332A
:10540000B3FBF5F205FB123304F5F47000EE103A2D
:10541000B8EEC00A20EE280A80EE080AFFF731FB3A
:105420000023C4F89833D4F8A433012B04F5805535
:1054300059D1B4F90E93D4F89C33B4F90C73019795
:10544000A9F11E02CDE902230DF1040898E8070036
:10545000FFF7CCFD04F5427670BBB9F11D0F2BDDD3
:10546000013FBFB2D62F05D9D4EDEA7AF1EE677AC3
:10547000C4EDEA7AD4EDEC7A94EDEA7A77EEC77A65
:1054800094EDEB7AC4EDEC7AD4EDED7A77EEC77A51
:105490003046C4EDED7A0DF0D9F894EDED7AD4ED07
:1054A000EC7ABDEEC77AFDEEE77A17EE103A1AB243
:1054B00017EE903A19B210E00023C4F8A433012388
:1054C000C5F8F4344046FFF7A3FC30460DF0BEF8B3
:1054D000029ABDF904101E3212B23046FDF7A0FF49
:1054E00030460DF0B3F8D5F8F434012B6AD1DFF86B
:1054F0007C81DFF880B1DFF88CA1C5F8F83426464E
:105500000027DBF80020013ABA422EDC57490C2371
:1055100003FB0219D9F80830052B53D104F5427664
:1055200030460DF093F8B4F80E330333A4F80E337D
:1055300030460DF08BF8B4F90E33B3F5A07F41DAA5
:105540000023C5F8F8344A4B1A88012A72D1D4F8DE
:10555000A423002A6ED11A802368DB6A204605B096
:10556000BDEC028BBDE8F04F1847D8F80820053A8B
:10557000012A22D8D6F8C02306F5707052698146F8
:105580009047B6F8C613D6F8C0230331526B09B260
:1055900048469047D6F8C023484652699047DAF803
:1055A0000020002312B90122CAF80020B6F9C62350
:1055B000B2F5A07FB8BFC5F8F83401372C3608F132
:1055C0000C089EE7D5F8F8040128BCD1294A2749E0
:1055D00012680023C5F8F434013AC4F8A4332C2629
:1055E000C5F8F83404F2E5359A4228DC2046FFF786
:1055F000B7FDD4F8BC330344C4F8BC33FFF7CAFD8D
:105600001D4B1B68002B60D1FFF746FD00283BD1E6
:10561000D4F8B833F3B9194BD4F8BC131960204649
:10562000FFF7FAFD0BF060FEFDF7C4FA144A1368A9
:105630000133136005B0BDEC028BBDE8F08F8F68BD
:10564000052F08BF06FB03F701F10C0108BFE85561
:105650000133C9E7013BC4F8B833FFF72BFA20E068
:105660006A2A0020C3F54840000034438C320020F1
:10567000682A0020843200209C2D0020902D0020DC
:10568000982D0020942D0020344B1B682BBBD4F8A0
:10569000B83333B1FFF70EFAD4F8B833013BC4F88E
:1056A000B8332046FFF7DCFDFFF788FC012818D14E
:1056B0002B4BD4F8BC231A600BF016FE05B0BDECE2
:1056C000028BBDE8F04FFDF785BAFFF7E5FC002837
:1056D000C3D0224B1B68002BBFD0204B00221A6086
:1056E000DFE704F5427504F5A27628460CF0AEFF1C
:1056F00030460CF0ABFF40F217126C212846FDF744
:105700008FFED4F8A073C4F89C73FFF7C3F9394631
:10571000C4F8A0032046FFF78FFC01A9ADF80400F0
:10572000284609F0CAF9D4F8A0132046FFF784FCF4
:1057300001A9ADF80400304609F0BFF928460CF085
:1057400085FF30460CF082FF0023D4F8BC13C4F868
:10575000A4332046FFF760FDF5E600BF942D00203E
:105760008C2D0020F0B52DED028B83B004464FF454
:10577000C875FEF77DFA4FF4966200214248DFEDCE
:10578000438A9FED438A1FF0D0FE2A4600214148FC
:105790001FF0CBFE2A4600213F481FF0C6FE2A46D6
:1057A00000213E481FF0C1FE00212C223C481FF082
:1057B000BCFE3C4A002313603B4A13603B4B1B6812
:1057C000C4F8B8333A4B1B68C4F8BC33FFF762F92E
:1057D000C4F89C030546FFF75DF92946C4F8A00309
:1057E0002046FFF729FC04F54276ADF8040001A934
:1057F000304609F062F9D4F8A0132046FFF71CFCEC
:1058000004F5A27701A9ADF80400384609F055F96E
:10581000D4F890334FF4B475B3FBF5F205FB1233B3
:1058200000EE103AB8EEC00A04F5F47020EE280A33
:1058300080EE080AFFF725F9D4F89033B3FBF5F2B0
:1058400005FB123304F51E7000EE103AB8EEC00AE4
:1058500020EE280A80EE080AFFF713F930460CF014
:10586000F5FE38460CF0F2FEFFF724F92046FFF76C
:10587000F7FCD4F8BC13204603B0BDEC028BBDE8A6
:10588000F040FFF7C9BC00BF8C320020C3F5484090
:1058900000003443602F0020A02D0020F4300020B1
:1058A000342F00208432002088320020982D0020E0
:1058B000902D0020704704387047704710B51021B4
:1058C00004461EF0ADFC204610BDA0F10400F5E733
:1058D00000228260024A026018324260C160704752
:1058E000147D02087047000010B5034B03600446A6
:1058F000FEF725FE204610BD3C7D020810B504468B
:10590000FFF7F2FF20464FF490711EF089FC20460D
:1059100010BD000010B50446FEF74CFE014B23609D
:10592000204610BD3C7D0208FEF70ABEF0207047FD
:105930004FF4A07070472920FCF7F6B92820FCF737
:10594000F3B908B5FCF7C4F9CA20FCF7EDF9C32098
:10595000FCF7CEF90820FCF7CBF95020FCF7C8F98A
:10596000CF20FCF7E1F90020FCF7C2F9C120FCF7D9
:10597000BFF93020FCF7BCF9ED20FCF7D5F9642025
:10598000FCF7B6F90320FCF7B3F91220FCF7B0F9E5
:105990008120FCF7ADF9E820FCF7C6F98520FCF77B
:1059A000A7F90020FCF7A4F97820FCF7A1F9CB2097
:1059B000FCF7BAF93920FCF79BF92C20FCF798F991
:1059C0000020FCF795F93420FCF792F90220FCF74F
:1059D0008FF9F720FCF7A8F92020FCF789F9EA20D5
:1059E000FCF7A2F90020FCF783F90020FCF780F90E
:1059F000B120FCF799F90020FCF77AF91B20FCF79D
:105A000077F9B620FCF790F90A20FCF771F9A2208B
:105A1000FCF76EF9C020FCF787F91020FCF768F955
:105A2000C120FCF781F91020FCF762F9C520FCF7D2
:105A30007BF94520FCF75CF91520FCF759F9C720E4
:105A4000FCF772F99020FCF753F93620FCF76CF95B
:105A5000C820FCF74DF9F220FCF766F90020FCF7AE
:105A600047F9B020FCF760F9C220FCF741F9B620F5
:105A7000FCF75AF90A20FCF73BF9A720FCF738F9A4
:105A80002720FCF735F90420FCF732F92A20FCF72F
:105A90004BF90020FCF72CF90020FCF729F9002035
:105AA000FCF726F9EF20FCF723F92B20FCF73CF953
:105AB0000020FCF71DF90020FCF71AF90120FCF783
:105AC00017F93F20FCF714F9F620FCF72DF9012017
:105AD000FCF70EF90020FCF70BF90620FCF708F99B
