:020000040800F2
:10000000000003205D060008412300084323000888
:10001000452300084723000849230008000000008A
:10002000000000000000000000000000918E0008A9
:100030004B23000800000000218F0008A98700085A
:10004000AD060008AD060008AD060008AD060008C4
:10005000AD060008AD060008AD060008AD060008B4
:10006000AD060008AD060008AD060008AD060008A4
:10007000AD060008AD060008AD060008AD06000894
:10008000AD060008AD060008AD060008AD06000884
:10009000AD060008AD060008AD060008AD06000874
:1000A000AD060008AD060008AD060008AD06000864
:1000B000AD060008AD060008AD060008AD06000854
:1000C000AD060008AD060008AD060008AD06000844
:1000D000AD060008AD060008AD060008AD06000834
:1000E000AD060008AD060008AD060008AD06000824
:1000F000AD060008AD060008AD060008AD06000814
:10010000AD060008AD060008AD060008AD06000803
:10011000AD060008AD0600084D230008AD06000836
:10012000AD060008AD060008AD060008AD060008E3
:10013000AD060008AD060008AD060008AD060008D3
:10014000AD060008AD060008AD060008AD060008C3
:10015000AD060008AD060008AD060008AD060008B3
:10016000AD060008AD060008AD060008AD060008A3
:10017000AD060008AD060008AD060008000000004E
:10018000AD060008AD060008AD060008AD06000883
:10019000AD060008AD060008AD060008AD06000873
:0C01A00059230008AD0600086523000884
:1001B00010B5054C237833B9044B13B10448AFF3A1
:1001C00000800123237010BD800300200000000088
:1001D0007861020808B5034B1BB103490348AFF32C
:1001E000008008BD00000000840300207861020840
:1001F00001F0FF01102A2BDB10F0070F08D010F8D8
:10020000013B013A8B422DD010F0070F42B3F6D1DB
:10021000F0B441EA012141EA014122F007047FF0F4
:1002200000070023F0E80256083C85EA010586EA4B
:10023000010685FA47F5A3FA87F586FA47F6A5FA87
:1002400087F68EB9EED1F0BC01F0FF0102F0070293
:1002500032B110F8013B013A83EA010313B1F8D13E
:100260000020704701387047002D06BF354603381F
:10027000073815F0010F07D1013015F4807F02BF58
:10028000013015F4C03F0130F0BC0138704700BFA9
:100290007BB972B90029BEBF00204FF0004106E0D3
:1002A00008BF00281CBF6FF000414FF0FF3000F086
:1002B000D3B9ADF1080C6DE904CE002909DB002BA0
:1002C0001ADB00F04DF8DDF804E0DDE9022304B0AC
:1002D0007047404261EB4101002B1BDB00F040F80E
:1002E000DDF804E0DDE9022304B0404261EB4101A6
:1002F000524263EB43037047524263EB430300F007
:100300002FF8DDF804E0DDE9022304B0404261EBA0
:1003100041017047524263EB430300F021F8DDF8DE
:1003200004E0DDE9022304B0524263EB430370476B
:1003300053B94AB9002908BF00281CBF4FF0FF314C
:100340004FF0FF3000F088B9ADF1080C6DE904CE34
:1003500000F006F8DDF804E0DDE9022304B07047A0
:100360002DE9F047089D8E4604468846002B4AD169
:100370008A42174662D9B2FA82F64EB1C6F120031C
:1003800001FA06F820FA03F3B74043EA0808B4403C
:100390004FEA174E1FFA87FCB8FBFEF1230C0EFB49
:1003A000118843EA084301FB0CF29A4209D9FB1871
:1003B00001F1FF3080F0EA809A4240F2E780023992
:1003C0003B449A1AA3B2B2FBFEF00EFB102243EAA2
:1003D000024300FB0CFC9C4509D9FB1800F1FF32DD
:1003E00080F0D6809C4540F2D3803B44023840EAFE
:1003F0000140A3EB0C0300211DB1F3400022C5E92D
:100400000032BDE8F0878B4205D90DB1C5E9000186
:1004100000210846F5E7B3FA83F1002946D1734578
:1004200002D3824200F20581841A6EEB030201209E
:100430009046002DE5D0C5E90048E2E7002A00F02B
:100440009080B2FA82F6002E40F0A4808A1A030C43
:100450004FEA174E80B2BCB20121B2FBFEFC0EFB8C
:100460001C2243EA024304FB0CF29A4207D9FB1810
:100470000CF1FF3802D29A4200F2E080C4469B1A87
:10048000B3FBFEF20EFB123340EA034302FB04F41B
:100490009C4207D9FB1802F1FF3002D29C4200F2C5
:1004A000CA8002461B1B42EA0C40A5E7C1F12006A8
:1004B0008B4022FA06F71F430EFA01F420FA06F3E6
:1004C0002EFA06FE4FEA1749234300FA01F81FFAF5
:1004D00087FCBEFBF9F01C0C09FB10EE44EA0E444D
:1004E00000FB0CFEA64502FA01F209D93C1900F105
:1004F000FF3A80F09C80A64540F2998002383C4447
:10050000A4EB0E041FFA83FEB4FBF9F309FB1344BA
:100510004EEA044403FB0CFCA44508D93C1903F142
:10052000FF3E80F08280A4457FD9023B3C4443EAF1
:100530000040A4EB0C04A0FB02EC64457346E146CA
:1005400062D35FD05DB1B8EB030264EB090404FA37
:1005500006F622FA01F31E43CC40C5E900640021EF
:100560004FE7B1FBF2FC010C41EA0E4180B240EAD8
:1005700001423B4638463C46B846BE462026B1FBC3
:10058000F7F1A2EB080241EA0C4166E7014618E7E1
:1005900010462CE7C6F120022EFA02F3B740B14014
:1005A00020FA02F24FEA174E0A43B3FBFEF8BCB240
:1005B0000EFB1833110C41EA034108FB04F9B0406B
:1005C00089454FEA104380B23ED9791808F1FF3CC3
:1005D00001D289451FD8A1EB0901B1FBFEF909FB46
:1005E00004F80EFB191192B242EA0142424529D2A7
:1005F000BA1809F1FF31C4D24245C2D2A9F10201B1
:100600003A44BEE7F0459DD2BEEB02036CEB070C0B
:100610000138E14696E7A7EB09094944A8F1020C25
:10062000B1FBFEF909FB04F8DBE773467FE75046B0
:1006300066E70846FDE63B44023A33E7ACF1020CBC
:100640003B441CE749469CE7A1EB0901C446B1FBCA
:10065000FEF909FB04F8C4E7704700BFDFF834D0A7
:10066000002103E00C4B5B58435004310B480C4B0A
:1006700042189A42F6D30B4A02E0002342F8043BA8
:10068000094B9A42F9D305F0FBFB25F007F801F07E
:100690008FF870470000032060B00F0800000020B2
:1006A0006801002080030020E4510120FEE770472C
:1006B00008B500F0BDFDBDE8084000F03FBD00F00A
:1006C000B9BD704710B50421044623F0B9FD20469A
:1006D00010BD000038B50C4B0C4C18800C4B822020
:1006E00019806368984740F6110398420AD1094D72
:1006F00023682C60822098472B688220DB6898470B
:10070000002038BD0120FCE7A60300205000002097
:10071000A4030020A80300204FF4A071F020FFF7ED
:10072000D9BF0000F7B5394D2B6804461B698220FC
:100730009847208000284ED02B680DF106025B6997
:1007400001A982209847324B1B78002B4BD0BDF873
:10075000062040F674639A423FD9ADF80630BDF8E2
:1007600006209B1A9BB20A2B42D90B22B3FBF2F351
:10077000284A1288934201D9013A93B2BDF8042065
:10078000254840F6B8318A4234D8C2F571620E323B
:10079000016892B20F25B2FBF5F2204D2D88AA42D6
:1007A00084BF05F1FF35AAB28A4215468EB22AD916
:1007B000921B91B21A4E3768BB42BAB28CBF9A1ADA
:1007C000D21A92B211440529C4BF05603360036890
:1007D00063803368A38003B0F0BDB32A9CBFB4220A
:1007E000ADF80620BBE7BDF80630A3F5B473B9E752
:1007F0000023C3E7C2F56D62083292B20E2A016887
:10080000C8D800252A46891A89B2D3E7A803002050
:100810006C2A0020A4030020A0030020A6030020CF
:100820009C03002037B568460D461446FFF77AFF53
:10083000BDF8000030B1BDF802302B60BDF80430C7
:100840002360012003B030BD032821D8DFE800F089
:10085000020B12190F4B1A68B2FA82F252090421E4
:100860000D4805F0B7BF0B4B5A68B2FA82F2520935
:100870000821F5E7074B9A68B2FA82F25209102173
:10088000EEE7044BDA68B2FA82F252092021E7E778
:10089000704700BFAC03002000100240032821D89D
:1008A000DFE800F0020B12190F4B1A68003A18BF6C
:1008B000012204210D4805F08DBF0B4B5A68003A08
:1008C00018BF01220821F5E7074B9A68003A18BFC4
:1008D00001221021EEE7044BDA68003A18BF01222A
:1008E0002021E7E7704700BFAC0300200010024062
:1008F00003280DD8DFE800F00206080A04210548A5
:1009000005F06DBF0821FAE71021F8E72021F6E78E
:10091000704700BF0010024008B5032811D8DFE877
:1009200000F0020A0C0E0421074805F04DFF431E9B
:100930005842584108BD0821F6E71021F4E720216C
:10094000F2E70020F3E700BF0010024070B5084D49
:1009500000240126E0B2FFF7DFFF18B12B68012B5E
:1009600018BF2E600134052C05F10405F2D170BDCD
:10097000AC030020012380F8781080F879307047AC
:100980007047002070470000034B4164003918BFD6
:1009900001211970704700BFA34401207047002057
:1009A0007047836B0BB10846184770474FF6FF70CE
:1009B0007047406803689B691847704770477047E5
:1009C0007047704710B5044600F04AFD236803499C
:1009D000D3F890302046BDE810401847000000D002
:1009E00008B503680446D3F8843098472368204646
:1009F000DB6F984700F0ECF8236820465B6F984760
:100A0000292001F08BF900F0E3F8236820465B6FA2
:100A10009847F8E710B504460BF030F823682046F5
:100A2000D3F8BC30BDE81040184700F0FDBC00F022
:100A300001BD00F033BD00F0D3BC00F043BD00F0B9
:100A40004BBD00F0D7BC0AF047BA10B5842104466C
:100A500023F0F6FB204610BD10B590F8341090F846
:100A600078400C4B8C421A7809D03AB90A4A0B49A3
:100A70001488088810800C8001221A7010BD002A8A
:100A8000FCD0054A05491488088810800C80002293
:100A9000F3E700BF9C440120984401209A440120C0
:100AA00070B50D46194635B9094B0A4A0A4840F255
:100AB000FF2124F043FBC0E90F52084B003A18BF56
:100AC00001221A700368BDE87040D3F890301847CF
:100AD000E8610208206202086E620208A244012056
:100AE00008B5094B1B888B4203D8084B1B889342DF
:100AF00005D9074B074A0848A32124F01FFB074BE1
:100B00001980074B1A8008BD984401209A4401209F
:100B1000B3620208166302086E6202089E44012056
:100B2000A0440120034690F87A0018B15868036881
:100B30001B68184770470000012108B500220846CD
:100B400007F0BCFE0A4B186028B90A4B0A4A282154
:100B50000A4824F0F3FA00220421012007F04DFF97
:100B6000074B186018B9074B034A2C21F0E708BD62
:100B7000C003002059630208A2630208D16302087F
:100B8000BC03002021640208024B4FF0FF311868BB
:100B900007F0DEBEC0030020014B186807F004BF59
:100BA000C0030020024B0021186807F0D1BE00BF2F
:100BB000C0030020FFF7F0BF03480449006800238A
:100BC0001A4607F055BF00BFBC03002004000020F8
:100BD00013B5084C00231A4601A9206807F079FFD5
:100BE00020684FF0FF33002201A907F072FF02B026
:100BF00010BD00BFBC03002003685B6C18470120D8
:100C0000704703689B6A1847FEE740F2EF30704771
:100C1000054B0360054B4FF08062C3F88820BFF39B
:100C20004F8FBFF36F8F70476C72020800E100E0D6
:100C300010B504464FF45A61FFF7EAFF204623F04F
:100C4000FFFA204610BD000082B0002301930E4B36
:100C50001A6B42F400021A631A6B02F4000201924A
:100C6000019A1A6942F400021A611A6922F4000218
:100C70001A61064B064A1A61064A5A61064B4FF042
:100C800080629A6002B0704700380240002C002059
:100C9000E90E0008090C000800E100E008B50A2888
:100CA00009D8DFE800F006100E0808080810101038
:100CB0001000022008BD054B054A0648902124F08B
:100CC0003DFA0020F6E70120F4E700BF6364020864
:100CD0007E640208C964020838B50C46887FFFF7B5
:100CE000DDFFA58AE28A164B2169586342EA054274
:100CF0005A64628BD963521B1A642568082D0ED181
:100D00009A611A615862207F0E4A42EA0062DA61F3
:100D1000E2681A620C4A5961D9601A6038BD002233
:100D2000D8611A61E1680A0A480902F4784200F4BD
:100D3000FC600243C1F3C4010A439A63034AECE72F
:100D400000B002400900010001230200012303005A
:100D500008B50B280BD8DFE800F00612100A0A0AC3
:100D60000A0808080808022008BD0520FCE7054B12
:100D7000054A06486F2124F0E1F90020F4E701203C
:100D8000F2E700BF6364020817650208C96402083D
:100D90002DE9F04191F81D800C464046FFF7D8FF41
:100DA000A77F05463846FFF7D3FF06463846FFF7CC
:100DB00075FFA18A628B444B521A1A649A61228B86
:100DC000521A1A61E28A586342EA01425A6421695E
:100DD0006268D963DA602068802828D0227F0FD823
:100DE000202867D0402865D004281AD0364B45EA21
:100DF000026545F40035B845DD6161D0334A44E011
:100E0000B0F5807F04D0B0F5007FEFD1304800E02E
:100E1000304840EA0262DA61E2681A625E62596151
:100E200032E045EA026242F40032DA61F6E7A06895
:100E3000021DDA62227F45EA026545F40035DD6174
:100E40005E625961017841B1012921D0224B234AC8
:100E500023484FF48D7124F071F9DA69418822F446
:100E60007F42013922F0100242EA0122DA610121B7
:100E7000154BDA6942F02002DA61DA699206FCD495
:100E800010229A600029B9D0164A1A60BDE8F08194
:100E9000B2F1FF01DA69408822F47F4200F1FF30AD
:100EA00022F0100242EA002242F0100218BF012193
:100EB000DA61DDE745EA0262034B42F40032B4E74F
:100EC00042F20132E1E700BF00B00240012301001D
:100ED000090002000A000200616502087B65020841
:100EE000C964020801230200024B1B6858680368AA
:100EF0005B691847A444012070B5044625460A4B97
:100F00000C30002660602672667245F8203B602235
:100F100029460AF009FF04F55A63EE6024359D4224
:100F2000FBD1204670BD00BF6C720208034B1A68EB
:100F3000D207FCD423229A60704700BF00B0024061
:100F40007047000030B50F4C2568ED07FCD4232511
:100F50000904A56041F001010225FF2B656361646E
:100F6000E0630AD00849656241EA0363E361074B25
:100F700022626061E060236030BDE561039BA36392
:100F8000034BF8E700B00240090001000100020035
:100F90000100030030B50E4C2568ED07FCD4232575
:100FA0001204A56042F001020225FF2B6563626412
:100FB000E063E16008D01B0643F00213E361054BD8
:100FC00065626061236030BD034BE3610123F9E793
:100FD00000B0024001000200020002FF30B50B4CDD
:100FE0002568ED07FCD4232512041B06A56043F4F5
:100FF0000033022542F0010265636264E063E16050
:10100000E361034B65626061236030BD00B0024064
:1010100001000200012070474020704700EB811062
:101020000830704700EB811008307047012070478E
:1010300041F22450704741F2245303FB0100083071
:10104000704741F2245303FB010008307047012030
:1010500070471020704700EB01100830704700EB1C
:10106000011008307047084601F05EBD10B5034B13
:101070000360044609F087FC204610BD2473020873
:1010800010B50446FFF7F2FF2046482123F0D8F8B8
:10109000204610BD10B5034B0360044609F073FCF5
:1010A000204610BDF072020810B50446FFF7F2FFAB
:1010B000204641F22C5123F0C3F8204610BD000019
:1010C00010B5034B0360044609F05DFC204610BDDB
:1010D000BC72020810B50446FFF7F2FF2046182143
:1010E00023F0AEF8204610BD10B5094B036004464E
:1010F00000F5AA501830FFF7B9FF04F12C00FFF7F4
:10110000C9FF04F11400FFF7DBFF204610BD00BF4C
:101110005873020808B50248FFF7E6FF08BD00BF94
:101120009C12002010B50446FFF7DEFF20464FF466
:10113000B85123F085F8204610BD00002DE9F34199
:1011400001F084F9054601F085F9002401462346A3
:1011500028462246009413F0C1FF274B274A1A6005
:10116000204603F07FF9264D264B274A27489A60F0
:1011700013F01CFF2B68BFF35B8FDB0736D42846C8
:1011800023F060F890B3224C224F234B236007F1E9
:101190004C0604F1140004F12C086060C4F80880C7
:1011A000E760266109F0F0FB1C4B6361404609F0E3
:1011B000EBFB1B4BE362384609F0E6FB04F580537A
:1011C000184AC3F8582504F5AD5003F029FB224610
:1011D00004F5AD51304603F0BDFA304601F0A4FCF1
:1011E000114823F0C9FF284623F038F80F4802B011
:1011F000BDE8F041FFF7E6BB0845012048040020A8
:1012000098120020680400204C04002008000020F0
:101210009C120020F427002058730208BC720208B8
:10122000F07202082473020815110008C40300209C
:10123000704700000148FFF7D3BB00BFC403002084
:1012400070B5264E264C274D274B23603046FFF7BE
:1012500053FE284619F048F8244811F0BDFA244BF3
:101260002448DC6000224FF48071C3E91212224945
:101270001A86C3E91A12214983F85820C3E91E01CE
:101280001F49C3F880101F491F480B60F021C3E9B4
:101290000422C3E90622C3E90822C3E90A22C3E9FA
:1012A0000E22C3E91022C3E91422C3E917225A66A9
:1012B00083F870205A67C3E90165018013480180F3
:1012C00013484FF4A07101801248018012490A703E
:1012D000012283F83420114A1A6070BDF404002002
:1012E0009412002068040020D86102084C040020F9
:1012F000C4030020000001010100000100045000AF
:101300001A001400A4440120984401209E440120A6
:101310009A440120A04401209C44012080710208CD
:101320000148FFF775BC00BFF4040020002070479F
:1013300081807047C180704701817047418170474B
:101340007047704770477047704710B4C48803688F
:10135000121B84885B6D091B12B25DF8044B09B245
:1013600018474FF6FF7383814FF0FF330362136812
:10137000C36110607047002070478B888380012014
:101380007047704780F82610704790F82600704725
:1013900010B50022B1F90840B1F90A10028042806C
:1013A0008480C18010BD0022028042808280C28081
:1013B00070470177704780ED080A704780F8241065
:1013C000704780F8251070470120704798307047AB
:1013D0008C3070478430704770477047704700000A
:1013E000034B902283F85A2383F85823704700BF99
:1013F00000E100E0094A0A49D3680A48C3F30A0336
:10140000013B9BB20B801169C1F30A0101390180D4
:101410001364536B43F0010353637047006801404A
:101420009E2900209C290020014BD3F8AC00704776
:1014300000680140024B0122C3F8AC105A627047A9
:101440000068014010B52C21044622F0F9FE204628
:1014500010BD10B5BC21044622F0F2FE204610BD9E
:1014600070B5044609F08DFD23689D6E0FF04CFFAA
:1014700001462046A8472368054AD3F88C502046E9
:10148000AC460023BDE87040A2F51631604700BFAE
:1014900000B004D009F05CBD09F066BD09F022BDC2
:1014A00009F091BE90F8252012B103685B691847D6
:1014B000704790F825201AB190F8242002B11860E6
:1014C00070470000034B4FF080629A604FF08072CB
:1014D0009A60704700E100E0084B4FF08062C3F86B
:1014E0008820BFF34F8FBFF36F8F4FF08072C3F828
:1014F0008820BFF34F8FBFF36F8F704700E100E08C
:1015000070B50023124E8380124B0360336893F84A
:10151000582005460AB1D86C00B998680368DB6AA0
:1015200098473368B0FA80F4D86C640930B1036826
:10153000DB6A9847002808BF44F001042CB9064B29
:10154000064A07482C2123F0F9FD284670BD00BF4C
:10155000A44401206C730208B965020817660208EA
:101560005066020870B5254E3568BFF35B8F15F0E5
:10157000010540D1304622F065FE00283BD0204CCA
:10158000204B256104F13400C4E90035C4E902555B
:10159000E584A562A58511F004FC04F158000CF067
:1015A00077F8194BA3652046184B40F8843BFFF7AA
:1015B000A7FF174BC4F884302433C4F88C304FF4A1
:1015C000C803C4E928350023C4F8AC30C4F8B030EF
:1015D000C4F8B430C4F8B8300E480F4BC4F890507B
:1015E000C4F89C50C4F8A850C4F8983023F0C4FD47
:1015F000304622F033FE024870BD00BFA029002013
:10160000A4290020147F02088C73020804740208C5
:10161000C87E0208DD130008A87E020838B5184C01
:1016200023685BB3174B184A1B6C11888B4216D189
:10163000164B198805F0D6FE236893F86A2000251A
:10164000013283F86A2083F87C50FFF7B5FA2068EE
:101650000AF014FA2846BDE83840FFF7F5B805F05F
:10166000C1FE2468236820461B6A9847012384F83A
:101670007C300020BDE83840FFF710B938BD00BF0E
:10168000A4440120006801409E2900209C290020DC
:1016900007B5064BADF806001B68054801220DF1A1
:1016A000060106F03FFC03B05DF804FB0C000020CF
:1016B000AC2A002008B5104C104D114E204604F005
:1016C000D3FC0121204604F04DFD204604F09DFD91
:1016D00020212880304605F077F80128094B08D1F1
:1016E000002264201A8007F0DDF8642007F0DAF8A1
:1016F000E4E701221A80F8E7482C00206A2A00203B
:1017000000000240682A002008B5642007F0CAF8EB
:10171000FBE7000030B595B0102200210AA823F0A5
:1017200014FF1422002103A823F00FFF00241E4BF6
:1017300001941A6C42F080521A641B6C03F08053BF
:101740000193019B194B02941A6842F440421A60BB
:101750001B6803F4404302930122029B4FF4803341
:10176000CDE9082302254FF480030821CDE90E536B
:101770004FF4B473CDE9101308A804231393129502
:1017800005F088FE05F04CFE0F23CDE903354FF43C
:10179000A0504FF48053CDE90603052103A805941A
:1017A00006F054F815B030BD00380240007000401B
:1017B0002DE980489BB004F071FBFFF7ABFF1422CA
:1017C00000210DA823F0C1FE0024C84B00941A6B21
:1017D000C748C84D42F010021A631A6B02F010029B
:1017E0000092009A01941A6B42F004021A631A6B79
:1017F00002F004020192019A02941A6B42F0200254
:101800001A631A6B02F020020292029A03941A6B76
:1018100042F080021A631A6B02F080020392039A6C
:1018200004941A6B42F001021A631A6B02F001026F
:101830000492049A05941A6B42F002021A631A6B1E
:1018400002F002020592059A06941A6B42F04002D9
:101850001A631A6B02F040020692069A07941A6BFA
:1018600042F008021A631B6B03F008032246079339
:101870003C21079B04F0AEFF22469F4842F2040140
:1018800004F0A8FF9C480122022104F0A3FF224695
:101890009A484FF4405104F09DFF01263C23CDE9C6
:1018A0000D3693480F9403230DA9109304F0A8FE5E
:1018B00042F2020390480DA90227CDE90D36CDE989
:1018C0000F4404F09DFE04238B480F940DA9CDE92D
:1018D0000D36109704F094FE202389480F960DA929
:1018E000CDE90D3404F08CFE0DA94FF4405383482C
:1018F000CDE90D36CDE90F4704F082FE8148824BD9
:10190000036004F073FDDFF824C2804B2C62C5E94C
:1019100000C328464FF48043C5E90434C5E90244B6
:10192000C5E9064405F064F91021284605F0A8FB36
:101930002146284605F0C3FB754DDFF8F4E1AC62A3
:101940004FF48273C5E900E34FF400781823C5E92A
:10195000068328460A23C5E90244C5E90444C5E9CB
:101960000844EB6206F082FA8F2322463946624829
:101970008DF824308DF8344004F02CFF32464FF4BB
:101980007A7309A9284606F0CDFA4FF47A733246E5
:101990000DA9284606F072FC3246394656485D4D80
:1019A00004F018FF9DF83430D32B04BF5A4B1E703F
:1019B0005A4B0126C5E900364FF0100A4023002497
:1019C000C5E904A34FF4C073C5E906344FF40063BE
:1019D000C5E908344FF4005302274FF00409AB6205
:1019E0004FF0030B07230DA92846CDE90D73CDE970
:1019F0000F934FF00808C5E90249CDE911B71397D5
:101A000006F018F94FF6FF7209A92846CDE90A86B3
:101A1000089409960C9406F02DF9304604F06AFA01
:101A20004FF6FF7209A92846CDE90978CDE90B6484
:101A300006F020F94FF6FF7209A92846CDE909B84A
:101A4000CDE90B9406F016F94FF40C730893089B3C
:101A50000C934FF6FF7209A92846CDE909980B9619
:101A600006F008F940F26A51284606F021F93422BE
:101A700021460DEB020023F068FD294D294B2C6116
:101A8000C5E900340923C5E905361D23C5E9073B2F
:101A900040F20D1240F24313C5E9092340F2171139
:101AA00040F247132846C5E90B13C5E90244AC864A
:101AB00085F8364005F09EFBFF21F022CDE9121497
:101AC0004FF4806005214FF4A073CDE91401CDE9F6
:101AD0000E240DA9CDE9164228462246CDE910373D
:101AE000114D18930D94ADF8644023E00038024086
:101AF00000100240AC2B002000080240000C024005
:101B000000000240402C002000300240A08601006E
:101B1000AC2A0020782A00206C2A0020400100A076
:101B2000042B002000680140602A0020005C004077
:101B3000005001408DF8664005F027FC2C4B2B60CF
:101B40001B6898472B682B4DDB6898472A4B284623
:101B5000C5E90034C5E90274C5E90A47C5E90C4482
:101B600004F054FC3146284604F006FD234D244F72
:101B7000524621460DA823F0E8FC4FF48033C5E916
:101B8000007328461F4BAB62AC602C612C7685F845
:101B90002040EC62EC60EE6185F830406E6104F04C
:101BA000BDF90D230DA92846CDE90D360F9404F09B
:101BB0002FFBFEF77DFDFEF77AFD06F003FE124ACD
:101BC0001248214606F02AFE114B124A186021469F
:101BD000114806F023FE114B114A186021461148A6
:101BE00006F01CFE104B186006F0FEFDFEE700BF7D
:101BF00018000020002C002000B00240482C0020DB
:101C0000002001400100000F90740208091700082D
:101C1000742A00206C740208BF060008702A002095
:101C200048740208B5160008642A002070477047FF
:101C30007FB5094B8DF817201B6802930DF1170231
:101C40000123009201930A460146044805F078F802
:101C500007B05DF804FB00BF10000020AC2B002093
:101C60007FB500238DF81730084B1B6802930A4696
:101C700001230DF11701009101930146044805F07D
:101C8000EFF89DF8170007B05DF804FB1000002086
:101C9000AC2B00201FB5084C24680092CDE901341C
:101CA0000A4601230146054805F0DAF8003818BF56
:101CB000012004B010BD00BF10000020AC2B00209C
:101CC00004F018B910B5064C00222046042104F097
:101CD00081FD20460122BDE81040042104F07ABDB8
:101CE0000008024038B50B4D044601220A484FF463
:101CF000005104F06FFD00220421284604F06AFD23
:101D00002046FFF7C5FC28460122BDE838400421E3
:101D100004F060BD00080240000C024038B50B4DD5
:101D2000044600220A484FF4005104F053FD0022FB
:101D30000421284604F04EFD2046FFF7A9FC284662
:101D40000122BDE83840042104F044BD00080240EF
:101D5000000C0240F7B5144E144F05460C463046B1
:101D60000022042104F036FD00224FF400513846D1
:101D700004F030FD2846FFF78BFC0D4B0D481B6827
:101D8000224601A906F07AFA384601224FF40051A2
:101D9000019C04F01FFD30460122042104F01AFDCD
:101DA000204603B0F0BD00BF00080240000C024016
:101DB0000C000020AC2A002004F09CB80268034B01
:101DC0009A4201D104F084B8704700BF001000406F
:101DD0007047000082B00E4B00220092596C41F413
:101DE00080415964596C01F480410091009901923D
:101DF000196C41F0805119641B6C03F080530193FE
:101E0000019B0F216FF0010002B004F0AFBA00BFD8
:101E10000038024010B5044688B01422002103A8FF
:101E200023F093FB2268124B9A421ED103F58C33A8
:101E3000002101915A6C0F4842F480725A645A6C26
:101E400002F480720192019A02911A6B42F004022C
:101E50001A631B6B03F004030293029B0822032303
:101E600003A9CDE9032304F0CBFB08B010BD00BFEC
:101E700000200140000802400268094B9A4282B0EB
:101E80000BD100230193074B1A6B42F480521A6363
:101E90001B6B03F480530193019B02B0704700BF9A
:101EA000003002400038024007B50F4B02689A42EA
:101EB00016D10022A3F5F0430192196B41F4000101
:101EC00019631B6B03F40003019305215A20019B46
:101ED00004F04CFA5A2003B05DF804EB04F078BA31
:101EE00003B05DF804FB00BF00B002402DE9F043F1
:101EF000044689B01422002103A823F026FB22689F
:101F0000244B9A4243D1244C244800250095236B4E
:101F100043F004032363236B03F004030093009B4B
:101F20000195236B43F001032363236B03F001034B
:101F30000193019B4FF012094FF400734FF0010819
:101F40000327042603A9CDE90339CDE905870796C0
:101F500004F056FB4FF480731148079603A9CDE9AE
:101F60000339CDE9058704F04BFB0295236C43F45C
:101F700000032364236C03F400030293029B236A8F
:101F800043F400032362236A23F40003236209B0AD
:101F9000BDE8F083005C00400038024000080240C9
:101FA00000000240F0B599B004461422002107A8B1
:101FB00023F0CBFA30220DEB0200002123F0C5FA0A
:101FC00022685E4B9A4240F0B78008230C93C023EE
:101FD0001093042312930CA84FF40033159305F0CB
:101FE000FDFC08B1FFF7F4FE554B56480024009461
:101FF0005A6C42F080625A645A6C02F0806200921D
:10200000009A01941A6B42F020021A631A6B02F0D4
:1020100020020192019A02941A6B42F001021A63A3
:102020001A6B02F001020292029A03941A6B42F0B8
:1020300002021A631A6B02F002020392039A0494DA
:102040001A6B42F040021A631A6B02F040020492CB
:10205000049A05941A6B42F004021A631A6B02F098
:1020600004020592059A06941A6B42F008021A635C
:102070001B6B03F00803069302250E26069B0B96A6
:102080004FF4806307A9CDE90735CDE9094504F090
:10209000B7FA41F658032C480B9607A9CDE9073546
:1020A0000927CDE9094504F0ABFA032327480B972C
:1020B00007A9CDE90735CDE9094504F0A1FA4FF4A8
:1020C000706322480B9607A9CDE90735CDE909458C
:1020D00004F096FA4FF40C631D480B9607A9CDE95E
:1020E0000735CDE9094504F08BFAC02319480B9652
:1020F00007A9CDE90735CDE9094504F081FA0823A0
:1021000015480B9607A9CDE90735CDE9094504F037
:1021100077FA4FF4A0530E480B9707A9CDE907357E
:10212000CDE9094504F06CFA58202246052104F057
:102130001DF9582004F04CF919B0F0BD00680140B9
:102140000038024000140240000002400004024037
:102150000018024000080240000C024010B504467E
:1021600088B01422002103A823F0EFF92268144B51
:102170009A4223D103F56843002101915A6C11481A
:1021800042F480125A645A6C02F480120192019A4D
:1021900002911A6B42F020021A631B6B03F02003BA
:1021A0000293029B4FF4607202230321CDE90323C3
:1021B0000523CDE9061303A904F022FA08B010BDE7
:1021C00000500140001402402DE9F04186B0002388
:1021D00003932B4B1C68002C4FD14FF00108C3F820
:1021E0000080284B00949A6B274842EA08029A63C1
:1021F0009B6B03EA08030093022703260C25009B30
:1022000001A94FF63F03CDE90137CDE9046504F09C
:10221000F7F91E48059501A9CDE90187CDE90346E7
:1022200004F0EEF948F233131948059501A9CDE9F8
:102230000137CDE9034604F0E3F94FF683731548FF
:10224000059501A9CDE90137CDE9034604F0D8F998
:102250004CF203731048059501A9CDE90137CDE98A
:10226000034604F0CDF960230C48059501A9CDE99A
:102270000137CDE9034604F0C3F906B0BDE8F081AB
:10228000902C002000380240001402400008024058
:102290000018024000100240000C024000040240FE
:1022A00070B588B000230293204B1A6C42F01002E4
:1022B0001A641B6C03F010030293054601A903A8DE
:1022C000029B05F06DFB069B4BBB05F059FB184EBE
:1022D000184B336040F2E733F360174BB0FBF3F376
:1022E000013B7360304600233361B360B36106F095
:1022F00095F9044680B9304606F066F8044658B9A8
:10230000362004F065F80F2D0DD8224629463620D8
:1023100004F02CF8094B1D60204608B070BD05F094
:102320002FFB4000D3E70124F6E700BF003802404E
:10233000942C00200010004040420F00800000203C
:102340007047FEE7FEE7FEE7FEE77047014806F04C
:1023500079B800BF942C0020014804F0B9BF00BF39
:10236000042B0020014804F07DB800BF002C0020A1
:102370000120704708B523F08BF9162303604FF056
:10238000FF3008BD08B523F083F916230360FEE78C
:1023900070B50D4614460E46731B9C4201DC204668
:1023A00070BDAFF3008006F8010BF5E770B50D4680
:1023B00014460E46731B9C4201DC204670BD16F885
:1023C000010BAFF30080F5E74FF0FF3070474FF49B
:1023D00000534B6000207047012070470020704779
:1023E0000A4A116808B5034609B90949116010681D
:1023F000694603448B4206D923F04AF90C23036053
:102400004FF0FF3008BD1360FCE700BFDC2C00205C
:10241000E8510120704710B50421044621F010FF57
:10242000204610BD012908B506D0022908D059B9A7
:1024300002F064F8006808BD02F060F84068FAE74E
:1024400002F05CF88068F6E70020F4E70048704787
:10245000C87402081120704713B5002451B10368F5
:1024600001948DF8034001AA9C680DF10303A04775
:1024700002B010BD0846FBE7C0897047008A70476C
:10248000C088704780887047807A00F07F0070476E
:10249000807AC00970470020704700009FED010A54
:1024A000704700BF00000000704710B508210446C7
:1024B00021F0C6FE204610BD7047704700F59873A6
:1024C0000868496803C370477047704741607047A8
:1024D00070477047064BC0F84C310023C0F85031AC
:1024E00000F5A273C0F84801C0F84031704700BF42
:1024F000CD2F000801230372704770477047704763
:1025000010B4C26841685410034601EB6200D20760
:1025100048BF0A599B685DF8044B48BFD358184719
:102520000346406830B19A681AB9D86800F00100D3
:1025300070470120704710B50C21044621F080FE41
:10254000204610BD10B51021044621F079FE20462A
:1025500010BD10B54FF4AE71044621F071FE204657
:1025600010BD10B54021044621F06AFE204610BD82
:1025700010B54021044621F063FE204610BD10B581
:102580000EF0C2FE0368BDE81040DB6B1847000088
:10259000054B1B7801462BB1406818B103680C311C
:1025A0005B6E1847704700BFA3440120054B1B78A2
:1025B00001462BB1406818B103680C315B6E1847B7
:1025C000704700BFA3440120037A70B50546BBB92C
:1025D00040680368DB69984704463CB9686803684B
:1025E00005F10C011B6EBDE870401847A1886B8F88
:1025F000C91A236820461B6B09B29847A469ECE707
:1026000070BD037A70B50546BBB940680368DB69E5
:10261000984704463CB96868036805F10C011B6ED5
:10262000BDE870401847A1886B8FC91A23682046FF
:102630001B6B09B29847A469ECE770BD10B504465E
:10264000D0F8400158B10368DB68984738B1D4F836
:10265000400103689B6898470023C4F8403110BDCF
:1026600070B5044690F8390094F838300130C0B2A3
:10267000984284F8390005D901232372002384F895
:10268000393070BDB4F93A20002111F015F8C307B4
:1026900006D500284FF6FF73C8BF0123184400B2C7
:1026A000238AC01AA08760680368DB6998470546DB
:1026B0002DB960680368BDE870405B691847A98858
:1026C000A38F19442B6828461B6B09B29847AD6944
:1026D000EEE770B5044690F8390094F838300130D0
:1026E000C0B2984284F8390005D90123237200232F
:1026F00084F8393070BDB4F93A20002110F0DCFFC5
:10270000C30706D500284FF6FF73C8BF012318443E
:1027100000B2238AC01AA08760680368DB69984703
:1027200005462DB960680368BDE870405B691847CD
:10273000A988A38F19442B6828461B6B09B29847B8
:10274000AD69EEE72DE9F0411D460368BDF918704B
:102750001B6B0446164698472368314620465B6B40
:1027600098472368294620469B6B9847236839463B
:102770002046DB6BBDE8F041184700002DE9F74F1C
:10278000D0E9556A0746B06803681B6A9847B0F5F8
:10279000907F05D2534B544AA321544822F0CEFCDB
:1027A000706803681B6A98470F2803D8504B4E4A3D
:1027B000A421F2E7F06803681B6A98473F2803D812
:1027C0004C4B494AA521E8E70EF09EFDDFF8349115
:1027D00004300EF0BEFDD9F8000010B10368DB68CC
:1027E0009847D9F8000010B103681B689847DFF8D4
:1027F0001881D8F8000010B103685B699847D7F8D2
:102800003C0110B103685B689847D8F8000010B12C
:1028100003681B689847D7F83C0110B103689B68B0
:102820009847F068036800215B6A984705460022D4
:10283000314B4260027245F80C3B044628460BF0CF
:1028400031FD142323872D4B1B780022A287002BF8
:1028500035D101232372B068036800215B6A984771
:10286000054602F011F87068036800215B6A98471A
:102870002946064601F0E6FF331DC7F83C61C9F85A
:102880000040C8F80050CAF800302B68C6F808A00D
:102890002846DB68EE639847336830461B689847E4
:1028A0002146284610F002FF236820461B699847FE
:1028B00023685B69204603B0BDE8F04F1847104B12
:1028C000DFF848B0B3F900300093BBF9003011468F
:1028D0002846FFF737FF28460BF05FFCBBF80030B7
:1028E0006387B8E7D466020862670208476802088F
:1028F0008E68020831690208E8760208A3440120C4
:102900009A440120EC440120E8440120984401202D
:102910002DE9F74FD0E9556A0746B06803681B6A8E
:102920009847B0F5F67F05D2544B554AA321554838
:1029300022F004FC706803681B6A98470F2803D8CC
:10294000514B4F4AA421F2E7F06803681B6A98478D
:102950003F2803D84D4B4A4AA521E8E70EF0D4FCA6
:10296000DFF8389104300EF0F4FCD9F8000010B113
:102970000368DB689847D9F8000010B103681B684A
:102980009847DFF81C81D8F8000010B103685B6934
:102990009847D7F83C0110B103685B689847D8F8AE
:1029A000000010B103681B689847D7F83C0110B1CC
:1029B00003689B689847F068036800215B6A984742
:1029C00005460022324B4260027245F80C3B044639
:1029D00028460BF067FC142323872E4B1B7800221C
:1029E000A287002B35D101232372B0680368002130
:1029F0005B6A9847054601F095FF706803680021FF
:102A00005B6A98472946064601F058FF331DC7F810
:102A10003C61C9F80040C8F80050CAF800302B6883
:102A2000C6F808A02846DB68EE639847336830464E
:102A30001B6898472146284610F038FE2368204638
:102A40001B69984723685B69204603B0BDE8F04FD7
:102A50001847114BDFF84CB0B3F900300093BBF9C5
:102A6000003011462846FFF76DFE28460BF095FB17
:102A7000BBF800305B426387B7E700BFD46602084B
:102A8000D4690208476802088E68020831690208A2
:102A9000C4760208A34401209A440120EC4401209A
:102AA000E844012098440120044B1B6893F8582007
:102AB0000AB1D86C00B99868704700BFA4440120DF
:102AC000F8B5174604460E460EF0E0FC124B1C60AB
:102AD000124B2360124B0025C4E95135114BC4E958
:102AE00053551868036801219B68C4E94F55C4E930
:102AF00055769847284601F0B5FCFFF7D5FF19F049
:102B00009CFAFFF7D1FF19F013FBFFF7CDFF19F087
:102B10001BFB2046F8BD00BFF84401204C7602089C
:102B200034760208A4440120064BC0F84C3100233F
:102B3000C0F8503100F5A273C0F84801C0F8403128
:102B4000704700BFCD2F0008064BC0F84C31002362
:102B5000C0F8503100F5A273C0F84801C0F8403108
:102B6000704700BF7D270008064BC0F84C3100239A
:102B7000C0F8503100F5A273C0F84801C0F84031E8
:102B8000704700BF812E0008064BC0F84C3100236F
:102B9000C0F8503100F5A273C0F84801C0F84031C8
:102BA000704700BF11290008064BC0F84C310023C4
:102BB000C0F8503100F5A273C0F84801C0F84031A8
:102BC000704700BF392D0008064BC0F84C31002378
:102BD000C0F8503100F5A273C0F84801C0F8403188
:102BE000704700BFF12B000803685B6A18470000BC
:102BF0002DE9F14FD0E9556A0746B06803681B6AB2
:102C00009847B0F5CA7F05D2434B444AA3214448B4
:102C100022F094FA706803681B6A98470F2803D85B
:102C2000404B3E4AA421F2E7F06803681B6A9847CC
:102C30000B2803D83C4B394AA521E8E70EF064FB8A
:102C4000DFF8EC9004300EF084FBD9F8000010B1EE
:102C50000368DB689847D9F8000010B103681B6867
:102C60009847DFF8D080D8F8000010B103685B699E
:102C70009847D7F83C0110B103685B689847D8F8CB
:102C8000000010B103681B689847D7F83C0110B1E9
:102C900003689B689847F0680021FFF7A5FF4FF095
:102CA000000B224BC0F804B0044680F808B0036063
:102CB000B068036859465B6A9847054601F084FD91
:102CC0007068036859465B6A98472946064601F0D2
:102CD00059FD331DC7F83C61C9F80040C8F80050E1
:102CE000CAF800302B68C6F808A02846DB68EE63F7
:102CF0009847336830461B6898472146284610F0AD
:102D0000D5FC236820461B69984723685B692046E9
:102D100001B0BDE8F04F1847D4660208BD6A02084A
:102D2000476802088E68020831690208A076020826
:102D3000EC440120E84401202DE9F14FD0E9556A27
:102D40000746B06803681B6A9847B0F5907F05D2C4
:102D5000434B444AA321444822F0F0F970680368C9
:102D60001B6A98470F2803D8404B3E4AA421F2E73C
:102D7000F06803681B6A98470B2803D83C4B394A14
:102D8000A521E8E70EF0C0FADFF8EC9004300EF071
:102D9000E0FAD9F8000010B10368DB689847D9F869
:102DA000000010B103681B689847DFF8D080D8F89E
:102DB000000010B103685B699847D7F83C0110B177
:102DC00003685B689847D8F8000010B103681B6877
:102DD0009847D7F83C0110B103689B689847F068A2
:102DE0000021FFF701FF4FF0000B224BC0F804B0A9
:102DF000044680F808B00360B068036859465B6A0F
:102E00009847054602F090FD7068036859465B6A72
:102E100098472946064602F065FD331DC7F83C6118
:102E2000C9F80040C8F80050CAF800302B68C6F84E
:102E300008A02846DB68EE639847336830461B6875
:102E400098472146284610F031FC236820461B692C
:102E5000984723685B69204601B0BDE8F04F1847EA
:102E6000D4660208976B0208476802088E68020859
:102E700031690208A0760208EC440120E8440120F0
:102E80002DE9F14FD0E9556A0746B06803681B6A1F
:102E9000984741F22353984205D8444B444AA32112
:102EA000444822F04BF9706803681B6A98470F2862
:102EB00003D8414B3E4AA421F2E7F06803681B6A3D
:102EC00098470B2803D83D4B394AA521E8E70EF077
:102ED0001BFADFF8F09004300EF03BFAD9F800004E
:102EE00010B10368DB689847D9F8000010B1036897
:102EF0001B689847DFF8D080D8F8000010B103684D
:102F00005B699847D7F83C0110B103685B68984744
:102F1000D8F8000010B103681B689847D7F83C0147
:102F200010B103689B689847F0680021FFF75CFECA
:102F30004FF0000B224BC0F804B0044680F808B0F4
:102F40000360B068036859465B6A9847054602F01B
:102F5000C1F87068036859465B6A98472946064677
:102F600001F0FAFC331DC7F83C61C9F80040C8F80D
:102F70000050CAF800302B68C6F808A02846DB6865
:102F8000EE639847336830461B68984721462846C9
:102F900010F08CFB236820461B69984723685B6907
:102FA000204601B0BDE8F04F184700BFD4660208C4
:102FB0006F6C0208476802088E68020831690208CF
:102FC000A0760208EC440120E84401202DE9F14FED
:102FD000D0E9556A0746B06803681B6A9847B0F5A0
:102FE000907F05D2434B444AA321444822F0A6F8DF
:102FF000706803681B6A98470F2803D8404B3E4A05
:10300000A421F2E7F06803681B6A98470B2803D8ED
:103010003C4B394AA521E8E70EF076F9DFF8EC9051
:1030200004300EF096F9D9F8000010B10368DB689F
:103030009847D9F8000010B103681B689847DFF87B
:10304000D080D8F8000010B103685B699847D7F8C2
:103050003C0110B103685B689847D8F8000010B1D4
:1030600003681B689847D7F83C0110B103689B6858
:103070009847F0680021FFF7B7FD4FF0000B224B97
:10308000C0F804B0044680F808B00360B068036874
:1030900059465B6A9847054601F0F6FB706803687D
:1030A00059465B6A98472946064601F0CBFB331D1B
:1030B000C7F83C61C9F80040C8F80050CAF80030B1
:1030C0002B68C6F808A02846DB68EE63984733688B
:1030D00030461B6898472146284610F0E7FA2368D7
:1030E00020461B69984723685B69204601B0BDE80C
:1030F000F04F1847D4660208416D0208476802087D
:103100008E68020831690208A0760208EC440120AA
:10311000E8440120406A7047806A704770478A8897
:103120000B8810B5D20A4C88C1699BB251F82200B5
:1031300043EA0443184410BD10B50446BAB1107BED
:1031400068B1537BD27A1B0203F4E0631A43236A0B
:1031500003EB82031A888A4202D193F9020010BD60
:1031600005D8013880B204330028F3D1F7E70020F6
:10317000F5E710B52C21044621F062F8204610BD79
:1031800030B58BB00446BDF860500895BDF85C5072
:1031900007959DF8505006959DF84C5005959DF863
:1031A000485004959DF8445003959DF84050029571
:1031B0009DF83C500195BDF8385000950FF0AEFEDB
:1031C000064B2360159BE361169B2362199B636288
:1031D0001A9BA36220460BB030BD00BF0C770208DB
:1031E000806A70477047704770477047704730B5C6
:1031F000036885B06D460181D3F8843001460446EA
:103200002846984795E807003C3484E8070005B055
:1032100030BD30B5036885B06D464181D3F8843048
:10322000014604462846984795E807003C3484E860
:10323000070005B030BD0022028042808280C2803B
:10324000704780F83610704770B5036804461B6BF2
:10325000154698472368294620465B6EBDE87040B6
:10326000184700207047806C704770477047704760
:103270007047704790F82C304BB100F16C02126827
:10328000C2653BB100F174031B680366704700F12F
:103290006802F4E700F17003F6E730B4C2684468EE
:1032A0005510034604EB6200D20748BF62599B6881
:1032B00030BC48BFD35818470346406830B19A68BD
:1032C0001AB9D86800F0010070470120704790F8E3
:1032D0002D3080F85A30704710B54C21044620F04C
:1032E000AFFF204610BD10B57821044620F0A8FF9E
:1032F000204610BD10B51021044620F0A1FF204645
:1033000010BD10B54FF4B671044620F099FF204669
:1033100010BD08B5FEF7C6F808BD10B50446006B31
:1033200050B10368DB68984730B1206B03682146D1
:103330009B68BDE81040184710BD0B7970B590F838
:103340002C6004460D460BB916B170BD002EFCD0A2
:10335000B3FA83F35B0984F82C3023682046D3F852
:103360008C309847236820465B699847002EECD044
:103370002B79012BE9D123682046D3F88830BDE8AA
:1033800070401847036870B55E6B124B1B680446AB
:103390008DB22BB9104B114A6C21114821F0CEFE91
:1033A0001049828D0988914203D80F4B0B4A6D2139
:1033B000F3E713F812200D4B1B6853F82200036843
:1033C0001B6B9847291A3346204609B2BDE8704066
:1033D000184700BFFC440120136E0208556E020816
:1033E000906E020800450120D76E020804450120B6
:1033F0006C30884208B505D10DF086FFBDE8084065
:10340000FFF792BB08BD00224FF0FF31C0E9002159
:103410008260704770B5036804461B6B1546984779
:103420002368294620465B6BBDE8704018470000C2
:103430000022C0E90122C0E90322C0E90522C0E957
:1034400007224FF480728284014A0260704700BFF5
:103450007477020810B526220446002122F075F880
:103460002046FFF7E5FF044B2360FF2384F8263056
:103470000023A362204610BD5C8102082DE9F04FB5
:10348000044689B0A04600250FF064FF7D4BE5633C
:1034900048F8403B4046FFF7DDFF4FF47F43A4F878
:1034A000983040F2011304F1A00BA4F89030764B51
:1034B000C4F89450C4E91C55C4E91E55C4E920550C
:1034C000C4E92255C4F89C50E3665846FFF7C2FF92
:1034D0006E4BC4F8A03004F16C0A2A46C4E9355595
:1034E000C4E93755C4F8CC50A4F8D0502946584602
:1034F00004F1E407FFF78EFF5946504607F056FAED
:103500004FF6FF79262229463846ADF8189022F06A
:103510001CF83846FFF78CFF5D4BC4F8E430BDF86B
:103520001830A4F80A3104F5887684F80C9106A9BD
:1035300038460BF0D2FA29462622304622F005F80A
:103540003046FFF775FF534BC4F838314FF47F0313
:10355000C4F84431504BC4F810314FF0FF33C4E984
:1035600054354E4BA4F83C91C4E957344C4BC4F845
:103570004051C4E959354FF4A073A4F84851C4F838
:103580004C51C4F858512A46009329464046F0232E
:10359000FFF7D8F804F104094FF07F43A3664146D2
:1035A00048464FF03C0807F001FA2A46294658469B
:1035B000CDF800808223FFF7C5F80523A4F8D030AA
:1035C000384BC4F8D43003F54C533333C4F8D830F7
:1035D000A3F5CC43663BC4F8DC3003F1331303F5A9
:1035E0004C53C4F8E0305046FFF744FE04F5AE7388
:1035F000C4F89C30E32282235046CDF8008030216D
:10360000FFF7A0F85146484607F0D0F92A46294668
:103610003846FFF7FFFE0F2306A93846ADF81830ED
:103620000BF05BFA3946484607F0C0F914230093C3
:10363000A022304643235021FFF784F81A4BC4F8E8
:103640004031D4F81031A4F8445102AD3146284637
:10365000D3F88430984795E8070004F5A67383E80B
:1036600007000C4B069306A901233046ADF81C3029
:103670000AF042FF4846314607F098F9204609B063
:10368000BDE8F08F207902086C78020838820208C1
:103690001883020824760208DC77020808790208F9
:1036A000F1330008996600FFFAFAFAFF7047704795
:1036B000704730B4C26844685510034604EB62009A
:1036C000D20748BF62599B6830BC48BFD3581847DF
:1036D0000346406830B19A681AB9D86800F0010012
:1036E00070470120704710B51021044620F0A8FD56
:1036F000204610BD10B54FF49071044620F0A0FD97
:10370000204610BD9830884208B505D10DF0FCFD6B
:10371000BDE80840FFF738BA08BD0000074A02605C
:103720000022C0E90122C0E90322C0E90522C0E964
:1037300007224FF480728284704700BFE88302083A
:103740002DE9FF470446A04600250FF003FE584B25
:10375000E56348F8403B04F16C074046FFF77AFE0A
:103760004FF6FF76262229463846ADF80C6021F048
:10377000ECFE3846FFF7D2FF4E4BE366BDF80C3047
:10378000A4F8923003A984F89460384604F19806AE
:103790000BF0A3F93046FFF7C1FF4FF47F43A4F8C5
:1037A000C430012304F1CC0984F8BC30424BC4F886
:1037B0009830C4F8C050C4F8C8504846FFF74AFED5
:1037C0003E4BC4F8CC302A4629464846C4E9405509
:1037D000C4E94255C4F8F850A4F8FC50FFF71AFEAB
:1037E0004946304607F0E2F8354BC4E94434354BDE
:1037F000C4E946354FF4A0732A4600932946404653
:10380000F023FEF79FFF04F1040A4FF07F43A36605
:103810004146504607F0CAF82A4629463846FFF77F
:10382000F9FD022303A93846ADF80C300BF055F929
:1038300039465046472707F0B9F82A4629464846F0
:103840000097A023FEF77EFF0523A4F8FC301E4B53
:10385000C4F8003103F54C533333C4F80431A3F5F5
:10386000CC43663BC4F8083103F1331303F54C53E2
:10387000D4F89880C4F80C313046FFF7FBFC84F88C
:10388000C550D8F890303046984704F58873C4F88E
:10389000C830A0231A46304600972821FEF752FF71
:1038A0005046314607F082F8204604B0BDE8F08764
:1038B0006C790208188302086C78020838820208C2
:1038C0005479020805370008996600FF7047704771
:1038D0007047704770477047704730B4C26844689B
:1038E0005510034604EB6200D20748BF62599B683B
:1038F00030BC48BFD35818470346406830B19A6877
:103900001AB9D86800F0010070470120704730B440
:10391000C26844685510034604EB6200D20748BFF2
:1039200062599B6830BC48BFD3581847034640686B
:1039300030B19A681AB9D86800F0010070470120C8
:10394000704710B57C21044620F07AFC204610BD5B
:1039500010B51021044620F073FC204610BD10B5B0
:103960001021044620F06CFC204610BD10B54FF429
:10397000F671044620F064FC204610BD70B5044684
:103980000D46FFF7DAFCA06F58B10368DB68984773
:1039900038B1A06F03682A4621469B68BDE8704095
:1039A000184770BD38B500F1E803994204460D464A
:1039B00006D10368DB6A98470DF0A6FCFFF7D4F840
:1039C00004F16C039D4209D1236820461B6B984784
:1039D0000DF09AFCBDE83840FFF7C6B838BD00F5D9
:1039E000C870884208B505D10DF08EFCBDE80840CE
:1039F000FFF79AB808BD000070B50446FFF78EFEC9
:103A00004FF47F432646A3850123002584F8243004
:103A10000D4BA562256346F8343B3046FFF71AFD8F
:103A20000A4B63632A4629463046C4E91A55C4E95D
:103A30001C552566A4F86450FFF7ECFC204631467F
:103A400006F0B4FF204670BD6C7802083882020888
:103A50002DE9F04F044689B0A14600250FF07AFC0D
:103A6000724BE56349F8403B04F16C0A4846FFF7A6
:103A7000F1FC04F1E8086E4E4FF001075046FFF7E5
:103A8000BBFFE66684F89070C4F8E4504046FFF748
:103A9000B3FFC4F8E86004F5B2762622294684F81C
:103AA0000C71C4F860514FF6FF773046ADF81C70CA
:103AB00021F04BFD3046FFF731FE5E4BC4F8643118
:103AC000BDF81C30A4F88A3104F5C87B07A984F836
:103AD0008C7130460BF001F858460AF0D7FF564B70
:103AE000C4E97334554BC4E97535554BC4E9773493
:103AF000544BC4E979354FF4A0732A460093294604
:103B00004846F023FEF71EFE271D4FF07F43A366B5
:103B1000494638464FF0550906F048FF2A462946DF
:103B200004F1A000CDF80090C623FEF70BFE4FF085
:103B30000503454A4549A4F8D0304548454BC4E9FA
:103B40003710C4E935325046FFF794FB04F5E67EA2
:103B5000C4F89CE0C623D2225046CDF8009015212F
:103B6000CDF80CE0FEF7EEFD5146384606F01EFF9C
:103B70002A46294604F58E70CDF80090C623FEF73C
:103B8000E1FD344B304A314931484FF0050CA4F87F
:103B90004CC1C4E95432C4E956104046FFF76AFBF1
:103BA000039BC4F818315E22C6234046CDF800902E
:103BB0001521FEF7C7FD4146384606F0F7FE2A46B6
:103BC00029463046FFF726FC4FF0010307A930468F
:103BD000ADF81C300AF081FF3146384606F0E6FEAB
:103BE0002A4629465846FFF715FC0A23ADF810303F
:103BF000ADF814300923ADF81830ADF81C3007AB20
:103C0000009305AA06AB04A958460AF0A9FE612351
:103C1000C4F8C83104F5EE733846C4F8B8315946D3
:103C200006F0C4FE204609B0BDE8F08F6C7A0208A9
:103C3000A0790208188302083C7A0208A539000816
:103C4000547A0208DF390008CC9900FF663300FF80
:103C5000996633FF996600FF704770477047704759
:103C600070477047704730B4C268446855100346C7
:103C700004EB6200D20748BF62599B6830BC48BF62
:103C8000D35818470346406830B19A681AB9D868C3
:103C900000F0010070470120704710B51021044664
:103CA00020F0CEFA204610BD10B54FF464710446E2
:103CB00020F0C6FA204610BD00F19803994270B575
:103CC00004460D4603D10DF01FFBFEF73DFF04F542
:103CD000D6739D4203D123682046DB6A984704F5DA
:103CE00088739D4203D1236820461B6B984704F1DB
:103CF000D4039D4203D1236820465B6B984704F5AB
:103D0000B8739D4205D1236820469B6BBDE8704087
:103D1000184770BD38B5262204460D46002121F013
:103D200014FC2046FFF784FB064B23602B88E384BA
:103D3000FF23204684F8283029460AF0CEFE20468C
:103D400038BD00BF188302082DE9F04F2DED028B1E
:103D5000044695B0A14600250FF0FCFADA4BE56366
:103D600049F8403B4FF0260B5A462946484621F079
:103D7000ECFB4846FFF75CFBD44B236404F16C0A70
:103D8000FF234FF6FF7612A984F86630A5665046E9
:103D9000ADF84860FFF7BEFF04F19803184604939E
:103DA0000AF074FE04F1D403184605930AF06EFE7F
:103DB00004F588735A4629461846039321F0C5FB3B
:103DC00003989FEDC38AFFF733FB012384F8343156
:103DD000C04BC4F8103104F5A27312A9C4F83851CD
:103DE00084F83C51A4F83E61A4F8406184F8426133
:103DF00018460693ADF84860FFF78CFF04F5B873DA
:103E0000184607930AF042FE04F5D67304F5F478D9
:103E1000184604F51E7708930AF038FE12A94046AA
:103E2000ADF8486009F018FD12A93846ADF84860B1
:103E300009F012FD04F5427312A918460993ADF872
:103E40004860FFF767FF04F54D735A462946184648
:103E5000029321F07AFB0298FFF7EAFA9E4BC4F82E
:103E60005C334FF47F03C4F868339C4BC4F834339D
:103E70004FF0FF33C4E9DD35994BA4F86063C4E922
:103E8000E034984BC4F86453C4E9E2354FF4A073AE
:103E9000A4F86C53C4F87053C4F87C532A460093BA
:103EA00029464846F023261DFEF74CFC4FF07F4381
:103EB000A3664946304606F079FD2A462946504613
:103EC000FFF7A8FA12A95046ADF848500AF005FECF
:103ED0005146304606F06AFD04982A462946FFF707
:103EE00099FA12AA0A23009211AA4FF0090904F5BF
:103EF000607A4FF0610B0498ADF83C30ADF840307B
:103F00000FA9134610AAADF84490ADF848900AF0F6
:103F100027FD0499C4F8C0A03046C4F8D0B006F01C
:103F200045FD059840F20712BE21FFF773FA12AA69
:103F30000C23009211AA0598ADF83C30ADF8403042
:103F40000FA9134610AAADF84490ADF848900AF0B6
:103F500007FD0599C4F8FCA03046C4F80CB106F082
:103F600025FD039840F207128C21FFF753FA0B232B
:103F700012AA0398ADF8443011A9ADF848300AF000
:103F800019FB0399C4F838A1304606F00FFD40F242
:103F9000171206983F21FFF73DFA05230698ADF862
:103FA000483012A90AF099FD0699304606F0FEFC49
:103FB0000798D522BE21FFF72DFA12AA0D230092F1
:103FC00011AA0798ADF83C30ADF840300FA9134660
:103FD00010AAADF84490ADF848900AF0C1FC0799DA
:103FE000C4F898A13046C4F8A8B106F0DFFC0898E0
:103FF00040F207120321FFF70DFA12AA0E230092D6
:1040000011AA0898ADF83C30ADF840300FA913461E
:1040100010AAADF84490ADF848900AF0A1FC5F23D7
:10402000C4F8E4310899C4F8D4A1304606F0BEFCC7
:10403000882240466FF01D01FFF7ECF912A9032317
:104040004046ADF8483009F0A9FD274BC4F8F031DF
:10405000264BC4F81432404684ED868A09F048FCA9
:10406000DFF88C90DFF88CA0B7EE000A404609F02C
:10407000A6FD4046C4F8409209F03AFC4046C4F818
:104080002CA2C4F830A2C4F8349209F031FC4046A6
:10409000C4F838A2C4F83CA209F02AFCB0EE481AD1
:1040A000F0EE480AB0EE480A404609F080FD84F878
:1040B00011524146304606F079FCD42238462E2172
:1040C000FFF7A8F918E000BFC07A02085C81020877
:1040D00000000000C481020824760208DC77020890
:1040E000A87A0208B93C00083001300100001643EC
:1040F00000007A440000184312A908233846ADF89E
:10410000483009F04BFD4FF09813C4F88032394B1A
:10411000C4F8A432384BC4F8A832384609F0E8FB9A
:10412000B7EE000A384609F04AFDDFF8D880C4F837
:10413000D092384609F0DCFB3846C4F8BC82C4F89B
:10414000C082C4F8C49209F0D3FB3846C4F8C882D0
:10415000C4F8CC8209F0CCFBB0EE481AF0EE480A65
:10416000B0EE480A384609F022FD84F8A1523946DB
:10417000304606F01BFC4FF48A7209986E21FFF757
:1041800049F906230998ADF8483012A90AF0A5FCB0
:104190000999304606F00AFC14232A460298009337
:1041A000AD214323FEF7CEFA144BC4F86433D4F8A0
:1041B0003433A4F868530AAD0299D3F88430284602
:1041C000984795E8070004F55C7383E807000C4BFB
:1041D0000298129312A90223ADF84C300AF08CF920
:1041E0003046029906F0E2FB204615B0BDEC028B8A
:1041F000BDE8F08F000050420000E041FAFAFAFFFB
:1042000024760208000098427047000030B5164D31
:104210002C6814F001048FB0BFF35B8F20D12846C7
:1042200020F010F8E0B13F230993104B0893104B96
:10423000104911480A940122CDE906430423CDE92F
:1042400003320A230093CDE90B44CDE901440594E0
:10425000FEF796FF094820F08FFF28461FF0FEFF6B
:1042600005480FB030BD00BFE02C00209CC0020804
:104270007CC2020884BA0208E42C0020094200082B
:104280007047000030B5174D2C6814F001048FB052
:10429000BFF35B8F22D128461FF0D4FFF0B13F233C
:1042A0000993114B0893114B07930123CDE9053373
:1042B00004930423CDE9024314230D4900935F22A4
:1042C0001823CDE90B440B480A940194FEF758FFDC
:1042D000094820F051FF28461FF0C0FF05480FB0E5
:1042E00030BD00BF102D0020A0C0020880C202080F
:1042F00094BA0208142D0020814200087047000083
:1043000030B5174D2C6814F001048FB0BFF35B8FEC
:1043100022D128461FF096FFF0B13F230993114B9D
:104320000893114B114912480A94CDE90643012222
:104330000423CDE90332282300930F222923CDE95A
:104340000B44CDE901440594FEF71AFF094820F01B
:1043500013FF28461FF082FF05480FB030BD00BF95
:10436000402D002044C2020884C20208C8BF0208CF
:10437000442D0020FD4200080020704700207047B7
:104380000EB403B503AB002153F8042B01930EF0D8
:1043900043F802B05DF804EB03B070470CB407B506
:1043A00004AB53F8042B01930EF036F803B05DF81C
:1043B00004EB02B070470000436C10B5044673B3C1
:1043C000038F2BB9184B194AC521194820F0B6FEA6
:1043D000C38E00EB43035B8C0BB30FF0DAFE238F2D
:1043E000012B03D8134B144ACB21EEE7E28E531C6A
:1043F0009BB2092B194688BFA3F10A0104EB4101C6
:1044000040F63F10498C814209D10A2B04EB42024D
:1044100028BF002304EB4303508C5884518420466A
:10442000BDE810400FF0B8BD156F02081E6F0208FE
:10443000C96F020813700208217002080FF073BDE3
:1044400010B586B002AC84E806001A460AAB0593A4
:104450000193099B00932146089B0CF0D7FA06B004
:1044600010BD000038B518BB124B13481C68134927
:10447000B4B1226822440260626822440A60A268E1
:1044800014440F4B00221A8000F038F8054600F063
:1044900033F80C4B1C600C4B1D600C4B188007E074
:1044A0000B4B03600B4B0B600B4B1C68002CE8D1D3
:1044B00038BD00BF7C2D0020742D0020702D002001
:1044C000782D0020FC4401200445012000450120F6
:1044D0009CC2020888C20208D8C20208044B1B68AA
:1044E00053F82100034B1B6803EB4000704700BFEB
:1044F000702D0020742D0020052070470048704763
:10450000802D002010B5FFF7BDFE044C2060FFF7A2
:10451000F7FE6060FFF77AFEA06010BD802D0020DE
:1045200010B5002404600C6014601C6010BD70475E
:1045300070477047704730B4C268446855100346EE
:1045400004EB6200D20748BF62599B6830BC48BF89
:10455000D35818470346406830B19A681AB9D868EA
:1045600000F0010070470120704710B5102104468B
:104570001FF066FE204610BD10B54FF49071044642
:104580001FF05EFE204610BD00F16C028A4208B5A5
:1045900008D10368DB6A98470CF0B6FEBDE8084016
:1045A000FEF7E2BA08BD00002DE9FF470446A04629
:1045B00000250EF0CFFE564BE56348F8403B04F172
:1045C0006C074046FEF746FF3846FFF7A7F84FF462
:1045D0007F43A4F89830012304F1A00984F89030B7
:1045E0004C4BE366C4F89450C4F89C504846FEF720
:1045F00031FF494BC4F8A0302A4629464846C4E951
:104600003555C4E93755C4F8CC50A4F8D05004F15E
:10461000E406FEF7FFFE4946384606F0C7F94FF6B6
:10462000FF7A262229463046ADF80CA020F08DFFF7
:104630003046FFF773F8394BC4F8E430BDF80C305E
:10464000A4F80A3184F80CA103A930460AF045FA0F
:10465000334BC4E94434334BC4E946354FF4A073BB
:104660002A46009329464046F023FEF76BF804F1F2
:10467000040A4FF07F43A366414650464FF032088C
:1046800006F094F92A4629464846CDF800803A2398
:10469000FEF758F80523A4F8D030234BC4F8D430E3
:1046A00003F54C533333C4F8D830A3F5CC43663B01
:1046B000C4F8DC3003F1331303F54C53C4F8E03095
:1046C0003846FEF7D7FD04F58873C4F89C30E02225
:1046D0003A233846CDF800805721FEF733F83946A3
:1046E000504606F063F92A4629463046FEF792FE08
:1046F000102303A93046ADF80C300AF0EEF950460D
:10470000314606F053F9204604B0BDE8F08700BFFB
:104710001C7B02086C7802083882020818830208A1
:10472000047B020889450008996600FF704710B5B0
:104730004FF4AE7104461FF083FD204610BD10B546
:104740000446D0F8580100F06EF82046BDE810404D
:104750000CF05CBE10B50446FEF7B2F9014B2360C5
:10476000204610BD547B02087047043870477047DC
:1047700010B5102104461FF063FD204610BDA0F1C6
:104780000400F5E700228260024A026018324260AB
:10479000C1607047A87B02087047000010B5034B4A
:1047A00003600446FEF764FD204610BDD07B02087E
:1047B00010B50446FFF7F2FF20464FF4CA711FF010
:1047C0003FFD204610BD000010B50446FEF756FE22
:1047D000014B2360204610BDD07B020838B504464B
:1047E00000F5B6750B462846054A142110F0D0FB9B
:1047F000C4F8585104F58870BDE838400DF036BF54
:10480000F370020810B50446FEF733FD034B204653
:104810001968BDE81040FFF7E1BF00BF8C2D0020F4
:104820000022026070477047704704387047704735
:1048300010B5102104461FF003FD204610BDA0F165
:104840000400F5E700228260024A026018324260EA
:10485000C1607047047C02087047000010B5034B2C
:1048600003600446FEF723FF204610BD2C7C02089F
:1048700010B50446FFF7F2FF20464FF490711FF089
:10488000DFFC204610BD000010B50446FEF758FFBF
:10489000014B2360204610BD2C7C0208FEF708BFA8
:1048A000704704387047704710B5102104461FF058
:1048B000C7FC204610BDA0F10400F5E7002282608D
:1048C000024A026018324260C1607047607C020890
:1048D00070470000034B00221A60034B0A221A6043
:1048E000704700BF9C2D0020982D0020014B012215
:1048F0001A6070479C2D002010B5034B03600446DE
:10490000FEF7E9FF204610BD887C020810B504467A
:10491000FFF7F2FF20464FF4F6711FF091FC20469E
:1049200010BD000010B50446FFF792F8014B23605C
:10493000204610BD887C0208FEF7CEBF70470438C1
:104940007047704710B5102104461FF079FC2046CF
:1049500010BDA0F10400F5E700228260024A026067
:1049600018324260C1607047C47C0208704701235E
:10497000C0F8943370470123C0F8983370470000A3
:1049800010B5D0F8A4332DED048B0446A3BBD0F8AA
:104990009033DFED2D6A9FED2D7AB3F5B47FB0EE45
:1049A000088A3ED2C3F5B47307EE903AF8EEE77A80
:1049B00067EEA67A87EE879AB0EE490A1FF0CCFC24
:1049C00060EE088AB0EE490A1FF082FCB4F90C339D
:1049D000C4EDEA8A07EE903AB4F90E33F8EEE77ABE
:1049E00020EE088AC4EDEC7A07EE903AF8EEE77A0A
:1049F00084EDEB8AC4EDED7A0122C4F8A4234FF4D0
:104A00000051134801F0E6FEC82001F073FABDEC36
:104A1000048B0F48BDE8104000224FF4005101F014
:104A2000D9BEA3F5B47307EE903AF8EE677A67EE55
:104A3000A67A87EE879AB0EE490A1FF08DFCF8EE51
:104A4000087A60EE278ABDE7C3F54840000034438A
:104A50000008024038B5094B0360044641F2C445E2
:104A6000B5F5657F05D0635960191B6898472C3DE3
:104A7000F6E72046FFF7F5F8204638BDF07C02083F
:104A800010B50446FFF7E6FF204641F224511FF01F
:104A9000D7FB204610BD0268D0ED0E0AD26FB0EEF3
:104AA000401A90ED0D0A1047054B06491A6843F26B
:104AB000390001FB0200186000F00300013070476C
:104AC000140000206D4EC6412DE9F0471A4E1B4BD5
:104AD000306800221F46904203F10C0324DC184B7F
:104AE0001C684FF00C08002CC4F101024FF00005C7
:104AF00014BF4FF009094FF00A091A6008FB04F4CB
:104B0000AA46FFF7D1FF336801355A1C08FB03F3AF
:104B10003260A94507EB0302FC50C2E901A004F191
:104B20001804EED1BDE8F08753F8081C183143F89B
:104B3000081C0132CFE700BF843200208C320020F5
:104B40008832002082B084B00DF1100C042A0CE9E8
:104B50000700059309DC079A042A06DC02469A42FC
:104B60000846069903D1884205D1002009E0D21AEF
:104B70001832302AF9D8401A183030288CBF00205B
:104B8000012004B002B070472DE9F04FADF2E44DC2
:104B900005AB83E807000CAA642417460021012016
:104BA000013CC2E90011906002F10C02F8D193E8D7
:104BB0000700274BDFF8A4B01B68049387E80700C1
:104BC00009AE4FF00C0A0AFB047393E8070086E86D
:104BD0000700DFF88C901F4D0392013C4FF0000856
:104BE000049B434505DC002CEDDA0DF2E44DBDE8F5
:104BF000F08F039BB360174B0AFB08320AAB93E8B4
:104C000003008DE8030007CA3368FFF79BFFC0B1BC
:104C1000AB68039A934214D1D9F800308BB9DBF812
:104C200000305A1CCBF800200B4A42F8238095E84C
:104C3000070001231C44C9F800300AFB047383E811
:104C4000070008F1010809F104090C35C8E700BFA5
:104C5000843200208C320020F4300020F03000201C
:104C6000A02D00202DE9F04FADF2DC4D03AB83E821
:104C700007000AAA6424164600210120013CC2E96B
:104C80000011906002F10C02F8D193E807001F4B6D
:104C9000DFF87CB01B68029386E8070007AD4FF091
:104CA0000C0A0AFB046393E8070085E80700DFF8B5
:104CB0006490013C4FF00008029B434505DC002C4A
:104CC000EFDA0DF2DC4DBDE8F08F0AFB08F30BEBD9
:104CD0000307D7E901018DE8030095E807005BF8B9
:104CE0000330FFF72FFF60B1D9F800304BB997E8D8
:104CF000070002230134C9F800300AFB046383E88B
:104D0000070008F1010809F10409D5E78432002001
:104D10008C320020602F00202DE9F04F3E4B3F4F9A
:104D2000D3F800A08FB0044600254FF00C0B00F123
:104D30000408AA451CDC6368002B68DC0023636060
:104D4000374B226819680C23C1F10101594318201F
:104D5000531A93FBF0F34343581818330B44151AB6
:104D6000D21A52436D43AA42B8BF184620604EE0A3
:104D700098E803008DE803000BFB05F907EB090633
:104D800096E807002368FFF7DDFE002842D057F8B9
:104D900009107068A1F10C0501F10C0201F118066F
:104DA00003951839079565680292CDE90512CDE99A
:104DB0000A0000F118011838CDE90811CDE90C00FE
:104DC000691A9A1A4943049602FB02120DF1080E61
:104DD0000DF1200C012700265CF8040F5EF8041F7B
:104DE000281A591A404301FB01019142B8BF3E46BF
:104DF00007F10107B8BF0A46062FEDD10EAB03EB52
:104E0000860353F8302C53F8183C226063600FB0CF
:104E1000BDE8F08F01358CE7843200208C32002011
:104E2000883200202DE9F04FADF2B44D8046FFF7F7
:104E300073FF6B4664259E4600220121013DC3E9B4
:104E40000022996003F10C03F8D1594E594CD6F861
:104E500000A027462B46A1464FF00C0BAA4503F1B4
:104E6000010C5CDC00254FF00C0AAB4266DC524DB5
:104E7000524FC6F800C001222A60514A136098E8D8
:104E800007004FF00C0E0EFB039E8EE807004D4905
:104E90004FF0000AC7F800A052460846D6466245C1
:104EA00056DB012240F8232098E80700FFF76CFE4C
:104EB0002A68022A2FDD444DD6F800E00023294657
:104EC000AB4618469E4547DC3D4900234FF0010C98
:104ED00051F8040B01339A424BF820C0F8D100205E
:104EE0003B68DFF8E480DFF8CCC0DFF8E0A00246E2
:104EF000964535DC00B13B60DFF8D0A04FF00008EC
:104F00003A6842454FF00C0338DC31680023062034
:104F1000052699423FDC0DF2B44DBDE8F08FBA682A
:104F2000042ADEBF97E807000BFB03E383E80700D2
:104F300005F10105D8BF63460C378FE70AFB05F280
:104F400009EB0207724407CA013587E807008CE7BE
:104F500041F804EB0132A2E741F8040B0133B1E759
:104F600058F8041B31B9DCF8041019B94AF82320A9
:104F70000120013301320CF10C0CB9E75AF8042B73
:104F800002214BF8221003FB029207CAFFF76AFEC8
:104F900008F10108B4E755F8042B22B1012A04D026
:104FA00001330C34B5E7A060FAE7A660F8E700BF6C
:104FB000843200208C320020F0300020302F00207E
:104FC000F4300020A02D0020602F0020342F00207E
:104FD000094B1968094B0022914201DC00207047FF
:104FE0009868042802DC5868DF2802DC01320C33A0
:104FF000F2E70120704700BF843200208C3200208D
:105000002DE9F04186B003AC0E4B0F4E1F6884E8CB
:10501000070000254FF00C08AF4203DC002006B06B
:10502000BDE8F08108FB05F3F218D2E901018DE833
:10503000030094E80700F358FFF784FD0128EED041
:105040000135E9E7843200208C3200200239022940
:105050009ABF024B585C0620704700BFE47C0208F0
:1050600073B5D0E9E731C0E9E713044600F54276AD
:10507000FFF7ECFF01A9ADF80400304609F02DFD63
:10508000D4F8A0132046FFF7E1FF04F5A275ADF8B0
:10509000040001A9284609F020FD30460DF0E6FA8B
:1050A000284602B0BDE870400DF0E0BA10B5074BDD
:1050B000074A196800231846994200DC10BD94681D
:1050C000042CD8BF013001330C32F5E784320020C4
:1050D0008C3200202DE9F7430646FEF735FE234BC0
:1050E000336000254FF49173C6E9E43506F5A75700
:1050F0000023DFF87C90C6F89853C6F8A453C6F88E
:10510000A833C6F8AC3306F5707410374FF6FF7845
:105110000123A580E58025816581A581E581258222
:105120006582E5612584658484F8245084F82530FF
:10513000C4F80090A4F8268084F82880C4E90555B6
:10514000204601A92C34ADF8048009F0C6FCBC420D
:10515000DED106F580533046C3F8F054C3F8F4545A
:10516000C3F8F85403B0BDE8F08300BFF07C020838
:105170001883020810B50A4B0A4A1968002318461A
:10518000994206DC0228B8BF02200A23023858439D
:1051900010BD9468042CC8BF013001330C32EFE716
:1051A000843200208C3200202DE9F043ADF2B44D62
:1051B0006A466423174600210120013BC2E9001121
:1051C000906002F10C02F8D1DFF85CC0154CDCF8FD
:1051D00000801D46A6464FF00C0998450ADCCCF825
:1051E000005000244FF00C0CA54210DC0DF2B44D21
:1051F000BDE8F083A268042ADFBF94E8070009FB3A
:10520000057686E80700013501330C34E5E70CFB31
:1052100004F30EEB03063B4493E80700013486E8F1
:105220000700E1E78C3200208432002038B500F519
:10523000A75504461C350B462846064A14210FF094
:10524000A7FEC4F87C5304F54D70BDE838400DF05E
:105250000DBA00BFF3700208054B64220021012043
:10526000013AC3E90011986003F10C03F8D17047CB
:105270008C3200202DE9F74F044600F570750026AA
:1052800000F5805A071DDAF8F034B3420FDC002332
:10529000264EDFF89C8025461F469946CAF8F03412
:1052A000D8F80030BB420DDC03B0BDE8F08F2B68AE
:1052B00028465B6998472946384605F0B8FB013611
:1052C0002C35E0E7B168D5F8C0330429C8BF85F8AC
:1052D000E59320461A6EFFF7B9FE05F5707BADF831
:1052E000040001A9584690477268B6F900101E32B2
:1052F00012B25846FEF78EF8DAF8F0142C23594310
:105300006318D3F8D4332BB901F570712144201DF3
:1053100005F04CFBD5F8C03358465B699847DAF87E
:10532000F034013701332C350C36B7E78C320020CE
:10533000843200202DE9F04FD0F894332DED028B0C
:10534000012B85B0044603D0CA4B1B88632B35D88C
:10535000D4F89033DFEDC88A9FEDC88AB3F5917F0A
:1053600084BF03F1FF33C4F89033D4F890334FF483
:10537000B475B3FBF5F205FB123300EE103AB8EE4C
:10538000C00A04F51E7020EE280A80EE080AFFF716
:1053900082FBD4F89033B3FBF5F205FB123304F52E
:1053A000F47000EE103AB8EEC00A20EE280A80EE43
:1053B000080AFFF770FB0023C4F89433D4F898333D
:1053C000012B05D0AB4B1A8840F6D2739A4234D9E0
:1053D000D4F89033DFEDA88A9FEDA88AB3F5D77F84
:1053E0003CBF0133C4F89033D4F890334FF4B47514
:1053F000B3FBF5F205FB123300EE103AB8EEC00A2B
:1054000004F51E7020EE280A80EE080AFFF743FB21
:10541000D4F89033B3FBF5F205FB123304F5F470C6
:1054200000EE103AB8EEC00A20EE280A80EE080A14
:10543000FFF731FB0023C4F89833D4F8A433012BD1
:1054400004F5805559D1B4F90E93D4F89C33B4F9CE
:105450000C730197A9F11E02CDE902230DF1040896
:1054600098E80700FFF7CCFD04F5427670BBB9F170
:105470001D0F2BDD013FBFB2D62F05D9D4EDEA7A3F
:10548000F1EE677AC4EDEA7AD4EDEC7A94EDEA7A3B
:1054900077EEC77A94EDEB7AC4EDEC7AD4EDED7A41
:1054A00077EEC77A3046C4EDED7A0DF0DFF894ED73
:1054B000ED7AD4EDEC7ABDEEC77AFDEEE77A17EE21
:1054C000103A1AB217EE903A19B210E00023C4F85D
:1054D000A4330123C5F8F4344046FFF7A3FC30465B
:1054E0000DF0C4F8029ABDF904101E3212B2304613
:1054F000FDF790FF30460DF0B9F8D5F8F434012BE4
:105500006AD1DFF87C81DFF880B1DFF88CA1C5F8C3
:10551000F83426460027DBF80020013ABA422EDC98
:1055200057490C2303FB0219D9F80830052B53D136
:1055300004F5427630460DF099F8B4F80E33033393
:10554000A4F80E3330460DF091F8B4F90E33B3F5EC
:10555000A07F41DA0023C5F8F8344A4B1A88012AA3
:1055600072D1D4F8A423002A6ED11A802368DB6A92
:10557000204605B0BDEC028BBDE8F04F1847D8F8C7
:105580000820053A012A22D8D6F8C02306F5707003
:10559000526981469047B6F8C613D6F8C023033146
:1055A000526B09B248469047D6F8C0234846526924
:1055B0009047DAF80020002312B90122CAF800202F
:1055C000B6F9C623B2F5A07FB8BFC5F8F8340137E5
:1055D0002C3608F10C089EE7D5F8F8040128BCD158
:1055E000294A274912680023C5F8F434013AC4F85F
:1055F000A4332C26C5F8F83404F2E5359A4228DCA9
:105600002046FFF7B7FDD4F8BC330344C4F8BC33DD
:10561000FFF7CAFD1D4B1B68002B60D1FFF746FD4D
:1056200000283BD1D4F8B833F3B9194BD4F8BC13E4
:1056300019602046FFF7FAFD0BF066FEFDF7B4FA9D
:10564000144A13680133136005B0BDEC028BBDE84A
:10565000F08F8F68052F08BF06FB03F701F10C01DF
:1056600008BFE8550133C9E7013BC4F8B833FFF779
:105670002BFA20E06A2A0020C3F54840000034439A
:105680008C320020682A0020843200209C2D0020CB
:10569000902D0020982D0020942D0020344B1B6865
:1056A0002BBBD4F8B83333B1FFF70EFAD4F8B833C4
:1056B000013BC4F8B8332046FFF7DCFDFFF788FC58
:1056C000012818D12B4BD4F8BC231A600BF01CFE18
:1056D00005B0BDEC028BBDE8F04FFDF775BAFFF7E2
:1056E000E5FC0028C3D0224B1B68002BBFD0204B09
:1056F00000221A60DFE704F5427504F5A276284619
:105700000CF0B4FF30460CF0B1FF40F217126C21E0
:105710002846FDF77FFED4F8A073C4F89C73FFF70A
:10572000C3F93946C4F8A0032046FFF78FFC01A94E
:10573000ADF80400284609F0D0F9D4F8A0132046AB
:10574000FFF784FC01A9ADF80400304609F0C5F963
:1057500028460CF08BFF30460CF088FF0023D4F86D
:10576000BC13C4F8A4332046FFF760FDF5E600BF84
:10577000942D00208C2D0020F0B52DED028B83B0F0
:1057800004464FF4C875FEF76DFA4FF49662002197
:105790004248DFED438A9FED438A1FF0D6FE2A463A
:1057A000002141481FF0D1FE2A4600213F481FF04A
:1057B000CCFE2A4600213E481FF0C7FE00212C22C5
:1057C0003C481FF0C2FE3C4A002313603B4A136072
:1057D0003B4B1B68C4F8B8333A4B1B68C4F8BC3366
:1057E000FFF762F9C4F89C030546FFF75DF9294607
:1057F000C4F8A0032046FFF729FC04F54276ADF873
:10580000040001A9304609F068F9D4F8A013204635
:10581000FFF71CFC04F5A27701A9ADF80400384697
:1058200009F05BF9D4F890334FF4B475B3FBF5F29B
:1058300005FB123300EE103AB8EEC00A04F5F4701E
:1058400020EE280A80EE080AFFF725F9D4F89033F5
:10585000B3FBF5F205FB123304F51E7000EE103AAF
:10586000B8EEC00A20EE280A80EE080AFFF713F906
:1058700030460CF0FBFE38460CF0F8FEFFF724F93A
:105880002046FFF7F7FCD4F8BC13204603B0BDEC6C
:10589000028BBDE8F040FFF7C9BC00BF8C3200208E
:1058A000C3F5484000003443602F0020A02D0020A5
:1058B000F4300020342F0020843200208832002071
:1058C000982D0020902D00207047043870477047B5
:1058D00010B5102104461EF0B3FC204610BDA0F107
:1058E0000400F5E700228260024A0260183242603A
:1058F000C1607047347D02087047000010B5034B4B
:1059000003600446FEF715FE204610BD5C7D0208CC
:1059100010B50446FFF7F2FF20464FF490711EF0D9
:105920008FFC204610BD000010B50446FEF73CFE7B
:10593000014B2360204610BD5C7D0208FEF7FABDD6
:10594000F02070474FF4A07070472920FCF7E6B9AB
:105950002820FCF7E3B908B5FCF7B4F9CA20FCF736
:10596000DDF9C320FCF7BEF90820FCF7BBF9502095
:10597000FCF7B8F9CF20FCF7D1F90020FCF7B2F919
:10598000C120FCF7AFF93020FCF7ACF9ED20FCF7B3
:10599000C5F96420FCF7A6F90320FCF7A3F912204F
:1059A000FCF7A0F98120FCF79DF9E820FCF7B6F997
:1059B0008520FCF797F90020FCF794F97820FCF794
:1059C00091F9CB20FCF7AAF93920FCF78BF92C20B0
:1059D000FCF788F90020FCF785F93420FCF782F900
:1059E0000220FCF77FF9F720FCF798F92020FCF75C
:1059F00079F9EA20FCF792F90020FCF773F900200E
:105A0000FCF770F9B120FCF789F90020FCF76AF97E
:105A10001B20FCF767F9B620FCF780F90A20FCF799
:105A200061F9A220FCF75EF9C020FCF777F910209D
:105A3000FCF758F9C120FCF771F91020FCF752F976
:105A4000C520FCF76BF94520FCF74CF91520FCF755
:105A500049F9C720FCF762F99020FCF743F936209A
:105A6000FCF75CF9C820FCF73DF9F220FCF756F989
:105A70000020FCF737F9B020FCF750F9C220FCF702
:105A800031F9B620FCF74AF90A20FCF72BF9A720D8
:105A9000FCF728F92720FCF725F90420FCF722F968
:105AA0002A20FCF73BF90020FCF71CF90020FCF74A
:105AB00019F90020FCF716F9EF20FCF713F92B2059
:105AC000FCF72CF90020FCF70DF90020FCF70AF98F
:105AD0000120FCF707F93F20FCF704F9F620FCF75A
