:020000040800F2
:1000000000000320850A00088528000887280008CA
:10001000892800088B2800088D28000800000000AF
:1000200000000000000000000000000041970008F0
:100030008F28000800000000D19700085F9000089A
:10004000D50A0008D50A0008D50A0008D50A000814
:10005000D50A0008D50A0008D50A0008D50A000804
:10006000D50A0008D50A0008D50A0008D50A0008F4
:10007000D50A0008D50A0008D50A0008D50A0008E4
:10008000D50A0008D50A0008D50A0008D50A0008D4
:10009000D50A0008D50A0008D50A0008D50A0008C4
:1000A000D50A0008D50A0008D50A0008D50A0008B4
:1000B000D50A0008D50A0008D50A0008D50A0008A4
:1000C000D50A0008D50A0008D50A0008D50A000894
:1000D000D50A0008D50A0008D50A0008D50A000884
:1000E000D50A0008D50A0008D50A0008D50A000874
:1000F000D50A0008D50A0008D50A0008D50A000864
:10010000D50A0008D50A0008D50A0008D50A000853
:10011000D50A0008D50A000891280008D50A000869
:10012000D50A0008D50A0008D50A0008D50A000833
:10013000D50A0008D50A0008D50A0008D50A000823
:10014000D50A0008D50A0008D50A0008D50A000813
:10015000D50A0008D50A0008D50A0008D50A000803
:10016000D50A0008D50A0008D50A0008D50A0008F3
:10017000D50A0008D50A0008D50A000800000000CA
:10018000D50A0008D50A0008D50A0008D50A0008D3
:10019000D50A0008D50A0008D50A0008D50A0008C3
:0C01A0009D280008D50A0008A9280008C6
:1001B00010B5054C237833B9044B13B10448AFF3A1
:1001C00000800123237010BD800300200000000088
:1001D000BC6D020808B5034B1BB103490348AFF3DC
:1001E000008008BD0000000084030020BC6D0208F0
:1001F000034613F8012B002AFBD1181A0138704767
:1002000001F0FF01102A2BDB10F0070F08D010F8C7
:10021000013B013A8B422DD010F0070F42B3F6D1CB
:10022000F0B441EA012141EA014122F007047FF0E4
:1002300000070023F0E80256083C85EA010586EA3B
:10024000010685FA47F5A3FA87F586FA47F6A5FA77
:1002500087F68EB9EED1F0BC01F0FF0102F0070283
:1002600032B110F8013B013A83EA010313B1F8D12E
:100270000020704701387047002D06BF354603380F
:10028000073815F0010F07D1013015F4807F02BF48
:10029000013015F4C03F0130F0BC0138704700BF99
:1002A00081F0004102E000BF83F0004330B54FEA27
:1002B00041044FEA430594EA050F08BF90EA020F94
:1002C0001FBF54EA000C55EA020C7FEA645C7FEA27
:1002D000655C00F0E2804FEA5454D4EB5555B8BF4A
:1002E0006D420CDD2C4480EA020281EA030382EABB
:1002F000000083EA010180EA020281EA0303362D4D
:1003000088BF30BD11F0004F4FEA01314FF4801C1F
:100310004CEA113102D0404261EB410113F0004F31
:100320004FEA03334CEA133302D0524263EB4303E8
:1003300094EA050F00F0A780A4F10104D5F1200E86
:100340000DDB02FA0EFC22FA05F2801841F10001E1
:1003500003FA0EF2801843FA05F359410EE0A5F1B5
:1003600020050EF1200E012A03FA0EFC28BF4CF0E6
:10037000020C43FA05F3C01851EBE37101F000459C
:1003800007D54FF0000EDCF1000C7EEB00006EEBA9
:100390000101B1F5801F1BD3B1F5001F0CD3490833
:1003A0005FEA30004FEA3C0C04F101044FEA44528A
:1003B00012F5800F80F09A80BCF1004F08BF5FEA11
:1003C000500C50F1000041EB045141EA050130BDF1
:1003D0005FEA4C0C404141EB0101013C28BFB1F503
:1003E000801FE9D291F0000F04BF01460020B1FA4E
:1003F00081F308BF2033A3F10B03B3F120020CDA21
:100400000C3208DD02F1140CC2F10C0201FA0CF0FE
:1004100021FA02F10CE002F11402D8BFC2F1200C63
:1004200001FA02F120FA0CFCDCBF41EA0C01904019
:10043000E41AA2BF01EB0451294330BD6FEA040462
:100440001F3C1CDA0C340EDC04F11404C4F120024D
:1004500020FA04F001FA02F340EA030021FA04F35F
:1004600045EA030130BDC4F10C04C4F1200220FAB6
:1004700002F001FA04F340EA0300294630BD21FAF4
:1004800004F0294630BD94F0000F83F4801306BFBA
:1004900081F480110134013D4EE77FEA645C18BFAE
:1004A0007FEA655C29D094EA050F08BF90EA020F45
:1004B00005D054EA000C04BF1946104630BD91EA3D
:1004C000030F1EBF0021002030BD5FEA545C05D140
:1004D0004000494128BF41F0004130BD14F580047F
:1004E0003CBF01F5801130BD01F0004545F0FE41F3
:1004F00041F470014FF0000030BD7FEA645C1ABF28
:10050000194610467FEA655C1CBF0B46024650EA5E
:10051000013406BF52EA033591EA030F41F400218A
:1005200030BD00BF90F0000F04BF0021704730B510
:100530004FF4806404F132044FF000054FF00001E5
:1005400050E700BF90F0000F04BF0021704730B5A6
:100550004FF4806404F1320410F0004548BF40427B
:100560004FF000013EE700BF42004FEAE2014FEAD0
:1005700031014FEA02701FBF12F07F4393F07F4FAB
:1005800081F06051704732F07F4208BF704793F0AE
:100590007F4F04BF41F40021704730B54FF46074C1
:1005A00001F0004521F000411CE700BF50EA0102C4
:1005B00008BF704730B54FF000050AE050EA01026D
:1005C00008BF704730B511F0004502D5404261EBDD
:1005D00041014FF4806404F132045FEA915C3FF41E
:1005E000D8AE4FF003025FEADC0C18BF03325FEABB
:1005F000DC0C18BF033202EBDC02C2F1200300FA6C
:1006000003FC20FA02F001FA03FE40EA0E0021FA90
:1006100002F11444BDE600BF4FEA4102B2F1E043EB
:1006200024BFB3F5001CDCF1FE5C0DD901F0004CD9
:100630004FEAC0024CEA5070B2F1004F40EB830029
:1006400008BF20F00100704711F0804F21D113F155
:100650003872BCBF01F00040704741F480114FEA8E
:100660005252C2F11802C2F1200C10FA0CF320FA17
:1006700002F018BF40F001004FEAC1234FEAD32334
:1006800003FA0CFC40EA0C0023FA02F34FEA43039E
:10069000CCE77FEA625307D150EA01331EBF4FF027
:1006A000FE4040F44000704701F0004040F0FE4042
:1006B00040F40000704700BF7BB972B90029BEBF8B
:1006C00000204FF0004106E008BF00281CBF6FF07B
:1006D00000414FF0FF3000F0D3B9ADF1080C6DE9E7
:1006E00004CE002909DB002B1ADB00F04DF8DDF801
:1006F00004E0DDE9022304B07047404261EB4101B0
:10070000002B1BDB00F040F8DDF804E0DDE90223FC
:1007100004B0404261EB4101524263EB4303704736
:10072000524263EB430300F02FF8DDF804E0DDE90B
:10073000022304B0404261EB41017047524263EB37
:10074000430300F021F8DDF804E0DDE9022304B002
:10075000524263EB4303704753B94AB9002908BFBB
:1007600000281CBF4FF0FF314FF0FF3000F088B978
:10077000ADF1080C6DE904CE00F006F8DDF804E0F8
:10078000DDE9022304B070472DE9F047089D8E464D
:1007900004468846002B4AD18A42174662D9B2FAEB
:1007A00082F64EB1C6F1200301FA06F820FA03F3EF
:1007B000B74043EA0808B4404FEA174E1FFA87FCD7
:1007C000B8FBFEF1230C0EFB118843EA084301FB42
:1007D0000CF29A4209D9FB1801F1FF3080F0EA804F
:1007E0009A4240F2E78002393B449A1AA3B2B2FB24
:1007F000FEF00EFB102243EA024300FB0CFC9C457A
:1008000009D9FB1800F1FF3280F0D6809C4540F2F8
:10081000D3803B44023840EA0140A3EB0C030021A3
:100820001DB1F3400022C5E90032BDE8F0878B42DC
:1008300005D90DB1C5E9000100210846F5E7B3FA75
:1008400083F1002946D1734502D3824200F205812B
:10085000841A6EEB030201209046002DE5D0C5E915
:100860000048E2E7002A00F09080B2FA82F6002EFB
:1008700040F0A4808A1A030C4FEA174E80B2BCB233
:100880000121B2FBFEFC0EFB1C2243EA024304FBE7
:100890000CF29A4207D9FB180CF1FF3802D29A42A7
:1008A00000F2E080C4469B1AB3FBFEF20EFB12334B
:1008B00040EA034302FB04F49C4207D9FB1802F10F
:1008C000FF3002D29C4200F2CA8002461B1B42EA61
:1008D0000C40A5E7C1F120068B4022FA06F71F4322
:1008E0000EFA01F420FA06F32EFA06FE4FEA174933
:1008F000234300FA01F81FFA87FCBEFBF9F01C0C39
:1009000009FB10EE44EA0E4400FB0CFEA64502FA79
:1009100001F209D93C1900F1FF3A80F09C80A6450C
:1009200040F2998002383C44A4EB0E041FFA83FE87
:10093000B4FBF9F309FB13444EEA044403FB0CFC3B
:10094000A44508D93C1903F1FF3E80F08280A445FC
:100950007FD9023B3C4443EA0040A4EB0C04A0FBDB
:1009600002EC64457346E14662D35FD05DB1B8EBFB
:10097000030264EB090404FA06F622FA01F31E43AB
:10098000CC40C5E9006400214FE7B1FBF2FC010C4B
:1009900041EA0E4180B240EA01423B4638463C46BD
:1009A000B846BE462026B1FBF7F1A2EB080241EAA9
:1009B0000C4166E7014618E710462CE7C6F1200215
:1009C0002EFA02F3B740B14020FA02F24FEA174E76
:1009D0000A43B3FBFEF8BCB20EFB1833110C41EA1C
:1009E000034108FB04F9B04089454FEA104380B247
:1009F0003ED9791808F1FF3C01D289451FD8A1EBF7
:100A00000901B1FBFEF909FB04F80EFB191192B2C2
:100A100042EA0142424529D2BA1809F1FF31C4D253
:100A20004245C2D2A9F102013A44BEE7F0459DD247
:100A3000BEEB02036CEB070C0138E14696E7A7EB2F
:100A400009094944A8F1020CB1FBFEF909FB04F8BD
:100A5000DBE773467FE7504666E70846FDE63B4422
:100A6000023A33E7ACF1020C3B441CE749469CE7F1
:100A7000A1EB0901C446B1FBFEF909FB04F8C4E788
:100A8000704700BFDFF834D0002103E00C4B5B5807
:100A9000435004310B480C4B42189A42F6D30B4A90
:100AA00002E0002342F8043B094B9A42F9D305F0D7
:100AB000F7FC25F06DFA01F0C9F87047000003203B
:100AC000A0BC0F0800000020680100208003002067
:100AD0002C520120FEE7704708B500F0BDFDBDE8CF
:100AE000084000F03FBD00F0B9BD704710B50421CB
:100AF000044623F0FDFF204610BD000038B50C4B26
:100B00000C4C18800C4B822019806368984740F683
:100B1000110398420AD1094D23682C60822098471E
:100B20002B688220DB689847002038BD0120FCE755
:100B3000A603002050000020A4030020A8030020EA
:100B40004FF4A071F020FFF7D9BF0000F7B5394D81
:100B50002B6804461B6982209847208000284ED0CD
:100B60002B680DF106025B6901A982209847324B80
:100B70001B78002B4BD0BDF8062040F674639A42D8
:100B80003FD9ADF80630BDF806209B1A9BB20A2B60
:100B900042D90B22B3FBF2F3284A1288934201D9BF
:100BA000013A93B2BDF80420254840F6B8318A4294
:100BB00034D8C2F571620E32016892B20F25B2FBD1
:100BC000F5F2204D2D88AA4284BF05F1FF35AAB267
:100BD0008A4215468EB22AD9921B91B21A4E3768B4
:100BE000BB42BAB28CBF9A1AD21A92B211440529EA
:100BF000C4BF05603360036863803368A38003B0BB
:100C0000F0BDB32A9CBFB422ADF80620BBE7BDF807
:100C10000630A3F5B473B9E70023C3E7C2F56D62EC
:100C2000083292B20E2A0168C8D800252A46891ACD
:100C300089B2D3E7A80300206E2A0020A403002075
:100C4000A0030020A60300209C03002037B56846BF
:100C50000D461446FFF77AFFBDF8000030B1BDF82D
:100C600002302B60BDF804302360012003B030BD9A
:100C7000032821D8DFE800F0020B12190F4B1A6885
:100C8000B2FA82F2520904210D4806F0B3B80B4BB8
:100C90005A68B2FA82F252090821F5E7074B9A68BE
:100CA000B2FA82F252091021EEE7044BDA68B2FA86
:100CB00082F252092021E7E7704700BFAC03002011
:100CC00000100240032821D8DFE800F0020B1219BF
:100CD0000F4B1A68003A18BF012204210D4806F094
:100CE00089B80B4B5A68003A18BF01220821F5E772
:100CF000074B9A68003A18BF01221021EEE7044B17
:100D0000DA68003A18BF01222021E7E7704700BFE8
:100D1000AC0300200010024003280DD8DFE800F0EB
:100D20000206080A0421054806F069B80821FAE716
:100D30001021F8E72021F6E7704700BF00100240BD
:100D400008B5032811D8DFE800F0020A0C0E0421D0
:100D5000074806F049F8431E5842584108BD08218B
:100D6000F6E71021F4E72021F2E70020F3E700BFC7
:100D70000010024070B5084D00240126E0B2FFF7D4
:100D8000DFFF18B12B68012B18BF2E600134052C32
:100D900005F10405F2D170BDAC030020012380F8F9
:100DA000781080F879307047704700207047000055
:100DB000034B4164003918BF01211970704700BF0F
:100DC000EB440120704700207047836B0BB108464D
:100DD000184770474FF6FF707047406803689B697B
:100DE00018477047704770477047704710B5044602
:100DF00000F04AFD23680349D3F890302046BDE84F
:100E000010401847000000D008B503680446D3F826
:100E10008430984723682046DB6F984700F0ECF851
:100E2000236820465B6F9847292001F0E3F900F022
:100E3000E3F8236820465B6F9847F8E710B504464F
:100E40000BF074FA23682046D3F8BC30BDE810409C
:100E5000184700F0FDBC00F001BD00F033BD00F00C
:100E6000D3BC00F043BD00F04BBD00F0D7BC0AF08E
:100E70008BBC10B58421044623F03AFE204610BDF9
:100E800010B590F8341090F878400C4B8C421A78DA
:100E900009D03AB90A4A0B491488088810800C8096
:100EA00001221A7010BD002AFCD0054A0549148899
:100EB000088810800C800022F3E700BFE444012082
:100EC000E0440120E244012070B50D46194635B9D1
:100ED000094B0A4A0A4840F2FF2124F087FDC0E985
:100EE0000F52084B003A18BF01221A700368BDE880
:100EF0007040D3F8903018472C6E0208646E0208D8
:100F0000B26E0208EA44012008B5094B1B888B42E7
:100F100003D8084B1B88934205D9074B074A08485A
:100F2000A32124F063FD074B1980074B1A8008BDED
:100F3000E0440120E2440120F76E02085A6F0208E3
:100F4000B26E0208E6440120E8440120034690F80E
:100F50007A0018B1586803681B681847704700008A
:100F6000012108B50022084608F002F90A4B186072
:100F700028B90A4B0A4A28210A4824F037FD0022E2
:100F80000421012008F093F9074B186018B9074BAA
:100F9000034A2C21F0E708BDC00300209D6F020822
:100FA000E66F020815700208BC0300206170020899
:100FB000024B4FF0FF31186808F024B9C00300203D
:100FC000014B186808F04AB9C0030020024B002109
:100FD000186808F017B900BFC0030020FFF7F0BF82
:100FE00003480449006800231A4608F09BB900BF73
:100FF000BC0300200400002013B5084C00231A464F
:1010000001A9206808F0BFF920684FF0FF330022E3
:1010100001A908F0B8F902B010BD00BFBC03002060
:1010200003685B6C18470120704703689B6A184788
:10103000FEE740F2EF307047054B0360054B4FF081
:101040008062C3F88820BFF34F8FBFF36F8F704764
:10105000AC7E020800E100E010B504464FF45A618E
:10106000FFF7EAFF204623F043FD204610BD0000B5
:1010700082B0002301930E4B1A6B42F400021A63F4
:101080001A6B02F400020192019A1A6942F40002FA
:101090001A611A6922F400021A61064B064A1A61A3
:1010A000064A5A61064B4FF080629A6002B0704760
:1010B00000380240482C00201113000831100008AD
:1010C00000E100E008B50A2809D8DFE800F00610C2
:1010D0000E080808081010101000022008BD054B6B
:1010E000054A0648902124F081FC0020F6E7012003
:1010F000F4E700BFA3700208BE700208097102087D
:1011000038B50C46887FFFF7DDFFA58AE28A164BCB
:101110002169586342EA05425A64628BD963521BC3
:101120001A642568082D0ED19A611A615862207FD1
:101130000E4A42EA0062DA61E2681A620C4A5961B8
:10114000D9601A6038BD0022D8611A61E1680A0AC4
:10115000480902F4784200F4FC600243C1F3C40180
:101160000A439A63034AECE700B002400900010019
:10117000012302000123030008B50B280BD8DFE888
:1011800000F00612100A0A0A0A08080808080220D5
:1011900008BD0520FCE7054B054A06486F2124F0F1
:1011A00025FC0020F4E70120F2E700BFA37002084D
:1011B00053710208097102082DE9F04191F81D8070
:1011C0000C464046FFF7D8FFA77F05463846FFF795
:1011D000D3FF06463846FFF775FFA18A628B444B62
:1011E000521A1A649A61228B521A1A61E28A58635F
:1011F00042EA01425A6421696268D963DA60206870
:10120000802828D0227F0FD8202867D0402865D09A
:1012100004281AD0364B45EA026545F40035B84536
:10122000DD6161D0334A44E0B0F5807F04D0B0F591
:10123000007FEFD1304800E0304840EA0262DA61D6
:10124000E2681A625E62596132E045EA026242F483
:101250000032DA61F6E7A068021DDA62227F45EA11
:10126000026545F40035DD615E625961017841B186
:10127000012921D0224B234A23484FF48D7124F0B9
:10128000B5FBDA69418822F47F42013922F010026D
:1012900042EA0122DA610121154BDA6942F02002AB
:1012A000DA61DA699206FCD410229A600029B9D07A
:1012B000164A1A60BDE8F081B2F1FF01DA69408890
:1012C00022F47F4200F1FF3022F0100242EA0022B5
:1012D00042F0100218BF0121DA61DDE745EA02623F
:1012E000034B42F40032B4E742F20132E1E700BFBF
:1012F00000B0024001230100090002000A000200C0
:101300009D710208B77102080971020801230200E9
:10131000024B1B68586803685B691847EC4401205E
:1013200070B5044625460A4B0C30002660602672D4
:10133000667245F8203B602229460BF04DF904F512
:101340005A63EE6024359D42FBD1204670BD00BF3C
:10135000AC7E0208034B1A68D207FCD423229A60A1
:10136000704700BF00B002407047000030B50F4C1E
:101370002568ED07FCD423250904A56041F001018F
:101380000225FF2B65636164E0630AD0084965624A
:1013900041EA0363E361074B22626061E06023601E
:1013A00030BDE561039BA363034BF8E700B0024047
:1013B00009000100010002000100030030B50E4CDD
:1013C0002568ED07FCD423251204A56042F0010234
:1013D0000225FF2B65636264E063E16008D01B06B1
:1013E00043F00213E361054B65626061236030BD29
:1013F000034BE3610123F9E700B002400100020062
:10140000020002FF30B50B4C2568ED07FCD4232504
:1014100012041B06A56043F40033022542F00102CA
:1014200065636264E063E160E361034B6562606190
:10143000236030BD00B0024001000200012070476F
:101440004020704700EB81100830704700EB81109E
:10145000083070470120704741F22450704741F234
:10146000245303FB01000830704741F2245303FB6F
:10147000010008307047012070471020704700EBD2
:1014800001100830704700EB011008307047084623
:1014900001F0ECBD10B5034B0360044609F0CBFE30
:1014A000204610BD647F020810B50446FFF7F2FF26
:1014B0002046482123F01CFB204610BD10B5034BED
:1014C0000360044609F0B7FE204610BD307F0208D5
:1014D00010B50446FFF7F2FF204641F22C5123F0ED
:1014E00007FB204610BD000010B5034B0360044607
:1014F00009F0A1FE204610BDFC7E020810B504468E
:10150000FFF7F2FF2046182123F0F2FA204610BD23
:1015100010B5094B0360044600F5AA501830FFF7D8
:10152000B9FF04F12C00FFF7C9FF04F11400FFF725
:10153000DBFF204610BD00BF987F020808B50248B7
:10154000FFF7E6FF08BD00BF9C12002010B504465F
:10155000FFF7DEFF20464FF4B85123F0C9FA2046CA
:1015600010BD00002DE9F34101F012FA054601F02B
:1015700013FA00240146234628462246009414F01C
:1015800005FA274B274A1A60204603F00DFA264D2C
:10159000264B274A27489A6014F060F92B68BFF35E
:1015A0005B8FDB0736D4284623F0A4FA90B3224C95
:1015B000224F234B236007F14C0604F1140004F181
:1015C0002C086060C4F80880E760266109F034FEEA
:1015D0001C4B6361404609F02FFE1B4BE36238460B
:1015E00009F02AFE04F58053184AC3F8582504F57B
:1015F000AD5003F0B7FB224604F5AD51304603F081
:101600004BFB304601F032FD114824F00DFA28461C
:1016100023F07CFA0F4802B0BDE8F041FFF7E6BBCB
:101620005045012048040020981200206804002042
:101630004C040020080000209C120020F427002009
:10164000987F0208FC7E0208307F0208647F02084F
:101650003D150008C4030020704700000148FFF753
:10166000D3BB00BFC403002070B5264E264C274DC7
:10167000274B23603046FFF753FE284619F08CFABB
:10168000244811F001FD244B2448DC6000224FF473
:101690008071C3E9121222491A86C3E91A1221493C
:1016A00083F85820C3E91E011F49C3F880101F4961
:1016B0001F480B60F021C3E90422C3E90622C3E9F5
:1016C0000822C3E90A22C3E90E22C3E91022C3E9B2
:1016D0001422C3E917225A6683F870205A67C3E9B7
:1016E000016501801348018013484FF4A071018007
:1016F0001248018012490A70012283F83420114AED
:101700001A6070BDF40400209412002068040020C8
:101710001C6E02084C040020C403002000000101DC
:1017200001000001000450001A001400EC440120E4
:10173000E0440120E6440120E2440120E844012085
:10174000E4440120C07D02080148FFF775BC00BFDA
:10175000F40400200020704781807047C1807047EA
:1017600001817047418170477047704770477047EB
:10177000704710B4C4880368121B84885B6D091B12
:1017800012B25DF8044B09B218474FF6FF7383811C
:101790004FF0FF3303621368C3611060704700208D
:1017A00070478B88838001207047704780F826102F
:1017B000704790F82600704710B50022B1F9084034
:1017C000B1F90A10028042808480C18010BD0022DD
:1017D000028042808280C28070470177704780ED2E
:1017E000080A704780F82410704780F82510704769
:1017F00001207047983070478C30704784307047B4
:101800007047704770470000034B902283F85A23BB
:1018100083F85823704700BF00E100E0094A0A49F5
:10182000D3680A48C3F30A03013B9BB20B801169DA
:10183000C1F30A01013901801364536B43F00103C2
:1018400053637047006801409E2900209C290020B6
:10185000014BD3F8AC00704700680140024B0122F5
:10186000C3F8AC105A6270470068014010B52C21D3
:10187000044623F03DF9204610BD10B5BC210446B6
:1018800023F036F9204610BD70B5044609F0D1FFAB
:1018900023689D6E10F090F901462046A847236802
:1018A000054AD3F88C502046AC460023BDE8704072
:1018B000A2F51631604700BF00B004D009F0A0BF08
:1018C00009F0AABF09F066BF0AF0D5B890F8252044
:1018D00012B103685B691847704790F825201AB168
:1018E00090F8242002B1186070470000034B4FF0BD
:1018F00080629A604FF080729A60704700E100E069
:10190000084B4FF08062C3F88820BFF34F8FBFF3BE
:101910006F8F4FF08072C3F88820BFF34F8FBFF3F3
:101920006F8F704700E100E070B50023124E838096
:10193000124B0360336893F8582005460AB1D86CFF
:1019400000B998680368DB6A98473368B0FA80F496
:10195000D86C640930B10368DB6A9847002808BF77
:1019600044F001042CB9064B064A07482C2124F008
:101970003DF8284670BD00BFEC440120AC7F020852
:10198000F5710208537202088C72020870B5254E78
:101990003568BFF35B8F15F0010540D1304623F069
:1019A000A9F800283BD0204C204B256104F13400DD
:1019B000C4E90035C4E90255E584A562A58511F0A6
:1019C00048FE04F158000CF0BBFA194BA365204601
:1019D000184B40F8843BFFF7A7FF174BC4F884303F
:1019E0002433C4F88C304FF4C803C4E928350023ED
:1019F000C4F8AC30C4F8B030C4F8B430C4F8B8306F
:101A00000E480F4BC4F89050C4F89C50C4F8A8502E
:101A1000C4F8983024F008F8304623F077F80248EC
:101A200070BD00BFA0290020A4290020548B02080B
:101A3000CC7F020844800208088B020805180008C1
:101A4000E88A020838B5184C23685BB3174B184A6C
:101A50001B6C11888B4216D1164B198805F0D2FFEA
:101A6000236893F86A200025013283F86A2083F8FE
:101A70007C50FFF7B5FA20680AF058FC2846BDE80C
:101A80003840FFF7F5B805F0BDFF2468236820460D
:101A90001B6A9847012384F87C300020BDE8384059
:101AA000FFF710B938BD00BFEC44012000680140C9
:101AB0009E2900209C29002007B5064BADF80600A2
:101AC0001B68054801220DF1060106F04BFD03B02D
:101AD0005DF804FB0C000020F42A00201FB5294DFE
:101AE000294C0126204604F0CFFD0121204604F0B8
:101AF00049FE204604F099FE2449288082B201A8BC
:101B000024F038F901A8FEF773FB0A2382B201A979
:101B10001F4807F0BEF91F48012105F065F90128AB
:101B20001CD11D4B002264201A8007F015FB1B48B6
:101B30004FF4005105F058F9012818D1142004F091
:101B4000E9FC16484FF4005105F04EF9012815D173
:101B5000134B1880642007F0FFFA0FE00D480121B5
:101B600005F042F90028E2D10B4B1E80DFE70B485D
:101B70004FF4005105F038F90028E9D0012007F0B2
:101B8000EBFAAFE76C2A0020902C0020EE720208DE
:101B9000AC2A0020000002406A2A002000180240FF
:101BA000682A002008B5642007F0D6FAFBE7000099
:101BB00030B595B0102200210AA824F040F9142273
:101BC000002103A824F03BF900241E4B01941A6C59
:101BD00042F080521A641B6C03F080530193019B06
:101BE000194B02941A6842F440421A601B6803F4CD
:101BF000404302930122029B4FF48033CDE9082336
:101C000002254FF480030821CDE90E534FF4B4733D
:101C1000CDE9101308A804231393129505F04AFF89
:101C200005F00EFF0F23CDE903354FF4A0504FF41C
:101C30008053CDE90603052103A8059406F016F9A3
:101C400015B030BD00380240007000402DE98048DA
:101C50009BB004F033FCFFF7ABFF142200210DA86A
:101C600024F0EDF80024C94B00941A6BC848C94D04
:101C7000DFF8588342F010021A631A6B02F0100268
:101C80000092009A01941A6B42F004021A631A6BD4
:101C900002F004020192019A02941A6B42F02002AF
:101CA0001A631A6B02F020020292029A03941A6BD2
:101CB00042F080021A631A6B02F080020392039AC8
:101CC00004941A6B42F001021A631A6B02F00102CB
:101CD0000492049A05941A6B42F002021A631A6B7A
:101CE00002F002020592059A06941A6B42F0400235
:101CF0001A631A6B02F040020692069A07941A6B56
:101D000042F008021A631B6B03F008032246079394
:101D10003C21079B05F06EF822469F4842F20401E1
:101D200005F068F89C480122022105F063F822467C
:101D30009A484FF4405105F05DF801263C23CDE967
:101D40000D3693480F9403230DA9109304F068FFF8
:101D500042F2020390480DA90227CDE90D36CDE9E4
:101D60000F4404F05DFF04238B480F940DA9CDE9C7
:101D70000D36109704F054FF89480F960DA9CDE950
:101D80000D6404F04DFF4FF4405384480DA9CDE994
:101D90000D36CDE90F4704F043FF0DA94FF4005372
:101DA00080480F97CDE90D3404F03AFF7E487F4B11
:101DB000036004F02BFEDFF818E27D4B2C62C5E9CE
:101DC00000E328464FF48043C5E90434C5E90244E2
:101DD000C5E9064405F01CFA1021284605F060FC10
:101DE00021462846734D05F07AFC4FF48273C5E90D
:101DF00000834FF400791823C5E9069328460A2387
:101E0000C5E90244C5E90444C5E90844AC62EB6293
:101E100006F04CFB8F23224639465F488DF824306C
:101E20008DF8344004F0E6FF32464FF47A7309A986
:101E3000284606F097FB4FF47A7332460DA92846E0
:101E400006F03CFD3246394653485B4D04F0D2FF64
:101E50009DF83430D32B04BF584B1E70584B0126CD
:101E6000C5E900364FF0100A40230024C5E904A359
:101E70004FF4C073C5E906344FF40063C5E9083474
:101E80004FF4005302274FF00409AB624FF0030BED
:101E900007230DA92846CDE90D73CDE90F934FF027
:101EA0000808C5E90249CDE911B7139706F0E2F930
:101EB0004FF6FF7209A92846CDE90A8608940996CB
:101EC0000C9406F0F7F9304604F024FB4FF6FF724D
:101ED00009A92846CDE90978CDE90B6406F0EAF9AD
:101EE0004FF6FF7209A92846CDE909B8CDE90B9450
:101EF00006F0E0F94FF40C730893089B0C934FF62F
:101F0000FF7209A92846CDE909980B9606F0D2F987
:101F100040F26A51284606F0EBF9342221460DEBD7
:101F2000020023F08CFF274D274B2C61C5E90034BC
:101F30000923C5E905361D23C5E9073B40F20D120B
:101F400040F24313C5E9092340F2171140F2471349
:101F50002846C5E90B13C5E90244AC8685F836402E
:101F600005F058FCFF21F022CDE912144FF48060F7
:101F700005214FF4A073CDE91401CDE90E240DA97C
:101F8000CDE916422846224624E000BF0038024030
:101F900000100240F42B002000080240000C024018
:101FA0000000024000180240882C0020003002404F
:101FB000A0860100F42A0020782A00206E2A002042
:101FC000400100A04C2B002000680140005001405F
:101FD000005C0040CDE91037384D18930D94ADF8F2
:101FE00064408DF8664005F0E0FC354B2B601B68C3
:101FF00098472B68334DDB689847334B2846C5E933
:102000000034C5E90274C5E90A47C5E90C4404F087
:102010000DFD3146284604F0BFFD2C4D2C4F524695
:1020200021460DA823F00BFF4FF48033C5E9007360
:102030002846284BAB62AC602C612E7685F8204098
:10204000EC62EC60EE6185F830406E6104F076FA87
:102050000DA90D232846CDE90D360F9404F0E8FBB9
:10206000DFF89CC01C484FF4E133C0E900C30C23E7
:10207000C0E90534C0E902440461C46106F0DAFE37
:10208000FEF72AFDFEF727FD06F0F6FF134A144877
:10209000214607F01DF8134B134A186021461348D8
:1020A00007F016F8124B134A18602146124807F041
:1020B0000FF8124B186006F0F1FFFEE7602A0020CF
:1020C00018000020482C002000B00240902C002076
:1020D000002001400100000FAC2A0020D08002083F
:1020E000A51B0008742A0020AC800208E70A00083B
:1020F000702A002088800208DD1A0008642A002067
:1021000000100140704770477FB5094B8DF81720CC
:102110001B6802930DF117020123009201930A46F6
:102120000146044805F01CF907B05DF804FB00BF48
:1021300010000020F42B00207FB500238DF817300D
:10214000084B1B6802930A4601230DF11701009109
:1021500001930146044805F093F99DF8170007B074
:102160005DF804FB10000020F42B00201FB5084C84
:1021700024680092CDE901340A460123014605484E
:1021800005F07EF9003818BF012004B010BD00BF73
:1021900010000020F42B002004F0BCB910B5064C50
:1021A00000222046042104F025FE20460122BDE83D
:1021B0001040042104F01EBE0008024038B50B4D4B
:1021C000044601220A484FF4005104F013FE002295
:1021D0000421284604F00EFE2046FFF76DFC284639
:1021E0000122BDE83840042104F004BE000802408A
:1021F000000C024038B50B4D044600220A484FF44B
:10220000005104F0F7FD00220421284604F0F2FDFD
:102210002046FFF751FC28460122BDE83840042142
:1022200004F0E8BD00080240000C0240F7B5144E6F
:10223000144F05460C4630460022042104F0DAFD16
:1022400000224FF40051384604F0D4FD2846FFF731
:1022500033FC0D4B0D481B68224601A906F02EFBEE
:10226000384601224FF40051019C04F0C3FD304672
:102270000122042104F0BEFD204603B0F0BD00BFE2
:1022800000080240000C02400C000020F42A00204C
:1022900004F040B90268034B9A4201D104F028B916
:1022A000704700BF001000407047000082B00E4B26
:1022B00000220092596C41F480415964596C01F438
:1022C0008041009100990192196C41F0805119648C
:1022D0001B6C03F080530193019B0F216FF00100F1
:1022E00002B004F053BB00BF0038024010B50446F2
:1022F00088B01422002103A823F0A1FD2268124B0C
:102300009A421ED103F58C33002101915A6C0F487B
:1023100042F480725A645A6C02F480720192019AFB
:1023200002911A6B42F004021A631B6B03F0040360
:102330000293029B0822032303A9CDE9032304F09F
:102340006FFC08B010BD00BF002001400008024033
:102350000268094B9A4282B00BD100230193074BCC
:102360001A6B42F480521A631B6B03F4805301937F
:10237000019B02B0704700BF0030024000380240AD
:1023800007B50F4B02689A4216D10022A3F5F0431D
:102390000192196B41F4000119631B6B03F40003F4
:1023A000019305215A20019B04F0F0FA5A2003B052
:1023B0005DF804EB04F01CBB03B05DF804FB00BF48
:1023C00000B002402DE9F043044689B014220021F8
:1023D00003A823F034FD2268244B9A4243D1244CB5
:1023E000244800250095236B43F004032363236BEB
:1023F00003F004030093009B0195236B43F001035A
:102400002363236B03F001030193019B4FF0120937
:102410004FF400734FF001080327042603A9CDE908
:102420000339CDE90587079604F0FAFB4FF4807372
:102430001148079603A9CDE90339CDE9058704F0D2
:10244000EFFB0295236C43F400032364236C03F435
:1024500000030293029B236A43F400032362236A6E
:1024600023F40003236209B0BDE8F083005C004060
:10247000003802400008024000000240F0B599B068
:1024800004461422002107A823F0D9FC30220DEBCA
:102490000200002123F0D3FC22685E4B9A4240F0F8
:1024A000B78008230C93C0231093042312930CA825
:1024B0004FF40033159305F0B1FD08B1FFF7F4FEBA
:1024C000554B5648002400945A6C42F080625A647E
:1024D0005A6C02F080620092009A01941A6B42F0EA
:1024E00020021A631A6B02F020020192019A0294F0
:1024F0001A6B42F001021A631A6B02F00102029297
:10250000029A03941A6B42F002021A631A6B02F0E9
:1025100002020392039A04941A6B42F040021A6377
:102520001A6B02F040020492049A05941A6B42F06E
:1025300004021A631A6B02F004020592059A0694CB
:102540001A6B42F008021A631B6B03F00803069330
:1025500002250E26069B0B964FF4806307A9CDE952
:102560000735CDE9094504F05BFB41F658032C48DB
:102570000B9607A9CDE907350927CDE9094504F0F0
:102580004FFB032327480B9707A9CDE90735CDE972
:10259000094504F045FB4FF4706322480B9607A9E8
:1025A000CDE90735CDE9094504F03AFB4FF40C635A
:1025B0001D480B9607A9CDE90735CDE9094504F07B
:1025C0002FFBC02319480B9607A9CDE90735CDE9A4
:1025D000094504F025FB082315480B9607A9CDE90A
:1025E0000735CDE9094504F01BFB4FF4A0530E4815
:1025F0000B9707A9CDE90735CDE9094504F010FB94
:1026000058202246052104F0C1F9582004F0F0F9C1
:1026100019B0F0BD006801400038024000140240CB
:10262000000002400004024000180240000802407E
:10263000000C024010B5044688B01422002103A803
:1026400023F0FDFB2268144B9A4223D103F5684323
:10265000002101915A6C114842F480125A645A6C5C
:1026600002F480120192019A02911A6B42F0200248
:102670001A631B6B03F020030293029B4FF46072FA
:1026800002230321CDE903230523CDE9061303A982
:1026900004F0C6FA08B010BD00500140001402401A
:1026A00010B5044688B01422002103A823F0C7FB0C
:1026B0002268144B9A4223D103F5943300210191EF
:1026C0005A6C114842F010025A645A6C02F010021F
:1026D0000192019A02911A6B42F001021A631B6B7C
:1026E00003F001030293029B4FF4C0620223032113
:1026F000CDE903230723CDE9061303A904F090FADB
:1027000008B010BD00100140000002402DE9F0416A
:1027100086B0002303932B4B1C68002C4FD14FF045
:102720000108C3F80080284B00949A6B274842EABE
:1027300008029A639B6B03EA0803009302270326AF
:102740000C25009B01A94FF63F03CDE90137CDE9E8
:10275000046504F065FA1E48059501A9CDE90187D5
:10276000CDE9034604F05CFA48F2331319480595A5
:1027700001A9CDE90137CDE9034604F051FA4FF63E
:1027800083731548059501A9CDE90137CDE90346C5
:1027900004F046FA4CF203731048059501A9CDE9FF
:1027A0000137CDE9034604F03BFA60230C48059558
:1027B00001A9CDE90137CDE9034604F031FA06B0AD
:1027C000BDE8F081D82C00200038024000140240FF
:1027D000000802400018024000100240000C0240B5
:1027E0000004024070B588B000230293204B1A6C9D
:1027F00042F010021A641B6C03F0100302930546AA
:1028000001A903A8029B05F0EBFB069B4BBB05F05F
:10281000C7FB184E184B336040F2E733F360174B99
:10282000B0FBF3F3013B7360304600233361B360C8
:10283000B36106F013FA044680B9304606F0E4F8B6
:10284000044658B9362004F0D3F80F2D0DD822468F
:102850002946362004F09AF8094B1D60204608B03E
:1028600070BD05F09DFB4000D3E70124F6E700BFF3
:1028700000380240DC2C00200010004040420F00D5
:10288000800000207047FEE7FEE7FEE7FEE77047A6
:10289000014806F0F7B800BFDC2C0020014805F025
:1028A00027B800BF4C2B0020014804F0EBB800BF54
:1028B000482C00200120704708B523F063FB162345
:1028C00003604FF0FF3008BD08B523F05BFB162313
:1028D0000360FEE770B50D4614460E46731B9C421E
:1028E00001DC204670BDAFF3008006F8010BF5E770
:1028F00070B50D4614460E46731B9C4201DC204603
:1029000070BD16F8010BAFF30080F5E74FF0FF3014
:1029100070474FF400534B60002070470120704710
:10292000002070470A4A116808B5034609B90949E9
:1029300011601068694603448B4206D923F022FBDC
:102940000C2303604FF0FF3008BD1360FCE700BFAD
:10295000242D002030520120704710B50421044678
:1029600022F0C6F8204610BD012908B506D002297C
:1029700008D059B902F064F8006808BD02F060F8A8
:102980004068FAE702F05CF88068F6E70020F4E7B8
:1029900000487047088102081120704713B50024D1
:1029A00051B1036801948DF8034001AA9C680DF1B0
:1029B0000303A04702B010BD0846FBE7C08970477B
:1029C000008A7047C088704780887047807A00F01E
:1029D0007F007047807AC009704700207047000070
:1029E0009FED010A704700BF00000000704710B55E
:1029F0000821044622F07CF8204610BD704770473D
:102A000000F598730868496803C3704770477047BA
:102A10004160704770477047064BC0F84C31002347
:102A2000C0F8503100F5A273C0F84801C0F8403139
:102A3000704700BF113500080123037270477047CB
:102A40007047704710B4C26841685410034601EBE8
:102A50006200D20748BF0A599B685DF8044B48BF23
:102A6000D35818470346406830B19A681AB9D868F5
:102A700000F0010070470120704710B50C2104469A
:102A800022F036F8204610BD10B51021044622F081
:102A90002FF8204610BD10B54FF4AE71044622F059
:102AA00027F8204610BD10B54021044622F020F83A
:102AB000204610BD10B54021044622F019F82046EA
:102AC00010BD10B50FF078F80368BDE81040DB6B5F
:102AD00018470000054B1B7801462BB1406818B120
:102AE00003680C315B6E1847704700BFEB44012050
:102AF000054B1B7801462BB1406818B103680C31B7
:102B00005B6E1847704700BFEB440120037A70B535
:102B10000546BBB940680368DB69984704463CB981
:102B20006868036805F10C011B6EBDE8704018472A
:102B3000A1886B8FC91A236820461B6B09B298477E
:102B4000A469ECE770BD037A70B50546BBB940686F
:102B50000368DB69984704463CB96868036805F177
:102B60000C011B6EBDE870401847A1886B8FC91A15
:102B7000236820461B6B09B29847A469ECE770BD37
:102B800010B50446D0F8400158B10368DB68984797
:102B900038B1D4F8400103689B6898470023C4F813
:102BA000403110BD70B5044690F8390094F83830C3
:102BB0000130C0B2984284F8390005D9012323724C
:102BC000002384F8393070BDB4F93A20002111F0A7
:102BD000CBF9C30706D500284FF6FF73C8BF012302
:102BE000184400B2238AC01AA08760680368DB69B2
:102BF000984705462DB960680368BDE870405B6979
:102C00001847A988A38F19442B6828461B6B09B263
:102C10009847AD69EEE770B5044690F8390094F82E
:102C200038300130C0B2984284F8390005D9012308
:102C30002372002384F8393070BDB4F93A200021A2
:102C400011F092F9C30706D500284FF6FF73C8BFED
:102C50000123184400B2238AC01AA0876068036861
:102C6000DB69984705462DB960680368BDE8704088
:102C70005B691847A988A38F19442B6828461B6BEA
:102C800009B29847AD69EEE72DE9F0411D460368AA
:102C9000BDF918701B6B04461646984723683146E9
:102CA00020465B6B98472368294620469B6B9847D4
:102CB000236839462046DB6BBDE8F0411847000029
:102CC0002DE9F74FD0E9556A0746B06803681B6ADB
:102CD0009847B0F5907F05D2534B544AA3215448EE
:102CE00022F084FE706803681B6A98470F2803D897
:102CF000504B4E4AA421F2E7F06803681B6A9847DC
:102D00003F2803D84C4B494AA521E8E70EF054FF71
:102D1000DFF8349104300EF074FFD9F8000010B1E0
:102D20000368DB689847D9F8000010B103681B6896
:102D30009847DFF81881D8F8000010B103685B6984
:102D40009847D7F83C0110B103685B689847D8F8FA
:102D5000000010B103681B689847D7F83C0110B118
:102D600003689B689847F068036800215B6A98478E
:102D700005460022314B4260027245F80C3B044686
:102D800028460BF0E7FE142323872D4B1B780022E7
:102D9000A287002B35D101232372B068036800217C
:102DA0005B6A9847054602F011F8706803680021D5
:102DB0005B6A98472946064601F0E6FF331DC7F8CF
:102DC0003C61C9F80040C8F80050CAF800302B68D0
:102DD000C6F808A02846DB68EE639847336830469B
:102DE0001B6898472146284611F0B8F8236820460A
:102DF0001B69984723685B69204603B0BDE8F04F24
:102E00001847104BDFF848B0B3F900300093BBF916
:102E1000003011462846FFF737FF28460BF015FE15
:102E2000BBF800306387B8E714730208A273020886
:102E300087740208CE74020871750208288302089C
:102E4000EB440120E24401203445012030450120BB
:102E5000E04401202DE9F74FD0E9556A0746B068F4
:102E600003681B6A9847B0F5F67F05D2544B554A64
:102E7000A321554822F0BAFD706803681B6A984781
:102E80000F2803D8514B4F4AA421F2E7F06803689A
:102E90001B6A98473F2803D84D4B4A4AA521E8E7CB
:102EA0000EF08AFEDFF8389104300EF0AAFED9F851
:102EB000000010B10368DB689847D9F8000010B132
:102EC00003681B689847DFF81C81D8F8000010B130
:102ED00003685B699847D7F83C0110B103685B68E9
:102EE0009847D8F8000010B103681B689847D7F8D6
:102EF0003C0110B103689B689847F06803680021A3
:102F00005B6A984705460022324B4260027245F8E0
:102F10000C3B044628460BF01DFE142323872E4B42
:102F20001B780022A287002B35D101232372B068C1
:102F3000036800215B6A9847054601F095FF7068B9
:102F4000036800215B6A98472946064601F058FF4E
:102F5000331DC7F83C61C9F80040C8F80050CAF8F2
:102F600000302B68C6F808A02846DB68EE63984757
:102F7000336830461B6898472146284610F0EEFF1C
:102F8000236820461B69984723685B69204603B085
:102F9000BDE8F04F1847114BDFF84CB0B3F90030E3
:102FA0000093BBF9003011462846FFF76DFE284616
:102FB0000BF04BFDBBF800305B426387B7E700BF07
:102FC000147302081476020887740208CE7402088B
:102FD0007175020804830208EB440120E2440120D9
:102FE0003445012030450120E0440120044B1B689A
:102FF00093F858200AB1D86C00B99868704700BFA0
:10300000EC440120F8B5174604460E460EF096FE35
:10301000124B1C60124B2360124B0025C4E9513542
:10302000114BC4E953551868036801219B68C4E932
:103030004F55C4E955769847284601F0B5FCFFF78F
:10304000D5FF19F052FCFFF7D1FF19F0C9FCFFF7CB
:10305000CDFF19F0D1FC2046F8BD00BF404501204E
:103060008C82020874820208EC440120064BC0F8EE
:103070004C310023C0F8503100F5A273C0F848016C
:10308000C0F84031704700BF11350008064BC0F84A
:103090004C310023C0F8503100F5A273C0F848014C
:1030A000C0F84031704700BFC12C0008064BC0F883
:1030B0004C310023C0F8503100F5A273C0F848012C
:1030C000C0F84031704700BFC5330008064BC0F858
:1030D0004C310023C0F8503100F5A273C0F848010C
:1030E000C0F84031704700BF552E0008064BC0F8AD
:1030F0004C310023C0F8503100F5A273C0F84801EC
:10310000C0F84031704700BF7D320008064BC0F860
:103110004C310023C0F8503100F5A273C0F84801CB
:10312000C0F84031704700BF3531000803685B6A62
:10313000184700002DE9F14FD0E9556A0746B068FD
:1031400003681B6A9847B0F5CA7F05D2434B444ACF
:10315000A321444822F04AFC706803681B6A984720
:103160000F2803D8404B3E4AA421F2E7F0680368D9
:103170001B6A98470B2803D83C4B394AA521E8E73E
:103180000EF01AFDDFF8EC9004300EF03AFDD9F89D
:10319000000010B10368DB689847D9F8000010B14F
:1031A00003681B689847DFF8D080D8F8000010B19A
:1031B00003685B699847D7F83C0110B103685B6806
:1031C0009847D8F8000010B103681B689847D7F8F3
:1031D0003C0110B103689B689847F0680021FFF735
:1031E000A5FF4FF0000B224BC0F804B0044680F856
:1031F00008B00360B068036859465B6A98470546A3
:1032000001F084FD7068036859465B6A9847294657
:10321000064601F059FD331DC7F83C61C9F800406E
:10322000C8F80050CAF800302B68C6F808A0284635
:10323000DB68EE639847336830461B689847214641
:10324000284610F08BFE236820461B6998472368A8
:103250005B69204601B0BDE8F04F184714730208BF
:10326000FD76020887740208CE74020871750208A0
:10327000E082020834450120304501202DE9F14F5C
:10328000D0E9556A0746B06803681B6A9847B0F5ED
:10329000907F05D2434B444AA321444822F0A6FB29
:1032A000706803681B6A98470F2803D8404B3E4A52
:1032B000A421F2E7F06803681B6A98470B2803D83B
:1032C0003C4B394AA521E8E70EF076FCDFF8EC909C
:1032D00004300EF096FCD9F8000010B10368DB68EA
:1032E0009847D9F8000010B103681B689847DFF8C9
:1032F000D080D8F8000010B103685B699847D7F810
:103300003C0110B103685B689847D8F8000010B121
:1033100003681B689847D7F83C0110B103689B68A5
:103320009847F0680021FFF701FF4FF0000B224B98
:10333000C0F804B0044680F808B00360B0680368C1
:1033400059465B6A9847054602F0FEFD70680368BF
:1033500059465B6A98472946064602F0D3FD331D5D
:10336000C7F83C61C9F80040C8F80050CAF80030FE
:103370002B68C6F808A02846DB68EE6398473368D8
:1033800030461B6898472146284610F0E7FD236821
:1033900020461B69984723685B69204601B0BDE859
:1033A000F04F184714730208D77702088774020891
:1033B000CE74020871750208E082020834450120CB
:1033C000304501202DE9F14FD0E9556A0746B06834
:1033D00003681B6A984741F22353984205D8444B2F
:1033E000444AA321444822F001FB706803681B6A29
:1033F00098470F2803D8414B3E4AA421F2E7F068D2
:1034000003681B6A98470B2803D83D4B394AA5210E
:10341000E8E70EF0D1FBDFF8F09004300EF0F1FB9E
:10342000D9F8000010B10368DB689847D9F80000AC
:1034300010B103681B689847DFF8D080D8F8000007
:1034400010B103685B699847D7F83C0110B1036875
:103450005B689847D8F8000010B103681B6898476C
:10346000D7F83C0110B103689B689847F0680021C9
:10347000FFF75CFE4FF0000B224BC0F804B004468F
:1034800080F808B00360B068036859465B6A9847E3
:10349000054602F0BFF87068036859465B6A9847B2
:1034A0002946064601F0FAFC331DC7F83C61C9F80D
:1034B0000040C8F80050CAF800302B68C6F808A0D1
:1034C0002846DB68EE639847336830461B689847A8
:1034D0002146284610F042FD236820461B69984784
:1034E00023685B69204601B0BDE8F04F184700BF74
:1034F00014730208AF78020887740208CE740208B9
:1035000071750208E082020834450120304501202F
:103510002DE9F14FD0E9556A0746B06803681B6A88
:103520009847B0F5907F05D2434B444AA3214448C5
:1035300022F05CFA706803681B6A98470F2803D86A
:10354000404B3E4AA421F2E7F06803681B6A9847A3
:103550000B2803D83C4B394AA521E8E70EF02CFB99
:10356000DFF8EC9004300EF04CFBD9F8000010B1FD
:103570000368DB689847D9F8000010B103681B683E
:103580009847DFF8D080D8F8000010B103685B6975
:103590009847D7F83C0110B103685B689847D8F8A2
:1035A000000010B103681B689847D7F83C0110B1C0
:1035B00003689B689847F0680021FFF7B7FD4FF05C
:1035C000000B224BC0F804B0044680F808B003603A
:1035D000B068036859465B6A9847054601F0F6FBF8
:1035E0007068036859465B6A98472946064601F0A9
:1035F000CBFB331DC7F83C61C9F80040C8F8005048
:10360000CAF800302B68C6F808A02846DB68EE63CD
:103610009847336830461B6898472146284610F083
:103620009DFC236820461B69984723685B692046F8
:1036300001B0BDE8F04F1847147302088179020801
:1036400087740208CE74020871750208E0820208CD
:103650003445012030450120406A7047806A704738
:1036600070478A880B8810B5D20A4C88C1699BB212
:1036700051F8220043EA0443184410BD10B5044633
:10368000BAB1107B68B1537BD27A1B0203F4E063BA
:103690001A43236A03EB82031A888A4202D193F900
:1036A000020010BD05D8013880B204330028F3D1E0
:1036B000F7E70020F5E710B52C21044621F018FAB1
:1036C000204610BD30B58BB00446BDF8605008955B
:1036D000BDF85C5007959DF8505006959DF84C50EC
:1036E00005959DF8485004959DF8445003959DF824
:1036F000405002959DF83C500195BDF8385000951A
:1037000010F064F8064B2360159BE361169B23625F
:10371000199B63621A9BA36220460BB030BD00BFA9
:103720004C830208806A7047704770477047704743
:10373000704730B5036885B06D460181D3F8843099
:10374000014604462846984795E807003C3484E83B
:10375000070005B030BD30B5036885B06D464181C6
:10376000D3F88430014604462846984795E8070078
:103770003C3484E8070005B030BD0022028042805E
:103780008280C280704780F83610704770B5036839
:1037900004461B6B154698472368294620465B6EF6
:1037A000BDE87040184700207047806C7047704734
:1037B000704770477047704790F82C304BB100F15C
:1037C0006C021268C2653BB100F174031B680366AA
:1037D000704700F16802F4E700F17003F6E730B4D7
:1037E000C26844685510034604EB6200D20748BF24
:1037F00062599B6830BC48BFD3581847034640689D
:1038000030B19A681AB9D86800F0010070470120F9
:10381000704790F82D3080F85A30704710B54C2121
:10382000044621F065F9204610BD10B57821044604
:1038300021F05EF9204610BD10B51021044621F09C
:1038400057F9204610BD10B54FF4B671044621F06B
:103850004FF9204610BD08B5FEF738F808BD10B581
:103860000446006B50B10368DB68984730B1206BA9
:10387000036821469B68BDE81040184710BD0B79CE
:1038800070B590F82C6004460D460BB916B170BDAA
:10389000002EFCD0B3FA83F35B0984F82C30236844
:1038A0002046D3F88C309847236820465B699847B8
:1038B000002EECD02B79012BE9D123682046D3F8D8
:1038C0008830BDE870401847036870B55E6B124BD6
:1038D0001B6804468DB22BB9104B114A6C2111485C
:1038E00022F084F81049828D0988914203D80F4B49
:1038F0000B4A6D21F3E713F812200D4B1B6853F8A8
:10390000220003681B6B9847291A3346204609B2E8
:10391000BDE87040184700BF44450120537A0208B3
:10392000957A0208D07A020848450120177B0208E0
:103930004C4501206C30884208B505D10EF03CF9A9
:10394000BDE80840FFF792BB08BD00224FF0FF31F1
:10395000C0E900218260704770B5036804461B6BA4
:10396000154698472368294620465B6BBDE87040A2
:10397000184700000022C0E90122C0E90322C0E983
:103980000522C0E907224FF480728284014A026056
:10399000704700BFB483020810B5262204460021F8
:1039A00022F04DFA2046FFF7E5FF044B2360FF238A
:1039B00084F826300023A362204610BD9C8D0208A7
:1039C0002DE9F04F044689B0A046002510F01AF901
:1039D0007D4BE56348F8403B4046FFF7DDFF4FF481
:1039E0007F43A4F8983040F2011304F1A00BA4F82F
:1039F0009030764BC4F89450C4E91C55C4E91E5568
:103A0000C4E92055C4E92255C4F89C50E3665846E1
:103A1000FFF7C2FF6E4BC4F8A03004F16C0A2A46CF
:103A2000C4E93555C4E93755C4F8CC50A4F8D05092
:103A30002946584604F1E407FFF78EFF59465046E1
:103A400007F00CFC4FF6FF79262229463846ADF8E0
:103A5000189022F0F4F93846FFF78CFF5D4BC4F85C
:103A6000E430BDF81830A4F80A3104F5887684F8FB
:103A70000C9106A938460BF088FC294626223046D0
:103A800022F0DDF93046FFF775FF534BC4F83831AB
:103A90004FF47F03C4F84431504BC4F810314FF059
:103AA000FF33C4E954354E4BA4F83C91C4E9573474
:103AB0004C4BC4F84051C4E959354FF4A073A4F8F5
:103AC0004851C4F84C51C4F858512A46009329462D
:103AD0004046F023FFF7D8F804F104094FF07F4384
:103AE000A366414648464FF03C0807F0B7FB2A461C
:103AF00029465846CDF800808223FFF7C5F80523F4
:103B0000A4F8D030384BC4F8D43003F54C533333D9
:103B1000C4F8D830A3F5CC43663BC4F8DC3003F1DD
:103B2000331303F54C53C4F8E0305046FFF744FE1E
:103B300004F5AE73C4F89C30E32282235046CDF8DE
:103B400000803021FFF7A0F85146484607F086FB79
:103B50002A4629463846FFF7FFFE0F2306A93846B6
:103B6000ADF818300BF011FC3946484607F076FBEB
:103B700014230093A022304643235021FFF784F8FA
:103B80001A4BC4F84031D4F81031A4F8445102ADB6
:103B900031462846D3F88430984795E8070004F565
:103BA000A67383E807000C4B069306A90123304651
:103BB000ADF81C300BF0F8F84846314607F04EFBE4
:103BC000204609B0BDE8F08F60850208AC84020889
:103BD000788E0208588F0208648202081C8402084A
:103BE0004885020835390008996600FFFAFAFAFF9D
:103BF00070477047704730B4C26844685510034638
:103C000004EB6200D20748BF62599B6830BC48BFD2
:103C1000D35818470346406830B19A681AB9D86833
:103C200000F0010070470120704710B510210446D4
:103C300020F05EFF204610BD10B54FF49071044691
:103C400020F056FF204610BD9830884208B505D1B7
:103C50000DF0B2FFBDE80840FFF738BA08BD00001C
:103C6000074A02600022C0E90122C0E90322C0E93C
:103C70000522C0E907224FF480728284704700BF9A
:103C8000289002082DE9FF470446A04600250FF0C2
:103C9000B9FF584BE56348F8403B04F16C074046D8
:103CA000FFF77AFE4FF6FF76262229463846ADF812
:103CB0000C6022F0C4F83846FFF7D2FF4E4BE366A3
:103CC000BDF80C30A4F8923003A984F8946038460B
:103CD00004F198060BF059FB3046FFF7C1FF4FF493
:103CE0007F43A4F8C430012304F1CC0984F8BC302C
:103CF000424BC4F89830C4F8C050C4F8C850484685
:103D0000FFF74AFE3E4BC4F8CC302A4629464846C7
:103D1000C4E94055C4E94255C4F8F850A4F8FC5031
:103D2000FFF71AFE4946304607F098FA354BC4E9CA
:103D30004434354BC4E946354FF4A0732A4600930A
:103D400029464046F023FEF79FFF04F1040A4FF096
:103D50007F43A3664146504607F080FA2A4629462B
:103D60003846FFF7F9FD022303A93846ADF80C30B9
:103D70000BF00BFB39465046472707F06FFA2A46EF
:103D8000294648460097A023FEF77EFF0523A4F8A6
:103D9000FC301E4BC4F8003103F54C533333C4F8E8
:103DA0000431A3F5CC43663BC4F8083103F1331367
:103DB00003F54C53D4F89880C4F80C313046FFF723
:103DC000FBFC84F8C550D8F890303046984704F58D
:103DD0008873C4F8C830A0231A46304600972821BB
:103DE000FEF752FF5046314607F038FA204604B03D
:103DF000BDE8F087AC850208588F0208AC84020841
:103E0000788E020894850208493C0008996600FFF4
:103E1000704770477047704770477047704730B4BD
:103E2000C26844685510034604EB6200D20748BFDD
:103E300062599B6830BC48BFD35818470346406856
:103E400030B19A681AB9D86800F0010070470120B3
:103E5000704730B4C26844685510034604EB6200F2
:103E6000D20748BF62599B6830BC48BFD358184737
:103E70000346406830B19A681AB9D86800F001006A
:103E800070470120704710B57C21044620F030FEB9
:103E9000204610BD10B51021044620F029FE204612
:103EA00010BD10B51021044620F022FE204610BDA2
:103EB00010B54FF4F671044620F01AFE204610BDEE
:103EC00070B504460D46FFF7DAFCA06F58B10368E1
:103ED000DB68984738B1A06F03682A4621469B6883
:103EE000BDE87040184770BD38B500F1E80399424D
:103EF00004460D4606D10368DB6A98470DF05CFE68
:103F0000FFF7D4F804F16C039D4209D123682046E1
:103F10001B6B98470DF050FEBDE83840FFF7C6B860
:103F200038BD00F5C870884208B505D10DF044FED3
:103F3000BDE80840FFF79AB808BD000070B5044618
:103F4000FFF78EFE4FF47F432646A385012300250D
:103F500084F824300D4BA562256346F8343B304687
:103F6000FFF71AFD0A4B63632A4629463046C4E927
:103F70001A55C4E91C552566A4F86450FFF7ECFCFB
:103F80002046314607F06AF9204670BDAC8402082D
:103F9000788E02082DE9F04F044689B0A14600252D
:103FA0000FF030FE724BE56349F8403B04F16C0AB8
:103FB0004846FFF7F1FC04F1E8086E4E4FF00107A8
:103FC0005046FFF7BBFFE66684F89070C4F8E450F3
:103FD0004046FFF7B3FFC4F8E86004F5B276262246
:103FE000294684F80C71C4F860514FF6FF773046CB
:103FF000ADF81C7021F023FF3046FFF731FE5E4B19
:10400000C4F86431BDF81C30A4F88A3104F5C87BCB
:1040100007A984F88C7130460BF0B7F958460BF0BD
:104020008DF9564BC4E97334554BC4E97535554B7E
:10403000C4E97734544BC4E979354FF4A0732A4668
:10404000009329464846F023FEF71EFE271D4FF039
:104050007F43A366494638464FF0550907F0FEF8FE
:104060002A46294604F1A000CDF80090C623FEF7A9
:104070000BFE4FF00503454A4549A4F8D0304548AA
:10408000454BC4E93710C4E935325046FFF794FB7D
:1040900004F5E67EC4F89CE0C623D2225046CDF853
:1040A00000901521CDF80CE0FEF7EEFD51463846A4
:1040B00007F0D4F82A46294604F58E70CDF8009012
:1040C000C623FEF7E1FD344B304A314931484FF009
:1040D000050CA4F84CC1C4E95432C4E9561040465A
:1040E000FFF76AFB039BC4F818315E22C6234046E3
:1040F000CDF800901521FEF7C7FD4146384607F080
:10410000ADF82A4629463046FFF726FC4FF001035A
:1041100007A93046ADF81C300BF037F93146384668
:1041200007F09CF82A4629465846FFF715FC0A2353
:10413000ADF81030ADF814300923ADF81830ADF8F3
:104140001C3007AB009305AA06AB04A958460BF038
:104150005FF86123C4F8C83104F5EE733846C4F83B
:10416000B831594607F07AF8204609B0BDE8F08F1B
:10417000AC860208E0850208588F02087C86020897
:10418000E93E000894860208233F0008CC9900FF0E
:10419000663300FF996633FF996600FF70477047EA
:1041A0007047704770477047704730B4C2684468C2
:1041B0005510034604EB6200D20748BF62599B6862
:1041C00030BC48BFD35818470346406830B19A689E
:1041D0001AB9D86800F0010070470120704710B587
:1041E0001021044620F084FC204610BD10B54FF489
:1041F0006471044620F07CFC204610BD00F1980359
:10420000994270B504460D4603D10DF0D5FCFEF77A
:104210003DFF04F5D6739D4203D123682046DB6A37
:10422000984704F588739D4203D1236820461B6B91
:10423000984704F1D4039D4203D1236820465B6B69
:10424000984704F5B8739D4205D1236820469B6BBF
:10425000BDE87040184770BD38B5262204460D46AB
:10426000002121F0ECFD2046FFF784FB064B236084
:104270002B88E384FF23204684F8283029460BF05E
:1042800084F8204638BD00BF588F02082DE9F04F52
:104290002DED028B044695B0A14600250FF0B2FC2F
:1042A000DA4BE56349F8403B4FF0260B5A46294666
:1042B000484621F0C4FD4846FFF75CFBD44B23641D
:1042C00004F16C0AFF234FF6FF7612A984F86630DA
:1042D000A5665046ADF84860FFF7BEFF04F19803AD
:1042E000184604930BF02AF804F1D40318460593FA
:1042F0000BF024F804F588735A46294618460393B0
:1043000021F09DFD03989FEDC38AFFF733FB012346
:1043100084F83431C04BC4F8103104F5A27312A9EB
:10432000C4F8385184F83C51A4F83E61A4F84061C7
:1043300084F8426118460693ADF84860FFF78CFF99
:1043400004F5B873184607930AF0F8FF04F5D6731E
:1043500004F5F478184604F51E7708930AF0EEFF8A
:1043600012A94046ADF8486009F0CEFE12A93846C1
:10437000ADF8486009F0C8FE04F5427312A918466A
:104380000993ADF84860FFF767FF04F54D735A468F
:1043900029461846029321F052FD0298FFF7EAFAE7
:1043A0009E4BC4F85C334FF47F03C4F868339C4BD6
:1043B000C4F834334FF0FF33C4E9DD35994BA4F82A
:1043C0006063C4E9E034984BC4F86453C4E9E2354F
:1043D0004FF4A073A4F86C53C4F87053C4F87C5322
:1043E0002A46009329464846F023261DFEF74CFC3A
:1043F0004FF07F43A3664946304606F02FFF2A461A
:1044000029465046FFF7A8FA12A95046ADF8485081
:104410000AF0BBFF5146304606F020FF04982A46BA
:104420002946FFF799FA12AA0A23009211AA4FF01F
:10443000090904F5607A4FF0610B0498ADF83C303F
:10444000ADF840300FA9134610AAADF84490ADF86E
:1044500048900AF0DDFE0499C4F8C0A03046C4F8C4
:10446000D0B006F0FBFE059840F20712BE21FFF720
:1044700073FA12AA0C23009211AA0598ADF83C30E9
:10448000ADF840300FA9134610AAADF84490ADF82E
:1044900048900AF0BDFE0599C4F8FCA03046C4F867
:1044A0000CB106F0DBFE039840F207128C21FFF7F7
:1044B00053FA0B2312AA0398ADF8443011A9ADF8B2
:1044C00048300AF0CFFC0399C4F838A1304606F012
:1044D000C5FE40F2171206983F21FFF73DFA05236B
:1044E0000698ADF8483012A90AF04FFF06993046F9
:1044F00006F0B4FE0798D522BE21FFF72DFA12AAC6
:104500000D23009211AA0798ADF83C30ADF8403069
:104510000FA9134610AAADF84490ADF848900AF0E0
:1045200077FE0799C4F898A13046C4F8A8B106F000
:1045300095FE089840F207120321FFF70DFA12AA20
:104540000E23009211AA0898ADF83C30ADF8403027
:104550000FA9134610AAADF84490ADF848900AF0A0
:1045600057FE5F23C4F8E4310899C4F8D4A130465B
:1045700006F074FE882240466FF01D01FFF7ECF94B
:1045800012A903234046ADF8483009F05FFF274BDE
:10459000C4F8F031264BC4F81432404684ED868AC4
:1045A00009F0FEFDDFF88C90DFF88CA0B7EE000A72
:1045B000404609F05CFF4046C4F8409209F0F0FD27
:1045C0004046C4F82CA2C4F830A2C4F8349209F0D2
:1045D000E7FD4046C4F838A2C4F83CA209F0E0FD6B
:1045E000B0EE481AF0EE480AB0EE480A404609F02C
:1045F00036FF84F811524146304606F02FFED42291
:1046000038462E21FFF7A8F918E000BF00870208FE
:104610009C8D020800000000048E020864820208DB
:104620001C840208E8860208FD41000830013001C0
:104630000000164300007A440000184312A9082322
:104640003846ADF8483009F001FF4FF09813C4F830
:104650008032394BC4F8A432384BC4F8A8323846FB
:1046600009F09EFDB7EE000A384609F000FFDFF8BA
:10467000D880C4F8D092384609F092FD3846C4F884
:10468000BC82C4F8C082C4F8C49209F089FD3846DF
:10469000C4F8C882C4F8CC8209F082FDB0EE481A92
:1046A000F0EE480AB0EE480A384609F0D8FE84F821
:1046B000A1523946304606F0D1FD4FF48A7209986E
:1046C0006E21FFF749F906230998ADF8483012A981
:1046D0000AF05BFE0999304606F0C0FD14232A4615
:1046E00002980093AD214323FEF7CEFA144BC4F891
:1046F0006433D4F83433A4F868530AAD0299D3F87C
:1047000084302846984795E8070004F55C7383E8F1
:1047100007000C4B0298129312A90223ADF84C30FB
:104720000AF042FB3046029906F098FD204615B08B
:10473000BDEC028BBDE8F08F000050420000E0416C
:10474000FAFAFAFF648202080000984270470000FB
:1047500030B5164D2C6814F001048FB0BFF35B8F99
:1047600020D1284620F0C6F9E0B13F230993104B31
:104770000893104B104911480A940122CDE90643D1
:104780000423CDE903320A230093CDE90B44CDE99C
:1047900001440594FEF796FF094821F045F92846A3
:1047A00020F0B4F905480FB030BD00BF282D00201F
:1047B000DCCC0208BCCE0208C4C602082C2D0020A6
:1047C0004D4700087047000030B5174D2C6814F0B5
:1047D00001048FB0BFF35B8F22D1284620F08AF905
:1047E000F0B13F230993114B0893114B0793012319
:1047F000CDE9053304930423CDE9024314230D4985
:1048000000935F221823CDE90B440B480A940194CE
:10481000FEF758FF094821F007F9284620F076F9FD
:1048200005480FB030BD00BF582D0020E0CC020875
:10483000C0CE0208D4C602085C2D0020C54700087F
:104840007047000030B5174D2C6814F001048FB08C
:10485000BFF35B8F22D1284620F04CF9F0B13F2303
:104860000993114B0893114B114912480A94CDE951
:10487000064301220423CDE90332282300930F22AB
:104880002923CDE90B44CDE901440594FEF71AFF35
:10489000094821F0C9F8284620F038F905480FB03A
:1048A00030BD00BF882D002084CE0208C4CE02088F
:1048B00008CC02088C2D00204148000800207047D9
:1048C000002070470EB403B503AB002153F8042B4E
:1048D00001930EF0F9F902B05DF804EB03B07047F4
:1048E0000CB407B504AB53F8042B01930EF0ECF9AC
:1048F00003B05DF804EB02B070470000436C10B5E4
:10490000044673B3038F2BB9184B194AC5211948B4
:1049100021F06CF8C38E00EB43035B8C0BB310F0FB
:1049200090F8238F012B03D8134B144ACB21EEE7C9
:10493000E28E531C9BB2092B194688BFA3F10A01D2
:1049400004EB410140F63F10498C814209D10A2B0A
:1049500004EB420228BF002304EB4303508C58842D
:1049600051842046BDE810400FF06EBF557B020811
:104970005E7B0208097C0208537C0208617C020805
:104980000FF029BF10B586B002AC84E806001A46C5
:104990000AAB05930193099B00932146089B0CF0F9
:1049A0008DFC06B010BD000038B518BB124B134883
:1049B0001C681349B4B12268224402606268224430
:1049C0000A60A26814440F4B00221A8000F038F8E5
:1049D000054600F033F80C4B1C600C4B1D600C4B73
:1049E000188007E00B4B03600B4B0B600B4B1C68F4
:1049F000002CE8D138BD00BFC42D0020BC2D002004
:104A0000B82D0020C02D0020444501204C45012038
:104A100048450120DCCE0208C8CE020818CF0208A3
:104A2000044B1B6853F82100034B1B6803EB400049
:104A3000704700BFB82D0020BC2D00200520704716
:104A400000487047C82D002010B5FFF7BDFE044C8C
:104A50002060FFF7F7FE6060FFF77AFEA06010BDF0
:104A6000C82D002010B5002404600C6014601C6088
:104A700010BD704770477047704730B4C2684468D3
:104A80005510034604EB6200D20748BF62599B6889
:104A900030BC48BFD35818470346406830B19A68C5
:104AA0001AB9D86800F0010070470120704710B5AE
:104AB0001021044620F01CF8204610BD10B54FF41C
:104AC0009071044620F014F8204610BD00F16C02ED
:104AD0008A4208B508D10368DB6A98470DF06CF884
:104AE000BDE80840FEF7E2BA08BD00002DE9FF4727
:104AF0000446A04600250FF085F8564BE56348F8BC
:104B0000403B04F16C074046FEF746FF3846FFF78E
:104B1000A7F84FF47F43A4F89830012304F1A009CB
:104B200084F890304C4BE366C4F89450C4F89C5021
:104B30004846FEF731FF494BC4F8A0302A462946C3
:104B40004846C4E93555C4E93755C4F8CC50A4F8F3
:104B5000D05004F1E406FEF7FFFE4946384606F061
:104B60007DFB4FF6FF7A262229463046ADF80CA091
:104B700021F065F93046FFF773F8394BC4F8E4309B
:104B8000BDF80C30A4F80A3184F80CA103A9304612
:104B90000AF0FBFB334BC4E94434334BC4E94635DC
:104BA0004FF4A0732A46009329464046F023FEF7AF
:104BB0006BF804F1040A4FF07F43A3664146504668
:104BC0004FF0320806F04AFB2A4629464846CDF8FF
:104BD00000803A23FEF758F80523A4F8D030234B81
:104BE000C4F8D43003F54C533333C4F8D830A3F5AC
:104BF000CC43663BC4F8DC3003F1331303F54C536C
:104C0000C4F8E0303846FEF7D7FD04F58873C4F8E1
:104C10009C30E0223A233846CDF800805721FEF739
:104C200033F83946504606F019FB2A4629463046E5
:104C3000FEF792FE102303A93046ADF80C300AF0BF
:104C4000A4FB5046314606F009FB204604B0BDE8FF
:104C5000F08700BF5C870208AC840208788E0208E7
:104C6000588F020844870208CD4A0008996600FF61
:104C7000704710B54FF4AE7104461FF039FF20465F
:104C800010BD10B50446D0F8580100F06EF820466B
:104C9000BDE810400DF012B810B50446FEF7B2F9A9
:104CA000014B2360204610BD9487020870470438EA
:104CB0007047704710B5102104461FF019FF2046B9
:104CC00010BDA0F10400F5E700228260024A0260F4
:104CD00018324260C1607047E887020870470000E0
:104CE00010B5034B03600446FEF764FD204610BD7B
:104CF0001088020810B50446FFF7F2FF20464FF473
:104D0000CA711FF0F5FE204610BD000010B5044624
:104D1000FEF756FE014B2360204610BD10880208A6
:104D200038B5044600F5B6750B462846054A1421E9
:104D300010F086FDC4F8585104F58870BDE838407D
:104D40000EF0ECB8337D020810B50446FEF733FDD3
:104D5000034B20461968BDE81040FFF7E1BF00BFD4
:104D6000D42D00200022026070477047704704383D
:104D70007047704710B5102104461FF0B9FE204659
:104D800010BDA0F10400F5E700228260024A026033
:104D900018324260C16070474488020870470000C2
:104DA00010B5034B03600446FEF723FF204610BDF9
:104DB0006C88020810B50446FFF7F2FF20464FF456
:104DC00090711FF095FE204610BD000010B50446FE
:104DD000FEF758FF014B2360204610BD6C88020887
:104DE000FEF708BF704704387047704710B51021B0
:104DF00004461FF07DFE204610BDA0F10400F5E73B
:104E000000228260024A026018324260C16070472C
:104E1000A088020870470000034B00221A60034B71
:104E20000A221A60704700BFE42D0020E02D002008
:104E3000014B01221A607047E42D002010B5034B8E
:104E400003600446FEF7E9FF204610BDC88802084B
:104E500010B50446FFF7F2FF20464FF4F6711FF03D
:104E600047FE204610BD000010B50446FFF792F83B
:104E7000014B2360204610BDC8880208FEF7CEBF54
:104E8000704704387047704710B5102104461FF072
:104E90002FFE204610BDA0F10400F5E7002282603D
:104EA000024A026018324260C160704704890208F9
:104EB00070470123C0F8943370470123C0F898333A
:104EC0007047000010B5D0F8A4332DED048B0446D4
:104ED000A3BBD0EDE47A9FED2B7A9FED2B6ADFED3B
:104EE0002B6AF4EEC77AF1EE10FAB0EE088A3AD5E2
:104EF00037EE677A27EE067A87EE269AB0EE490AF1
:104F00001FF082FE60EE088AB0EE490A1FF038FEFC
:104F1000B4F90C33C4EDEA8A07EE903AB4F90E33D3
:104F2000F8EEE77A20EE088AC4EDEC7A07EE903AC4
:104F3000F8EEE77A84EDEB8AC4EDED7A0122C4F84D
:104F4000A4234FF40051124801F054FFC82001F08F
:104F5000E1FABDEC048B0E48BDE8104000224FF48E
:104F6000005101F047BF77EEC77A67EE867A87EE89
:104F7000A69AB0EE490A1FF047FEF8EE087A60EEF6
:104F8000278AC1E70000B443C3F54840000034431A
:104F90000008024038B5094B0360044641F2C4459D
:104FA000B5F5657F05D0635960191B6898472C3D9E
:104FB000F6E72046FFF7F7F8204638BD30890208AB
:104FC00010B50446FFF7E6FF204641F224511FF0DA
:104FD0008FFD204610BD0268D0ED0E0AD26FB0EEF4
:104FE000401A90ED0D0A1047054B06491A6843F226
:104FF000390001FB0200186000F003000130704727
:10500000140000206D4EC6412DE9F0471A4E1B4B8F
:10501000306800221F46904203F10C0324DC184B39
:105020001C684FF00C08002CC4F101024FF0000581
:1050300014BF4FF009094FF00A091A6008FB04F485
:10504000AA46FFF7D1FF336801355A1C08FB03F36A
:105050003260A94507EB0302FC50C2E901A004F14C
:105060001804EED1BDE8F08753F8081C183143F856
:10507000081C0132CFE700BFCC320020D432002020
:10508000D032002082B084B00DF1100C042A0CE95B
:105090000700059309DC079A042A06DC02469A42B7
:1050A0000846069903D1884205D1002009E0D21AAA
:1050B0001832302AF9D8401A183030288CBF002016
:1050C000012004B002B070472DE9F04FADF2E44D7D
:1050D00005AB83E807000CAA6424174600210120D1
:1050E000013CC2E90011906002F10C02F8D193E892
:1050F0000700274BDFF8A4B01B68049387E807007C
:1051000009AE4FF00C0A0AFB047393E8070086E827
:105110000700DFF88C901F4D0392013C4FF0000810
:10512000049B434505DC002CEDDA0DF2E44DBDE8AF
:10513000F08F039BB360174B0AFB08320AAB93E86E
:1051400003008DE8030007CA3368FFF79BFFC0B177
:10515000AB68039A934214D1D9F800308BB9DBF8CD
:1051600000305A1CCBF800200B4A42F8238095E807
:10517000070001231C44C9F800300AFB047383E8CC
:10518000070008F1010809F104090C35C8E700BF60
:10519000CC320020D43200203C31002038310020B5
:1051A000E82D00202DE9F04FADF2DC4D03AB83E894
:1051B00007000AAA6424164600210120013CC2E926
:1051C0000011906002F10C02F8D193E807001F4B28
:1051D000DFF87CB01B68029386E8070007AD4FF04C
:1051E0000C0A0AFB046393E8070085E80700DFF870
:1051F0006490013C4FF00008029B434505DC002C05
:10520000EFDA0DF2DC4DBDE8F08F0AFB08F30BEB93
:105210000307D7E901018DE8030095E807005BF873
:105220000330FFF72FFF60B1D9F800304BB997E892
:10523000070002230134C9F800300AFB046383E845
:10524000070008F1010809F10409D5E7CC32002074
:10525000D4320020A82F00202DE9F04F3E4B3F4FC5
:10526000D3F800A08FB0044600254FF00C0B00F1DE
:105270000408AA451CDC6368002B68DC002363601B
:10528000374B226819680C23C1F1010159431820DA
:10529000531A93FBF0F34343581818330B44151A71
:1052A000D21A52436D43AA42B8BF184620604EE05E
:1052B00098E803008DE803000BFB05F907EB0906EE
:1052C00096E807002368FFF7DDFE002842D057F874
:1052D00009107068A1F10C0501F10C0201F118062A
:1052E00003951839079565680292CDE90512CDE955
:1052F0000A0000F118011838CDE90811CDE90C00B9
:10530000691A9A1A4943049602FB02120DF1080E1B
:105310000DF1200C012700265CF8040F5EF8041F35
:10532000281A591A404301FB01019142B8BF3E4679
:1053300007F10107B8BF0A46062FEDD10EAB03EB0C
:10534000860353F8302C53F8183C226063600FB08A
:10535000BDE8F08F01358CE7CC320020D43200203C
:10536000D03200202DE9F04FADF2B44D8046FFF76A
:1053700073FF6B4664259E4600220121013DC3E96F
:105380000022996003F10C03F8D1594E594CD6F81C
:1053900000A027462B46A1464FF00C0BAA4503F16F
:1053A000010C5CDC00254FF00C0AAB4266DC524D70
:1053B000524FC6F800C001222A60514A136098E893
:1053C00007004FF00C0E0EFB039E8EE807004D49C0
:1053D0004FF0000AC7F800A052460846D64662457C
:1053E00056DB012240F8232098E80700FFF76CFE07
:1053F0002A68022A2FDD444DD6F800E00023294612
:10540000AB4618469E4547DC3D4900234FF0010C52
:1054100051F8040B01339A424BF820C0F8D1002018
:105420003B68DFF8E480DFF8CCC0DFF8E0A002469C
:10543000964535DC00B13B60DFF8D0A04FF00008A6
:105440003A6842454FF00C0338DC316800230620EF
:10545000052699423FDC0DF2B44DBDE8F08FBA68E5
:10546000042ADEBF97E807000BFB03E383E807008D
:1054700005F10105D8BF63460C378FE70AFB05F23B
:1054800009EB0207724407CA013587E807008CE779
:1054900041F804EB0132A2E741F8040B0133B1E714
:1054A00058F8041B31B9DCF8041019B94AF8232064
:1054B0000120013301320CF10C0CB9E75AF8042B2E
:1054C00002214BF8221003FB029207CAFFF76AFE83
:1054D00008F10108B4E755F8042B22B1012A04D0E1
:1054E00001330C34B5E7A060FAE7A660F8E700BF27
:1054F000CC320020D432002038310020782F002018
:105500003C310020E82D0020A82F00207C2F002017
:10551000094B1968094B0022914201DC00207047B9
:105520009868042802DC5868DF2802DC01320C335A
:10553000F2E70120704700BFCC320020D4320020B7
:105540002DE9F04186B003AC0E4B0F4E1F6884E886
:10555000070000254FF00C08AF4203DC002006B026
:10556000BDE8F08108FB05F3F218D2E901018DE8EE
:10557000030094E80700F358FFF784FD0128EED0FC
:105580000135E9E7CC320020D4320020023902296B
:105590009ABF024B585C0620704700BF248902085E
:1055A00073B5D0E9E731C0E9E713044600F5427668
:1055B000FFF7ECFF01A9ADF80400304609F0E5FE65
:1055C000D4F8A0132046FFF7E1FF04F5A275ADF86B
:1055D000040001A9284609F0D8FE30460DF09EFCD3
:1055E000284602B0BDE870400DF098BC10B5074BDE
:1055F000074A196800231846994200DC10BD9468D8
:10560000042CD8BF013001330C32F5E7CC32002036
:10561000D43200202DE9F74306460025FEF736FE7A
:10562000214B3360C6E9E555204BC6F8903306F5AB
:10563000A7570023DFF87890C6F8A453C6F8A8331C
:10564000C6F8AC3306F5707410374FF6FF780123B7
:10565000A580E58025816581A581E581258265821A
:10566000E5612584658484F8245084F82530C4F8E5
:105670000090A4F8268084F82880C4E905552046C7
:1056800001A92C34ADF8048009F07FFEBC42DED1C4
:1056900006F580533046C3F8F054C3F8F454C3F809
:1056A000F85403B0BDE8F08330890208000091434C
:1056B000588F020810B50A4B0A4A19680023184689
:1056C000994206DC0228B8BF02200A230238584358
:1056D00010BD9468042CC8BF013001330C32EFE7D1
:1056E000CC320020D43200202DE9F043ADF2B44D8D
:1056F0006A466423174600210120013BC2E90011DC
:10570000906002F10C02F8D1DFF85CC0154CDCF8B7
:1057100000801D46A6464FF00C0998450ADCCCF8DF
:10572000005000244FF00C0CA54210DC0DF2B44DDB
:10573000BDE8F083A268042ADFBF94E8070009FBF4
:10574000057686E80700013501330C34E5E70CFBEC
:1057500004F30EEB03063B4493E80700013486E8AC
:105760000700E1E7D4320020CC32002038B500F544
:10577000A75504461C350B462846064A142110F04E
:105780005FF8C4F87C5304F54D70BDE838400DF067
:10579000C5BB00BF337D0208054B642200210120F8
:1057A000013AC3E90011986003F10C03F8D1704786
:1057B000D43200202DE9F74F044600F5707500261D
:1057C00000F5805A071DDAF8F034B3420FDC0023ED
:1057D000264EDFF89C8025461F469946CAF8F034CD
:1057E000D8F80030BB420DDC03B0BDE8F08F2B6869
:1057F00028465B6998472946384605F070FD013612
:105800002C35E0E7B168D5F8C0330429C8BF85F866
:10581000E59320461A6EFFF7B9FE05F5707BADF8EB
:10582000040001A9584690477268B6F900101E326C
:1058300012B25846FEF790F8DAF8F0142C235943C8
:105840006318D3F8D4332BB901F570712144201DAE
:1058500005F004FDD5F8C03358465B699847DAF87F
:10586000F034013701332C350C36B7E7D432002041
:10587000CC320020000000002DE9F04FCC4D2B88E9
:105880002DED028BA3F57A739BB2B3F5167F85B02D
:1058900004462DD2D0EDE47A9FEDC67AF4EEC77AB5
:1058A000F1EE10FA0CDD17EE900AFAF75DFEBCA3DC
:1058B000D3E90023FAF7F8FCFAF7AEFEC4F8900338
:1058C00094EDE40ADFEDBC8A9FEDBC8A20EE280A45
:1058D00004F51E7080EE080AFFF77DFB04F5F470F6
:1058E00094EDE40A20EE280A80EE080AFFF773FB25
:1058F0002B88A3F6C5139BB2B3F5FA7F2DD2D4ED56
:10590000E47A9FEDAC7AF4EEC77AF1EE10FA0CDD92
:1059100017EE900AFAF728FEA1A3D3E90023FAF7BD
:10592000C3FCFAF779FEC4F8900394EDE40ADFEDC6
:10593000A28A9FEDA28A20EE280A04F51E7080EE4E
:10594000080AFFF748FB04F5F47094EDE40A20EE32
:10595000280A80EE080AFFF73EFBD4F89433012BA7
:1059600003D02B88B3F57A7F30D2D4EDE47A9FED63
:10597000917AF4EEC77AF1EE10FA0CDD17EE900A88
:10598000FAF7F2FD88A3D3E90023FAF78DFCFAF7C2
:1059900043FEC4F8900394EDE40ADFED878A9FED9F
:1059A000878A20EE280A04F51E7080EE080AFFF7A9
:1059B00012FB04F5F47094EDE40A20EE280A80EE60
:1059C000080AFFF708FB0023C4F89433D4F898338F
:1059D000012B04D02A8840F6B8339A4230D9D4ED4E
:1059E000E47A9FED777AF4EEC77AF1EE10FA0CD5EF
:1059F00017EE900AFAF7B8FD6BA3D3E90023FAF784
:105A000055FCFAF709FEC4F8900394EDE40ADFEDC3
:105A10006A8A9FED6A8A20EE280A04F51E7080EEDD
:105A2000080AFFF7D8FA04F5F47094EDE40A20EEC2
:105A3000280A80EE080AFFF7CEFA0023C4F898334C
:105A4000D4F8A433012B04F5805559D1B4F90E9341
:105A5000D4F89C33B4F90C730197A9F11E02CDE977
:105A600002230DF1040898E80700FFF769FD04F52B
:105A7000427670BBB9F11D0F2BDD013FBFB2D62FAF
:105A800005D9D4EDEA7AF1EE677AC4EDEA7AD4ED7D
:105A9000EC7A94EDEA7A77EEC77A94EDEB7AC4ED7E
:105AA000EC7AD4EDED7A77EEC77A3046C4EDED7A34
:105AB0000DF034FA94EDED7AD4EDEC7ABDEEC77AC0
:105AC000FDEEE77A17EE103A1AB217EE903A19B2D5
:105AD00010E00023C4F8A4330123C5F8F434404691
