:020000040800F2
:10000000000003205D0600083123000833230008A8
:1000100035230008372300083923000800000000BA
:10002000000000000000000000000000F18900084E
:100030003B23000800000000818A000811830008AB
:10004000AD060008AD060008AD060008AD060008C4
:10005000AD060008AD060008AD060008AD060008B4
:10006000AD060008AD060008AD060008AD060008A4
:10007000AD060008AD060008AD060008AD06000894
:10008000AD060008AD060008AD060008AD06000884
:10009000AD060008AD060008AD060008AD06000874
:1000A000AD060008AD060008AD060008AD06000864
:1000B000AD060008AD060008AD060008AD06000854
:1000C000AD060008AD060008AD060008AD06000844
:1000D000AD060008AD060008AD060008AD06000834
:1000E000AD060008AD060008AD060008AD06000824
:1000F000AD060008AD060008AD060008AD06000814
:10010000AD060008AD060008AD060008AD06000803
:10011000AD060008AD0600083D230008AD06000846
:10012000AD060008AD060008AD060008AD060008E3
:10013000AD060008AD060008AD060008AD060008D3
:10014000AD060008AD060008AD060008AD060008C3
:10015000AD060008AD060008AD060008AD060008B3
:10016000AD060008AD060008AD060008AD060008A3
:10017000AD060008AD060008AD060008000000004E
:10018000AD060008AD060008AD060008AD06000883
:10019000AD060008AD060008AD060008AD06000873
:0C01A00049230008AD06000855230008A4
:1001B00010B5054C237833B9044B13B10448AFF3A1
:1001C00000800123237010BD800300200000000088
:1001D000CC48020808B5034B1BB103490348AFF3F1
:1001E000008008BD0000000084030020CC48020805
:1001F00001F0FF01102A2BDB10F0070F08D010F8D8
:10020000013B013A8B422DD010F0070F42B3F6D1DB
:10021000F0B441EA012141EA014122F007047FF0F4
:1002200000070023F0E80256083C85EA010586EA4B
:10023000010685FA47F5A3FA87F586FA47F6A5FA87
:1002400087F68EB9EED1F0BC01F0FF0102F0070293
:1002500032B110F8013B013A83EA010313B1F8D13E
:100260000020704701387047002D06BF354603381F
:10027000073815F0010F07D1013015F4807F02BF58
:10028000013015F4C03F0130F0BC0138704700BFA9
:100290007BB972B90029BEBF00204FF0004106E0D3
:1002A00008BF00281CBF6FF000414FF0FF3000F086
:1002B000D3B9ADF1080C6DE904CE002909DB002BA0
:1002C0001ADB00F04DF8DDF804E0DDE9022304B0AC
:1002D0007047404261EB4101002B1BDB00F040F80E
:1002E000DDF804E0DDE9022304B0404261EB4101A6
:1002F000524263EB43037047524263EB430300F007
:100300002FF8DDF804E0DDE9022304B0404261EBA0
:1003100041017047524263EB430300F021F8DDF8DE
:1003200004E0DDE9022304B0524263EB430370476B
:1003300053B94AB9002908BF00281CBF4FF0FF314C
:100340004FF0FF3000F088B9ADF1080C6DE904CE34
:1003500000F006F8DDF804E0DDE9022304B07047A0
:100360002DE9F047089D8E4604468846002B4AD169
:100370008A42174662D9B2FA82F64EB1C6F120031C
:1003800001FA06F820FA03F3B74043EA0808B4403C
:100390004FEA174E1FFA87FCB8FBFEF1230C0EFB49
:1003A000118843EA084301FB0CF29A4209D9FB1871
:1003B00001F1FF3080F0EA809A4240F2E780023992
:1003C0003B449A1AA3B2B2FBFEF00EFB102243EAA2
:1003D000024300FB0CFC9C4509D9FB1800F1FF32DD
:1003E00080F0D6809C4540F2D3803B44023840EAFE
:1003F0000140A3EB0C0300211DB1F3400022C5E92D
:100400000032BDE8F0878B4205D90DB1C5E9000186
:1004100000210846F5E7B3FA83F1002946D1734578
:1004200002D3824200F20581841A6EEB030201209E
:100430009046002DE5D0C5E90048E2E7002A00F02B
:100440009080B2FA82F6002E40F0A4808A1A030C43
:100450004FEA174E80B2BCB20121B2FBFEFC0EFB8C
:100460001C2243EA024304FB0CF29A4207D9FB1810
:100470000CF1FF3802D29A4200F2E080C4469B1A87
:10048000B3FBFEF20EFB123340EA034302FB04F41B
:100490009C4207D9FB1802F1FF3002D29C4200F2C5
:1004A000CA8002461B1B42EA0C40A5E7C1F12006A8
:1004B0008B4022FA06F71F430EFA01F420FA06F3E6
:1004C0002EFA06FE4FEA1749234300FA01F81FFAF5
:1004D00087FCBEFBF9F01C0C09FB10EE44EA0E444D
:1004E00000FB0CFEA64502FA01F209D93C1900F105
:1004F000FF3A80F09C80A64540F2998002383C4447
:10050000A4EB0E041FFA83FEB4FBF9F309FB1344BA
:100510004EEA044403FB0CFCA44508D93C1903F142
:10052000FF3E80F08280A4457FD9023B3C4443EAF1
:100530000040A4EB0C04A0FB02EC64457346E146CA
:1005400062D35FD05DB1B8EB030264EB090404FA37
:1005500006F622FA01F31E43CC40C5E900640021EF
:100560004FE7B1FBF2FC010C41EA0E4180B240EAD8
:1005700001423B4638463C46B846BE462026B1FBC3
:10058000F7F1A2EB080241EA0C4166E7014618E7E1
:1005900010462CE7C6F120022EFA02F3B740B14014
:1005A00020FA02F24FEA174E0A43B3FBFEF8BCB240
:1005B0000EFB1833110C41EA034108FB04F9B0406B
:1005C00089454FEA104380B23ED9791808F1FF3CC3
:1005D00001D289451FD8A1EB0901B1FBFEF909FB46
:1005E00004F80EFB191192B242EA0142424529D2A7
:1005F000BA1809F1FF31C4D24245C2D2A9F10201B1
:100600003A44BEE7F0459DD2BEEB02036CEB070C0B
:100610000138E14696E7A7EB09094944A8F1020C25
:10062000B1FBFEF909FB04F8DBE773467FE75046B0
:1006300066E70846FDE63B44023A33E7ACF1020CBC
:100640003B441CE749469CE7A1EB0901C446B1FBCA
:10065000FEF909FB04F8C4E7704700BFDFF834D0A7
:10066000002103E00C4B5B58435004310B480C4B0A
:1006700042189A42F6D30B4A02E0002342F8043BA8
:10068000094B9A42F9D305F0AFF923F0B1FB01F021
:100690008BF8704700000320DC760F080000002074
:1006A000640100208003002078500120FEE770479D
:1006B00008B500F0BDFDBDE8084000F03FBD00F00A
:1006C000B9BD704710B50421044622F063F92046F5
:1006D00010BD000038B50C4B0C4C18800C4B822020
:1006E00019806368984740F6110398420AD1094D72
:1006F00023682C60822098472B688220DB6898470B
:10070000002038BD0120FCE7A60300204C0000209B
:10071000A4030020A80300204FF4A071F020FFF7ED
:10072000D9BF0000F7B5394D2B6804461B698220FC
:100730009847208000284ED02B680DF106025B6997
:1007400001A982209847324B1B78002B4BD0BDF873
:10075000062040F674639A423FD9ADF80630BDF8E2
:1007600006209B1A9BB20A2B42D90B22B3FBF2F351
:10077000284A1288934201D9013A93B2BDF8042065
:10078000254840F6B8318A4234D8C2F571620E323B
:10079000016892B20F25B2FBF5F2204D2D88AA42D6
:1007A00084BF05F1FF35AAB28A4215468EB22AD916
:1007B000921B91B21A4E3768BB42BAB28CBF9A1ADA
:1007C000D21A92B211440529C4BF05603360036890
:1007D00063803368A38003B0F0BDB32A9CBFB4220A
:1007E000ADF80620BBE7BDF80630A3F5B473B9E752
:1007F0000023C3E7C2F56D62083292B20E2A016887
:10080000C8D800252A46891A89B2D3E7A803002050
:10081000F8290020A4030020A0030020A603002044
:100820009C03002037B568460D461446FFF77AFF53
:10083000BDF8000030B1BDF802302B60BDF80430C7
:100840002360012003B030BD032821D8DFE800F089
:10085000020B12190F4B1A68B2FA82F252090421E4
:100860000D4805F06BBD0B4B5A68B2FA82F2520983
:100870000821F5E7074B9A68B2FA82F25209102173
:10088000EEE7044BDA68B2FA82F252092021E7E778
:10089000704700BFAC03002000100240032821D89D
:1008A000DFE800F0020B12190F4B1A68003A18BF6C
:1008B000012204210D4805F041BD0B4B5A68003A56
:1008C00018BF01220821F5E7074B9A68003A18BFC4
:1008D00001221021EEE7044BDA68003A18BF01222A
:1008E0002021E7E7704700BFAC0300200010024062
:1008F00003280DD8DFE800F00206080A04210548A5
:1009000005F021BD0821FAE71021F8E72021F6E7DC
:10091000704700BF0010024008B5032811D8DFE877
:1009200000F0020A0C0E0421074805F001FD431EE9
:100930005842584108BD0821F6E71021F4E720216C
:10094000F2E70020F3E700BF0010024070B5084D49
:1009500000240126E0B2FFF7DFFF18B12B68012B5E
:1009600018BF2E600134052C05F10405F2D170BDCD
:10097000AC030020012380F8781080F879307047AC
:100980007047002070470000034B4164003918BFD6
:1009900001211970704700BF3743012070470020C4
:1009A0007047836B0BB10846184770474FF6FF70CE
:1009B0007047406803689B691847704770477047E5
:1009C0007047704710B5044600F04AFD236803499C
:1009D000D3F890302046BDE810401847000000D002
:1009E00008B503680446D3F8843098472368204646
:1009F000DB6F984700F0ECF8236820465B6F984760
:100A0000292001F083F900F0E3F8236820465B6FAA
:100A10009847F8E710B504460AF0E0FD2368204641
:100A2000D3F8BC30BDE81040184700F0FDBC00F022
:100A300001BD00F033BD00F0D3BC00F043BD00F0B9
:100A40004BBD00F0D7BC09F0F7BF10B584210446B8
:100A500021F0A0FF204610BD10B590F8341090F89A
:100A600078400C4B8C421A7809D03AB90A4A0B49A3
:100A70001488088810800C8001221A7010BD002A8A
:100A8000FCD0054A05491488088810800C80002293
:100A9000F3E700BF304301202C4301202E43012007
:100AA00070B50D46194635B9094B0A4A0A4840F255
:100AB000FF2122F0EDFEC0E90F52084B003A18BFAB
:100AC00001221A700368BDE87040D3F890301847CF
:100AD0003C49020874490208C24902083643012011
:100AE00008B5094B1B888B4203D8084B1B889342DF
:100AF00005D9074B074A0848A32122F0C9FE074B36
:100B00001980074B1A8008BD2C4301202E43012079
:100B1000074A02086A4A0208C24902083243012011
:100B200034430120034690F87A0018B158680368EE
:100B30001B68184770470000012108B500220846CD
:100B400007F070FC0A4B186028B90A4B0A4A2821A2
:100B50000A4822F09DFE00220421012007F001FD39
:100B6000074B186018B9074B034A2C21F0E708BD62
:100B7000C0030020AD4A0208F64A0208254B0208CD
:100B8000BC030020754B0208024B4FF0FF31186880
:100B900007F092BCC0030020014B186807F0B8BCF6
:100BA000C0030020024B0021186807F085BC00BF7D
:100BB000C0030020FFF7F0BF03480449006800238A
:100BC0001A4607F009BD00BFBC0300200400002046
:100BD00013B5084C00231A4601A9206807F02DFD23
:100BE00020684FF0FF33002201A907F026FD02B074
:100BF00010BD00BFBC03002003685B6C18470120D8
:100C0000704703689B6A1847FEE740F2EF30704771
:100C1000054B0360054B4FF08062C3F88820BFF39B
:100C20004F8FBFF36F8F7047BC58020800E100E0A0
:100C300010B504464FF45A61FFF7EAFF204621F051
:100C4000A9FE204610BD000082B0002301930E4B88
:100C50001A6B42F400021A631A6B02F4000201924A
:100C6000019A1A6942F400021A611A6922F4000218
:100C70001A61064B064A1A61064A5A61064B4FF042
:100C800080629A6002B07047003802408C2B0020CE
:100C9000E90E0008090C000800E100E008B50A2888
:100CA00009D8DFE800F006100E0808080810101038
:100CB0001000022008BD054B054A0648902122F08D
:100CC000E7FD0020F6E70120F4E700BFB74B02087C
:100CD000D24B02081D4C020838B50C46887FFFF73E
:100CE000DDFFA58AE28A164B2169586342EA054274
:100CF0005A64628BD963521B1A642568082D0ED181
:100D00009A611A615862207F0E4A42EA0062DA61F3
:100D1000E2681A620C4A5961D9601A6038BD002233
:100D2000D8611A61E1680A0A480902F4784200F4BD
:100D3000FC600243C1F3C4010A439A63034AECE72F
:100D400000B002400900010001230200012303005A
:100D500008B50B280BD8DFE800F00612100A0A0AC3
:100D60000A0808080808022008BD0520FCE7054B12
:100D7000054A06486F2122F08BFD0020F4E7012090
:100D8000F2E700BFB74B02086B4C02081D4C02088B
:100D90002DE9F04191F81D800C464046FFF7D8FF41
:100DA000A77F05463846FFF7D3FF06463846FFF7CC
:100DB00075FFA18A628B444B521A1A649A61228B86
:100DC000521A1A61E28A586342EA01425A6421695E
:100DD0006268D963DA602068802828D0227F0FD823
:100DE000202867D0402865D004281AD0364B45EA21
:100DF000026545F40035B845DD6161D0334A44E011
:100E0000B0F5807F04D0B0F5007FEFD1304800E02E
:100E1000304840EA0262DA61E2681A625E62596151
:100E200032E045EA026242F40032DA61F6E7A06895
:100E3000021DDA62227F45EA026545F40035DD6174
:100E40005E625961017841B1012921D0224B234AC8
:100E500023484FF48D7122F01BFDDA69418822F49A
:100E60007F42013922F0100242EA0122DA610121B7
:100E7000154BDA6942F02002DA61DA699206FCD495
:100E800010229A600029B9D0164A1A60BDE8F08194
:100E9000B2F1FF01DA69408822F47F4200F1FF30AD
:100EA00022F0100242EA002242F0100218BF012193
:100EB000DA61DDE745EA0262034B42F40032B4E74F
:100EC00042F20132E1E700BF00B00240012301001D
:100ED000090002000A000200B54C0208CF4C0208CB
:100EE0001D4C020801230200024B1B68586803686E
:100EF0005B6918473843012070B5044625460A4B04
:100F00000C30002660602672667245F8203B602235
:100F100029460AF0B9FC04F55A63EE6024359D4277
:100F2000FBD1204670BD00BFBC580208034B1A68B5
:100F3000D207FCD423229A60704700BF00B0024061
:100F40007047000030B50F4C2568ED07FCD4232511
:100F50000904A56041F001010225FF2B656361646E
:100F6000E0630AD00849656241EA0363E361074B25
:100F700022626061E060236030BDE561039BA36392
:100F8000034BF8E700B00240090001000100020035
:100F90000100030030B50E4C2568ED07FCD4232575
:100FA0001204A56042F001020225FF2B6563626412
:100FB000E063E16008D01B0643F00213E361054BD8
:100FC00065626061236030BD034BE3610123F9E793
:100FD00000B0024001000200020002FF30B50B4CDD
:100FE0002568ED07FCD4232512041B06A56043F4F5
:100FF0000033022542F0010265636264E063E16050
:10100000E361034B65626061236030BD00B0024064
:1010100001000200012070474020704700EB811062
:101020000830704700EB811008307047012070478E
:1010300041F2B040704741F2B04303FB0100083079
:10104000704741F2B04303FB0100083070470120B4
:1010500070471020704700EB01100830704700EB1C
:10106000011008307047084601F04EBD10B5034B23
:101070000360044609F037FA204610BD745902088F
:1010800010B50446FFF7F2FF2046482121F082FC0C
:10109000204610BD10B5034B0360044609F023FA47
:1010A000204610BD4059020810B50446FFF7F2FF74
:1010B000204641F2B84121F06DFC204610BD0000F1
:1010C00010B5034B0360044609F00DFA204610BD2D
:1010D0000C59020810B50446FFF7F2FF204618210C
:1010E00021F058FC204610BD10B5094B03600446A2
:1010F00000F5A7500430FFF7B9FF04F12C00FFF70B
:10110000C9FF04F11400FFF7DBFF204610BD00BF4C
:10111000A859020808B50248FFF7E6FF08BD00BF5E
:101120009C12002010B50446FFF7DEFF204641F276
:101130008C6121F02FFC204610BD00002DE9F34109
:1011400001F07CF9054601F07DF9002401462346B3
:1011500028462246009412F06BFB274B274A1A6060
:10116000204603F02BF8264D264B274A27489A6045
:1011700012F0C6FA2B68BFF35B8FDB0736D4284624
:1011800021F00AFC90B3224C224F234B236007F13D
:101190004C0604F1140004F12C086060C4F80880C7
:1011A000E760266109F0A0F91C4B6361404609F035
:1011B0009BF91B4BE362384609F096F904F580531E
:1011C00003F22C50174AC3F8E42403F0A7F922468F
:1011D00007F14801304603F05BF9304601F094FC1A
:1011E000114822F073FB284621F0E2FB0F4802B0C1
:1011F000BDE8F041FFF7E6BB9C4301204804002016
:1012000098120020680400204C04002008000020F0
:101210009C12002080270020A85902080C590208BF
:10122000405902087459020815110008C40300202F
:10123000704700000148FFF7D3BB00BFC403002084
:1012400070B5264E264C274D274B23603046FFF7BE
:1012500053FE284617F0F2FB244810F02FFA244BD7
:101260002448DC6000224FF48071C3E91212224945
:101270001A86C3E91A12214983F85820C3E91E01CE
:101280001F49C3F880101F491F480B60F021C3E9B4
:101290000422C3E90622C3E90822C3E90A22C3E9FA
:1012A0000E22C3E91022C3E91422C3E917225A66A9
:1012B00083F870205A67C3E90165018013480180F3
:1012C00013484FF4A07101801248018012490A703E
:1012D000012283F83420114A1A6070BDF404002002
:1012E00094120020680400202C4902084C040020BD
:1012F000C4030020000001010100000100045000AF
:101300001A001400384301202C43012032430120ED
:101310002E4301203443012030430120D0570208DE
:101320000148FFF775BC00BFF4040020002070479F
:1013300081807047C180704701817047418170474B
:101340007047704770477047704710B4C48803688F
:10135000121B84885B6D091B12B25DF8044B09B245
:1013600018474FF6FF7383814FF0FF330362136812
:10137000C36110607047002070478B888380012014
:101380007047704780F82610704790F82600704725
:1013900010B50022B1F90840B1F90A10028042806C
:1013A0008480C18010BD0022028042808280C28081
:1013B00070470177704780ED080A704780F8241065
:1013C000704780F8251070470120704798307047AB
:1013D0008C3070478430704770477047704700000A
:1013E000034B902283F85A2383F85823704700BF99
:1013F00000E100E0094A0A49D3680A48C3F30A0336
:10140000013B9BB20B801169C1F30A0101390180D4
:101410001364536B43F0010353637047006801404A
:101420002A29002028290020014BD3F8AC0070475E
:1014300000680140024B0122C3F8AC105A627047A9
:101440000068014010B52C21044621F0A3FA204683
:1014500010BD10B5BC21044621F09CFA204610BDF9
:1014600070B5044609F03DFB23689D6E0EF0BEFE8C
:1014700001462046A8472368054AD3F88C502046E9
:10148000AC460023BDE87040A2F51631604700BFAE
:1014900000B004D009F00CBB09F016BB09F0D2BAB9
:1014A00009F041BC90F8252012B103685B69184728
:1014B000704790F825201AB190F8242002B11860E6
:1014C00070470000034B4FF080629A604FF08072CB
:1014D0009A60704700E100E0084B4FF08062C3F86B
:1014E0008820BFF34F8FBFF36F8F4FF08072C3F828
:1014F0008820BFF34F8FBFF36F8F704700E100E08C
:1015000070B50023124E8380124B0360336893F84A
:10151000582005460AB1D86C00B998680368DB6AA0
:1015200098473368B0FA80F4D86C640930B1036826
:10153000DB6A9847002808BF44F001042CB9064B29
:10154000064A07482C2122F0A3F9284670BD00BFA7
:1015500038430120BC5902080D4D02086B4D0208AA
:10156000A44D020870B5254E3568BFF35B8F15F0AA
:10157000010540D1304621F00FFA00283BD0204C25
:10158000204B256104F13400C4E90035C4E902555B
:10159000E584A562A58510F076FB04F158000BF0F8
:1015A00027FE194BA3652046184B40F8843BFFF7F4
:1015B000A7FF174BC4F884302433C4F88C304FF4A1
:1015C000C803C4E928350023C4F8AC30C4F8B030EF
:1015D000C4F8B430C4F8B8300E480F4BC4F890507B
:1015E000C4F89C50C4F8A850C4F8983022F06EF9A2
:1015F000304621F0DDF9024870BD00BF2C290020E3
:1016000030290020C4640208DC590208545A020838
:1016100078640208DD1300085864020838B5184CD5
:1016200023685BB3174B184A1B6C11888B4216D189
:10163000164B198805F08AFC236893F86A20002568
:10164000013283F86A2083F87C50FFF7B5FA2068EE
:1016500009F0C4FF2846BDE83840FFF7F5B805F0AB
:1016600075FC2468236820461B6A9847012384F888
:101670007C300020BDE83840FFF710B938BD00BF0E
:1016800038430120006801402A2900202829002031
:1016900007B5064BADF806001B68054801220DF1A1
:1016A000060106F0F3F903B05DF804FB0C0000201E
:1016B000382A002008B50E4C0E4D204604F088FA5A
:1016C0000121204604F002FB204604F052FB0A4BA5
:1016D0004FF400511880284604F02AFE074B0138C9
:1016E00018BF01201880012006F090FEE5E700BF3A
:1016F000D42B002000080240F6290020F429002005
:1017000008B5642006F082FEFBE7000030B595B016
:10171000102200210AA822F0C2FA1422002103A8F4
:1017200022F0BDFA00241E4B01941A6C42F0805244
:101730001A641B6C03F080530193019B194B0294B4
:101740001A6842F440421A601B6803F44043029353
:101750000122029B4FF48033CDE9082302254FF488
:1017600080030821CDE90E534FF4B473CDE9101373
:1017700008A804231393129505F040FC05F004FC1F
:101780000F23CDE903354FF4A0504FF48053CDE93A
:101790000603052103A8059405F00CFE15B030BD25
:1017A00000380240007000402DE980489BB004F0F2
:1017B00029F9FFF7ABFF142200210DA822F06FFAE0
:1017C0000024C94B00941A6BC848C94D42F010025E
:1017D0001A631A6B02F010020092009A01941A6BBD
:1017E00042F004021A631A6B02F004020192019A99
:1017F00002941A6B42F020021A631A6B02F0200264
:101800000292029A03941A6B42F080021A631A6BD6
:1018100002F080020392039A04941A6B42F00102D0
:101820001A631A6B02F001020492049A05941A6B6F
:1018300042F002021A631A6B02F002020592059A44
:1018400006941A6B42F040021A631A6B02F04002CF
:101850000692069A07941A6B42F008021A631B6BF1
:1018600003F00803224607933C21079B04F066FD22
:10187000A0480122022104F061FD22469D48042176
:1018800004F05CFD22469C484FF4405104F056FDA4
:1018900001263C23CDE90D3694480F9403230DA96E
:1018A000109304F061FC4FF4005392480F960DA979
:1018B0000227CDE90D3404F057FC8E480DA9CDE97F
:1018C0000D76CDE90F4404F04FFC042389480DA99F
:1018D000CDE90D36CDE90F4704F046FC0DA94FF4D4
:1018E00040538548CDE90D36CDE90F4704F03CFC67
:1018F0008248834B036004F02DFBDFF828C2814B44
:101900002C62C5E900C328464FF48043C5E904347E
:10191000C5E90244C5E9064404F01EFF102128462B
:1019200005F062F92146284605F07DF9764DDFF88D
:10193000F8E1AC624FF48273C5E900E34FF400783C
:101940001823C5E9068328460A23C5E90244C5E9E8
:101950000444C5E90844EB6206F03CF88F232246B4
:10196000394664488DF824308DF8344004F0E6FCA4
:1019700032464FF47A7309A9284606F087F84FF4E7
:101980007A7332460DA9284606F02CFA32463946BB
:1019900058485E4D04F0D2FC9DF83430D32B04BF80
:1019A0005B4B1E705B4B0126C5E900364FF0100AF9
:1019B00040230024C5E904A34FF4C073C5E90634ED
:1019C0004FF40063C5E908344FF4005302274FF089
:1019D0000409AB624FF0030B07230DA92846CDE99C
:1019E0000D73CDE90F934FF00808C5E90249CDE921
:1019F00011B7139705F0D2FE4FF6FF7209A92846DA
:101A0000CDE90A86089409960C9405F0E7FE304665
:101A100004F024F84FF6FF7209A92846CDE90978A9
:101A2000CDE90B6405F0DAFE4FF6FF7209A92846EE
:101A3000CDE909B8CDE90B9405F0D0FE4FF40C7355
:101A40000893089B0C934FF6FF7209A92846CDE92D
:101A500009980B9605F0C2FE40F26A51284605F03F
:101A6000DBFE342221460DEB020022F018F92A4D4C
:101A70002A4B2C61C5E900340923C5E905361D232D
:101A8000C5E9073B40F20D1240F24313C5E90923B3
:101A900040F2171140F247132846C5E90B13C5E978
:101AA0000244AC8685F8364005F058F9FF21F02253
:101AB000CDE912144FF4806005214FF4A073CDE9F5
:101AC0001401CDE90E240DA9CDE91642284622467F
:101AD000CDE91037124D18930D94ADF864408DF890
:101AE000664005F006FA21E000380240001002408E
:101AF000382B002000080240000C0240CC2B0020B4
:101B000000300240A0860100382A0020042A00206C
:101B1000F8290020400100A0902A00200068014020
:101B2000EC290020005C0040005001402C4B2B6051
:101B30001B6898472B682B4DDB6898472A4B284633
:101B4000C5E90034C5E90274C5E90A47C5E90C4492
:101B500004F010FA3146284604F0C2FA234D244F0F
:101B6000524621460DA822F09AF84FF48033C5E979
:101B7000007328461F4BAB62AC602C612C7685F855
:101B80002040EC62EC60EE6185F830406E6103F05D
:101B900079FF0D230DA92846CDE90D360F9404F0E9
:101BA000EBF8FEF785FDFEF782FD06F0BFFB124A5B
:101BB0001248214606F0E6FB114B124A18602146F6
:101BC000114806F0DFFB114B114A186021461148FD
:101BD00006F0D8FB104B186006F0BAFBFEE700BF1A
:101BE000140000208C2B002000B00240D42B0020D9
:101BF000002001400100000FE05A02080117000810
:101C0000002A0020BC5A0208BF060008FC29002058
:101C1000985A0208B5160008F0290020704770474E
:101C20007FB5094B8DF817201B6802930DF1170241
:101C30000123009201930A460146044804F034FE51
:101C400007B05DF804FB00BF10000020382B002017
:101C50007FB500238DF81730084B1B6802930A46A6
:101C600001230DF11701009101930146044804F08E
:101C7000ABFE9DF8170007B05DF804FB10000020D4
:101C8000382B00201FB5084C24680092CDE90134A0
:101C90000A4601230146054804F096FE003818BFA5
:101CA000012004B010BD00BF10000020382B002020
:101CB00003F0D4BE10B5064C00222046042104F0E7
:101CC0003DFB20460122BDE81040042104F036BB54
:101CD0000008024038B50B4D044601220A484FF473
:101CE000005104F02BFB00220421284604F026FBBF
:101CF0002046FFF7CDFC28460122BDE838400421EC
:101D000004F01CBB00080240000C024038B50B4D2B
:101D1000044600220A484FF4005104F00FFB002251
:101D20000421284604F00AFB2046FFF7B1FC2846B0
:101D30000122BDE83840042104F000BB0008024045
:101D4000000C0240F7B5144E144F05460C463046C1
:101D50000022042104F0F2FA00224FF40051384628
:101D600004F0ECFA2846FFF793FC0D4B0D481B6876
:101D7000224601A906F036F8384601224FF40051F8
:101D8000019C04F0DBFA30460122042104F0D6FA6B
:101D9000204603B0F0BD00BF00080240000C024026
:101DA0000C000020382A002003F058BE0268034BC4
:101DB0009A4201D103F040BE704700BF00100040BE
:101DC0007047000082B00E4B00220092596C41F423
:101DD00080415964596C01F480410091009901924D
:101DE000196C41F0805119641B6C03F0805301930E
:101DF000019B0F216FF0010002B004F06BB800BF2F
:101E00000038024010B5044688B01422002103A80F
:101E100021F045FF2268124B9A421ED103F58C3304
:101E2000002101915A6C0F4842F480725A645A6C36
:101E300002F480720192019A02911A6B42F004023C
:101E40001A631B6B03F004030293029B0822032313
:101E500003A9CDE9032304F087F908B010BD00BF42
:101E600000200140000802400268094B9A4282B0FB
:101E70000BD100230193074B1A6B42F480521A6373
:101E80001B6B03F480530193019B02B0704700BFAA
:101E9000003002400038024007B50F4B02689A42FA
:101EA00016D10022A3F5F0430192196B41F4000111
:101EB00019631B6B03F40003019305215A20019B56
:101EC00004F008F85A2003B05DF804EB04F034B8CD
:101ED00003B05DF804FB00BF00B002402DE9F04301
:101EE000044689B01422002103A821F0D8FE2268FC
:101EF000244B9A4243D1244C244800250095236B5F
:101F000043F004032363236B03F004030093009B5B
:101F10000195236B43F001032363236B03F001035B
:101F20000193019B4FF012094FF400734FF0010829
:101F30000327042603A9CDE90339CDE905870796D0
:101F400004F012F94FF480731148079603A9CDE904
:101F50000339CDE9058704F007F90295236C43F4B2
:101F600000032364236C03F400030293029B236A9F
:101F700043F400032362236A23F40003236209B0BD
:101F8000BDE8F083005C00400038024000080240D9
:101F900000000240F0B599B004461422002107A8C1
:101FA00021F07DFE30220DEB0200002121F077FEB2
:101FB00022685E4B9A4240F0B78008230C93C023FE
:101FC0001093042312930CA84FF40033159305F0DB
:101FD000B9FA08B1FFF7F4FE554B564800240094B7
:101FE0005A6C42F080625A645A6C02F0806200922D
:101FF000009A01941A6B42F020021A631A6B02F0E5
:1020000020020192019A02941A6B42F001021A63B3
:102010001A6B02F001020292029A03941A6B42F0C8
:1020200002021A631A6B02F002020392039A0494EA
:102030001A6B42F040021A631A6B02F040020492DB
:10204000049A05941A6B42F004021A631A6B02F0A8
:1020500004020592059A06941A6B42F008021A636C
:102060001B6B03F00803069302250E26069B0B96B6
:102070004FF4806307A9CDE90735CDE9094504F0A0
:1020800073F841F658032C480B9607A9CDE907359C
:102090000927CDE9094504F067F8032327480B9782
:1020A00007A9CDE90735CDE9094504F05DF84FF4FE
:1020B000706322480B9607A9CDE90735CDE909459C
:1020C00004F052F84FF40C631D480B9607A9CDE9B4
:1020D0000735CDE9094504F047F8C02319480B96A8
:1020E00007A9CDE90735CDE9094504F03DF80823F6
:1020F00015480B9607A9CDE90735CDE9094504F048
:1021000033F84FF4A0530E480B9707A9CDE90735D4
:10211000CDE9094504F028F858202246052103F0AE
:10212000D9FE582003F008FF19B0F0BD0068014047
:102130000038024000140240000002400004024047
:102140000018024000080240000C024010B504468E
:1021500088B01422002103A821F0A1FD2268144BAD
:102160009A4223D103F56843002101915A6C11482A
:1021700042F480125A645A6C02F480120192019A5D
:1021800002911A6B42F020021A631B6B03F02003CA
:102190000293029B4FF4607202230321CDE90323D3
:1021A0000523CDE9061303A903F0DEFF08B010BD37
:1021B00000500140001402402DE9F04186B0002398
:1021C00003932B4B1C68002C4FD14FF00108C3F830
:1021D0000080284B00949A6B274842EA08029A63D1
:1021E0009B6B03EA08030093022703260C25009B40
:1021F00001A94FF63F03CDE90137CDE9046503F0AE
:10220000B3FF1E48059501A9CDE90187CDE9034635
:1022100003F0AAFF48F233131948059501A9CDE947
:102220000137CDE9034603F09FFF4FF6837315484E
:10223000059501A9CDE90137CDE9034603F094FFE7
:102240004CF203731048059501A9CDE90137CDE99A
:10225000034603F089FF60230C48059501A9CDE9E9
:102260000137CDE9034603F07FFF06B0BDE8F081FA
:102270001C2C0020003802400014024000080240DC
:102280000018024000100240000C0240000402400E
:1022900070B588B000230293204B1A6C42F01002F4
:1022A0001A641B6C03F010030293054601A903A8EE
:1022B000029B05F029F9069B4BBB05F015F9184E5A
:1022C000184B336040F2E733F360174BB0FBF3F386
:1022D000013B7360304600233361B360B36105F0A6
:1022E00051FF044680B9304605F022FE044658B935
:1022F000362003F021FE0F2D0DD822462946362028
:1023000003F0E8FD094B1D60204608B070BD05F0E4
:10231000EBF84000D3E70124F6E700BF00380240A5
:10232000202C00200010004040420F007C000020C4
:102330007047FEE7FEE7FEE7FEE77047014805F05D
:1023400035BE00BF202C0020014804F075BD00BF41
:10235000902A0020014803F039BE00BF8C2B0020DA
:102360000120704708B521F03DFD162303604FF0B2
:10237000FF3008BD08B521F035FD16230360FEE7E8
:1023800070B50D4614460E46731B9C4201DC204678
:1023900070BDAFF3008006F8010BF5E770B50D4690
:1023A00014460E46731B9C4201DC204670BD16F895
:1023B000010BAFF30080F5E74FF0FF3070474FF4AB
:1023C00000534B6000207047012070470020704789
:1023D0000A4A116808B5034609B90949116010682D
:1023E000694603448B4206D921F0FCFC0C230360B0
:1023F0004FF0FF3008BD1360FCE700BF682C0020E1
:1024000078500120704710B50421044620F0C2FA2C
:10241000204610BD012908B506D0022908D059B9B7
:1024200001F00AFF006808BD01F006FF4068FAE706
:1024300001F002FF8068F6E70020F4E700487047EB
:10244000185B02081120704713B5002451B10368CE
:1024500001948DF8034001AA9C680DF10303A04785
:1024600002B010BD0846FBE7C0897047008A70477C
:10247000C088704780887047807A00F07F0070477E
:10248000807AC00970470020704700009FED010A64
:10249000704700BF000000007047704700F5987358
:1024A0000868496803C370477047704741607047C8
:1024B00070477047064BC0F84C310023C0F85031CC
:1024C00000F5A273C0F84801C0F84031704700BF62
:1024D000AD2F0008012303727047704770477047A3
:1024E00010B4C26841685410034601EB6200D20781
:1024F00048BF0A599B685DF8044B48BFD35818473A
:102500000346406830B19A681AB9D86800F00100F3
:1025100070470120704710B50C21044620F03AFAAC
:10252000204610BD10B51021044620F033FA204695
:1025300010BD10B54FF4AE71044620F02BFA2046C2
:1025400010BD10B54021044620F024FA204610BDED
:1025500010B54021044620F01DFA204610BD10B5EC
:102560000DF044FE0368BDE81040DB6B1847000027
:10257000054B1B7801462BB1406818B103680C313C
:102580005B6E1847704700BF37430120054B1B782F
:1025900001462BB1406818B103680C315B6E1847D7
:1025A000704700BF37430120037A70B50546BBB9B9
:1025B00040680368DB69984704463CB9686803686B
:1025C00005F10C011B6EBDE870401847A1886B8FA8
:1025D000C91A236820461B6B09B29847A469ECE727
:1025E00070BD037A70B50546BBB940680368DB6906
:1025F000984704463CB96868036805F10C011B6EF6
:10260000BDE870401847A1886B8FC91A236820461F
:102610001B6B09B29847A469ECE770BD10B504467E
:10262000D0F8400158B10368DB68984738B1D4F856
:10263000400103689B6898470023C4F8403110BDEF
:1026400070B5044690F8390094F838300130C0B2C3
:10265000984284F8390005D901232372002384F8B5
:10266000393070BDB4F93A2000210FF097FFC3074D
:1026700006D500284FF6FF73C8BF0123184400B2E7
:10268000238AC01AA08760680368DB6998470546FB
:102690002DB960680368BDE870405B691847A98878
:1026A000A38F19442B6828461B6B09B29847AD6964
:1026B000EEE770B5044690F8390094F838300130F0
:1026C000C0B2984284F8390005D90123237200234F
:1026D00084F8393070BDB4F93A2000210FF05EFF64
:1026E000C30706D500284FF6FF73C8BF012318445F
:1026F00000B2238AC01AA08760680368DB69984724
:1027000005462DB960680368BDE870405B691847ED
:10271000A988A38F19442B6828461B6B09B29847D8
:10272000AD69EEE72DE9F0411D460368BDF918706B
:102730001B6B0446164698472368314620465B6B60
:1027400098472368294620469B6B9847236839465B
:102750002046DB6BBDE8F041184700002DE9F74F3C
:10276000D0E9556A0746B06803681B6A9847B0F518
:10277000907F05D2534B544AA321544821F088F846
:10278000706803681B6A98470F2803D8504B4E4A5D
:10279000A421F2E7F06803681B6A98473F2803D832
:1027A0004C4B494AA521E8E70DF020FDDFF83491B4
:1027B00004300DF040FDD9F8000010B10368DB686B
:1027C0009847D9F8000010B103681B689847DFF8F4
:1027D0001881D8F8000010B103685B699847D7F8F2
:1027E0003C0110B103685B689847D8F8000010B14D
:1027F00003681B689847D7F83C0110B103689B68D1
:102800009847F068036800215B6A984705460022F4
:10281000314B4260027245F80C3B044628460BF0EF
:10282000F1FA142323872D4B1B780022A287002B5B
:1028300035D101232372B068036800215B6A984791
:10284000054601F09FFE7068036800215B6A9847A7
:102850002946064601F074FE331DC7F83C61C9F8ED
:102860000040C8F80050CAF800302B68C6F808A02D
:102870002846DB68EE639847336830461B68984704
:10288000214628460FF084FE236820461B6998479E
:1028900023685B69204603B0BDE8F04F1847104B32
:1028A000DFF848B0B3F900300093BBF900301146AF
:1028B0002846FFF737FF28460BF01FFABBF8003019
:1028C0006387B8E7284E0208B64E02089B4F0208FD
:1028D000E24F020885500208285D020837430120B4
:1028E0002E430120804301207C4301202C43012002
:1028F0002DE9F74FD0E9556A0746B06803681B6AAF
:102900009847B0F5F67F05D2544B554AA321554858
:1029100020F0BEFF706803681B6A98470F2803D831
:10292000514B4F4AA421F2E7F06803681B6A9847AD
:102930003F2803D84D4B4A4AA521E8E70DF056FC45
:10294000DFF8389104300DF076FCD9F8000010B1B2
:102950000368DB689847D9F8000010B103681B686A
:102960009847DFF81C81D8F8000010B103685B6954
:102970009847D7F83C0110B103685B689847D8F8CE
:10298000000010B103681B689847D7F83C0110B1EC
:1029900003689B689847F068036800215B6A984762
:1029A00005460022324B4260027245F80C3B044659
:1029B00028460BF027FA142323872E4B1B7800227E
:1029C000A287002B35D101232372B0680368002150
:1029D0005B6A9847054601F023FE70680368002192
:1029E0005B6A98472946064601F0E6FD331DC7F8A5
:1029F0003C61C9F80040C8F80050CAF800302B68A4
:102A0000C6F808A02846DB68EE639847336830466E
:102A10001B689847214628460FF0BAFD23682046D8
:102A20001B69984723685B69204603B0BDE8F04FF7
:102A30001847114BDFF84CB0B3F900300093BBF9E5
:102A4000003011462846FFF76DFE28460BF055F979
:102A5000BBF800305B426387B7E700BF284E02082F
:102A6000285102089B4F0208E24F020885500208D5
:102A7000045D0208374301202E43012080430120DA
:102A80007C4301202C430120044B1B6893F8582001
:102A90000AB1D86C00B99868704700BF384301206C
:102AA000F8B5174604460E460DF062FC124B1C604A
:102AB000124B2360124B0025C4E95135114BC4E978
:102AC00053551868036801219B68C4E94F55C4E950
:102AD00055769847284601F071FBFFF7D5FF17F0B0
:102AE00056FEFFF7D1FF17F0CDFEFFF7CDFF17F031
:102AF000D5FE2046F8BD00BF8C4301208C5C020847
:102B0000745C020838430120064BC0F84C310023A6
:102B1000C0F8503100F5A273C0F84801C0F8403148
:102B2000704700BFAD2F0008064BC0F84C310023A2
:102B3000C0F8503100F5A273C0F84801C0F8403128
:102B4000704700BF5D270008064BC0F84C310023DA
:102B5000C0F8503100F5A273C0F84801C0F8403108
:102B6000704700BF612E0008064BC0F84C310023AF
:102B7000C0F8503100F5A273C0F84801C0F84031E8
:102B8000704700BFF1280008064BC0F84C31002305
:102B9000C0F8503100F5A273C0F84801C0F84031C8
:102BA000704700BF192D0008064BC0F84C310023B8
:102BB000C0F8503100F5A273C0F84801C0F84031A8
:102BC000704700BFD12B000803685B6A18470000FC
:102BD0002DE9F14FD0E9556A0746B06803681B6AD2
:102BE0009847B0F5907F05D2434B444AA32144480F
:102BF00020F04EFE706803681B6A98470F2803D8C0
:102C0000404B3E4AA421F2E7F06803681B6A9847EC
:102C10000B2803D83C4B394AA521E8E70DF0E6FA2A
:102C2000DFF8EC9004300DF006FBD9F8000010B18D
:102C30000368DB689847D9F8000010B103681B6887
:102C40009847DFF8D080D8F8000010B103685B69BE
:102C50009847D7F83C0110B103685B689847D8F8EB
:102C6000000010B103681B689847D7F83C0110B109
:102C700003689B689847F0680021FFF7A5FF4FF0B5
:102C8000000B224BC0F804B0044680F808B0036083
:102C9000B068036859465B6A9847054601F032FC04
:102CA0007068036859465B6A98472946064601F0F2
:102CB00007FC331DC7F83C61C9F80040C8F8005054
:102CC000CAF800302B68C6F808A02846DB68EE6317
:102CD0009847336830461B689847214628460FF0CE
:102CE00057FC236820461B69984723685B69204688
:102CF00001B0BDE8F04F1847284E020811520208F3
:102D00009B4F0208E24F020885500208E05C02086F
:102D1000804301207C4301202DE9F14FD0E9556A21
:102D20000746B06803681B6A9847B0F5907F05D2E4
:102D3000434B444AA321444820F0AAFD706803682D
:102D40001B6A98470F2803D8404B3E4AA421F2E75C
:102D5000F06803681B6A98470B2803D83C4B394A34
:102D6000A521E8E70DF042FADFF8EC9004300DF011
:102D700062FAD9F8000010B10368DB689847D9F807
:102D8000000010B103681B689847DFF8D080D8F8BE
:102D9000000010B103685B699847D7F83C0110B197
:102DA00003685B689847D8F8000010B103681B6897
:102DB0009847D7F83C0110B103689B689847F068C2
:102DC0000021FFF701FF4FF0000B224BC0F804B0C9
:102DD000044680F808B00360B068036859465B6A2F
:102DE0009847054602F054FB7068036859465B6AD1
:102DF00098472946064602F029FB331DC7F83C6177
:102E0000C9F80040C8F80050CAF800302B68C6F86E
:102E100008A02846DB68EE639847336830461B6895
:102E20009847214628460FF0B3FB236820461B69CC
:102E3000984723685B69204601B0BDE8F04F18470A
:102E4000284E0208EB5202089B4F0208E24F02088C
:102E500085500208E05C0208804301207C43012089
:102E60002DE9F14FD0E9556A0746B06803681B6A3F
:102E7000984741F2AF43984205D8444B444AA321B6
:102E8000444820F005FD706803681B6A98470F28C6
:102E900003D8414B3E4AA421F2E7F06803681B6A5D
:102EA00098470B2803D83D4B394AA521E8E70DF098
:102EB0009DF9DFF8F09004300DF0BDF9D9F800006D
:102EC00010B10368DB689847D9F8000010B10368B7
:102ED0001B689847DFF8D080D8F8000010B103686D
:102EE0005B699847D7F83C0110B103685B68984765
:102EF000D8F8000010B103681B689847D7F83C0168
:102F000010B103689B689847F0680021FFF75CFEEA
:102F10004FF0000B224BC0F804B0044680F808B014
:102F20000360B068036859465B6A9847054601F03C
:102F30006DFF7068036859465B6A984729460646E4
:102F400001F088FB331DC7F83C61C9F80040C8F8A0
:102F50000050CAF800302B68C6F808A02846DB6885
:102F6000EE639847336830461B68984721462846E9
:102F70000FF00EFB236820461B69984723685B69A6
:102F8000204601B0BDE8F04F184700BF284E0208A8
:102F9000C35302089B4F0208E24F02088550020803
:102FA000E05C0208804301207C4301202DE9F14FC1
:102FB000D0E9556A0746B06803681B6A9847B0F5C0
:102FC000907F05D2434B444AA321444820F060FC43
:102FD000706803681B6A98470F2803D8404B3E4A25
:102FE000A421F2E7F06803681B6A98470B2803D80E
:102FF0003C4B394AA521E8E70DF0F8F8DFF8EC90F2
:1030000004300DF018F9D9F8000010B10368DB683E
:103010009847D9F8000010B103681B689847DFF89B
:10302000D080D8F8000010B103685B699847D7F8E2
:103030003C0110B103685B689847D8F8000010B1F4
:1030400003681B689847D7F83C0110B103689B6878
:103050009847F0680021FFF7B7FD4FF0000B224BB7
:10306000C0F804B0044680F808B00360B068036894
:1030700059465B6A9847054601F084FA7068036810
:1030800059465B6A98472946064601F059FA331DAE
:10309000C7F83C61C9F80040C8F80050CAF80030D1
:1030A0002B68C6F808A02846DB68EE6398473368AB
:1030B00030461B689847214628460FF069FA236876
:1030C00020461B69984723685B69204601B0BDE82C
:1030D000F04F1847284E0208955402089B4F0208EB
:1030E000E24F020885500208E05C0208804301209C
:1030F0007C430120406A7047806A704770478A8825
:103100000B8810B5D20A4C88C1699BB251F82200D5
:1031100043EA0443184410BD10B50446BAB1107B0D
:1031200068B1537BD27A1B0203F4E0631A43236A2B
:1031300003EB82031A888A4202D193F9020010BD80
:1031400005D8013880B204330028F3D1F7E7002016
:10315000F5E710B52C2104461FF01CFC204610BDDD
:1031600030B58BB00446BDF860500895BDF85C5092
:1031700007959DF8505006959DF84C5005959DF883
:10318000485004959DF8445003959DF84050029591
:103190009DF83C500195BDF8385000950EF030FE7A
:1031A000064B2360159BE361169B2362199B6362A8
:1031B0001A9BA36220460BB030BD00BF4C5D0208D5
:1031C000806A704770477047704770477047704714
:1031D00070477047704790F82C304BB100F16C028B
:1031E0001268C2653BB100F174031B680366704747
:1031F00000F16802F4E700F17003F6E730B4C2684A
:1032000044685510034604EB6200D20748BF625978
:103210009B6830BC48BFD35818470346406830B15C
:103220009A681AB9D86800F0010070470120704709
:1032300090F82D3080F85A30704710B57821044648
:103240001FF0A8FB204610BD10B5102104461FF04A
:10325000A1FB204610BD10B54FF4907104461FF03D
:1032600099FB204610BD10B50446006B50B10368B1
:10327000DB68984730B1206B036821469B68BDE846
:103280001040184710BD0B7970B590F82C600446BB
:103290000D460BB916B170BD002EFCD0B3FA83F306
:1032A0005B0984F82C3023682046D3F88C3098478B
:1032B000236820465B699847002EECD02B79012BC0
:1032C000E9D123682046D3F88830BDE8704018471C
:1032D0006C30884208B505D10CF088FFBDE8084085
:1032E000FFF712BC08BD0000074A02600022C0E9D7
:1032F0000122C0E90322C0E90522C0E907224FF4F8
:1033000080728284704700BF9869020870B50368B4
:1033100004461B6B154698472368294620465B6B7D
:10332000BDE870401847000010B526220446002171
:1033300020F0B5FC2046FFF7D7FF044B2360FF23A6
:1033400084F826300023A362204610BD0C670208D3
:103350002DE9FF470446A04600250EF06DFF564BB1
:10336000E56348F8403B04F16C074046FFF7DCFF9B
:103370003846FFF7B9FF4FF47F43A4F89830012394
:1033800004F1A00984F890304C4BE366C4F89450E3
:10339000C4F89C504846FFF7C7FF494BC4F8A0301B
:1033A0002A4629464846C4E93555C4E93755C4F884
:1033B000CC50A4F8D05004F1E406FFF7A7FF49462B
:1033C000384607F0A3F84FF6FF7A26222946304602
:1033D000ADF80CA020F063FC3046FFF785FF394BB9
:1033E000C4F8E430BDF80C30A4F80A3184F80CA11C
:1033F00003A930460AF08DFF334BC4E94434334B04
:10340000C4E946354FF4A0732A4600932946404646
:10341000F023FFF787F904F1040A4FF07F43A36616
:10342000414650464FF03C0807F070F82A462946BE
:103430004846CDF800808223FFF774F90523A4F8ED
:10344000D030234BC4F8D43003F54C533333C4F895
:10345000D830A3F5CC43663BC4F8DC3003F133131A
:1034600003F54C53C4F8E0303846FFF7B4FE04F5DA
:103470008873C4F89C30E32282233846CDF800805C
:103480003021FFF74FF93946504607F03FF82A46FA
:1034900029463046FFF73AFF0F2303A93046ADF81F
:1034A0000C300AF036FF5046314607F02FF8204620
:1034B00004B0BDE8F08700BF685E0208B45D020892
:1034C000E8670208C8680208505E0208D1320008A6
:1034D000996600FF70477047704730B4C26844680F
:1034E0005510034604EB6200D20748BF62599B683F
:1034F00030BC48BFD35818470346406830B19A687B
:103500001AB9D86800F0010070470120704710B563
:10351000102104461FF03EFA204610BD10B54FF4AE
:10352000907104461FF036FA204610BD983088424C
:1035300008B505D10CF05AFEBDE80840FFF714BBF2
:1035400008BD00002DE9FF470446A04600250EF007
:1035500073FE584BE56348F8403B04F16C07404666
:10356000FFF7E2FE4FF6FF76262229463846ADF8F1
:103570000C6020F094FB3846FFF7B6FE4E4BE36636
:10358000BDF80C30A4F8923003A984F89460384652
:1035900004F198060AF0BDFE3046FFF7A5FE4FF491
:1035A0007F43A4F8C430012304F1CC0984F8BC3073
:1035B000424BC4F89830C4F8C050C4F8C8504846CC
:1035C000FFF7B2FE3E4BC4F8CC302A4629464846A7
:1035D000C4E94055C4E94255C4F8F850A4F8FC5079
:1035E000FFF794FE4946304606F090FF354BC4E99C
:1035F0004434354BC4E946354FF4A0732A46009352
:1036000029464046F023FFF78DF804F1040A4FF0F5
:103610007F43A3664146504606F078FF2A46294676
:103620003846FFF773FE022303A93846ADF80C3085
:103630000AF06FFE39465046472706F067FF2A46D4
:10364000294648460097A023FFF76CF80523A4F805
:10365000FC301E4BC4F8003103F54C533333C4F82F
:103660000431A3F5CC43663BC4F8083103F13313AE
:1036700003F54C53D4F89880C4F80C313046FFF76A
:10368000AAFD84F8C550D8F890303046984704F524
:103690008873C4F8C830A0231A4630460097282102
:1036A000FFF740F85046314606F030FF204604B0A0
:1036B000BDE8F087B45E0208C8680208B45D02087D
:1036C000E86702089C5E02082D350008996600FF35
:1036D000704770477047704770477047704730B405
:1036E000C26844685510034604EB6200D20748BF25
:1036F00062599B6830BC48BFD3581847034640689E
:1037000030B19A681AB9D86800F0010070470120FA
:10371000704730B4C26844685510034604EB620039
:10372000D20748BF62599B6830BC48BFD35818477E
:103730000346406830B19A681AB9D86800F00100B1
:1037400070470120704710B57C2104461FF022F914
:10375000204610BD10B5102104461FF01BF920466D
:1037600010BD10B5102104461FF014F9204610BDFD
:1037700010B54FF4F67104461FF00CF9204610BD49
:1037800070B504460D46FFF77EFDA06F58B1036883
:10379000DB68984738B1A06F03682A4621469B68CA
:1037A000BDE87040184770BD38B500F1E803994294
:1037B00004460D4606D10368DB6A98470CF016FDF7
:1037C000FFF7C2F904F16C039D4209D1236820463A
:1037D0001B6B98470CF00AFDBDE83840FFF7B4B901
:1037E00038BD00F5C870884208B505D10CF0FEFC64
:1037F000BDE80840FFF788B908BD000070B5044671
:10380000FFF772FD4FF47F432646A3850123002571
:1038100084F824300D4BA562256346F8343B3046CE
:10382000FFF782FD0A4B63632A4629463046C4E906
:103830001A55C4E91C552566A4F86450FFF766FDC7
:103840002046314606F062FE204670BDB45D020897
:10385000E86702082DE9F04F044689B0A14600252B
:103860000EF0EAFC724BE56349F8403B04F16C0A48
:103870004846FFF759FD04F1E8086E4E4FF0010786
:103880005046FFF7BBFFE66684F89070C4F8E4503A
:103890004046FFF7B3FFC4F8E86004F5B27626228D
:1038A000294684F80C71C4F860514FF6FF77304612
:1038B000ADF81C7020F0F3F93046FFF715FD5E4BB4
:1038C000C4F86431BDF81C30A4F88A3104F5C87B13
:1038D00007A984F88C7130460AF01BFD58460AF09F
:1038E000F1FC564BC4E97334554BC4E97535554B5F
:1038F000C4E97734544BC4E979354FF4A0732A46B0
:10390000009329464846F023FEF70CFF271D4FF091
:103910007F43A366494638464FF0550906F0F6FD49
:103920002A46294604F1A000CDF80090C623FEF7F0
:10393000F9FE4FF00503454A4549A4F8D030454803
:10394000454BC4E93710C4E935325046FFF743FC14
:1039500004F5E67EC4F89CE0C623D2225046CDF89A
:1039600000901521CDF80CE0FEF7DCFE51463846FC
:1039700006F0CCFD2A46294604F58E70CDF800905D
:10398000C623FEF7CFFE344B304A314931484FF061
:10399000050CA4F84CC1C4E95432C4E956104046A1
:1039A000FFF719FC039BC4F818315E22C62340467A
:1039B000CDF800901521FEF7B5FE4146384606F0D9
:1039C000A5FD2A4629463046FFF7A0FC4FF001032B
:1039D00007A93046ADF81C300AF09BFC314638464A
:1039E00006F094FD2A4629465846FFF78FFC0A2325
:1039F000ADF81030ADF814300923ADF81830ADF83B
:103A00001C3007AB009305AA06AB04A958460AF080
:103A1000C3FB6123C4F8C83104F5EE733846C4F81B
:103A2000B831594606F072FD204609B0BDE8F08F66
:103A3000B45F0208E85E0208C8680208845F0208F2
:103A4000A93700089C5F0208E3370008CC9900FF03
:103A5000663300FF996633FF996600FF7047704731
:103A60007047704770477047704730B4C268446809
:103A70005510034604EB6200D20748BF62599B68A9
:103A800030BC48BFD35818470346406830B19A68E5
:103A90001AB9D86800F0010070470120704710B5CE
:103AA000102104461EF076FF204610BD10B54FF4DD
:103AB000517104461EF06EFF204610BD00F19803C0
:103AC000994270B504460D4603D10CF08FFBFFF709
:103AD0002BF804F5D6739D4203D123682046DB6A98
:103AE000984704F588739D4203D1236820461B6BD9
:103AF000984704F1D4039D4203D1236820465B6BB1
:103B0000984704F5B8739D4205D1236820469B6B06
:103B1000BDE87040184770BD0022C0E90122C0E92D
:103B20000322C0E90522C0E907224FF48072828493
:103B3000014A0260704700BFF05F020838B52622D4
:103B400004460D46002120F0AAF82046FFF7E4FFC6
:103B5000064B23602B88E384FF23204684F828301B
:103B600029460AF0D6FB204638BD00BFC8680208C7
:103B70002DE9F04F2DED028B04468DB0A1460025B6
:103B80000EF05AFBDD4BE56349F8403B26273A46E9
:103B90002946484620F083F84846FFF7BDFFD84B3A
:103BA000236404F16C0AFF234FF6FF760BA984F817
:103BB0006630A5665046ADF82C60FFF7BFFF04F1F4
:103BC0009803184602930AF07DFB04F1D40304F530
:103BD000887B184603930AF075FB3A4629465846F7
:103BE00020F05DF85846FFF797FF012384F8343141
:103BF000C44BC4F8103104F5A2730BA9A4F83E61BC
:103C0000A4F8406184F84261C4F8385184F83C510A
:103C100018460493ADF82C60FFF790FF04F5B873D5
:103C2000184605930AF04EFB04F5D67304F5F478B4
:103C3000184604F51E7706930AF044FB0BA940468C
:103C4000ADF82C6009F0B8FB0BA93846ADF82C6034
:103C500009F0B2FB04F542730BA918460793ADF8BF
:103C60002C60FFF76BFFA84B9FEDA88AC4E9CD3409
:103C7000A74B2A46C4E9CF3529464846FFF746FBFD
:103C80004846F021FDF758FB48464FF4A071261D29
:103C9000FDF754FB4FF07F43A3664946304606F0DC
:103CA00035FC2A4629465046FFF730FB0BA9504603
:103CB000ADF82C500AF02DFB5146304606F026FC9C
:103CC00002982A462946FFF721FB0A23ADF8203047
:103CD000ADF824300BAB4FF0090909AA0298009304
:103CE00008A90AAB04F54D7AADF82890ADF82C90F0
:103CF0000AF052FA6123C4F8D0300299C4F8C0A087
:103D0000304606F003FC039840F20712BE21FFF78D
:103D1000FDFA0C23ADF82030ADF824300BAB09AA26
:103D20000398009308A90AABADF82890ADF82C9041
:103D30000AF032FA6123C4F80C310399C4F8FCA0EC
:103D4000304606F0E3FB584640F207128C21FFF79D
:103D5000DDFA0B230BAA0AA95846ADF82830ADF8B6
:103D60002C300AF0AFF8C4F838A15946304606F0B6
:103D7000CDFB40F2171204983F21FFF7C7FA052345
:103D80000498ADF82C300BA90AF0C3FA0499304618
:103D900006F0BCFB0598D522BE21FFF7B7FA0D232C
:103DA000ADF82030ADF824300BAB09AA059800938C
:103DB00008A90AABADF82890ADF82C900AF0ECF900
:103DC0006123C4F8A8310599C4F898A1304606F0DB
:103DD0009DFB069840F207120321FFF797FA0E2386
:103DE000ADF82030ADF824300BAB09AA069800934B
:103DF00008A90AABADF82890ADF82C900AF0CCF9E0
:103E00005F23C4F8E4310699C4F8D4A1304606F023
:103E10007DFB882240466FF01D01FFF777FA0BA962
:103E200003234046ADF82C3009F068FC394BC4F848
:103E3000F031394BC4F81432404684ED868A09F0DB
:103E400007FBDFF8E090DFF8E0A0B7EE000A40469D
:103E500009F065FC4046C4F8409209F0F9FA404682
:103E6000C4F82CA2C4F830A2C4F8349209F0F0FAD5
:103E70004046C4F838A2C4F83CA209F0E9FAB0EE12
:103E8000481AF0EE480AB0EE480A404609F03FFCF6
:103E90004146304684F8115206F038FBD4223846A9
:103EA0002C21FFF733FA0BA908233846ADF82C3044
:103EB00009F024FC4FF09813C4F88032174BC4F873
:103EC000A432174BC4F8A832384609F0C1FAB7EE4D
:103ED000000A384609F023FCDFF85080C4F8D0927D
:103EE000384609F0B5FA3846C4F8BC82C4F8C08236
:103EF000C4F8C49209F0ACFA384619E070600208C0
:103F00000C6702087467020858600208000000008D
:103F1000BD3A000830013001000016430000504255
:103F20000000D84100007A44000018430000984285
:103F3000C4F8C882C4F8CC8209F08AFAB0EE481AF4
:103F4000F0EE480AB0EE480A384609F0E0FB394680
:103F5000304684F8A15206F0D9FA40F217120798B9
:103F60006E21FFF7D3F906230798ADF82C300BA983
:103F70000AF0CFF93046079906F0C8FA20460DB08E
:103F8000BDEC028BBDE8F08F7047000030B5164DD8
:103F90002C6814F001048FB0BFF35B8F20D128464A
:103FA0001EF0FAFCE0B13F230993104B0893104B2D
:103FB000104911480A940122CDE906430423CDE9B2
:103FC00003320A230093CDE90B44CDE90144059463
:103FD000FFF7C6F809481FF079FC28461EF0E8FCF8
:103FE00005480FB030BD00BF6C2C0020BC88020813
:103FF0000889020868870208702C0020893F0008A1
:104000007047000030B5164D2C6814F001048FB0D5
:10401000BFF35B8F21D128461EF0BEFCE8B13F23E1
:104020000993104B0893104B07930123CDE90543E7
:1040300004930423CDE9024314230C49009308227E
:10404000CDE90B440A480A940194FFF789F809481E
:104050001FF03CFC28461EF0ABFC05480FB030BDFD
:104060009C2C0020C08802080C890208788702086E
:10407000A02C0020014000087047000030B5174D0B
:104080002C6814F001048FB0BFF35B8F22D1284657
:104090001EF082FCF0B13F230993114B0893114BA2
:1040A000114912480A94CDE9064301220423CDE9BF
:1040B0000332282300930F222923CDE90B44CDE9B5
:1040C00001440594FFF74CF809481FF0FFFB284610
:1040D0001EF06EFC05480FB030BD00BFCC2C002098
:1040E000D088020810890208E8870208D02C002036
:1040F0007940000800207047002070470EB403B5D7
:1041000003AB002153F8042B01930DF0F7F802B034
:104110005DF804EB03B070470CB407B504AB53F87B
:10412000042B01930DF0EAF803B05DF804EB02B044
:1041300070470000436C10B5044673B3038F2BB96E
:10414000184B194AC52119481FF0A2FBC38E00EB7A
:1041500043035B8C0BB30EF042FF238F012B03D87C
:10416000134B144ACB21EEE7E28E531C9BB2092B72
:10417000194688BFA3F10A0104EB410140F63F1044
:10418000498C814209D10A2B04EB420228BF00234B
:1041900004EB4303508C588451842046BDE8104002
:1041A0000EF020BE67550208705502081B56020823
:1041B00065560208735602080EF0DBBD38B518BB11
:1041C000124B13481C681349B4B1226822440260A0
:1041D000626822440A60A26814440F4B00221A80CD
:1041E00000F02AF8054600F025F80C4B1C600C4B3B
:1041F0001D600C4B188007E00B4B03600B4B0B60F2
:104200000B4B1C68002CE8D138BD00BF082D0020E6
:10421000002D0020FC2C0020042D002090430120C4
:104220009843012094430120208902081489020840
:104230005889020803207047004870470C2D002061
:1042400010B5FFF7DFFE044C2060FFF717FF60603A
:10425000FFF79CFEA06010BD0C2D002010B50024BF
:1042600004600C6014601C6010BD7047704770479C
:10427000704730B4C26844685510034604EB6200CE
:10428000D20748BF62599B6830BC48BFD358184713
:104290000346406830B19A681AB9D86800F0010046
:1042A00070470120704710B5102104461EF072FBC4
:1042B000204610BD10B54FF4907104461EF06AFB05
:1042C000204610BD00F16C028A4208B508D103688F
:1042D000DB6A98470BF08AFFBDE80840FEF734BC64
:1042E00008BD00002DE9FF470446A04600250DF05B
:1042F000A3FF564BE56348F8403B04F16C0740468A
:10430000FFF712F83846FEF7EFFF4FF47F43A4F8AB
:104310009830012304F1A00984F890304C4BE366F7
:10432000C4F89450C4F89C504846FEF7FDFF494B32
:10433000C4F8A0302A4629464846C4E93555C4E9A0
:104340003755C4F8CC50A4F8D05004F1E406FEF779
:10435000DDFF4946384606F0D9F84FF6FF7A2622A7
:1043600029463046ADF80CA01FF099FC3046FEF708
:10437000BBFF394BC4F8E430BDF80C30A4F80A3167
:1043800084F80CA103A9304609F0C3FF334BC4E9FC
:104390004434334BC4E946354FF4A0732A460093A6
:1043A00029464046F023FEF7BDF904F1040A4FF018
:1043B0007F43A366414650464FF0320806F0A6F808
:1043C0002A4629464846CDF800803A23FEF7AAF946
:1043D0000523A4F8D030234BC4F8D43003F54C5354
:1043E0003333C4F8D830A3F5CC43663BC4F8DC3093
:1043F00003F1331303F54C53C4F8E0303846FEF7AD
:10440000EAFE04F58873C4F89C30E0223A2338466B
:10441000CDF800805721FEF785F93946504606F061
:1044200075F82A4629463046FEF770FF102303A987
:104430003046ADF80C3009F06CFF5046314606F0BE
:1044400065F8204604B0BDE8F08700BFCC600208E4
:10445000B45D0208E8670208C8680208B460020890
:10446000C5420008996600FF704710B54FF4AE7161
:1044700004461EF08FFA204610BD10B50446D0F851
:10448000580100F04EF82046BDE810400BF030BF58
:1044900010B50446FEF704FB014B2360204610BD17
:1044A00004610208704704387047704710B5102146
:1044B00004461EF06FFA204610BDA0F10400F5E797
:1044C00000228260024A026018324260C160704776
:1044D000586102087047000010B5034B03600446A2
:1044E000FEF777FE204610BD8061020810B5044635
:1044F000FFF7F2FF20464FF490711EF04BFA204672
:1045000010BD000010B50446FEF722FF014B2360EA
:10451000204610BD80610208FEF75CBE00220260EA
:1045200070477047704704387047704710B51021C6
:1045300004461EF02FFA204610BDA0F10400F5E756
:1045400000228260024A026018324260C1607047F5
:10455000B46102087047000010B5034B03600446C5
:10456000FEF7B9FF204610BDDC61020810B5044615
:10457000FFF7F2FF20464FF490711EF00BFA204631
:1045800010BD000010B50446FEF7DCFF014B2360B0
:10459000204610BDDC610208FEF79EBF704704385C
:1045A0007047704710B5102104461EF0F3F92046FD
:1045B00010BDA0F10400F5E700228260024A02600B
:1045C00018324260C16070471062020870470000F4
:1045D000034B00221A60034B03221A60704700BF8E
:1045E000202D00201C2D0020014B01221A60704755
:1045F000202D002010B5034B03600446FFF76DF833
:10460000204610BD3862020810B50446FFF7F2FFDD
:1046100020464FF4F6711EF0BDF9204610BD000093
:1046200010B50446FFF716F9014B2360204610BD74
:1046300038620208FFF752B8704704387047704775
:1046400010B5102104461EF0A5F9204610BDA0F1BA
:104650000400F5E700228260024A026018324260DC
:10466000C16070477462020870470123C0F8483384
:1046700070470123C0F84C337047000010B5D0F8E4
:1046800058332DED028B044693BBD0F84433DFED55
:10469000256A9FED257AB3F5B47F2FD2C3F5B473A5
:1046A00007EE903AF8EEE77A67EEA67AC7EE878AC9
:1046B000B0EE680A1EF0FAF930EE008AB0EE680A31
:1046C0001EF0B0F9B4F90C3384EDD78A07EE903AB6
:1046D000B4F90E33F8EEE77A30EE000AC4EDD97A79
:1046E00007EE903AF8EEE77A84EDD80AC4EDDA7A6C
:1046F000BDEC028B0123C4F8583310BDA3F5B4738D
:1047000007EE903AF8EE677A67EEA67AC7EE878AE8
:10471000B0EE680A1EF0CAF9F8EE007A20EE278A99
:10472000CCE700BFC3F548400000344338B5094B1F
:104730000360044641F27845B5F5527F05D06359D0
:1047400060191B6898472C3DF6E72046FFF78BF968
:10475000204638BDA062020810B50446FFF7E6FF08
:10476000204641F2B0411EF015F9204610BD026806
:10477000D0ED0E0AD26FB0EE401A90ED0D0A104740
:10478000F0B5174D174A2C68002113468C4202F1F0
:104790000C021EDC14480268C2F1010606600C20FF
:1047A000002A00FB043300FB02F24FF0000014BFAC
:1047B00009210A210746012601308142C3E9002769
:1047C0009E6002F1180203F10C03F5D12144296027
:1047D000F0BD52F8080C183042F8080C0131D5E74A
:1047E0009031002098310020943100202DE9F043D1
:1047F000ADF23C4D6A465A23174600210120013B89
:10480000C2E90011906002F10C02F8D1DFF85CC03F
:10481000154CDCF800801D46A6464FF00C09984563
:104820000ADCCCF8005000244FF00C0CA54210DC40
:104830000DF23C4DBDE8F083A268042ADFBF94E886
:10484000070009FB057686E80700013501330C34C3
:10485000E5E70CFB04F30EEB03063B4493E807008B
:10486000013486E80700E1E798310020903100200C
:1048700082B084B00DF1100C042A0CE907000593F6
:1048800009DC079A042A06DC02469A420846069981
:1048900003D1884205D1002009E0D21A1832302A0B
:1048A000F9D8401A183030288CBF0020012004B0FD
:1048B00002B070472DE9F04FADF26C4D05AB83E8C7
:1048C00007000CAA5A24174600210120013CC2E926
:1048D0000011906002F10C02F8D193E80700274B19
:1048E000DFF8A4B01B68049387E8070009AE4FF017
:1048F0000C0A0AFB047393E8070086E80700DFF858
:104900008C901F4D0392013C4FF00008049B4345DF
:1049100005DC002CEDDA0DF26C4DBDE8F08F039B49
:10492000B360174B0AFB08320AAB93E803008DE82B
:10493000030007CA3368FFF79BFFC0B1AB68039A57
:10494000934214D1D9F800308BB9DBF800305A1CEF
:10495000CBF800200B4A42F8238095E8070001239A
:104960001C44C9F800300AFB047383E8070008F10F
:10497000010809F104090C35C8E700BF9031002097
:10498000983100202830002024300020242D0020E1
:104990002DE9F04FADF2644D03AB83E807000AAA9E
:1049A0005A24164600210120013CC2E90011906002
:1049B00002F10C02F8D193E807001F4BDFF87CB03E
:1049C0001B68029386E8070007AD4FF00C0A0AFB4C
:1049D000046393E8070085E80700DFF86490013C72
:1049E0004FF00008029B434505DC002CEFDA0DF286
:1049F000644DBDE8F08F0AFB08F30BEB0307D7E922
:104A000001018DE8030095E807005BF80330FFF72C
:104A10002FFF60B1D9F800304BB997E807000223A7
:104A20000134C9F800300AFB046383E8070008F189
:104A3000010809F10409D5E79031002098310020E0
:104A4000BC2E00202DE9F04F3D4B3E4FD3F800A087
:104A50008FB0044600254FF00C0B00F10408AA4566
:104A60001ADC6368002B66D1374B226819680C2367
:104A7000C1F1010159431820531A93FBF0F343434A
:104A8000581818330B44151AD21A52436D43AA42D0
:104A9000B8BF184620604EE098E803008DE8030098
:104AA0000BFB05F907EB090696E807002368FFF7FB
:104AB000DFFE002842D057F809107068A1F10C05FC
:104AC00001F10C0201F11806039518390795656884
:104AD0000292CDE90512CDE90A0000F1180118385B
:104AE000CDE90811CDE90C00691A9A1A49430496D8
:104AF00002FB02120DF1080E0DF1200C0127002619
:104B00005CF8040F5EF8041F281A591A404301FB91
:104B100001019142B8BF3E4607F10107B8BF0A46FE
:104B2000062FEDD10EAB03EB860353F8302C53F870
:104B3000183C226063600FB0BDE8F08F01358EE74E
:104B40009031002098310020943100202DE9F04F61
:104B5000ADF24C4D01AD85E807002846FFF772FF26
:104B600004AB5A27984600220121013FC3E90022E5
:104B7000996003F10C03F8D15B4E5C4CD6F800A0B1
:104B8000A6463B46A1464FF00C0BBA4503F1010C7B
:104B90005FDC00274FF00C0ABB426BDCDFF8608162
:104BA000534FC6F800C00122C8F80020514A1360D4
:104BB00095E807004FF00C0E0EFB039E8EE80700F1
:104BC0004D494FF0000AC7F800A052460846D646A5
:104BD000624559DB012240F8232095E80700FFF7E2
:104BE00069FED8F80020022A2FDD444DD6F800E0F7
:104BF00000232946AB4618469E4549DC3D49002323
:104C00004FF0010C51F8040B01339A424BF820C0CD
:104C1000F8D100203B68DFF8E480DFF8D0C0DFF88F
:104C2000E4A00246964537DC00B13B60DFF8D4A033
:104C30004FF000083A6842454FF00C033ADC316807
:104C4000002306200526994241DC0DF24C4DBDE8BB
:104C5000F08FDEF80820042ADEBF9EE807000BFB79
:104C6000038383E8070007F10107D8BF63460EF10D
:104C70000C0E8AE70AFB07F209EB020E424407CA50
:104C800001378EE8070087E741F804EB01329FE720
:104C900041F8040B0133AFE758F8041B31B9DCF8D5
:104CA000041019B94AF823200120013301320CF114
:104CB0000C0CB7E75AF8042B02214BF8221003FB27
:104CC000029207CAFFF764FE08F10108B2E755F83F
:104CD000042B22B1012A04D001330C34B3E7A060C5
:104CE000FAE7A660F8E700BF903100209831002075
:104CF0008C2E002028300020242D0020BC2E0020E7
:104D000024300020902E0020094B1968094B002206
:104D1000914201DC002070479868042802DC586842
:104D2000DF2802DC01320C33F2E70120704700BFBC
:104D300090310020983100202DE9F04186B003AC7D
:104D40000E4B0F4E1F6884E8070000254FF00C083B
:104D5000AF4203DC002006B0BDE8F08108FB05F39C
:104D6000F218D2E901018DE8030094E80700F35836
:104D7000FFF77EFD0128EED00135E9E790310020F4
:104D800098310020023902299ABF024B585C062054
:104D9000704700BF9462020873B5D0E9D431C0E90E
:104DA000D413044600F54276FFF7ECFF01A9ADF8F5
:104DB0000400304609F0ADFAD4F854132046FFF74A
:104DC000E1FF04F5A275ADF8040001A9284609F039
:104DD000A0FA30460CF0BCFB284602B0BDE870409B
:104DE0000CF0B6BB10B5074B074A196800231846EC
:104DF000994200DC10BD9468042CD8BF0130013307
:104E00000C32F5E790310020983100202DE9F7436E
:104E10000646FEF7ADFE234B336000254FF4917339
:104E2000C6E9D13506F5A5570023DFF87C90C6F812
:104E30004C53C6F85853C6F85C33C6F8603306F5D1
:104E40005D7404374FF6FF780123A580E580258146
:104E50006581A581E58125826582E561258465847A
:104E600084F8245084F82530C4F80090A4F82680F3
:104E700084F82880C4E90555204601A92C34ADF8F2
:104E8000048009F046FABC42DED106F58053304674
:104E9000C3F8A454C3F8A854C3F8AC5403B0BDE895
:104EA000F08300BFA0620208C8680208054B5A22BE
:104EB00000210120013AC3E90011986003F10C03BD
:104EC000F8D17047983100202DE9F74F044600F5DE
:104ED0005D75002600F5805A071DDAF8A434B34248
:104EE0000FDC0023264EDFF89C8025461F4699469E
:104EF000CAF8A434D8F80030BB420DDC03B0BDE8DA
:104F0000F08F2B6828465B6998472946384605F09C
:104F10003EFB01362C35E0E7B168D5F8743304293F
:104F2000C8BF85F8999320461A6EFFF72BFF05F549
:104F30005D7BADF8040001A9584690477268B6F948
:104F400000101E3212B25846FEF7E0F9DAF8A41447
:104F50002C2359436318D3F888332BB901F55D71BD
:104F60002144201D05F0D2FAD5F8743358465B6908
:104F70009847DAF8A434013701332C350C36B7E7FB
:104F800098310020903100202DE9F04FD0F84833BF
:104F90002DED028B012B85B0044603D0CA4B1B8834
:104FA000632B35D8D4F84433DFEDC88A9FEDC88A27
:104FB000B3F5917F84BF03F1FF33C4F84433D4F8D1
:104FC00044334FF4B475B3FBF5F205FB123300EE36
:104FD000103AB8EEC00A04F51E7020EE280A80EEE2
:104FE000080AFFF7C4FBD4F84433B3FBF5F205FB22
:104FF000123304F5F47000EE103AB8EEC00A20EE59
:10500000280A80EE080AFFF7B2FB0023C4F84833F1
:10501000D4F84C33012B05D0AB4B1A8840F6D27331
:105020009A4234D9D4F84433DFEDA88A9FEDA88A98
:10503000B3F5D77F3CBF0133C4F84433D4F84433CD
:105040004FF4B475B3FBF5F205FB123300EE103AE2
:10505000B8EEC00A04F51E7020EE280A80EE080A99
:10506000FFF785FBD4F84433B3FBF5F205FB1233AD
:1050700004F5F47000EE103AB8EEC00A20EE280AEB
:1050800080EE080AFFF773FB0023C4F84C33D4F812
:105090005833012B04F5805551D1B4F90E83D4F85F
:1050A0005033B4F90C730197A8F11E02CDE9022325
:1050B00001AE96E80700FFF73FFEB0BBB8F11D0F49
:1050C00033DD013FBFB2D62F05D9D4EDD77AF1EE4B
:1050D000677AC4EDD77AD4EDD97A94EDD77A77EEA2
:1050E000C77A94EDD87AC4EDD97AD4EDDA7A77EE2E
:1050F000C77A04F54276C4EDDA7A30460CF028FA25
:1051000094EDDA7AD4EDD97ABDEEC77AFDEEE77A7E
:1051100017EE103A1AB217EE903A304619B2FEF76F
:10512000F5F830460CF014FA09E00023C4F85833BF
:10513000012396E80700C5F8A834FFF707FDD5F866
:10514000A834012B5DD1DFF88C81DFF88CB1DFF85A
:1051500094A1C5F8AC3426460027DBF80020013ABC
:10516000BA4221DC5B490C2303FB0219D9F8083051
:10517000052B46D104F5427630460CF0E9F9B4F837
:105180000E330333A4F80E3330460CF0E1F9B4F9D2
:105190000E33B3F5A07F34DA0023C5F8AC3405B084
:1051A000BDEC028BBDE8F08FD8F80820053A012A43
:1051B00022D8D6F8742306F55D705269814690476F
:1051C000B6F87A13D6F874230331526B09B2484605
:1051D0009047D6F87423484652699047DAF8002081
:1051E000002312B90122CAF80020B6F97A23B2F5D9
:1051F000A07FB8BFC5F8AC3401372C3608F10C08D5
:10520000ABE7D5F8AC040128C9D1334A314912685B
:105210000023C5F8A834013AC4F858332C26C5F841
:10522000AC3404F299359A4214DCFFF7DFFA2B4BC9
:105230001B68002B3CD1FFF7D5FDE0B9D4F86C33E7
:105240009BB90AF0D3FFFDF79FFC254A1368013391
:105250001360A4E78F68052F08BF06FB03F701F171
:105260000C0108BFE8550133DDE7013BC4F86C339E
:10527000FFF786FA0CE01B4B1B680BBBD4F86C33B2
:1052800033B1FFF77DFAD4F86C33013BC4F86C33CB
:105290002046FFF719FEFFF737FD012824D10AF059
:1052A000A5FF05B0BDEC028BBDE8F04FFDF77CBC5F
:1052B000FFF798FD0028DBD00A4B1B68002BD7D0E6
:1052C000084B00221A60E3E7F6290020C3F54840A6
:1052D000000034439831002090310020202D002020
:1052E0001C2D0020182D002004F5427504F5A2762F
:1052F00028460CF02DF930460CF02AF940F217122E
:105300006C212846FEF702F80123D4F85413C4F8A0
:105310005013C4F854332046FFF734FD01A9ADF80B
:105320000400284608F0F5FFD4F854132046FFF790
:1053300029FD01A9ADF80400304608F0EAFF28462F
:105340000CF006F930460CF003F90023C4F858338A
:1053500025E700BFF0B52DED028B83B00446FEF7C4
:1053600083FB2E4ADFED2E8A9FED2E8A00231360E9
:105370002D4A13602D4B1B68C4F86C3304F542773B
:105380000123C4E9D43301A906233846ADF804301B
:1053900008F0BFFFD4F854132046FFF7F3FC04F5E0
:1053A000A27601A9ADF80400304608F0B2FFD4F8A7
:1053B00044334FF4B475B3FBF5F205FB123300EE42
:1053C000103AB8EEC00A04F5F47020EE280A80EE18
:1053D000080AFFF7CCF9D4F84433B3FBF5F205FB28
:1053E000123304F51E7000EE103AB8EEC00A20EE3B
:1053F000280A80EE080AFFF7BAF938460CF0A8F838
:1054000030460CF0A5F8FFF7BBF9204603B0BDEC21
:10541000028BBDE8F040FFF757BD00BF9031002080
:10542000C3F5484000003443943100201C2D002077
:10543000704704387047704710B5102104461DF0BE
:10544000A9FA204610BDA0F10400F5E70022826011
:10545000024A026018324260C1607047E46202088A
:105460007047000010B5034B03600446FEF7FFFED3
:10547000204610BD0C63020810B50446FFF7F2FF8A
:1054800020464FF490711DF085FA204610BD0000B3
:1054900010B50446FEF726FF014B2360204610BDE1
:1054A0000C630208FEF7E4BEF02070474FF4A070D2
:1054B00070472920FCF72ABC2820FCF727BC08B538
:1054C000FCF7F8FBCA20FCF721FCC320FCF702FC28
:1054D0000820FCF7FFFB5020FCF7FCFBCF20FCF77B
:1054E00015FC0020FCF7F6FBC120FCF7F3FB302095
:1054F000FCF7F0FBED20FCF709FC6420FCF7EAFB6D
:105500000320FCF7E7FB1220FCF7E4FB8120FCF70B
:10551000E1FBE820FCF7FAFB8520FCF7DBFB002031
:10552000FCF7D8FB7820FCF7D5FBCB20FCF7EEFB93
:105530003920FCF7CFFB2C20FCF7CCFB0020FCF73C
:10554000C9FB3420FCF7C6FB0220FCF7C3FBF720A5
:10555000FCF7DCFB2020FCF7BDFBEA20FCF7D6FBC8
:105560000020FCF7B7FB0020FCF7B4FBB120FCF7F0
:10557000CDFB0020FCF7AEFB1B20FCF7ABFBB620FD
:10558000FCF7C4FB0A20FCF7A5FBA220FCF7A2FB5A
:10559000C020FCF7BBFB1020FCF79CFBC120FCF7F4
:1055A000B5FB1020FCF796FBC520FCF7AFFB4520B0
:1055B000FCF790FB1520FCF78DFBC720FCF7A6FB42
:1055C0009020FCF787FB3620FCF7A0FBC820FCF7F7
:1055D00081FBF220FCF79AFB0020FCF77BFBB0205C
:1055E000FCF794FBC220FCF775FBB620FCF78EFBA2
:1055F0000A20FCF76FFBA720FCF76CFB2720FCF7C9
:1056000069FB0420FCF766FB2A20FCF77FFB0020E7
:10561000FCF760FB0020FCF75DFB0020FCF75AFB69
:10562000EF20FCF757FB2B20FCF770FB0020FCF76A
:1056300051FB0020FCF74EFB0120FCF74BFB3F2009
:10564000FCF748FBF620FCF761FB0120FCF742FB6E
:105650000020FCF73FFB0620FCF73CFB2C20FCF76E
:1056600055FBC820FCF7A0FB2620FCF74FFB0120D0
:10567000FCF730FBE020FCF749FB0F20FCF72AFB8E
:105680002920FCF727FB2420FCF724FB0C20FCF747
:1056900021FB0E20FCF71EFB0920FCF71BFB4E2014
:1056A000FCF718FB7820FCF715FB3C20FCF712FBFD
:1056B0000920FCF70FFB1320FCF70CFB0520FCF77F
:1056C00009FB1720FCF706FB1120FCF703FB002069
:1056D000FCF700FBE120FCF719FB0020FCF7FAFACD
:1056E0001620FCF7F7FA1B20FCF7F4FA0420FCF76D
:1056F000F1FA1120FCF7EEFA0720FCF7EBFA312063
:10570000FCF7E8FA3320FCF7E5FA4220FCF7E2FA6E
:105710000520FCF7DFFA0C20FCF7DCFA0A20FCF786
:10572000D9FA2820FCF7D6FA2F20FCF7D3FA0F205D
:10573000FCF7D0FA1120FCF7E9FAC820FCF734FB9B
:105740002920FCF7E3FABDE808402C20FCF7DEBA7C
:1057500008B5FCF7AFFA0321D320FCF7F3FA80B2C7
:1057600008BD10B5C4B2022203212046FCF758FA46
:105770000A20FCF79DFA204600220321FCF750FA8C
:10578000BDE810400220FCF793BA38B50446E4B2F5
:10579000FCF744FA00212046FCF75AFA012105469D
:1057A0002046FCF755FA40EA052080B238BD10B516
:1057B000C4B240212046FCF74BFA030607D54C2122
:1057C0002046FCF745FA003818BF012010BD012221
:1057D0004B212046FCF724FA204600224B21FCF7FF
:1057E0001FFA0020F2E773B50423C4B20E46154633
:1057F000D7210DEB03022046FCF744FA019B1BBAAC
:105800001A0DC3F30B23328020462B8001224B213B
:10581000FCF706FA00224B212046FCF701FA02B001
:1058200070BD000010B50A4A1378984204460DD0A6
:10583000517888420AD00BB141B90123D454FCF706
:10584000EDF92046BDE81040FFF78BBF10BD00BF4B
:10585000D035002010B5C4B209212046FCF7F8F974
:1058600040F00102D2B220460921BDE81040FCF709
:10587000D7B910B5C4B209212046FCF7E9F90921CE
:1058800000F0FE022046BDE81040FCF7C9B938B56B
:10589000C4B20D4620460A21FCF7DAF940EA0502B7
:1058A000D2B220460A21BDE83840FCF7B9B910B59C
:1058B0000446FCF7B4F920461F21FFF7E8FF204615
:1058C000BDE81040FFF7C6BF38B5C4B20D4620464C
:1058D0000A21FCF7BDF920EA0502D2B220460A21CE
:1058E000BDE83840FCF79CB910B50446FFF7C1FF8E
:1058F00020461F21BDE81040FFF7E6BF10B5C0B23B
:105900000C460B21FCF7A4F9204010BD1F21FFF726
:10591000F5BF0A46C0B20B21FCF782B91F21FFF781
:10592000F8BF38B5C4B20D4620461721FCF790F9F0
:1059300020EA0502D2B220461721BDE83840FCF724
:105940006FB970B5C4B2064604212046FCF780F951
:10595000042100F0FB0205462046FCF761F93046C1
:10596000F021FFF7DEFF05F0F80220460421FCF7E6
:1059700057F9492220212046FCF752F90220FCF772
:1059800097F9204601222121FCF74AF920469A2264
:105990004121FCF745F9204601224A21FCF740F954
:1059A000204601224B21FCF73BF9204600224B21E7
:1059B000FCF736F9204601225621FCF731F9204642
:1059C00001225821FCF72CF9204601224021FCF746
:1059D00027F92046FF220B21FCF722F9BDE8704091
:1059E0000220FCF765B90000054BD3F8882042F48B
:1059F0007002C3F888204FF000629A60704700BFC1
:105A000000ED00E008B50B4B1A6842F400721A6012
:105A10001A6842F480621A601A6842F480721A604E
:105A2000032000F045FA0020FCF732FCFCF7CAF92D
:105A3000002008BD003C0240034A044B11681B785B
:105A40000B441360704700BFD4350020780000205D
:105A5000014B1868704700BFD435002038B50446A4
:105A6000FFF7F6FF631C1CBF054B1B78054618BFEC
:105A7000E418FFF7EDFF431BA342FAD338BD00BF84
:105A80007800002038B50446002800F09B80056CA3
:105A900025B9FCF7B7F9656484F83C50236CDB0644
:105AA00000F18E80236C23F4885323F0020343F02B
:105AB00002032364444B5A6822F440325A605A6805
:105AC00061680A435A60236821695A6822F4807227
:105AD0005A605A6842EA01225A605A68A16822F064
