:020000040800F2
:10000000000003205D060008412300084323000888
:10001000452300084723000849230008000000008A
:10002000000000000000000000000000818A0008BD
:100030004B23000800000000118B00089983000882
:10004000AD060008AD060008AD060008AD060008C4
:10005000AD060008AD060008AD060008AD060008B4
:10006000AD060008AD060008AD060008AD060008A4
:10007000AD060008AD060008AD060008AD06000894
:10008000AD060008AD060008AD060008AD06000884
:10009000AD060008AD060008AD060008AD06000874
:1000A000AD060008AD060008AD060008AD06000864
:1000B000AD060008AD060008AD060008AD06000854
:1000C000AD060008AD060008AD060008AD06000844
:1000D000AD060008AD060008AD060008AD06000834
:1000E000AD060008AD060008AD060008AD06000824
:1000F000AD060008AD060008AD060008AD06000814
:10010000AD060008AD060008AD060008AD06000803
:10011000AD060008AD0600084D230008AD06000836
:10012000AD060008AD060008AD060008AD060008E3
:10013000AD060008AD060008AD060008AD060008D3
:10014000AD060008AD060008AD060008AD060008C3
:10015000AD060008AD060008AD060008AD060008B3
:10016000AD060008AD060008AD060008AD060008A3
:10017000AD060008AD060008AD060008000000004E
:10018000AD060008AD060008AD060008AD06000883
:10019000AD060008AD060008AD060008AD06000873
:0C01A00059230008AD0600086523000884
:1001B00010B5054C237833B9044B13B10448AFF3A1
:1001C00000800123237010BD800300200000000088
:1001D0005C49020808B5034B1BB103490348AFF360
:1001E000008008BD00000000840300205C49020874
:1001F00001F0FF01102A2BDB10F0070F08D010F8D8
:10020000013B013A8B422DD010F0070F42B3F6D1DB
:10021000F0B441EA012141EA014122F007047FF0F4
:1002200000070023F0E80256083C85EA010586EA4B
:10023000010685FA47F5A3FA87F586FA47F6A5FA87
:1002400087F68EB9EED1F0BC01F0FF0102F0070293
:1002500032B110F8013B013A83EA010313B1F8D13E
:100260000020704701387047002D06BF354603381F
:10027000073815F0010F07D1013015F4807F02BF58
:10028000013015F4C03F0130F0BC0138704700BFA9
:100290007BB972B90029BEBF00204FF0004106E0D3
:1002A00008BF00281CBF6FF000414FF0FF3000F086
:1002B000D3B9ADF1080C6DE904CE002909DB002BA0
:1002C0001ADB00F04DF8DDF804E0DDE9022304B0AC
:1002D0007047404261EB4101002B1BDB00F040F80E
:1002E000DDF804E0DDE9022304B0404261EB4101A6
:1002F000524263EB43037047524263EB430300F007
:100300002FF8DDF804E0DDE9022304B0404261EBA0
:1003100041017047524263EB430300F021F8DDF8DE
:1003200004E0DDE9022304B0524263EB430370476B
:1003300053B94AB9002908BF00281CBF4FF0FF314C
:100340004FF0FF3000F088B9ADF1080C6DE904CE34
:1003500000F006F8DDF804E0DDE9022304B07047A0
:100360002DE9F047089D8E4604468846002B4AD169
:100370008A42174662D9B2FA82F64EB1C6F120031C
:1003800001FA06F820FA03F3B74043EA0808B4403C
:100390004FEA174E1FFA87FCB8FBFEF1230C0EFB49
:1003A000118843EA084301FB0CF29A4209D9FB1871
:1003B00001F1FF3080F0EA809A4240F2E780023992
:1003C0003B449A1AA3B2B2FBFEF00EFB102243EAA2
:1003D000024300FB0CFC9C4509D9FB1800F1FF32DD
:1003E00080F0D6809C4540F2D3803B44023840EAFE
:1003F0000140A3EB0C0300211DB1F3400022C5E92D
:100400000032BDE8F0878B4205D90DB1C5E9000186
:1004100000210846F5E7B3FA83F1002946D1734578
:1004200002D3824200F20581841A6EEB030201209E
:100430009046002DE5D0C5E90048E2E7002A00F02B
:100440009080B2FA82F6002E40F0A4808A1A030C43
:100450004FEA174E80B2BCB20121B2FBFEFC0EFB8C
:100460001C2243EA024304FB0CF29A4207D9FB1810
:100470000CF1FF3802D29A4200F2E080C4469B1A87
:10048000B3FBFEF20EFB123340EA034302FB04F41B
:100490009C4207D9FB1802F1FF3002D29C4200F2C5
:1004A000CA8002461B1B42EA0C40A5E7C1F12006A8
:1004B0008B4022FA06F71F430EFA01F420FA06F3E6
:1004C0002EFA06FE4FEA1749234300FA01F81FFAF5
:1004D00087FCBEFBF9F01C0C09FB10EE44EA0E444D
:1004E00000FB0CFEA64502FA01F209D93C1900F105
:1004F000FF3A80F09C80A64540F2998002383C4447
:10050000A4EB0E041FFA83FEB4FBF9F309FB1344BA
:100510004EEA044403FB0CFCA44508D93C1903F142
:10052000FF3E80F08280A4457FD9023B3C4443EAF1
:100530000040A4EB0C04A0FB02EC64457346E146CA
:1005400062D35FD05DB1B8EB030264EB090404FA37
:1005500006F622FA01F31E43CC40C5E900640021EF
:100560004FE7B1FBF2FC010C41EA0E4180B240EAD8
:1005700001423B4638463C46B846BE462026B1FBC3
:10058000F7F1A2EB080241EA0C4166E7014618E7E1
:1005900010462CE7C6F120022EFA02F3B740B14014
:1005A00020FA02F24FEA174E0A43B3FBFEF8BCB240
:1005B0000EFB1833110C41EA034108FB04F9B0406B
:1005C00089454FEA104380B23ED9791808F1FF3CC3
:1005D00001D289451FD8A1EB0901B1FBFEF909FB46
:1005E00004F80EFB191192B242EA0142424529D2A7
:1005F000BA1809F1FF31C4D24245C2D2A9F10201B1
:100600003A44BEE7F0459DD2BEEB02036CEB070C0B
:100610000138E14696E7A7EB09094944A8F1020C25
:10062000B1FBFEF909FB04F8DBE773467FE75046B0
:1006300066E70846FDE63B44023A33E7ACF1020CBC
:100640003B441CE749469CE7A1EB0901C446B1FBCA
:10065000FEF909FB04F8C4E7704700BFDFF834D0A7
:10066000002103E00C4B5B58435004310B480C4B0A
:1006700042189A42F6D30B4A02E0002342F8043BA8
:10068000094B9A42F9D305F0F3F923F0F9FB01F095
:1006900089F87047000003206C770F0800000020E5
:1006A000640100208003002078500120FEE770479D
:1006B00008B500F0BDFDBDE8084000F03FBD00F00A
:1006C000B9BD704710B50421044622F0ABF92046AD
:1006D00010BD000038B50C4B0C4C18800C4B822020
:1006E00019806368984740F6110398420AD1094D72
:1006F00023682C60822098472B688220DB6898470B
:10070000002038BD0120FCE7A60300204C0000209B
:10071000A4030020A80300204FF4A071F020FFF7ED
:10072000D9BF0000F7B5394D2B6804461B698220FC
:100730009847208000284ED02B680DF106025B6997
:1007400001A982209847324B1B78002B4BD0BDF873
:10075000062040F674639A423FD9ADF80630BDF8E2
:1007600006209B1A9BB20A2B42D90B22B3FBF2F351
:10077000284A1288934201D9013A93B2BDF8042065
:10078000254840F6B8318A4234D8C2F571620E323B
:10079000016892B20F25B2FBF5F2204D2D88AA42D6
:1007A00084BF05F1FF35AAB28A4215468EB22AD916
:1007B000921B91B21A4E3768BB42BAB28CBF9A1ADA
:1007C000D21A92B211440529C4BF05603360036890
:1007D00063803368A38003B0F0BDB32A9CBFB4220A
:1007E000ADF80620BBE7BDF80630A3F5B473B9E752
:1007F0000023C3E7C2F56D62083292B20E2A016887
:10080000C8D800252A46891A89B2D3E7A803002050
:10081000F8290020A4030020A0030020A603002044
:100820009C03002037B568460D461446FFF77AFF53
:10083000BDF8000030B1BDF802302B60BDF80430C7
:100840002360012003B030BD032821D8DFE800F089
:10085000020B12190F4B1A68B2FA82F252090421E4
:100860000D4805F0AFBD0B4B5A68B2FA82F252093F
:100870000821F5E7074B9A68B2FA82F25209102173
:10088000EEE7044BDA68B2FA82F252092021E7E778
:10089000704700BFAC03002000100240032821D89D
:1008A000DFE800F0020B12190F4B1A68003A18BF6C
:1008B000012204210D4805F085BD0B4B5A68003A12
:1008C00018BF01220821F5E7074B9A68003A18BFC4
:1008D00001221021EEE7044BDA68003A18BF01222A
:1008E0002021E7E7704700BFAC0300200010024062
:1008F00003280DD8DFE800F00206080A04210548A5
:1009000005F065BD0821FAE71021F8E72021F6E798
:10091000704700BF0010024008B5032811D8DFE877
:1009200000F0020A0C0E0421074805F045FD431EA5
:100930005842584108BD0821F6E71021F4E720216C
:10094000F2E70020F3E700BF0010024070B5084D49
:1009500000240126E0B2FFF7DFFF18B12B68012B5E
:1009600018BF2E600134052C05F10405F2D170BDCD
:10097000AC030020012380F8781080F879307047AC
:100980007047002070470000034B4164003918BFD6
:1009900001211970704700BF3743012070470020C4
:1009A0007047836B0BB10846184770474FF6FF70CE
:1009B0007047406803689B691847704770477047E5
:1009C0007047704710B5044600F04AFD236803499C
:1009D000D3F890302046BDE810401847000000D002
:1009E00008B503680446D3F8843098472368204646
:1009F000DB6F984700F0ECF8236820465B6F984760
:100A0000292001F08BF900F0E3F8236820465B6FA2
:100A10009847F8E710B504460AF028FE23682046F8
:100A2000D3F8BC30BDE81040184700F0FDBC00F022
:100A300001BD00F033BD00F0D3BC00F043BD00F0B9
:100A40004BBD00F0D7BC0AF03FB810B58421044676
:100A500021F0E8FF204610BD10B590F8341090F852
:100A600078400C4B8C421A7809D03AB90A4A0B49A3
:100A70001488088810800C8001221A7010BD002A8A
:100A8000FCD0054A05491488088810800C80002293
:100A9000F3E700BF304301202C4301202E43012007
:100AA00070B50D46194635B9094B0A4A0A4840F255
:100AB000FF2122F035FFC0E90F52084B003A18BF62
:100AC00001221A700368BDE87040D3F890301847CF
:100AD000CC490208044A0208524A0208364301205F
:100AE00008B5094B1B888B4203D8084B1B889342DF
:100AF00005D9074B074A0848A32122F011FF074BED
:100B00001980074B1A8008BD2C4301202E43012079
:100B1000974A0208FA4A0208524A02083243012060
:100B200034430120034690F87A0018B158680368EE
:100B30001B68184770470000012108B500220846CD
:100B400007F0B4FC0A4B186028B90A4B0A4A28215E
:100B50000A4822F0E5FE00220421012007F045FDAD
:100B6000074B186018B9074B034A2C21F0E708BD62
:100B7000C00300203D4B0208864B0208B54B02081B
:100B8000BC030020054C0208024B4FF0FF311868EF
:100B900007F0D6BCC0030020014B186807F0FCBC6E
:100BA000C0030020024B0021186807F0C9BC00BF39
:100BB000C0030020FFF7F0BF03480449006800238A
:100BC0001A4607F04DBD00BFBC0300200400002002
:100BD00013B5084C00231A4601A9206807F071FDDF
:100BE00020684FF0FF33002201A907F06AFD02B030
:100BF00010BD00BFBC03002003685B6C18470120D8
:100C0000704703689B6A1847FEE740F2EF30704771
:100C1000054B0360054B4FF08062C3F88820BFF39B
:100C20004F8FBFF36F8F70474C59020800E100E00F
:100C300010B504464FF45A61FFF7EAFF204621F051
:100C4000F1FE204610BD000082B0002301930E4B40
:100C50001A6B42F400021A631A6B02F4000201924A
:100C6000019A1A6942F400021A611A6922F4000218
:100C70001A61064B064A1A61064A5A61064B4FF042
:100C800080629A6002B07047003802408C2B0020CE
:100C9000E90E0008090C000800E100E008B50A2888
:100CA00009D8DFE800F006100E0808080810101038
:100CB0001000022008BD054B054A0648902122F08D
:100CC0002FFE0020F6E70120F4E700BF474C0208A2
:100CD000624C0208AD4C020838B50C46887FFFF71D
:100CE000DDFFA58AE28A164B2169586342EA054274
:100CF0005A64628BD963521B1A642568082D0ED181
:100D00009A611A615862207F0E4A42EA0062DA61F3
:100D1000E2681A620C4A5961D9601A6038BD002233
:100D2000D8611A61E1680A0A480902F4784200F4BD
:100D3000FC600243C1F3C4010A439A63034AECE72F
:100D400000B002400900010001230200012303005A
:100D500008B50B280BD8DFE800F00612100A0A0AC3
:100D60000A0808080808022008BD0520FCE7054B12
:100D7000054A06486F2122F0D3FD0020F4E7012048
:100D8000F2E700BF474C0208FB4C0208AD4C0208DA
:100D90002DE9F04191F81D800C464046FFF7D8FF41
:100DA000A77F05463846FFF7D3FF06463846FFF7CC
:100DB00075FFA18A628B444B521A1A649A61228B86
:100DC000521A1A61E28A586342EA01425A6421695E
:100DD0006268D963DA602068802828D0227F0FD823
:100DE000202867D0402865D004281AD0364B45EA21
:100DF000026545F40035B845DD6161D0334A44E011
:100E0000B0F5807F04D0B0F5007FEFD1304800E02E
:100E1000304840EA0262DA61E2681A625E62596151
:100E200032E045EA026242F40032DA61F6E7A06895
:100E3000021DDA62227F45EA026545F40035DD6174
:100E40005E625961017841B1012921D0224B234AC8
:100E500023484FF48D7122F063FDDA69418822F452
:100E60007F42013922F0100242EA0122DA610121B7
:100E7000154BDA6942F02002DA61DA699206FCD495
:100E800010229A600029B9D0164A1A60BDE8F08194
:100E9000B2F1FF01DA69408822F47F4200F1FF30AD
:100EA00022F0100242EA002242F0100218BF012193
:100EB000DA61DDE745EA0262034B42F40032B4E74F
:100EC00042F20132E1E700BF00B00240012301001D
:100ED000090002000A000200454D02085F4D0208A9
:100EE000AD4C020801230200024B1B6858680368DE
:100EF0005B6918473843012070B5044625460A4B04
:100F00000C30002660602672667245F8203B602235
:100F100029460AF001FD04F55A63EE6024359D422E
:100F2000FBD1204670BD00BF4C590208034B1A6824
:100F3000D207FCD423229A60704700BF00B0024061
:100F40007047000030B50F4C2568ED07FCD4232511
:100F50000904A56041F001010225FF2B656361646E
:100F6000E0630AD00849656241EA0363E361074B25
:100F700022626061E060236030BDE561039BA36392
:100F8000034BF8E700B00240090001000100020035
:100F90000100030030B50E4C2568ED07FCD4232575
:100FA0001204A56042F001020225FF2B6563626412
:100FB000E063E16008D01B0643F00213E361054BD8
:100FC00065626061236030BD034BE3610123F9E793
:100FD00000B0024001000200020002FF30B50B4CDD
:100FE0002568ED07FCD4232512041B06A56043F4F5
:100FF0000033022542F0010265636264E063E16050
:10100000E361034B65626061236030BD00B0024064
:1010100001000200012070474020704700EB811062
:101020000830704700EB811008307047012070478E
:1010300041F2B040704741F2B04303FB0100083079
:10104000704741F2B04303FB0100083070470120B4
:1010500070471020704700EB01100830704700EB1C
:10106000011008307047084601F056BD10B5034B1B
:101070000360044609F07FFA204610BD045A0208B6
:1010800010B50446FFF7F2FF2046482121F0CAFCC4
:10109000204610BD10B5034B0360044609F06BFAFF
:1010A000204610BDD059020810B50446FFF7F2FFE4
:1010B000204641F2B84121F0B5FC204610BD0000A9
:1010C00010B5034B0360044609F055FA204610BDE5
:1010D0009C59020810B50446FFF7F2FF204618217C
:1010E00021F0A0FC204610BD10B5094B036004465A
:1010F00000F5A7500430FFF7B9FF04F12C00FFF70B
:10110000C9FF04F11400FFF7DBFF204610BD00BF4C
:10111000385A020808B50248FFF7E6FF08BD00BFCD
:101120009C12002010B50446FFF7DEFF204641F276
:101130008C6121F077FC204610BD00002DE9F341C1
:1011400001F084F9054601F085F9002401462346A3
:1011500028462246009412F0B3FB274B274A1A6018
:10116000204603F033F8264D264B274A27489A603D
:1011700012F00EFB2B68BFF35B8FDB0736D42846DB
:1011800021F052FC90B3224C224F234B236007F1F5
:101190004C0604F1140004F12C086060C4F80880C7
:1011A000E760266109F0E8F91C4B6361404609F0ED
:1011B000E3F91B4BE362384609F0DEF904F580538E
:1011C00003F22C50174AC3F8E42403F0AFF9224687
:1011D00007F14801304603F063F9304601F09CFC0A
:1011E000114822F0BBFB284621F02AFC0F4802B030
:1011F000BDE8F041FFF7E6BB9C4301204804002016
:1012000098120020680400204C04002008000020F0
:101210009C12002080270020385A02089C5902089E
:10122000D0590208045A020815110008C40300200E
:10123000704700000148FFF7D3BB00BFC403002084
:1012400070B5264E264C274D274B23603046FFF7BE
:1012500053FE284617F03AFC244810F077FA244B46
:101260002448DC6000224FF48071C3E91212224945
:101270001A86C3E91A12214983F85820C3E91E01CE
:101280001F49C3F880101F491F480B60F021C3E9B4
:101290000422C3E90622C3E90822C3E90A22C3E9FA
:1012A0000E22C3E91022C3E91422C3E917225A66A9
:1012B00083F870205A67C3E90165018013480180F3
:1012C00013484FF4A07101801248018012490A703E
:1012D000012283F83420114A1A6070BDF404002002
:1012E0009412002068040020BC4902084C0400202D
:1012F000C4030020000001010100000100045000AF
:101300001A001400384301202C43012032430120ED
:101310002E4301203443012030430120605802084D
:101320000148FFF775BC00BFF4040020002070479F
:1013300081807047C180704701817047418170474B
:101340007047704770477047704710B4C48803688F
:10135000121B84885B6D091B12B25DF8044B09B245
:1013600018474FF6FF7383814FF0FF330362136812
:10137000C36110607047002070478B888380012014
:101380007047704780F82610704790F82600704725
:1013900010B50022B1F90840B1F90A10028042806C
:1013A0008480C18010BD0022028042808280C28081
:1013B00070470177704780ED080A704780F8241065
:1013C000704780F8251070470120704798307047AB
:1013D0008C3070478430704770477047704700000A
:1013E000034B902283F85A2383F85823704700BF99
:1013F00000E100E0094A0A49D3680A48C3F30A0336
:10140000013B9BB20B801169C1F30A0101390180D4
:101410001364536B43F0010353637047006801404A
:101420002A29002028290020014BD3F8AC0070475E
:1014300000680140024B0122C3F8AC105A627047A9
:101440000068014010B52C21044621F0EBFA20463B
:1014500010BD10B5BC21044621F0E4FA204610BDB1
:1014600070B5044609F085FB23689D6E0EF006FFFB
:1014700001462046A8472368054AD3F88C502046E9
:10148000AC460023BDE87040A2F51631604700BFAE
:1014900000B004D009F054BB09F05EBB09F01ABBE0
:1014A00009F089BC90F8252012B103685B691847E0
:1014B000704790F825201AB190F8242002B11860E6
:1014C00070470000034B4FF080629A604FF08072CB
:1014D0009A60704700E100E0084B4FF08062C3F86B
:1014E0008820BFF34F8FBFF36F8F4FF08072C3F828
:1014F0008820BFF34F8FBFF36F8F704700E100E08C
:1015000070B50023124E8380124B0360336893F84A
:10151000582005460AB1D86C00B998680368DB6AA0
:1015200098473368B0FA80F4D86C640930B1036826
:10153000DB6A9847002808BF44F001042CB9064B29
:10154000064A07482C2122F0EBF9284670BD00BF5F
:10155000384301204C5A02089D4D0208FB4D0208F9
:10156000344E020870B5254E3568BFF35B8F15F019
:10157000010540D1304621F057FA00283BD0204CDD
:10158000204B256104F13400C4E90035C4E902555B
:10159000E584A562A58510F0BEFB04F158000BF0B0
:1015A0006FFE194BA3652046184B40F8843BFFF7AC
:1015B000A7FF174BC4F884302433C4F88C304FF4A1
:1015C000C803C4E928350023C4F8AC30C4F8B030EF
:1015D000C4F8B430C4F8B8300E480F4BC4F890507B
:1015E000C4F89C50C4F8A850C4F8983022F0B6F95A
:1015F000304621F025FA024870BD00BF2C2900209A
:1016000030290020546502086C5A0208E45A020886
:1016100008650208DD130008E864020838B5184CB4
:1016200023685BB3174B184A1B6C11888B4216D189
:10163000164B198805F0CEFC236893F86A20002524
:10164000013283F86A2083F87C50FFF7B5FA2068EE
:101650000AF00CF82846BDE83840FFF7F5B805F069
:10166000B9FC2468236820461B6A9847012384F844
:101670007C300020BDE83840FFF710B938BD00BF0E
:1016800038430120006801402A2900202829002031
:1016900007B5064BADF806001B68054801220DF1A1
:1016A000060106F037FA03B05DF804FB0C000020D9
:1016B000382A002008B50D4C0D4E0E4D204604F082
:1016C000CBFA0121204604F045FB204604F095FBAF
:1016D00020213080284604F06FFE074B003818BFE9
:1016E00001201880642006F0D5FEE7E7D42B002007
:1016F000F629002000000240F429002008B56420EB
:1017000006F0C8FEFBE7000030B595B010220021BE
:101710000AA822F00CFB1422002103A822F007FBE8
:1017200000241E4B01941A6C42F080521A641B6C08
:1017300003F080530193019B194B02941A6842F401
:1017400040421A601B6803F4404302930122029B4B
:101750004FF48033CDE9082302254FF4800308219C
:10176000CDE90E534FF4B473CDE9101308A8042348
:101770001393129505F086FC05F04AFC0F23CDE982
:1017800003354FF4A0504FF48053CDE906030521F3
:1017900003A8059405F052FE15B030BD0038024094
:1017A000007000402DE980489BB004F06FF9FFF70E
:1017B000ABFF142200210DA822F0B9FA0024C94B76
:1017C00000941A6BC848C94D42F010021A631A6B94
:1017D00002F010020092009A01941A6B42F0040287
:1017E0001A631A6B02F004020192019A02941A6BB6
:1017F00042F020021A631A6B02F020020292029A4F
:1018000003941A6B42F080021A631A6B02F0800292
:101810000392039A04941A6B42F001021A631A6B42
:1018200002F001020492049A05941A6B42F002023B
:101830001A631A6B02F002020592059A06941A6B5B
:1018400042F040021A631A6B02F040020692069AB6
:1018500007941A6B42F008021A631B6B03F008032B
:10186000224607933C21079B04F0ACFDA0480122CF
:10187000022104F0A7FD22469D48042104F0A2FDA8
:1018800022469C484FF4405104F09CFD01263C2325
:10189000CDE90D3694480F9403230DA9109304F05D
:1018A000A7FC4FF4005392480F960DA90227CDE9EB
:1018B0000D3404F09DFC8E480DA9CDE90D76CDE9DF
:1018C0000F4404F095FC042389480DA9CDE90D3699
:1018D000CDE90F4704F08CFC202387480F960DA913
:1018E000CDE90D3404F084FC0DA94FF44053814838
:1018F000CDE90D36CDE90F4704F07AFC7F48804BE7
:10190000036004F06BFBDFF818C27E4B2C62C5E964
:1019100000C328464FF48043C5E90434C5E90244B6
:10192000C5E9064404F05CFF1021284605F0A0F943
:101930002146284605F0BBF9734DDFF8E8E1AC62BB
:101940004FF48273C5E900E34FF400781823C5E92A
:10195000068328460A23C5E90244C5E90444C5E9CB
:101960000844EB6206F07AF88F2322463946604835
:101970008DF824308DF8344004F024FD32464FF4C5
:101980007A7309A9284606F0C5F84FF47A733246EF
:101990000DA9284606F06AFA3246394654485B4D8E
:1019A00004F010FD9DF83430D32B04BF584B1E704B
:1019B000584B0126C5E900364FF0100A4023002499
:1019C000C5E904A34FF4C073C5E906344FF40063BE
:1019D000C5E908344FF4005302274FF00409AB6205
:1019E0004FF0030B07230DA92846CDE90D73CDE970
:1019F0000F934FF00808C5E90249CDE911B71397D5
:101A000005F010FF4FF6FF7209A92846CDE90A86B6
:101A1000089409960C9405F025FF304604F062F80E
:101A20004FF6FF7209A92846CDE90978CDE90B6484
:101A300005F018FF4FF6FF7209A92846CDE909B84D
:101A4000CDE90B9405F00EFF4FF40C730893089B3F
:101A50000C934FF6FF7209A92846CDE909980B9619
:101A600005F000FF40F26A51284605F019FF3422C4
:101A700021460DEB020022F05AF9274D274B2C612D
:101A8000C5E900340923C5E905361D23C5E9073B2F
:101A900040F20D1240F24313C5E9092340F2171139
:101AA00040F247132846C5E90B13C5E90244AC864A
:101AB00085F8364005F096F9FF21F022CDE91214A1
:101AC0004FF4806005214FF4A073CDE91401CDE9F6
:101AD0000E240DA9CDE9164228462246CDE910373D
:101AE00022E000BF0038024000100240382B0020E6
:101AF00000080240000C024000000240CC2B0020F5
:101B000000300240A0860100382A0020042A00206C
:101B1000F8290020400100A0902A00200068014020
:101B2000005C004000500140304D18930D94ADF81A
:101B300064408DF8664005F020FA2D4B2B601B6841
:101B400098472B682B4DDB6898472B4B2846C5E9F7
:101B50000034C5E90274C5E90A47C5E90C4404F03C
:101B60004DFA3146284604F0FFFA244D244F5246E0
:101B700021460DA822F0DBF84FF48033C5E900734D
:101B80002846204BAB62AC602C612C7685F8204057
:101B9000EC62EC60EE6185F830406E6103F0B6FFF8
:101BA0000D230DA92846CDE90D360F9404F028F930
:101BB000FEF77EFDFEF77BFD06F0FCFB124A1348A4
:101BC000214606F023FC124B124A186021461248A7
:101BD00006F01CFC114B124A18602146114806F011
:101BE00015FC114B186006F0F7FBFEE7EC2900200E
:101BF000140000208C2B002000B00240D42B0020C9
:101C0000002001400100000F705B0208FD16000873
:101C1000002A00204C5B0208BF060008FC290020B7
:101C2000285B0208B5160008F029002070477047AD
:101C30007FB5094B8DF817201B6802930DF1170231
:101C40000123009201930A460146044804F070FE05
:101C500007B05DF804FB00BF10000020382B002007
:101C60007FB500238DF81730084B1B6802930A4696
:101C700001230DF11701009101930146044804F07E
:101C8000E7FE9DF8170007B05DF804FB1000002088
:101C9000382B00201FB5084C24680092CDE9013490
:101CA0000A4601230146054804F0D2FE003818BF59
:101CB000012004B010BD00BF10000020382B002010
:101CC00003F010BF10B5064C00222046042104F09A
:101CD00079FB20460122BDE81040042104F072BBCC
:101CE0000008024038B50B4D044601220A484FF463
:101CF000005104F067FB00220421284604F062FB37
:101D00002046FFF7C5FC28460122BDE838400421E3
:101D100004F058BB00080240000C024038B50B4DDF
:101D2000044600220A484FF4005104F04BFB002205
:101D30000421284604F046FB2046FFF7A9FC28466C
:101D40000122BDE83840042104F03CBB00080240F9
:101D5000000C0240F7B5144E144F05460C463046B1
:101D60000022042104F02EFB00224FF400513846DB
:101D700004F028FB2846FFF78BFC0D4B0D481B6831
:101D8000224601A906F072F8384601224FF40051AC
:101D9000019C04F017FB30460122042104F012FBE1
:101DA000204603B0F0BD00BF00080240000C024016
:101DB0000C000020382A002003F094BE0268034B78
:101DC0009A4201D103F07CBE704700BF0010004072
:101DD0007047000082B00E4B00220092596C41F413
:101DE00080415964596C01F480410091009901923D
:101DF000196C41F0805119641B6C03F080530193FE
:101E0000019B0F216FF0010002B004F0A7B800BFE2
:101E10000038024010B5044688B01422002103A8FF
:101E200021F085FF2268124B9A421ED103F58C33B4
:101E3000002101915A6C0F4842F480725A645A6C26
:101E400002F480720192019A02911A6B42F004022C
:101E50001A631B6B03F004030293029B0822032303
:101E600003A9CDE9032304F0C3F908B010BD00BFF6
:101E700000200140000802400268094B9A4282B0EB
:101E80000BD100230193074B1A6B42F480521A6363
:101E90001B6B03F480530193019B02B0704700BF9A
:101EA000003002400038024007B50F4B02689A42EA
:101EB00016D10022A3F5F0430192196B41F4000101
:101EC00019631B6B03F40003019305215A20019B46
:101ED00004F044F85A2003B05DF804EB04F070B845
:101EE00003B05DF804FB00BF00B002402DE9F043F1
:101EF000044689B01422002103A821F018FF2268AB
:101F0000244B9A4243D1244C244800250095236B4E
:101F100043F004032363236B03F004030093009B4B
:101F20000195236B43F001032363236B03F001034B
:101F30000193019B4FF012094FF400734FF0010819
:101F40000327042603A9CDE90339CDE905870796C0
:101F500004F04EF94FF480731148079603A9CDE9B8
:101F60000339CDE9058704F043F90295236C43F466
:101F700000032364236C03F400030293029B236A8F
:101F800043F400032362236A23F40003236209B0AD
:101F9000BDE8F083005C00400038024000080240C9
:101FA00000000240F0B599B004461422002107A8B1
:101FB00021F0BDFE30220DEB0200002121F0B7FE22
:101FC00022685E4B9A4240F0B78008230C93C023EE
:101FD0001093042312930CA84FF40033159305F0CB
:101FE000F5FA08B1FFF7F4FE554B5648002400946B
:101FF0005A6C42F080625A645A6C02F0806200921D
:10200000009A01941A6B42F020021A631A6B02F0D4
:1020100020020192019A02941A6B42F001021A63A3
:102020001A6B02F001020292029A03941A6B42F0B8
:1020300002021A631A6B02F002020392039A0494DA
:102040001A6B42F040021A631A6B02F040020492CB
:10205000049A05941A6B42F004021A631A6B02F098
:1020600004020592059A06941A6B42F008021A635C
:102070001B6B03F00803069302250E26069B0B96A6
:102080004FF4806307A9CDE90735CDE9094504F090
:10209000AFF841F658032C480B9607A9CDE9073550
:1020A0000927CDE9094504F0A3F8032327480B9736
:1020B00007A9CDE90735CDE9094504F099F84FF4B2
:1020C000706322480B9607A9CDE90735CDE909458C
:1020D00004F08EF84FF40C631D480B9607A9CDE968
:1020E0000735CDE9094504F083F8C02319480B965C
:1020F00007A9CDE90735CDE9094504F079F80823AA
:1021000015480B9607A9CDE90735CDE9094504F037
:102110006FF84FF4A0530E480B9707A9CDE9073588
:10212000CDE9094504F064F858202246052103F062
:1021300015FF582003F044FF19B0F0BD00680140BE
:102140000038024000140240000002400004024037
:102150000018024000080240000C024010B504467E
:1021600088B01422002103A821F0E1FD2268144B5D
:102170009A4223D103F56843002101915A6C11481A
:1021800042F480125A645A6C02F480120192019A4D
:1021900002911A6B42F020021A631B6B03F02003BA
:1021A0000293029B4FF4607202230321CDE90323C3
:1021B0000523CDE9061303A904F01AF808B010BDF1
:1021C00000500140001402402DE9F04186B0002388
:1021D00003932B4B1C68002C4FD14FF00108C3F820
:1021E0000080284B00949A6B274842EA08029A63C1
:1021F0009B6B03EA08030093022703260C25009B30
:1022000001A94FF63F03CDE90137CDE9046503F09D
:10221000EFFF1E48059501A9CDE90187CDE90346E9
:1022200003F0E6FF48F233131948059501A9CDE9FB
:102230000137CDE9034603F0DBFF4FF68373154802
:10224000059501A9CDE90137CDE9034603F0D0FF9B
:102250004CF203731048059501A9CDE90137CDE98A
:10226000034603F0C5FF60230C48059501A9CDE99D
:102270000137CDE9034603F0BBFF06B0BDE8F081AE
:102280001C2C0020003802400014024000080240CC
:102290000018024000100240000C024000040240FE
:1022A00070B588B000230293204B1A6C42F01002E4
:1022B0001A641B6C03F010030293054601A903A8DE
:1022C000029B05F065F9069B4BBB05F051F9184ED2
:1022D000184B336040F2E733F360174BB0FBF3F376
:1022E000013B7360304600233361B360B36105F096
:1022F0008DFF044680B9304605F05EFE044658B9AD
:10230000362003F05DFE0F2D0DD8224629463620DB
:1023100003F024FE094B1D60204608B070BD05F097
:1023200027F94000D3E70124F6E700BF0038024058
:10233000202C00200010004040420F007C000020B4
:102340007047FEE7FEE7FEE7FEE77047014805F04D
:1023500071BE00BF202C0020014804F0B1BD00BFB9
:10236000902A0020014803F075BE00BF8C2B00208E
:102370000120704708B521F07DFD162303604FF062
:10238000FF3008BD08B521F075FD16230360FEE798
:1023900070B50D4614460E46731B9C4201DC204668
:1023A00070BDAFF3008006F8010BF5E770B50D4680
:1023B00014460E46731B9C4201DC204670BD16F885
:1023C000010BAFF30080F5E74FF0FF3070474FF49B
:1023D00000534B6000207047012070470020704779
:1023E0000A4A116808B5034609B90949116010681D
:1023F000694603448B4206D921F03CFD0C2303605F
:102400004FF0FF3008BD1360FCE700BF682C0020D0
:1024100078500120704710B50421044620F002FBDB
:10242000204610BD012908B506D0022908D059B9A7
:1024300001F00AFF006808BD01F006FF4068FAE7F6
:1024400001F002FF8068F6E70020F4E700487047DB
:10245000A85B02081120704713B5002451B103682E
:1024600001948DF8034001AA9C680DF10303A04775
:1024700002B010BD0846FBE7C0897047008A70476C
:10248000C088704780887047807A00F07F0070476E
:10249000807AC00970470020704700009FED010A54
:1024A000704700BF000000007047704700F5987348
:1024B0000868496803C370477047704741607047B8
:1024C00070477047064BC0F84C310023C0F85031BC
:1024D00000F5A273C0F84801C0F84031704700BF52
:1024E000BD2F000801230372704770477047704783
:1024F00010B4C26841685410034601EB6200D20771
:1025000048BF0A599B685DF8044B48BFD358184729
:102510000346406830B19A681AB9D86800F00100E3
:1025200070470120704710B50C21044620F07AFA5C
:10253000204610BD10B51021044620F073FA204645
:1025400010BD10B54FF4AE71044620F06BFA204672
:1025500010BD10B54021044620F064FA204610BD9D
:1025600010B54021044620F05DFA204610BD10B59C
:102570000DF084FE0368BDE81040DB6B18470000D7
:10258000054B1B7801462BB1406818B103680C312C
:102590005B6E1847704700BF37430120054B1B781F
:1025A00001462BB1406818B103680C315B6E1847C7
:1025B000704700BF37430120037A70B50546BBB9A9
:1025C00040680368DB69984704463CB9686803685B
:1025D00005F10C011B6EBDE870401847A1886B8F98
:1025E000C91A236820461B6B09B29847A469ECE717
:1025F00070BD037A70B50546BBB940680368DB69F6
:10260000984704463CB96868036805F10C011B6EE5
:10261000BDE870401847A1886B8FC91A236820460F
:102620001B6B09B29847A469ECE770BD10B504466E
:10263000D0F8400158B10368DB68984738B1D4F846
:10264000400103689B6898470023C4F8403110BDDF
:1026500070B5044690F8390094F838300130C0B2B3
:10266000984284F8390005D901232372002384F8A5
:10267000393070BDB4F93A2000210FF0D7FFC307FD
:1026800006D500284FF6FF73C8BF0123184400B2D7
:10269000238AC01AA08760680368DB6998470546EB
:1026A0002DB960680368BDE870405B691847A98868
:1026B000A38F19442B6828461B6B09B29847AD6954
:1026C000EEE770B5044690F8390094F838300130E0
:1026D000C0B2984284F8390005D90123237200233F
:1026E00084F8393070BDB4F93A2000210FF09EFF14
:1026F000C30706D500284FF6FF73C8BF012318444F
:1027000000B2238AC01AA08760680368DB69984713
:1027100005462DB960680368BDE870405B691847DD
:10272000A988A38F19442B6828461B6B09B29847C8
:10273000AD69EEE72DE9F0411D460368BDF918705B
:102740001B6B0446164698472368314620465B6B50
:1027500098472368294620469B6B9847236839464B
:102760002046DB6BBDE8F041184700002DE9F74F2C
:10277000D0E9556A0746B06803681B6A9847B0F508
:10278000907F05D2534B544AA321544821F0C8F8F6
:10279000706803681B6A98470F2803D8504B4E4A4D
:1027A000A421F2E7F06803681B6A98473F2803D822
:1027B0004C4B494AA521E8E70DF060FDDFF8349164
:1027C00004300DF080FDD9F8000010B10368DB681B
:1027D0009847D9F8000010B103681B689847DFF8E4
:1027E0001881D8F8000010B103685B699847D7F8E2
:1027F0003C0110B103685B689847D8F8000010B13D
:1028000003681B689847D7F83C0110B103689B68C0
:102810009847F068036800215B6A984705460022E4
:10282000314B4260027245F80C3B044628460BF0DF
:1028300031FB142323872D4B1B780022A287002B0A
:1028400035D101232372B068036800215B6A984781
:10285000054601F09FFE7068036800215B6A984797
:102860002946064601F074FE331DC7F83C61C9F8DD
:102870000040C8F80050CAF800302B68C6F808A01D
:102880002846DB68EE639847336830461B689847F4
:10289000214628460FF0C4FE236820461B6998474E
:1028A00023685B69204603B0BDE8F04F1847104B22
:1028B000DFF848B0B3F900300093BBF9003011469F
:1028C0002846FFF737FF28460BF05FFABBF80030C9
:1028D0006387B8E7B84E0208464F02082B5002083B
:1028E0007250020815510208B85D020837430120F2
:1028F0002E430120804301207C4301202C430120F2
:102900002DE9F74FD0E9556A0746B06803681B6A9E
:102910009847B0F5F67F05D2544B554AA321554848
:1029200020F0FEFF706803681B6A98470F2803D8E1
:10293000514B4F4AA421F2E7F06803681B6A98479D
:102940003F2803D84D4B4A4AA521E8E70DF096FCF5
:10295000DFF8389104300DF0B6FCD9F8000010B162
:102960000368DB689847D9F8000010B103681B685A
:102970009847DFF81C81D8F8000010B103685B6944
:102980009847D7F83C0110B103685B689847D8F8BE
:10299000000010B103681B689847D7F83C0110B1DC
:1029A00003689B689847F068036800215B6A984752
:1029B00005460022324B4260027245F80C3B044649
:1029C00028460BF067FA142323872E4B1B7800222E
:1029D000A287002B35D101232372B0680368002140
:1029E0005B6A9847054601F023FE70680368002182
:1029F0005B6A98472946064601F0E6FD331DC7F895
:102A00003C61C9F80040C8F80050CAF800302B6893
:102A1000C6F808A02846DB68EE639847336830465E
:102A20001B689847214628460FF0FAFD2368204688
:102A30001B69984723685B69204603B0BDE8F04FE7
:102A40001847114BDFF84CB0B3F900300093BBF9D5
:102A5000003011462846FFF76DFE28460BF095F929
:102A6000BBF800305B426387B7E700BFB84E02088F
:102A7000B85102082B500208725002081551020882
:102A8000945D0208374301202E430120804301203A
:102A90007C4301202C430120044B1B6893F85820F1
:102AA0000AB1D86C00B99868704700BF384301205C
:102AB000F8B5174604460E460DF0A2FC124B1C60FA
:102AC000124B2360124B0025C4E95135114BC4E968
:102AD00053551868036801219B68C4E94F55C4E940
:102AE00055769847284601F071FBFFF7D5FF17F0A0
:102AF00096FEFFF7D1FF17F00DFFFFF7CDFF17F0A0
:102B000015FF2046F8BD00BF8C4301201C5D020864
:102B1000045D020838430120064BC0F84C31002305
:102B2000C0F8503100F5A273C0F84801C0F8403138
:102B3000704700BFBD2F0008064BC0F84C31002382
:102B4000C0F8503100F5A273C0F84801C0F8403118
:102B5000704700BF6D270008064BC0F84C310023BA
:102B6000C0F8503100F5A273C0F84801C0F84031F8
:102B7000704700BF712E0008064BC0F84C3100238F
:102B8000C0F8503100F5A273C0F84801C0F84031D8
:102B9000704700BF01290008064BC0F84C310023E4
:102BA000C0F8503100F5A273C0F84801C0F84031B8
:102BB000704700BF292D0008064BC0F84C31002398
:102BC000C0F8503100F5A273C0F84801C0F8403198
:102BD000704700BFE12B000803685B6A18470000DC
:102BE0002DE9F14FD0E9556A0746B06803681B6AC2
:102BF0009847B0F5907F05D2434B444AA3214448FF
:102C000020F08EFE706803681B6A98470F2803D86F
:102C1000404B3E4AA421F2E7F06803681B6A9847DC
:102C20000B2803D83C4B394AA521E8E70DF026FBD9
:102C3000DFF8EC9004300DF046FBD9F8000010B13D
:102C40000368DB689847D9F8000010B103681B6877
:102C50009847DFF8D080D8F8000010B103685B69AE
:102C60009847D7F83C0110B103685B689847D8F8DB
:102C7000000010B103681B689847D7F83C0110B1F9
:102C800003689B689847F0680021FFF7A5FF4FF0A5
:102C9000000B224BC0F804B0044680F808B0036073
:102CA000B068036859465B6A9847054601F032FCF4
:102CB0007068036859465B6A98472946064601F0E2
:102CC00007FC331DC7F83C61C9F80040C8F8005044
:102CD000CAF800302B68C6F808A02846DB68EE6307
:102CE0009847336830461B689847214628460FF0BE
:102CF00097FC236820461B69984723685B69204638
:102D000001B0BDE8F04F1847B84E0208A1520208C2
:102D10002B5002087250020815510208705D02081B
:102D2000804301207C4301202DE9F14FD0E9556A11
:102D30000746B06803681B6A9847B0F5907F05D2D4
:102D4000434B444AA321444820F0EAFD70680368DD
:102D50001B6A98470F2803D8404B3E4AA421F2E74C
:102D6000F06803681B6A98470B2803D83C4B394A24
:102D7000A521E8E70DF082FADFF8EC9004300DF0C1
:102D8000A2FAD9F8000010B10368DB689847D9F8B7
:102D9000000010B103681B689847DFF8D080D8F8AE
:102DA000000010B103685B699847D7F83C0110B187
:102DB00003685B689847D8F8000010B103681B6887
:102DC0009847D7F83C0110B103689B689847F068B2
:102DD0000021FFF701FF4FF0000B224BC0F804B0B9
:102DE000044680F808B00360B068036859465B6A1F
:102DF0009847054602F090FB7068036859465B6A85
:102E000098472946064602F065FB331DC7F83C612A
:102E1000C9F80040C8F80050CAF800302B68C6F85E
:102E200008A02846DB68EE639847336830461B6885
:102E30009847214628460FF0F3FB236820461B697C
:102E4000984723685B69204601B0BDE8F04F1847FA
:102E5000B84E02087B5302082B5002087250020839
:102E600015510208705D0208804301207C43012057
:102E70002DE9F14FD0E9556A0746B06803681B6A2F
:102E8000984741F2AF43984205D8444B444AA321A6
:102E9000444820F045FD706803681B6A98470F2876
:102EA00003D8414B3E4AA421F2E7F06803681B6A4D
:102EB00098470B2803D83D4B394AA521E8E70DF088
:102EC000DDF9DFF8F09004300DF0FDF9D9F80000DD
:102ED00010B10368DB689847D9F8000010B10368A7
:102EE0001B689847DFF8D080D8F8000010B103685D
:102EF0005B699847D7F83C0110B103685B68984755
:102F0000D8F8000010B103681B689847D7F83C0157
:102F100010B103689B689847F0680021FFF75CFEDA
:102F20004FF0000B224BC0F804B0044680F808B004
:102F30000360B068036859465B6A9847054601F02C
:102F400069FF7068036859465B6A984729460646D8
:102F500001F088FB331DC7F83C61C9F80040C8F890
:102F60000050CAF800302B68C6F808A02846DB6875
:102F7000EE639847336830461B68984721462846D9
:102F80000FF04EFB236820461B69984723685B6956
:102F9000204601B0BDE8F04F184700BFB84E020808
:102FA000535402082B5002087250020815510208AF
:102FB000705D0208804301207C4301202DE9F14F20
:102FC000D0E9556A0746B06803681B6A9847B0F5B0
:102FD000907F05D2434B444AA321444820F0A0FCF3
:102FE000706803681B6A98470F2803D8404B3E4A15
:102FF000A421F2E7F06803681B6A98470B2803D8FE
:103000003C4B394AA521E8E70DF038F9DFF8EC90A0
:1030100004300DF058F9D9F8000010B10368DB68EE
:103020009847D9F8000010B103681B689847DFF88B
:10303000D080D8F8000010B103685B699847D7F8D2
:103040003C0110B103685B689847D8F8000010B1E4
:1030500003681B689847D7F83C0110B103689B6868
:103060009847F0680021FFF7B7FD4FF0000B224BA7
:10307000C0F804B0044680F808B00360B068036884
:1030800059465B6A9847054601F084FA7068036800
:1030900059465B6A98472946064601F059FA331D9E
:1030A000C7F83C61C9F80040C8F80050CAF80030C1
:1030B0002B68C6F808A02846DB68EE63984733689B
:1030C00030461B689847214628460FF0A9FA236826
:1030D00020461B69984723685B69204601B0BDE81C
:1030E000F04F1847B84E0208255502082B50020829
:1030F0007250020815510208705D020880430120D9
:103100007C430120406A7047806A704770478A8814
:103110000B8810B5D20A4C88C1699BB251F82200C5
:1031200043EA0443184410BD10B50446BAB1107BFD
:1031300068B1537BD27A1B0203F4E0631A43236A1B
:1031400003EB82031A888A4202D193F9020010BD70
:1031500005D8013880B204330028F3D1F7E7002006
:10316000F5E710B52C2104461FF05CFC204610BD8D
:1031700030B58BB00446BDF860500895BDF85C5082
:1031800007959DF8505006959DF84C5005959DF873
:10319000485004959DF8445003959DF84050029581
:1031A0009DF83C500195BDF8385000950EF070FE2A
:1031B000064B2360159BE361169B2362199B636298
:1031C0001A9BA36220460BB030BD00BFDC5D020835
:1031D000806A704770477047704770477047704704
:1031E00070477047704790F82C304BB100F16C027B
:1031F0001268C2653BB100F174031B680366704737
:1032000000F16802F4E700F17003F6E730B4C26839
:1032100044685510034604EB6200D20748BF625968
:103220009B6830BC48BFD35818470346406830B14C
:103230009A681AB9D86800F00100704701207047F9
:1032400090F82D3080F85A30704710B57821044638
:103250001FF0E8FB204610BD10B5102104461FF0FA
:10326000E1FB204610BD10B54FF4907104461FF0ED
:10327000D9FB204610BD10B50446006B50B1036861
:10328000DB68984730B1206B036821469B68BDE836
:103290001040184710BD0B7970B590F82C600446AB
:1032A0000D460BB916B170BD002EFCD0B3FA83F3F6
:1032B0005B0984F82C3023682046D3F88C3098477B
:1032C000236820465B699847002EECD02B79012BB0
:1032D000E9D123682046D3F88830BDE8704018470C
:1032E0006C30884208B505D10CF0C8FFBDE8084035
:1032F000FFF712BC08BD0000074A02600022C0E9C7
:103300000122C0E90322C0E90522C0E907224FF4E7
:1033100080728284704700BF286A020870B5036813
:1033200004461B6B154698472368294620465B6B6D
:10333000BDE870401847000010B526220446002161
:1033400020F0F5FC2046FFF7D7FF044B2360FF2356
:1033500084F826300023A362204610BD9C67020833
:103360002DE9FF470446A04600250EF0ADFF564B61
:10337000E56348F8403B04F16C074046FFF7DCFF8B
:103380003846FFF7B9FF4FF47F43A4F89830012384
:1033900004F1A00984F890304C4BE366C4F89450D3
:1033A000C4F89C504846FFF7C7FF494BC4F8A0300B
:1033B0002A4629464846C4E93555C4E93755C4F874
:1033C000CC50A4F8D05004F1E406FFF7A7FF49461B
:1033D000384607F0E3F84FF6FF7A262229463046B2
:1033E000ADF80CA020F0A3FC3046FFF785FF394B69
:1033F000C4F8E430BDF80C30A4F80A3184F80CA10C
:1034000003A930460AF0CDFF334BC4E94434334BB3
:10341000C4E946354FF4A0732A4600932946404636
:10342000F023FFF787F904F1040A4FF07F43A36606
:10343000414650464FF03C0807F0B0F82A4629466E
:103440004846CDF800808223FFF774F90523A4F8DD
:10345000D030234BC4F8D43003F54C533333C4F885
:10346000D830A3F5CC43663BC4F8DC3003F133130A
:1034700003F54C53C4F8E0303846FFF7B4FE04F5CA
:103480008873C4F89C30E32282233846CDF800804C
:103490003021FFF74FF93946504607F07FF82A46AA
:1034A00029463046FFF73AFF0F2303A93046ADF80F
:1034B0000C300AF076FF5046314607F06FF8204690
:1034C00004B0BDE8F08700BFF85E0208445E020861
:1034D0007868020858690208E05E0208E1320008D4
:1034E000996600FF70477047704730B4C2684468FF
:1034F0005510034604EB6200D20748BF62599B682F
:1035000030BC48BFD35818470346406830B19A686A
:103510001AB9D86800F0010070470120704710B553
:10352000102104461FF07EFA204610BD10B54FF45E
:10353000907104461FF076FA204610BD98308842FC
:1035400008B505D10CF09AFEBDE80840FFF714BBA2
:1035500008BD00002DE9FF470446A04600250EF0F7
:10356000B3FE584BE56348F8403B04F16C07404616
:10357000FFF7E2FE4FF6FF76262229463846ADF8E1
:103580000C6020F0D4FB3846FFF7B6FE4E4BE366E6
:10359000BDF80C30A4F8923003A984F89460384642
:1035A00004F198060AF0FDFE3046FFF7A5FE4FF441
:1035B0007F43A4F8C430012304F1CC0984F8BC3063
:1035C000424BC4F89830C4F8C050C4F8C8504846BC
:1035D000FFF7B2FE3E4BC4F8CC302A462946484697
:1035E000C4E94055C4E94255C4F8F850A4F8FC5069
:1035F000FFF794FE4946304606F0D0FF354BC4E94C
:103600004434354BC4E946354FF4A0732A46009341
:1036100029464046F023FFF78DF804F1040A4FF0E5
:103620007F43A3664146504606F0B8FF2A46294626
:103630003846FFF773FE022303A93846ADF80C3075
:103640000AF0AFFE39465046472706F0A7FF2A4644
:10365000294648460097A023FFF76CF80523A4F8F5
:10366000FC301E4BC4F8003103F54C533333C4F81F
:103670000431A3F5CC43663BC4F8083103F133139E
:1036800003F54C53D4F89880C4F80C313046FFF75A
:10369000AAFD84F8C550D8F890303046984704F514
:1036A0008873C4F8C830A0231A46304600972821F2
:1036B000FFF740F85046314606F070FF204604B050
:1036C000BDE8F087445F020858690208445E0208BA
:1036D000786802082C5F02083D350008996600FFF3
:1036E000704770477047704770477047704730B4F5
:1036F000C26844685510034604EB6200D20748BF15
:1037000062599B6830BC48BFD3581847034640688D
:1037100030B19A681AB9D86800F0010070470120EA
:10372000704730B4C26844685510034604EB620029
:10373000D20748BF62599B6830BC48BFD35818476E
:103740000346406830B19A681AB9D86800F00100A1
:1037500070470120704710B57C2104461FF062F9C4
:10376000204610BD10B5102104461FF05BF920461D
:1037700010BD10B5102104461FF054F9204610BDAD
:1037800010B54FF4F67104461FF04CF9204610BDF9
:1037900070B504460D46FFF77EFDA06F58B1036873
:1037A000DB68984738B1A06F03682A4621469B68BA
:1037B000BDE87040184770BD38B500F1E803994284
:1037C00004460D4606D10368DB6A98470CF056FDA7
:1037D000FFF7C2F904F16C039D4209D1236820462A
:1037E0001B6B98470CF04AFDBDE83840FFF7B4B9B1
:1037F00038BD00F5C870884208B505D10CF03EFD13
:10380000BDE80840FFF788B908BD000070B5044660
:10381000FFF772FD4FF47F432646A3850123002561
:1038200084F824300D4BA562256346F8343B3046BE
:10383000FFF782FD0A4B63632A4629463046C4E9F6
:103840001A55C4E91C552566A4F86450FFF766FDB7
:103850002046314606F0A2FE204670BD445E0208B6
:10386000786802082DE9F04F044689B0A14600258A
:103870000EF02AFD724BE56349F8403B04F16C0AF7
:103880004846FFF759FD04F1E8086E4E4FF0010776
:103890005046FFF7BBFFE66684F89070C4F8E4502A
:1038A0004046FFF7B3FFC4F8E86004F5B27626227D
:1038B000294684F80C71C4F860514FF6FF77304602
:1038C000ADF81C7020F033FA3046FFF715FD5E4B63
:1038D000C4F86431BDF81C30A4F88A3104F5C87B03
:1038E00007A984F88C7130460AF05BFD58460AF04F
:1038F00031FD564BC4E97334554BC4E97535554B0E
:10390000C4E97734544BC4E979354FF4A0732A469F
:10391000009329464846F023FEF70CFF271D4FF081
:103920007F43A366494638464FF0550906F036FEF8
:103930002A46294604F1A000CDF80090C623FEF7E0
:10394000F9FE4FF00503454A4549A4F8D0304548F3
:10395000454BC4E93710C4E935325046FFF743FC04
:1039600004F5E67EC4F89CE0C623D2225046CDF88A
:1039700000901521CDF80CE0FEF7DCFE51463846EC
:1039800006F00CFE2A46294604F58E70CDF800900C
:10399000C623FEF7CFFE344B304A314931484FF051
:1039A000050CA4F84CC1C4E95432C4E95610404691
:1039B000FFF719FC039BC4F818315E22C62340466A
:1039C000CDF800901521FEF7B5FE4146384606F0C9
:1039D000E5FD2A4629463046FFF7A0FC4FF00103DB
:1039E00007A93046ADF81C300AF0DBFC31463846FA
:1039F00006F0D4FD2A4629465846FFF78FFC0A23D5
:103A0000ADF81030ADF814300923ADF81830ADF82A
:103A10001C3007AB009305AA06AB04A958460AF070
:103A200003FC6123C4F8C83104F5EE733846C4F8CA
:103A3000B831594606F0B2FD204609B0BDE8F08F16
:103A400044600208785F020858690208146002089E
:103A5000B93700082C600208F3370008CC9900FF42
:103A6000663300FF996633FF996600FF7047704721
:103A70007047704770477047704730B4C2684468F9
:103A80005510034604EB6200D20748BF62599B6899
:103A900030BC48BFD35818470346406830B19A68D5
:103AA0001AB9D86800F0010070470120704710B5BE
:103AB000102104461EF0B6FF204610BD10B54FF48D
:103AC000517104461EF0AEFF204610BD00F1980370
:103AD000994270B504460D4603D10CF0CFFBFFF7B9
:103AE0002BF804F5D6739D4203D123682046DB6A88
:103AF000984704F588739D4203D1236820461B6BC9
:103B0000984704F1D4039D4203D1236820465B6BA0
:103B1000984704F5B8739D4205D1236820469B6BF6
:103B2000BDE87040184770BD0022C0E90122C0E91D
:103B30000322C0E90522C0E907224FF48072828483
:103B4000014A0260704700BF8060020838B5262233
:103B500004460D46002120F0EAF82046FFF7E4FF76
:103B6000064B23602B88E384FF23204684F828300B
:103B700029460AF016FC204638BD00BF58690208E5
:103B80002DE9F04F2DED028B04468DB0A1460025A6
:103B90000EF09AFBDD4BE56349F8403B26273A4699
:103BA0002946484620F0C3F84846FFF7BDFFD84BEA
:103BB000236404F16C0AFF234FF6FF760BA984F807
:103BC0006630A5665046ADF82C60FFF7BFFF04F1E4
:103BD0009803184602930AF0BDFB04F1D40304F5E0
:103BE000887B184603930AF0B5FB3A4629465846A7
:103BF00020F09DF85846FFF797FF012384F83431F1
:103C0000C44BC4F8103104F5A2730BA9A4F83E61AB
:103C1000A4F8406184F84261C4F8385184F83C51FA
:103C200018460493ADF82C60FFF790FF04F5B873C5
:103C3000184605930AF08EFB04F5D67304F5F47864
:103C4000184604F51E7706930AF084FB0BA940463C
:103C5000ADF82C6009F0F8FB0BA93846ADF82C60E4
:103C600009F0F2FB04F542730BA918460793ADF86F
:103C70002C60FFF76BFFA84B9FEDA88AC4E9CD34F9
:103C8000A74B2A46C4E9CF3529464846FFF746FBED
:103C90004846F021FDF750FB48464FF4A071261D21
:103CA000FDF74CFB4FF07F43A3664946304606F0D4
:103CB00075FC2A4629465046FFF730FB0BA95046B3
:103CC000ADF82C500AF06DFB5146304606F066FC0C
:103CD00002982A462946FFF721FB0A23ADF8203037
:103CE000ADF824300BAB4FF0090909AA02980093F4
:103CF00008A90AAB04F54D7AADF82890ADF82C90E0
:103D00000AF092FA6123C4F8D0300299C4F8C0A036
:103D1000304606F043FC039840F20712BE21FFF73D
:103D2000FDFA0C23ADF82030ADF824300BAB09AA16
:103D30000398009308A90AABADF82890ADF82C9031
:103D40000AF072FA6123C4F80C310399C4F8FCA09C
:103D5000304606F023FC584640F207128C21FFF74C
:103D6000DDFA0B230BAA0AA95846ADF82830ADF8A6
:103D70002C300AF0EFF8C4F838A15946304606F066
:103D80000DFC40F2171204983F21FFF7C7FA0523F4
:103D90000498ADF82C300BA90AF003FB04993046C7
:103DA00006F0FCFB0598D522BE21FFF7B7FA0D23DC
:103DB000ADF82030ADF824300BAB09AA059800937C
:103DC00008A90AABADF82890ADF82C900AF02CFAAF
:103DD0006123C4F8A8310599C4F898A1304606F0CB
:103DE000DDFB069840F207120321FFF797FA0E2336
:103DF000ADF82030ADF824300BAB09AA069800933B
:103E000008A90AABADF82890ADF82C900AF00CFA8E
:103E10005F23C4F8E4310699C4F8D4A1304606F013
:103E2000BDFB882240466FF01D01FFF777FA0BA912
:103E300003234046ADF82C3009F0A8FC394BC4F8F8
:103E4000F031394BC4F81432404684ED868A09F0CB
:103E500047FBDFF8E090DFF8E0A0B7EE000A40464D
:103E600009F0A5FC4046C4F8409209F039FB4046F1
:103E7000C4F82CA2C4F830A2C4F8349209F030FB84
:103E80004046C4F838A2C4F83CA209F029FBB0EEC1
:103E9000481AF0EE480AB0EE480A404609F07FFCA6
:103EA0004146304684F8115206F078FBD422384659
:103EB0002E21FFF733FA0BA908233846ADF82C3032
:103EC00009F064FC4FF09813C4F88032174BC4F823
:103ED000A432174BC4F8A832384609F001FBB7EEFC
:103EE000000A384609F063FCDFF85080C4F8D0922D
:103EF000384609F0F5FA3846C4F8BC82C4F8C082E6
:103F0000C4F8C49209F0ECFA384619E000610208DE
:103F10009C67020804680208E860020800000000CC
:103F2000CD3A000830013001000016430000504235
:103F30000000E04100007A4400001843000098426D
:103F4000C4F8C882C4F8CC8209F0CAFAB0EE481AA4
:103F5000F0EE480AB0EE480A384609F020FC39462F
:103F6000304684F8A15206F019FB4FF48A72079884
:103F70006E21FFF7D3F906230798ADF82C300BA973
:103F80000AF00FFA3046079906F008FB20460DB0FC
:103F9000BDEC028BBDE8F08F7047000030B5164DC8
:103FA0002C6814F001048FB0BFF35B8F20D128463A
:103FB0001EF03AFDE0B13F230993104B0893104BDC
:103FC000104911480A940122CDE906430423CDE9A2
:103FD00003320A230093CDE90B44CDE90144059453
:103FE000FFF7C6F809481FF0B9FC28461EF028FD67
:103FF00005480FB030BD00BF6C2C00204C89020872
:1040000098890208F8870208702C0020993F000860
:104010007047000030B5164D2C6814F001048FB0C5
:10402000BFF35B8F21D128461EF0FEFCE8B13F2391
:104030000993104B0893104B07930123CDE90543D7
:1040400004930423CDE9024314230C49009308226E
:10405000CDE90B440A480A940194FFF789F809480E
:104060001FF07CFC28461EF0EBFC05480FB030BD6D
:104070009C2C0020508902089C89020808880208AC
:10408000A02C0020114000087047000030B5174DEB
:104090002C6814F001048FB0BFF35B8F22D1284647
:1040A0001EF0C2FCF0B13F230993114B0893114B52
:1040B000114912480A94CDE9064301220423CDE9AF
:1040C0000332282300930F222923CDE90B44CDE9A5
:1040D00001440594FFF74CF809481FF03FFC2846BF
:1040E0001EF0AEFC05480FB030BD00BFCC2C002048
:1040F00060890208A089020878880208D02C002074
:104100008940000800207047002070470EB403B5B6
:1041100003AB002153F8042B01930DF037F902B0E3
:104120005DF804EB03B070470CB407B504AB53F86B
:10413000042B01930DF02AF903B05DF804EB02B0F3
:1041400070470000436C10B5044673B3038F2BB95E
:10415000184B194AC52119481FF0E2FBC38E00EB2A
:1041600043035B8C0BB30EF082FF238F012B03D82C
:10417000134B144ACB21EEE7E28E531C9BB2092B62
:10418000194688BFA3F10A0104EB410140F63F1034
:10419000498C814209D10A2B04EB420228BF00233B
:1041A00004EB4303508C588451842046BDE81040F2
:1041B0000EF060BEF755020800560208AB56020822
:1041C000F5560208035702080EF01BBE38B518BB9F
:1041D000124B13481C681349B4B122682244026090
:1041E000626822440A60A26814440F4B00221A80BD
:1041F00000F02AF8054600F025F80C4B1C600C4B2B
:104200001D600C4B188007E00B4B03600B4B0B60E1
:104210000B4B1C68002CE8D138BD00BF082D0020D6
:10422000002D0020FC2C0020042D002090430120B4
:104230009843012094430120B0890208A489020810
:10424000E889020803207047004870470C2D0020C1
:1042500010B5FFF7DFFE044C2060FFF717FF60602A
:10426000FFF79CFEA06010BD0C2D002010B50024AF
:1042700004600C6014601C6010BD7047704770478C
:10428000704730B4C26844685510034604EB6200BE
:10429000D20748BF62599B6830BC48BFD358184703
:1042A0000346406830B19A681AB9D86800F0010036
:1042B00070470120704710B5102104461EF0B2FB74
:1042C000204610BD10B54FF4907104461EF0AAFBB5
:1042D000204610BD00F16C028A4208B508D103687F
:1042E000DB6A98470BF0CAFFBDE80840FEF734BC14
:1042F00008BD00002DE9FF470446A04600250DF04B
:10430000E3FF564BE56348F8403B04F16C07404639
:10431000FFF712F83846FEF7EFFF4FF47F43A4F89B
:104320009830012304F1A00984F890304C4BE366E7
:10433000C4F89450C4F89C504846FEF7FDFF494B22
:10434000C4F8A0302A4629464846C4E93555C4E990
:104350003755C4F8CC50A4F8D05004F1E406FEF769
:10436000DDFF4946384606F019F94FF6FF7A262256
:1043700029463046ADF80CA01FF0D9FC3046FEF7B8
:10438000BBFF394BC4F8E430BDF80C30A4F80A3157
:1043900084F80CA103A930460AF003F8334BC4E9B2
:1043A0004434334BC4E946354FF4A0732A46009396
:1043B00029464046F023FEF7BDF904F1040A4FF008
:1043C0007F43A366414650464FF0320806F0E6F8B8
:1043D0002A4629464846CDF800803A23FEF7AAF936
:1043E0000523A4F8D030234BC4F8D43003F54C5344
:1043F0003333C4F8D830A3F5CC43663BC4F8DC3083
:1044000003F1331303F54C53C4F8E0303846FEF79C
:10441000EAFE04F58873C4F89C30E0223A2338465B
:10442000CDF800805721FEF785F93946504606F051
:10443000B5F82A4629463046FEF770FF102303A937
:104440003046ADF80C3009F0ACFF5046314606F06E
:10445000A5F8204604B0BDE8F08700BF5C61020803
:10446000445E02087868020858690208446102083C
:10447000D5420008996600FF704710B54FF4AE7141
:1044800004461EF0CFFA204610BD10B50446D0F801
:10449000580100F04EF82046BDE810400BF070BF08
:1044A00010B50446FEF704FB014B2360204610BD07
:1044B00094610208704704387047704710B51021A6
:1044C00004461EF0AFFA204610BDA0F10400F5E747
:1044D00000228260024A026018324260C160704766
:1044E000E86102087047000010B5034B0360044602
:1044F000FEF777FE204610BD1062020810B5044694
:10450000FFF7F2FF20464FF490711EF08BFA204621
:1045100010BD000010B50446FEF722FF014B2360DA
:10452000204610BD10620208FEF75CBE0022026049
:1045300070477047704704387047704710B51021B6
:1045400004461EF06FFA204610BDA0F10400F5E706
:1045500000228260024A026018324260C1607047E5
:10456000446202087047000010B5034B0360044624
:10457000FEF7B9FF204610BD6C62020810B5044674
:10458000FFF7F2FF20464FF490711EF04BFA2046E1
:1045900010BD000010B50446FEF7DCFF014B2360A0
:1045A000204610BD6C620208FEF79EBF70470438BB
:1045B0007047704710B5102104461EF033FA2046AC
:1045C00010BDA0F10400F5E700228260024A0260FB
:1045D00018324260C1607047A06202087047000054
:1045E000034B00221A60034B03221A60704700BF7E
:1045F000202D00201C2D0020014B01221A60704745
:10460000202D002010B5034B03600446FFF76DF822
:10461000204610BDC862020810B50446FFF7F2FF3D
:1046200020464FF4F6711EF0FDF9204610BD000043
:1046300010B50446FFF716F9014B2360204610BD64
:10464000C8620208FFF752B87047043870477047D5
:1046500010B5102104461EF0E5F9204610BDA0F16A
:104660000400F5E700228260024A026018324260CC
:10467000C16070470463020870470123C0F84833E3
:1046800070470123C0F84C337047000010B5D0F8D4
:1046900058332DED048B0446A3BBD0F84433DFED33
:1046A000266A9FED267AB3F5B47FB0EE088A2FD242
:1046B000C3F5B47307EE903AF8EEE77A67EEA67AA0
:1046C00087EE879AB0EE490A1EF038FA60EE088A43
:1046D000B0EE490A1EF0EEF9B4F90C33C4EDD78AF6
:1046E00007EE903AB4F90E33F8EEE77A20EE088A36
:1046F000C4EDD97A07EE903AF8EEE77A84EDD88ADD
:10470000C4EDDA7ABDEC048B0123C4F8583310BD34
:10471000A3F5B47307EE903AF8EE677A67EEA67ADF
:1047200087EE879AB0EE490A1EF008FAF8EE087A8A
:1047300060EE278ACCE700BFC3F548400000344351
:1047400038B5094B0360044641F27845B5F5527F10
:1047500005D0635960191B6898472C3DF6E7204641
:10476000FFF789F9204638BD3063020810B50446CA
:10477000FFF7E6FF204641F2B0411EF053F9204614
:1047800010BD0268D0ED0E0AD26FB0EE401A90ED67
:104790000D0A1047F0B5174D174A2C680021134633
:1047A0008C4202F10C021EDC14480268C2F10106C0
:1047B00006600C20002A00FB043300FB02F24FF0DD
:1047C000000014BF09210A21074601260130814259
:1047D000C3E900279E6002F1180203F10C03F5D132
:1047E00021442960F0BD52F8080C183042F8080C3A
:1047F0000131D5E79031002098310020943100201C
:104800002DE9F043ADF23C4D6A465A23174600218C
:104810000120013BC2E90011906002F10C02F8D1C5
:10482000DFF85CC0154CDCF800801D46A6464FF052
:104830000C0998450ADCCCF8005000244FF00C0C11
:10484000A54210DC0DF23C4DBDE8F083A268042ABD
:10485000DFBF94E8070009FB057686E8070001350D
:1048600001330C34E5E70CFB04F30EEB03063B4489
:1048700093E80700013486E80700E1E7983100205B
:104880009031002082B084B00DF1100C042A0CE9A4
:104890000700059309DC079A042A06DC02469A42BF
:1048A0000846069903D1884205D1002009E0D21AB2
:1048B0001832302AF9D8401A183030288CBF00201E
:1048C000012004B002B070472DE9F04FADF26C4DFD
:1048D00005AB83E807000CAA5A24174600210120E3
:1048E000013CC2E90011906002F10C02F8D193E89A
:1048F0000700274BDFF8A4B01B68049387E8070084
:1049000009AE4FF00C0A0AFB047393E8070086E82F
:104910000700DFF88C901F4D0392013C4FF0000818
:10492000049B434505DC002CEDDA0DF26C4DBDE82F
:10493000F08F039BB360174B0AFB08320AAB93E876
:1049400003008DE8030007CA3368FFF79BFFC0B17F
:10495000AB68039A934214D1D9F800308BB9DBF8D5
:1049600000305A1CCBF800200B4A42F8238095E80F
:10497000070001231C44C9F800300AFB047383E8D4
:10498000070008F1010809F104090C35C8E700BF68
:104990009031002098310020283000202430002061
:1049A000242D00202DE9F04FADF2644D03AB83E8D8
:1049B00007000AAA5A24164600210120013CC2E938
:1049C0000011906002F10C02F8D193E807001F4B30
:1049D000DFF87CB01B68029386E8070007AD4FF054
:1049E0000C0A0AFB046393E8070085E80700DFF878
:1049F0006490013C4FF00008029B434505DC002C0D
:104A0000EFDA0DF2644DBDE8F08F0AFB08F30BEB13
:104A10000307D7E901018DE8030095E807005BF87B
:104A20000330FFF72FFF60B1D9F800304BB997E89A
:104A3000070002230134C9F800300AFB046383E84D
:104A4000070008F1010809F10409D5E790310020B9
:104A500098310020BC2E00202DE9F04F3E4B3F4FF7
:104A6000D3F800A08FB0044600254FF00C0B00F1E6
:104A70000408AA451CDC6368002B68DC0023636023
:104A8000374B226819680C23C1F1010159431820E2
:104A9000531A93FBF0F34343581818330B44151A79
:104AA000D21A52436D43AA42B8BF184620604EE066
:104AB00098E803008DE803000BFB05F907EB0906F6
:104AC00096E807002368FFF7DDFE002842D057F87C
:104AD00009107068A1F10C0501F10C0201F1180632
:104AE00003951839079565680292CDE90512CDE95D
:104AF0000A0000F118011838CDE90811CDE90C00C1
:104B0000691A9A1A4943049602FB02120DF1080E23
:104B10000DF1200C012700265CF8040F5EF8041F3D
:104B2000281A591A404301FB01019142B8BF3E4681
:104B300007F10107B8BF0A46062FEDD10EAB03EB14
:104B4000860353F8302C53F8183C226063600FB092
:104B5000BDE8F08F01358CE79031002098310020BE
:104B6000943100202DE9F04FADF23C4D8046FFF727
:104B700073FF6B465A259E4600220121013DC3E981
:104B80000022996003F10C03F8D1594E594CD6F824
:104B900000A027462B46A1464FF00C0BAA4503F177
:104BA000010C5CDC00254FF00C0AAB4266DC524D78
:104BB000524FC6F800C001222A60514A136098E89B
:104BC00007004FF00C0E0EFB039E8EE807004D49C8
:104BD0004FF0000AC7F800A052460846D646624584
:104BE00056DB012240F8232098E80700FFF76CFE0F
:104BF0002A68022A2FDD444DD6F800E0002329461A
:104C0000AB4618469E4547DC3D4900234FF0010C5A
:104C100051F8040B01339A424BF820C0F8D1002020
:104C20003B68DFF8E480DFF8CCC0DFF8E0A00246A4
:104C3000964535DC00B13B60DFF8D0A04FF00008AE
:104C40003A6842454FF00C0338DC316800230620F7
:104C5000052699423FDC0DF23C4DBDE8F08FBA6865
:104C6000042ADEBF97E807000BFB03E383E8070095
:104C700005F10105D8BF63460C378FE70AFB05F243
:104C800009EB0207724407CA013587E807008CE781
:104C900041F804EB0132A2E741F8040B0133B1E71C
:104CA00058F8041B31B9DCF8041019B94AF823206C
:104CB0000120013301320CF10C0CB9E75AF8042B36
:104CC00002214BF8221003FB029207CAFFF76AFE8B
:104CD00008F10108B4E755F8042B22B1012A04D0E9
:104CE00001330C34B5E7A060FAE7A660F8E700BF2F
:104CF0009031002098310020243000208C2E00209C
:104D000028300020242D0020BC2E0020902E0020D2
:104D1000094B1968094B0022914201DC00207047C1
:104D20009868042802DC5868DF2802DC01320C3362
:104D3000F2E70120704700BF903100209831002039
:104D40002DE9F04186B003AC0E4B0F4E1F6884E88E
:104D5000070000254FF00C08AF4203DC002006B02E
:104D6000BDE8F08108FB05F3F218D2E901018DE8F6
:104D7000030094E80700F358FFF784FD0128EED004
:104D80000135E9E7903100209831002002390229ED
:104D90009ABF024B585C0620704700BF246302088C
:104DA00073B5D0E9D431C0E9D413044600F5427696
:104DB000FFF7ECFF01A9ADF80400304609F0F1FA65
:104DC000D4F854132046FFF7E1FF04F5A275ADF8BF
:104DD000040001A9284609F0E4FA30460CF000FC72
:104DE000284602B0BDE870400CF0FABB10B5074B86
:104DF000074A196800231846994200DC10BD9468E0
:104E0000042CD8BF013001330C32F5E7903100207B
:104E1000983100202DE9F7430646FEF7B1FE234BFB
:104E2000336000254FF49173C6E9D13506F5A557D7
:104E30000023DFF87C90C6F84C53C6F85853C6F8E8
:104E40005C33C6F8603306F55D7404374FF6FF78BF
:104E50000123A580E58025816581A581E5812582E5
:104E60006582E5612584658484F8245084F82530C2
:104E7000C4F80090A4F8268084F82880C4E9055579
:104E8000204601A92C34ADF8048009F08AFABC420E
:104E9000DED106F580533046C3F8A454C3F8A854B5
:104EA000C3F8AC5403B0BDE8F08300BF3063020820
:104EB00058690208054B5A2200210120013AC3E932
:104EC0000011986003F10C03F8D17047983100206D
:104ED0002DE9F74F044600F55D75002600F5805A70
:104EE000071DDAF8A434B3420FDC0023264EDFF8A6
:104EF0009C8025461F469946CAF8A434D8F800304D
:104F0000BB420DDC03B0BDE8F08F2B6828465B691F
:104F100098472946384605F082FB01362C35E0E7F4
:104F2000B168D5F874330429C8BF85F89993204631
:104F30001A6EFFF72BFF05F55D7BADF8040001A9A4
:104F4000584690477268B6F900101E3212B25846A1
:104F5000FEF7E4F9DAF8A4142C2359436318D3F8C4
:104F600088332BB901F55D712144201D05F016FB36
:104F7000D5F8743358465B699847DAF8A43401379A
:104F800001332C350C36B7E79831002090310020E2
:104F90002DE9F04FD0F848332DED028B012B85B071
:104FA000044603D0C24B1B88632B35D8D4F8443356
:104FB000DFEDC08A9FEDC08AB3F5917F84BF03F116
:104FC000FF33C4F84433D4F844334FF4B475B3FB1F
:104FD000F5F205FB123300EE103AB8EEC00A04F504
:104FE0001E7020EE280A80EE080AFFF7CAFBD4F8EC
:104FF0004433B3FBF5F205FB123304F5F47000EE15
:10500000103AB8EEC00A20EE280A80EE080AFFF730
:10501000B8FB0023C4F84833D4F84C33012B05D037
:10502000A34B1A8840F6D2739A4234D9D4F8443349
:10503000DFEDA08A9FEDA08AB3F5D77F3CBF013397
:10504000C4F84433D4F844334FF4B475B3FBF5F2E9
:1050500005FB123300EE103AB8EEC00A04F51E70DC
:1050600020EE280A80EE080AFFF78BFBD4F84433C1
:10507000B3FBF5F205FB123304F5F47000EE103AC1
:10508000B8EEC00A20EE280A80EE080AFFF779FB86
:105090000023C4F84C33D4F85833012B04F5805561
:1050A00059D1B4F90E93D4F85033B4F90C73019775
:1050B000A9F11E02CDE902230DF1040898E80700CA
:1050C000FFF73EFE04F5427670BBB9F11D0F2BDDF4
:1050D000013FBFB2D62F05D9D4EDD77AF1EE677A6A
:1050E000C4EDD77AD4EDD97A94EDD77A77EEC77A32
:1050F00094EDD87AC4EDD97AD4EDDA7A77EEC77A1E
:105100003046C4EDDA7A0CF06BFA94EDDA7AD4ED2D
:10511000D97ABDEEC77AFDEEE77A17EE103A1AB2E9
:1051200017EE903A19B210E00023C4F85833012367
:10513000C5F8A8344046FFF715FD30460CF050FA8C
:10514000029ABDF904101E3212B23046FEF7E6F89C
:1051500030460CF045FAD5F8A834012B6AD1DFF8B7
:105160005C81DFF860B1DFF868A1C5F8AC34264691
:105170000027DBF80020013ABA422EDC4F490C230D
:1051800003FB0219D9F80830052B53D104F54276F8
:1051900030460CF025FAB4F80E330333A4F80E337E
:1051A00030460CF01DFAB4F90E33B3F5A07F41DAA6
:1051B0000023C5F8AC34424B1A88012A62D1D4F8D6
:1051C0005823002A5ED11A802368DB6A204605B086
:1051D000BDEC028BBDE8F04F1847D8F80820053A1F
:1051E000012A22D8D6F8742306F55D7052698146EB
:1051F0009047B6F87A13D6F874230331526B09B28C
:1052000048469047D6F87423484652699047DAF8E2
:105210000020002312B90122CAF80020B6F97A232F
:10522000B2F5A07FB8BFC5F8AC3401372C3608F111
:105230000C089EE7D5F8AC040128BCD1214A1F49CF
:1052400012680023C5F8A834013AC4F858332C2654
:10525000C5F8AC3404F299359A4218DCFFF7D0FA5D
:10526000194B1B68002B52D1FFF7C0FD90BBD4F83F
:105270006C33BBB90BF002F8FDF78EFC134A1368D0
:105280000133136005B0BDEC028BBDE8F08F8F6871
:10529000052F08BF06FB03F701F10C0108BFE85515
:1052A0000133D9E7013BC4F86C33FFF773FA1EE012
:1052B000F6290020C3F5484000003443983100200F
:1052C000F429002090310020202D00201C2D0020EA
:1052D000182D00202E4B1B680BBBD4F86C3333B158
:1052E000FFF758FAD4F86C33013BC4F86C3320460E
:1052F000FFF7EEFDFFF70CFD012814D10AF0BEFF09
:1053000005B0BDEC028BBDE8F04FFDF755BCFFF7D3
:105310006DFD0028C9D01E4B1B68002BC5D01C4B4F
:1053200000221A60E3E704F5427504F5A2762846E8
:105330000CF056F930460CF053F94FF48A726E2196
:105340002846FDF7EBFF0123D4F85413C4F850139B
:10535000C4F854332046FFF719FD01A9ADF8040045
:10536000284609F01EF8D4F854132046FFF70EFD26
:1053700001A9ADF80400304609F013F828460CF0F6
:105380002FF930460CF02CF90023C4F8583312E7FB
:10539000182D0020F0B52DED028B83B004464FF49C
:1053A000B475FEF769FB4FF4876200213848DFEDE2
:1053B000398A9FED398A1EF0BAFC2A460021374807
:1053C0001EF0B5FC2A46002135481EF0B0FC2A46E6
:1053D000002134481EF0ABFC2C22002132481EF084
:1053E000A6FC324A00231360314A1360314B1B681C
:1053F000C4F86C3304F542770123C4E9D43301A91E
:1054000006233846ADF8043008F0CBFFD4F8541327
:105410002046FFF7BBFC04F5A27601A9ADF8040015
:10542000304608F0BEFFD4F84433B3FBF5F205FB79
:10543000123300EE103AB8EEC00A04F5F47020EE14
:10544000280A80EE080AFFF79CF9D4F84433B3FB2E
:10545000F5F205FB123304F51E7000EE103AB8EEBB
:10546000C00A20EE280A80EE080AFFF78AF93846BB
:105470000CF0B6F830460CF0B3F8FFF78BF9204685
:1054800003B0BDEC028BBDE8F040FFF721BD00BFCB
:1054900098310020C3F5484000003443BC2E002062
:1054A000242D002028300020902E00209031002054
:1054B000943100201C2D002070470438704770473D
:1054C00010B5102104461DF0ADFA204610BDA0F124
:1054D0000400F5E700228260024A0260183242604E
:1054E000C1607047746302087047000010B5034B39
:1054F00003600446FEF7C3FE204610BD9C6302080D
:1055000010B50446FFF7F2FF20464FF490711DF0EE
:1055100089FA204610BD000010B50446FEF7EAFEE9
:10552000014B2360204610BD9C630208FEF7A8BE15
:10553000F02070474FF4A07070472920FCF7EEBBB5
:105540002820FCF7EBBB08B5FCF7BCFBCA20FCF736
:10555000E5FBC320FCF7C6FB0820FCF7C3FB50208B
:10556000FCF7C0FBCF20FCF7D9FB0020FCF7BAFB0F
:10557000C120FCF7B7FB3020FCF7B4FBED20FCF7B3
:10558000CDFB6420FCF7AEFB0320FCF7ABFB122045
:10559000FCF7A8FB8120FCF7A5FBE820FCF7BEFB8D
:1055A0008520FCF79FFB0020FCF79CFB7820FCF794
:1055B00099FBCB20FCF7B2FB3920FCF793FB2C20A6
:1055C000FCF790FB0020FCF78DFB3420FCF78AFBF6
:1055D0000220FCF787FBF720FCF7A0FB2020FCF75C
:1055E00081FBEA20FCF79AFB0020FCF77BFB002004
:1055F000FCF778FBB120FCF791FB0020FCF772FB75
:105600001B20FCF76FFBB620FCF788FB0A20FCF799
:1056100069FBA220FCF766FBC020FCF77FFB102093
:10562000FCF760FBC120FCF779FB1020FCF75AFB6C
:10563000C520FCF773FB4520FCF754FB1520FCF755
:1056400051FBC720FCF76AFB9020FCF74BFB362090
:10565000FCF764FBC820FCF745FBF220FCF75EFB7F
:105660000020FCF73FFBB020FCF758FBC220FCF702
:1056700039FBB620FCF752FB0A20FCF733FBA720CE
:10568000FCF730FB2720FCF72DFB0420FCF72AFB5E
:105690002A20FCF743FB0020FCF724FB0020FCF74A
:1056A00021FB0020FCF71EFBEF20FCF71BFB2B204F
:1056B000FCF734FB0020FCF715FB0020FCF712FB85
:1056C0000120FCF70FFB3F20FCF70CFBF620FCF75A
:1056D00025FB0120FCF706FB0020FCF703FB06205E
:1056E000FCF700FB2C20FCF719FBC820FCF764FB3F
:1056F0002620FCF713FB0120FCF7F4FAE020FCF76E
:105700000DFB0F20FCF7EEFA2920FCF7EBFA242022
:10571000FCF7E8FA0C20FCF7E5FA0E20FCF7E2FAB9
:105720000920FCF7DFFA4E20FCF7DCFA7820FCF7C2
:10573000D9FA3C20FCF7D6FA0920FCF7D3FA13205B
:10574000FCF7D0FA0520FCF7CDFA1720FCF7CAFACF
:105750001120FCF7C7FA0020FCF7C4FAE120FCF79F
:10576000DDFA0020FCF7BEFA1620FCF7BBFA1B207E
:10577000FCF7B8FA0420FCF7B5FA1120FCF7B2FAEE
:105780000720FCF7AFFA3120FCF7ACFA3320FCF726
:10579000A9FA4220FCF7A6FA0520FCF7A3FA0C2090
:1057A000FCF7A0FA0A20FCF79DFA2820FCF79AFAE9
:1057B0002F20FCF797FA0F20FCF794FA1120FCF742
:1057C000ADFAC820FCF7F8FA2920FCF7A7FABDE8E3
:1057D00008402C20FCF7A2BA08B5FCF773FA0321A5
:1057E000D320FCF7B7FA80B208BD10B5C4B20222CC
:1057F00003212046FCF71CFA0A20FCF761FA204638
:1058000000220321FCF714FABDE810400220FCF747
:1058100057BA38B50446E4B2FCF708FA002120462E
:10582000FCF71EFA012105462046FCF719FA40EA6A
:10583000052080B238BD10B5C4B240212046FCF727
:105840000FFA030607D54C212046FCF709FA003869
:1058500018BF012010BD01224B212046FCF7E8F9BA
:10586000204600224B21FCF7E3F90020F2E773B554
:105870000423C4B20E461546D7210DEB0302204681
:10588000FCF708FA019B1BBA1A0DC3F30B233280F5
:1058900020462B8001224B21FCF7CAF900224B2124
:1058A0002046FCF7C5F902B070BD000010B50A4AE9
:1058B0001378984204460DD0517888420AD00BB133
:1058C00041B90123D454FCF7B1F92046BDE810409A
:1058D000FFF78BBF10BD00BFD035002010B5C4B29C
:1058E00009212046FCF7BCF940F00102D2B2204663
:1058F0000921BDE81040FCF79BB910B5C4B20921DD
:105900002046FCF7ADF9092100F0FE022046BDE873
:105910001040FCF78DB938B5C4B20D4620460A21B7
:10592000FCF79EF940EA0502D2B220460A21BDE802
:105930003840FCF77DB910B50446FCF778F92046ED
:105940001F21FFF7E8FF2046BDE81040FFF7C6BF64
:1059500038B5C4B20D4620460A21FCF781F920EA89
:105960000502D2B220460A21BDE83840FCF760B9F2
:1059700010B50446FFF7C1FF20461F21BDE81040C7
:10598000FFF7E6BF10B5C0B20C460B21FCF768F973
:10599000204010BD1F21FFF7F5BF0A46C0B20B2102
:1059A000FCF746B91F21FFF7F8BF38B5C4B20D4662
:1059B00020461721FCF754F920EA0502D2B220460E
:1059C0001721BDE83840FCF733B970B5C4B20646BC
:1059D00004212046FCF744F9042100F0FB020546AF
:1059E0002046FCF725F93046F021FFF7DEFF05F0F1
:1059F000F80220460421FCF71BF949222021204609
:105A0000FCF716F90220FCF75BF920460122212160
:105A1000FCF70EF920469A224121FCF709F92046AD
:105A200001224A21FCF704F9204601224B21FCF710
:105A3000FFF8204600224B21FCF7FAF8204601220D
:105A40005621FCF7F5F8204601225821FCF7F0F822
:105A5000204601224021FCF7EBF82046FF220B21D3
:105A6000FCF7E6F8BDE870400220FCF729B9000019
:105A7000054BD3F8882042F47002C3F888204FF019
:105A800000629A60704700BF00ED00E008B50B4B64
:105A90001A6842F400721A601A6842F480621A604E
:105AA0001A6842F480721A60032000F045FA002060
:105AB000FCF7F6FBFCF78EF9002008BD003C024025
:105AC000034A044B11681B780B441360704700BFF6
:105AD000D435002078000020014B1868704700BFC3
